:020000020000FC
:100000000C94B20918951895189518951895189587
:100010001895189518951895189518951895189578
:1000200018951895189518950C949C041895189582
:1000300018951895189518950C946A0418951895A4
:100040000C94750418951895189518951895189589
:100050001895189518951895189518951895189538
:100060001895189518951895189518951895189528
:1000700018951895189518950C94A7041895189527
:100080000C94EC0418951895189518959801890109
:1000900001501040232BD1F70895AC0107C084E331
:1000A00098E0FC01CF010197EF2BD9F79801890166
:1000B00001501040232B99F7CA01089500B5046040
:1000C00000BDA89501B5086101BD00E001BD0AB3FE
:1000D0000E630ABB17B30FEF07BB24B30FEF04BBCC
:1000E00002B10B6F02B90FEF0093640000E00093C0
:1000F00065001B9A1C98A8980FEF02BB089500E0BA
:1001000010EE21E030E041E045BF42E045BFF8019C
:100110000995089500E000935D0100E000935E0101
:1001200054D00895013039F4DB9A0AE010E00E94BF
:100130004D00D99A0895D9980AE010E00E944D0028
:10014000DB980895013039F4C09A0AE010E00E946B
:100150004D00DA9A0895DA980AE010E00E944D0006
:10016000C09808951B98102F10FDC29A10FFC298D6
:1001700004E610E00E9446000895102F10FDC49A76
:1001800010FFC49804E610E00E944600089500E0C5
:10019000C0990260C299046008958A93802F81FB00
:1001A00016F401E001C000E0CDDF04E110E00E94A0
:1001B0004D0082FB16F401E001C000E0D3DF08EC43
:1001C00010E00E944D008991089500E0ABDF00E04F
:1001D000B9DF00E0C7DF00E0D0DF0895002311F4AD
:1001E000DD980895DD9A08951A9A01E010E00E94C2
:1001F00046001B9A01E010E00E9446001A9801E0B8
:1002000010E00E9446001B9801E010E00E944600AA
:1002100008951B9801E010E00E9446001A9801E042
:1002200010E00E9446001B9A01E010E00E94460088
:100230001A9A01E010E00E94460008959A938A936A
:10024000C80101E00093610102E00093610101E057
:1002500010E00E944600C8DF01E00093610102E067
:100260000093610101E010E00E94460000915F01EF
:10027000BED200E010E0E2E6F1E0008311831BC093
:1002800001E00093610102E000936101E2E6F1E028
:1002900000811181F801E853FE4F0081A8D201E0EE
:1002A00010E00E944600E2E6F1E0008111810F5F5C
:1002B0001F4F00831183E2E6F1E0008111810817EE
:1002C0001907F0F201E00093610102E0009361017F
:1002D000A0DF01E00093610102E00093610101E011
:1002E00010E00E9446008991999108950E94CE09DC
:1002F000D8017ADF01E010E00E9446000091600121
:1003000076D200E010E0E2E6F1E0008311833EC027
:100310001A9A0091650000610093650001E0009366
:10032000610102E00093610101E010E00E944600DB
:100330001B9A0091650008600093650001E000933E
:10034000610102E00093610101E010E00E944600BB
:100350001B9800916500077F0093650001E010E0A5
:100360000E94460001E010E00E944600E2E6F1E053
:1003700000811181F801EC59FE4F8083E2E6F1E043
:10038000008111810F5F1F4F00831183E2E6F1E0CE
:10039000008111810A171B0708F018C20EEE02B97E
:1003A00080E01A9A0091650000610093650001E009
:1003B0000093610102E00093610101E010E00E94FE
:1003C000460001E010E00E9446000AEE02B901E09A
:1003D0000093610102E0009361011B9A00916500A6
:1003E00008600093650001E00093610102E0009362
:1003F000610101E010E00E94460001E010E00E946F
:10040000460001E010E00E9446000A9B07C0806899
:100410000091650000610093650006C08F77009130
:1004200065000F7E009365001B9800916500077FB3
:100430000093650001E00093610102E00093610117
:1004400001E010E00E94460001E010E00E9446003A
:100450001B9A0091650008600093650001E000931D
:10046000610102E00093610101E010E00E9446009A
:1004700001E010E00E94460001E010E00E9446000A
:100480000A9B07C0806400916500006100936500CD
:1004900006C08F7B009165000F7E009365001B985E
:1004A00000916500077F0093650001E00093610102
:1004B00002E00093610101E010E00E94460001E0CB
:1004C00010E00E9446001B9A0091650008600093AE
:1004D000650001E00093610102E00093610101E029
:1004E00010E00E94460001E010E00E94460001E09A
:1004F00010E00E9446000A9B07C0806200916500E0
:1005000000610093650006C08F7D009165000F7E3D
:10051000009365001B9800916500077F00936500BC
:1005200001E00093610102E00093610101E010E04D
:100530000E94460001E010E00E9446001B9A0091D4
:10054000650008600093650001E00093610102E02E
:100550000093610101E010E00E94460001E010E01C
:100560000E94460001E010E00E9446000A9B07C07E
:1005700080610091650000610093650006C08F7E78
:10058000009165000F7E009365001B980091650047
:10059000077F0093650001E00093610102E0009392
:1005A000610101E010E00E94460001E010E00E94BD
:1005B00046001B9A0091650008600093650001E009
:1005C0000093610102E00093610101E010E00E94EC
:1005D000460001E010E00E94460001E010E00E94A9
:1005E00046000A9B07C08860009165000061009387
:1005F000650006C0877F009165000F7E009365004F
:100600001B9800916500077F0093650001E000934F
:10061000610102E00093610101E010E00E944600E8
:1006200001E010E00E9446001B9A009165000860FE
:100630000093650001E00093610102E00093610115
:1006400001E010E00E94460001E010E00E94460038
:1006500001E010E00E9446000A9B07C08460009100
:10066000650000610093650006C08B7F0091650006
:100670000F7E009365001B9800916500077F009333
:10068000650001E00093610102E00093610101E077
:1006900010E00E94460001E010E00E9446001B9A14
:1006A0000091650008600093650001E0009361011E
:1006B00002E00093610101E010E00E94460001E0C9
:1006C00010E00E94460001E010E00E9446000A9BF4
:1006D00007C082600091650000610093650006C05C
:1006E0008D7F009165000F7E009365001B9800913F
:1006F0006500077F0093650001E00093610102E05F
:100700000093610101E010E00E94460001E010E06A
:100710000E9446001B9A00916500086000936500E6
:1007200001E00093610102E00093610101E010E04B
:100730000E94460001E010E00E94460001E010E047
:100740000E9446000A9B07C081600091650000611D
:100750000093650006C08E7F009165000F7E0093B8
:1007600065001B9800916500077F0093650001E01C
:100770000093610102E00093610101E010E00E943A
:10078000460001E010E00E9446000EEE02B901E0D2
:1007900010E00E94460001E00093610102E0009336
:1007A000610101E010E00E944600E2E6F1E0008114
:1007B0001181FD0131970E171F0708F0A9CD1A9876
:1007C000009165000F7E00936500A8CD22DDE4E076
:1007D0000C94D5099A938A93C9010093C80101E04A
:1007E00010E02CDD8C0182DD8991999108959A9316
:1007F0008A93902F0EEE02B980E01EC01A980091E5
:100800006500006100936500990F1B9A00916500D7
:1008100008600093650001E00093610102E000932D
:10082000610101E010E00E9446001B980091650004
:10083000077F009365008395883048F497FBF6F6B0
:100840001A9A00916500006100936500DDCF0AEE01
:1008500002B91A9A0091650000610093650001E0F9
:100860000093610102E00093610101E010E00E9449
:1008700046001B9A0091650008600093650001E046
:100880000093610102E00093610101E000936101C6
:1008900002E00093610101E00093610102E0009336
:1008A000610101E010E00E9446000EEE02B901E095
:1008B0000093610102E00093610101E010E00E94F9
:1008C00046001B9800916500077F009365008991A1
:1008D000999108952A931A930A931FB72BB72BBFA8
:1008E0001FBF09911991299118959A938A93FA93A8
:1008F000EA933A922A921A920A927A936A935A93B4
:100900004A933A932A931A930A938FB79BB70E94FC
:100910007D059BBF8FBF099119912991399149910B
:100920005991699179910990199029903990E9919B
:10093000F9918991999118952A931A930A931FB75F
:100940002BB72BBF1FBF09911991299118959A9325
:100950008A93FA93EA935A934A933A932A931A936F
:100960000A934FB75BB700919C00E0E9FAE0208161
:100970003181F901E955F94F0083E0E9FAE000819E
:100980001181F801E955F94F0081033229F4EFE8AC
:10099000FAE0008103950083E0E9FAE0808191812B
:1009A0000196E0E9FAE080839183883E03E09007B6
:1009B00030F000E010E0E0E9FAE0008311835BBF73
:1009C0004FBF099119912991399149915991E99113
:1009D000F9918991999118952A931A930A931FB7BF
:1009E0002BB72BBF1FBF0991199129911895F89426
:1009F0000E945E00DC9AC79800916500077F009313
:100A00006500009165000F7E009365000E948A00DA
:100A10000E94B4080E94A1060E94370504ED0093CD
:100A20005F0105ED00936001C79A009165000860C1
:100A30000093650000916500006100936500789463
:100A4000089503E010E00E944D00D1DF01E00E9414
:100A5000EE0000918F0A013038F00E944907EFE85C
:100A6000FAE000810A9500830E949005EFCF00E034
:100A700007BF00E002BF00E003BF00E000932C02CC
:100A800000E000932D0200E000932E0206EC00939C
:100A9000300204E60093310200E000933202089530
:100AA00000912E02013090F000912C020023F9F405
:100AB00001E000932C0200E00093320201E007BF46
:100AC0000091300202BF06E003BF089500912E029C
:100AD000002369F400912C02013049F400E00093F6
:100AE0002C0200E007BF00E002BF00E003BF089552
:100AF00000E000932E02D4DF08950091300202BF7F
:100B000000913202039500933202109131020117D5
:100B100030F000E00093320201E000932D020895CE
:100B200000912D020130C9F400E00E94EE000E9405
:100B3000C700063011F0DCDF0895ECE2F2E002813C
:100B400000FD0CD0ECE2F2E0028101FD2AD001E0D0
:100B50000E94EE0000E000932D02089521E030E0B5
:100B600000E00E94EA0323E030E000E411E00E948C
:100B70008709009164010E946A0903E20E946209E8
:100B8000089521E030E001E00E94EA030091640151
:100B9000000F0093A404E4EAF4E000810160008304
:100BA0000895EFDF02D028D008950E94CE0980E09A
:100BB00017C0B0E0FD01EC59FE4F9081482F50E086
:100BC00006E010E00E94C409E3E3F2E0E00FF11F49
:100BD000B0E0EA0FFB1F9083A395A63050F38395F6
:100BE000843638F426E030E000E40E94EA03A0E016
:100BF000F4CFE4E00C94D5090E94CD0991E0B0E077
:100C0000A0E003C0990FB395A395A43608F096C051
:100C10004A2F50E006E010E00E94C409F801ED5CA4
:100C2000FD4F0081002319F491E0B0E0EDCF4A2F91
:100C300050E006E010E00E94C409F801ED5CFD4FB1
:100C400080814A2F50E006E010E00E94C409F801BC
:100C5000ED5CFD4F05818017B9F64A2F50E006E0A4
:100C600010E00E94C409F801ED5CFD4F008190176F
:100C700059F60091A4040923091719F580E085307D
:100C800008F047C04A2F50E006E010E00E94C40977
:100C9000E3E3F2E0E00FF11F082F10E0E00FF11F97
:100CA00040804B2F50E005E010E00E94C409282F3F
:100CB00030E0020F131FF801E557FB4F4082839588
:100CC000DECF4A2F50E006E010E00E94C409F80190
:100CD000ED5CFD4F80814B2F50E005E010E00E945D
:100CE000C409F801E557FB4F808381E010C044241C
:100CF0004B2F50E005E010E00E94C409282F30E09F
:100D0000020F131FF801E557FB4F40828395853092
:100D100070F3903109F076CF23E030E004E411E085
:100D20000E94870929E130E00BE814E00E949B094A
:100D300003E20E94620991E0B0E066CFE5E00C9426
:100D4000D40900E010E0E0E9FAE00083118300E05C
:100D500010E0E2E9FAE00083118308950091A6040F
:100D6000035469F0065071F0095019F0055021F054
:100D700008950E94740708950E94C30708950E9471
:100D8000FD0708950E94130808950091A6040055D8
:100D900091F00450F9F40E940309053431F4ECE2B7
:100DA000F2E002810160028315C0ECE2F2E0028110
:100DB0000E7F02830FC00E940309053431F4ECE278
:100DC000F2E002810260028305C0ECE2F2E00281FF
:100DD0000D7F02830E94500508958A930091A60416
:100DE000035409F445C0035009F10750F1F10550CF
:100DF00019F00550A1F04BC00E94C700802F04E2FB
:100E00000E94620922E030E005EA14E00E948709AE
:100E1000082F0E946A0903E20E94620938C00E94FA
:100E20002109802F082F0E94CD0031C004E20E94CA
:100E3000620922E030E005EA14E00E94870925E01B
:100E400030E008E411E00E94870928E030E00EE479
:100E500011E00E94870925E030E007E511E00E94DB
:100E6000870903E20E94620912C00E947F000FC03E
:100E700004E20E94620922E030E005EA14E00E94E8
:100E8000870901E40E94620903E20E9462098991D4
:100E900008950E940309003429F00E9403090332D7
:100EA000E1F708950E9403090093A5040E94030935
:100EB0000093A6040091A504023511F44FDF0BC086
:100EC0000091A5040D3411F460DF05C00091A50464
:100ED000083409F482DF0E940309033221F00E94E2
:100EE00003090332E1F708950E9421090093A70442
:100EF00000E00093A6060EC00E9421092091A606DC
:100F000030E0F901E855FB4F0083E6EAF6E00081A6
:100F1000039500830091A6061091A704011760F3C2
:100F2000B3D004E20E94620922E030E005EA14E056
:100F30000E9487090091A7040E946A0900E00093BB
:100F4000A60617C00091A60610E0F801E855FB4F71
:100F500000810E946A090091A60610E0F801E95597
:100F6000FA4F00810E946A09E6EAF6E000810395E3
:100F700000830091A6061091A704011718F303E25D
:100F80000E94620908958A930E9421090093A70490
:100F900000E00093A60617C00E9421092091A60632
:100FA00030E0F901E855FB4F00830E9421092091B0
:100FB000A60630E0F901E955FA4F0083E6EAF6E0CB
:100FC0000081039500830091A6061091A7040117E4
:100FD00018F3A5D07CD0802F04E20E94620922E0A1
:100FE00030E005EA14E00E948709082F0E94620998
:100FF00003E20E9462098991089521E030E001E056
:101000000E94EA0304E20E94620922E030E005EA5D
:1010100014E00E948709009164010E946A0903E2BA
:101020000E946209089521E030E002E00E94EA0394
:1010300002E00093C8010091640101600093C901BE
:1010400002E010E00E941E010AE010E00E944D0044
:1010500002E00093C801009164010093C90102E01D
:1010600010E00E941E010AE010E00E944D0004E220
:101070000E94620922E030E005EA14E00E9487093C
:1010800003E20E94620908959A938A9300E00E9405
:10109000EE0080E015C021E030E090E0FC01E85572
:1010A000FB4F00810E94EA030091640190E0FC0183
:1010B000E955FA4F008304E610E00E94460083954C
:1010C0000091A704801738F38991999108959A9314
:1010D0008A9300E00E94EE0080E005C004E610E084
:1010E0000E94460083950091A7048017A0F421E098
:1010F00030E090E0FC01E855FB4F00810E94EA03DC
:1011000090E0FC01E955FA4F00811091640101174C
:1011100029F306E401C003E58991999108959A9312
:101120008A9300E00E94EE0080E017C090E0FC018E
:10113000E855FB4F00810093C80190E0FC01E955A0
:10114000FA4F00810093C90102E010E00E941E01E5
:1011500004E610E00E94460083950091A7048017E2
:1011600028F38991999108958A988B9A00E00093C9
:1011700098000FE00093990002E000939B0008E1C3
:1011800000939A0006E000939D0000919A00006C85
:1011900000939A0000E010E0E0E9FAE00083118398
:1011A00000E010E0E2E9FAE00083118300E0009340
:1011B0008F0A0895F80100E010E02081203330F01C
:1011C00020812A3318F40081005308C02081213483
:1011D00028F02081273410F4008107530295007F06
:1011E0002181203330F021812A3318F411811053EA
:1011F00008C02181213428F02181273410F4118185
:101200001753012B0895AC01E2E9FAE00081118146
:10121000F801E955F94F0081E2E9FAE08081918116
:101220000196E2E9FAE080839183883E13E091071A
:1012300030F020E030E0E2E9FAE020833183CA01B7
:1012400008959A938A932297E2E9FAE00081118146
:10125000F801E955F94F00810883E2E9FAE080815D
:1012600091810196E2E9FAE080839183883E03E070
:10127000900730F000E010E0E2E9FAE0008311832B
:10128000E2E9FAE000811181F801E955F94F0081A6
:101290000983E2E9FAE0808191810196E2E9FAE0CE
:1012A00080839183883E03E0900730F000E010E0F7
:1012B000E2E9FAE0008311838E017CDF22968991B6
:1012C0009991089510919B00212F25FFFBCF00934A
:1012D0009C0008958A93802F082F02950F700A3082
:1012E00010F4005D05C00A3018F0003108F4095C04
:1012F000E9DF8F70082F0A3010F4005D05C00A3056
:1013000018F0003108F4095CDDDF899108950E942E
:10131000CC09C801D901442407C05524FC01E40DBF
:10132000F51D0081CFDF439455244A165B06ACF3CC
:10133000E6E00C94D3090E94CC09C801D9014424E9
:1013400007C05524FC01E40DF51D0081C3DF439463
:1013500055244A165B06ACF3E6E00C94D309000072
:101360008895FECF0FE30DBF01E00EBFC0E2D1E0D4
:101370000E94DE09002311F00E94F0090E9421055D
:101380000E94AF090C94AF09149F102D059F100DFA
:10139000049F002D110D08955A924A92BA93AA9370
:1013A0009A938A9308955D804C80BB81AA8199812C
:1013B0008881F0E0EC0FFD1FEF01089501E0089532
:1013C00020E008D0E9F708953BBF27913BB702D052
:1013D000D9F708952D9301501040202F212B089507
:1013E00000E4402E04E1502E00E0602EF201362D84
:1013F0006BBE07911691F201EE5FFF4F3F4F3BBF6F
:10140000A791B691F201362DEC5FFF4F3F4F3BBFE6
:10141000479157916691242F252B262B21F0FA0115
:10142000362FD2DF01C0CCDF07E0400E00E0501EB7
:10143000601EA201662D4E3454416040B8F20895FA
:1014400037095D010000001D0040014E1400244DCD
:101450005400244D5000332E3030200032303132D1
:0B146000313132370041475330340077
:0400000300000000F9
:00000001FF
