:020000021000EC
:10E000000C9458F318951895189518951895189517
:10E010001895189518951895189518951895189598
:10E0200018951895189518950C945CF018951895F6
:10E0300018951895189518950C9446F018951895FC
:10E040000C9451F0189518951895189518951895E1
:10E050001895189518951895189518951895189558
:10E060001895189518951895189518951895189548
:10E0700018951895189518950C9467F0189518959B
:10E080000C94ACF018951895189518952A931A9336
:10E090000A931FB72BB72BBF1FBF09911991299165
:10E0A00018952A931A930A931FB72BB72BBF1FBF3C
:10E0B00009911991299118952A931A930A931FB7D8
:10E0C0002BB72BBF1FBF09911991299118959A93CE
:10E0D0008A93FA93EA935A934A933A932A931A9318
:10E0E0000A934FB75BB700919C00EFEEF9E02081F7
:10E0F0003181F901E25EFD4F0083EFEEF9E000812E
:10E100001181F801E25EFD4F0081033229F4EEEE49
:10E11000F9E0008103950083EFEEF9E080819181C1
:10E120000196EFEEF9E080839183803D07E0900750
:10E1300030F000E010E0EFEEF9E0008311835BBF08
:10E140004FBF099119912991399149915991E991BB
:10E15000F9918991999118952A931A930A931FB767
:10E160002BB72BBF1FBF09911991299118950E94B8
:10E1700074F31901A801652F542F40E003E0FA0160
:10E18000362F3BBF00936800E89500916800102F80
:10E1900010FDFBCF80E090E016C0F101E80FF91F01
:10E1A000A081B0E0F101E80FF91F118100E0A00F9C
:10E1B000B11F01E0E82FF92F30E03BBF0D010093C4
:10E1C0006800E8950296803001E0900730F305E0A2
:10E1D000FA01362F3BBF00936800E8950091680074
:10E1E000102F10FDFBCF11E100E0002E109368000E
:10E1F000E895E4E00C947BF3212F102F00E043E03E
:10E20000F801322F3BBF40936800E8950091680009
:10E21000102F10FDFBCF11E100E0002E10936800DD
:10E22000E89508959A938A93C80103C08C01E4DFAE
:10E230000196803E01E09007C8F389919991089575
:10E240000E9474F31901A80160E0762F652F542F06
:10E2500040E080E090E001C00196803001E090074E
:10E2600090F4A0E08A019B01080F191F2A1FF801F2
:10E27000322F3BBF0690F101E80FF91F0081001615
:10E2800059F300E001C001E0E4E00C947BF3E0E02E
:10E29000F0E000E00BBF01E005BF00E005BF09951D
:10E2A000089500B5046000BDA89501B5086101BDE1
:10E2B00000E001BD0AB30E630ABB17B30FEF07BB43
:10E2C00024B30FEF04BB0FEF0093640000E0009352
:10E2D00065000895AC0107C084E398E0FC01CF011C
:10E2E0000197EF2BD9F79801890101501040232B9A
:10E2F00099F7CA010895F89401E005BF02E005BF4F
:10E300000E9451F1DC9A0E948BF20E949BF178945A
:10E31000089503E010E00E946AF1EDDFDD9A0091BC
:10E32000EE090130D8F30E9466F2EEEEF9E00081CA
:10E330000A950083F3CF00E000931A0100E00093F8
:10E340001B0108950E9474F32497A0E0B0E008C078
:10E350000E94DAF20053FE01EA0FFB1F00831196C0
:10E36000A43000E0B007A0F3488150E008EE13E0CD
:10E370000E946AF3C801498150E004E610E00E945F
:10E380006AF3800F911F4A8150E00AE010E00E947A
:10E390006AF3800F911F0B8110E0800F911FECE159
:10E3A000F2E08083918381E000911B01043421F02D
:10E3B00000911B01063549F5A0E0B0E007C00E94BE
:10E3C000F8F2FD01E45EFE4F00831196A03001E0FB
:10E3D000B007A8F300911B01043449F42CE131E0AB
:10E3E000ECE1F2E0008111810E94B7F018C00091C9
:10E3F0001B010635A1F42CE131E0ECE1F2E00081F3
:10E4000011810E9420F1802F0AC000911B01053468
:10E4100031F4ECE1F2E0008111810E9412F104E29A
:10E420000E9439F322E030E00AE111E00E9441F35A
:10E43000813021F40FE40E9439F303C008E50E9403
:10E4400039F303E20E9439F32496E4E00C947BF361
:10E4500000911B010634F9F404E20E9439F322E032
:10E4600030E00AE111E00E9441F325E030E000E0F5
:10E4700011E00E9441F328E030E006E011E00E9444
:10E4800041F32AE030E00FE011E00E9441F303E2A3
:10E490000E9439F3089500911B010D3419F40E9474
:10E4A00047F1089500911B01033479F404E20E94BE
:10E4B00039F322E030E00AE111E00E9441F302E486
:10E4C0000E9439F303E20E9439F308950E94DAF2C0
:10E4D000003429F00E94DAF20332E1F708950E9435
:10E4E000DAF200931A010E94DAF200931B01009104
:10E4F0001A01043411F426DF05C000911A01083412
:10E5000009F4A6DF0E94DAF2033221F00E94DAF267
:10E510000332E1F708958A988B9A00E000939800FF
:10E520000FE00093990002E000939B0008E1009344
:10E530009A0006E000939D0000919A00006C009301
:10E540009A0000E010E0EFEEF9E00083118300E0B4
:10E5500010E0E1EFF9E00083118300E00093EE09A1
:10E560000895F80100E010E02081203330F0208190
:10E570002A3318F40081005308C02081213428F088
:10E580002081273410F4008107530295007F2181F8
:10E59000203330F021812A3318F41181105308C040
:10E5A0002181213428F02181273410F4118117535F
:10E5B000012B0895AC01E1EFF9E000811181F80130
:10E5C000E25EFD4F0081E1EFF9E0808191810196EB
:10E5D000E1EFF9E080839183803D17E0910730F00F
:10E5E00020E030E0E1EFF9E020833183CA010895B3
:10E5F0009A938A932297E1EFF9E000811181F80163
:10E60000E25EFD4F00810883E1EFF9E080819181B6
:10E610000196E1EFF9E080839183803D07E0900768
:10E6200030F000E010E0E1EFF9E000831183E1EF6A
:10E63000F9E000811181F801E25EFD4F008109835C
:10E64000E1EFF9E0808191810196E1EFF9E08083CB
:10E650009183803D07E0900730F000E010E0E1EFAB
:10E66000F9E0008311838E017CDF229689919991D4
:10E67000089510919B00212F25FFFBCF00939C0054
:10E6800008950E9472F3C801D901442407C055249B
:10E69000FC01E40DF51D0081ECDF439455244A167E
:10E6A0005B06ACF3E6E00C9479F300008895FECFAE
:10E6B00002E30DBF0AE00EBFC3E3DCE00E9484F377
:10E6C000002311F00E9496F30E9489F10E9455F3F5
:10E6D0000C9455F3149F102D059F100D049F002DD1
:10E6E000110D08955A924A92BA93AA939A938A93D3
:10E6F00008955D804C80BB81AA8199818881F0E07A
:10E70000EC0FFD1FEF01089501E0089520E008D00F
:10E71000E9F708953BBF27913BB702D0D9F7089599
:10E720002D9301501040202F212B08950CE8402EEE
:10E7300007EE502E01E0602EF201362D6BBE0791E0
:10E740001691F201EE5FFF4F3F4F3BBFA791B6918D
:10E75000F201362DEC5FFF4F3F4F3BBF4791579182
:10E760006691242F252B262B21F0FA01362FD2DF9C
:10E7700001C0CCDF07E0400E00E0501E601EA20189
:10E78000662D4A39574E6140B8F208951A000001CB
:10E790009AE701D9081A01000000312E313120001A
:10E7A000323031383038303100426F6F746C6F6105
:04E7B000646572002A
:040000031000E00009
:00000001FF
