:020000020000FC
:100000000C94CC0D18951895189518951895189569
:100010001895189518951895189518951895189578
:1000200018951895189518950C94780718951895A3
:1000300018951895189518950C94620718951895A9
:100040000C946D071895189518951895189518958E
:100050001895189518951895189518951895189538
:100060001895189518951895189518951895189528
:1000700018951895189518950C9483071895189548
:100080000C94C80718951895189518950000410903
:100090000A002E09300932093409360938093A09AB
:1000A0003C093E094009000013090A0075097C0952
:1000B00083098A09910998099F09A609AD090D09C3
:1000C0004101610C080B02DE0A05F10A015A0B011D
:1000D000930B01CF0B01080C01080C014D0C01D44E
:1000E0000A01CA0A02330A02C00A03FA0901850A90
:1000F000FB009801890101501040232BD1F708958E
:10010000AC0107C084E398E0FC01CF010197EF2B1D
:10011000D9F79801890101501040232B99F7CA01A2
:10012000089500B5046000BDA89501B5086101BD42
:1001300000E001BD0EE70ABB0FEF07BB0FEF04BBEA
:100140000FED02B90FEF0093640000E0009365002B
:100150001A9A1B9A08950BEF01BB00E000939800D8
:100160000FE00093990002E000939B0008E10093E8
:100170009A0006E000939D0000919A00006C0093A5
:100180009A0008958A9380E020C0082F10E0000FA5
:10019000111FF801EB54FC4F008100930B0201E0AA
:1001A00010E00E94120501E010E00E94620520911B
:1001B000A701082F10E0000F111FF801EB54FC4FAE
:1001C000218304E610E095DF839542E00091B403BB
:1001D0000E94DE0D8017C8F2899108958A9380E00D
:1001E00004C004E610E085DF839542E00091B4038B
:1001F0000E94DE0D8017F8F5082F10E0000F111F88
:10020000F801EB54FC4F0081002371F3082F10E03C
:10021000000F111FF801EB54FC4F0081013621F350
:10022000082F10E0000F111FF801EB54FC4F008164
:100230000F37D1F2082F10E0000F111FF801EB5417
:10024000FC4F008100930B0201E010E00E941205B8
:1002500001E010E00E946205082F10E0000F111F5E
:10026000F801EB54FC4F01811091A701011709F42B
:10027000B8CF06E401C003E5899108958A9380E030
:100280004CC0082F10E0000F111FF801EB54FC4F79
:1002900000810A3451F409E400930B0201E0009359
:1002A0000C0202E010E00E941205082F10E0000F7F
:1002B000111FF801EB54FC4F008100930B02082F33
:1002C00010E0000F111FF801EB54FC4F0181009367
:1002D0000C0202E010E00E941205082F10E0000F4F
:1002E000111FF801EB54FC4F00810630A9F4082FD0
:1002F00010E0000F111FF801EB54FC4F0181009337
:10030000A101082F10E0000F111FF801EB54FC4F62
:10031000018103950093A201839542E00091B4030B
:100320000E94DE0D801708F4ACCF899108958A935E
:10033000802F06E000930B0280930C0202E010E095
:100340000E9412058093A10183958093A201899157
:10035000089500E010EE21E030E041E045BF42E0CA
:1003600045BFF801099508959A938A9316D20CE532
:1003700000930B0201E100930C0202E010E00E94E6
:10038000120580E090E00AE010E0BADE833300E07E
:10039000900710F002E512C00DE500930B0201E09A
:1003A00010E00E94120501E010E00E946205019633
:1003B000E7EAF1E0008101FFE6CF03E58991999139
:1003C00008950E94440EA0E0B0E080E080E0E5D116
:1003D0000CE500930B0202E200930C0202E010E035
:1003E0000E94120504E610E08BDEA0E0B0E091E090
:1003F0000AE010E085DEA33300E0B00710F090E0E3
:1004000011C00DE500930B0201E010E00E941205FF
:1004100001E010E00E9462051196E7EAF1E0008138
:1004200002FFE6CF992329F48395863080F207E511
:1004300001C003E5E4E00C944B0E8A930E9479041A
:1004400004EF11E05DDE41D10091E1040F3F09F4BA
:10045000AFC080E080C0082F10E0000F111FF8012E
:10046000EE51FB4F00810A3451F409E400930B0272
:1004700001E000930C0202E010E00E941205082F38
:1004800010E0000F111FF801EE51FB4F00810093A7
:100490000B02082F10E0000F111FF801EE51FB4F67
:1004A000018100930C0202E010E00E941205082F67
:1004B00010E0000F111FF801EE51FB4F00810A34CC
:1004C00051F409E400930B0201E000930C0202E0F6
:1004D00010E00E941205082F10E0000F111FF80114
:1004E000EE51FB4F00810630A9F4082F10E0000FF9
:1004F000111FF801EE51FB4F01810093A101082F5C
:1005000010E0000F111FF801EE51FB4F0181039520
:100510000093A201082F10E0000F111FF801EE5107
:10052000FB4F2081082F10E0000F111FF801EB5442
:10053000FC4F2083082F10E0000F111FF801EE512F
:10054000FB4F2181082F10E0000F111FF801EB5421
:10055000FC4F2183839542E00091E1040E94DE0D6F
:10056000801708F478CF0091E1040093B4030AE007
:1005700010E0C6DD00E000930B020AEA00930C02D3
:1005800002E010E00E9412050FE700930B0205E560
:1005900000930C0202E010E00E94120512DF033506
:1005A00059F4E2DE033561F00E948A0402E512C0CC
:1005B0000E948A0405E40EC00E948A0407E50AC06E
:1005C0000DDE033521F00E948A0406E403C00E9478
:1005D0008A0403E5899108958A930E94790404EFBF
:1005E00011E08EDD72D00091E1040F3FC1F180E097
:1005F00021C0082F10E0000F111FF801EE51FB4F32
:100600002081082F10E0000F111FF801EB54FC4F60
:100610002083082F10E0000F111FF801EE51FB4F4F
:100620002181082F10E0000F111FF801EB54FC4F3F
:100630002183839542E00091E1040E94DE0D801742
:10064000C0F20091E1040093B4038EDE033549F457
:10065000C5DD033551F00E948A0406E409C005E4B3
:1006600007C00E948A0402E503C00E948A0403E5D1
:10067000899108950E94790404EF11E041DD00E0C2
:1006800000930B0200E000930C0202E010E00E94D5
:1006900012050FE700930B0200E000930C0202E04A
:1006A00010E00E9412058DDE033521F00E948A04BD
:1006B00007E5089559DE033521F00E948A0402E51A
:1006C00008950E948A0403E508959A938A9300E0AE
:1006D00010E094D00093E1040091E1040023A9F01C
:1006E0000091E1040F3F89F080E00BC0082F10E07B
:1006F0000F5F1F4F83D090E0FC01EE51FB4F008352
:1007000083950091E104801788F389919991089568
:100710009A938A9300E010E071D00093E104009175
:10072000E104002321F00091E1040F3F11F406E4FD
:1007300016C080E001C083950091E104801770F439
:10074000082F10E00F5F1F4F59D090E0FC01EE51D1
:10075000FB4F1081101779F306E401C003E589917E
:10076000999108959A938A932091E10400E010E012
:100770003BD080E00BC090E0FC01EE51FB4F2081AC
:10078000082F10E00F5F1F4F2FD083950091E104D9
:10079000801788F38991999108958A9304E30093CF
:1007A0000B0201E010E00E94120501E010E00E943F
:1007B00062058091A701806104E300930B0280939E
:1007C0000C0202E010E00E9412050AE010E098DC42
:1007D0008F7E04E300930B0280930C0202E010E092
:1007E0000E94120589910895F894E199FECF1FBBEC
:1007F0000EBB2DBBE29AE19A78940895F894E199A2
:10080000FECF1FBB0EBBE09A78940DB30895DE981F
:1008100014DEDE9A033511F401E0089500E0089536
:10082000DE98DADEDE9A033511F401E0089500E087
:10083000089500E000939D0100E000939E016AD0BE
:1008400001E000939F0101E00093A001DC9ADD9A92
:10085000DE9A0895013039F4DB9A0AE010E00E9434
:100860008000D99A0895D9980AE010E00E9480008B
:10087000DB980895013099F4C09A0AE010E00E94D4
:100880008000DA9AC29B11C00FEF11E0EBE9F1E0B2
:10089000008311830AE010E00E9480000895DA9836
:1008A0000AE010E00E948000C09808951B98102F65
:1008B00010FDC29A10FFC298C29B0CC0C09B0AC018
:1008C0000FEF11E0EBE9F1E0008311830AE010E0A3
:1008D0000E94800004E610E00E9479000895102F25
:1008E00010FDC49A10FFC49804E610E00E9479003D
:1008F000089501E0BFDF04E110E00E94800001E004
:10090000D5DF0CE211E00E9480000CE211E00E94B1
:100910008000089500E09EDF00E0ACDF00E0C6DF6D
:1009200000E0DDDF089500E0C0990260C299046034
:1009300008958A93802F81FB16F401E001C000E046
:1009400099DF04E110E00E94800082FB16F401E0D0
:1009500001C000E0ABDF08EC10E00E94800089914C
:100960000895C89B13C000919F010023A1F401E0EA
:1009700000939F01DC9ADD9A0E94070404EF11E0C6
:100980000E9480000E9410041BD005C0C89903C0BB
:1009900000E000939F01CF9B0DC00091A0010023B8
:1009A00071F401E00093A001DC9ADD9A0E9410042A
:1009B00007D00895CF9903C000E00093A0010895E7
:1009C000013019F4DC98DD9A0895DC9ADD980895D9
:1009D0001A9A01E010E00E9479001B9A01E010E0F1
:1009E0000E9479001A9801E010E00E9479001B989B
:1009F00001E010E00E94790008951B9801E010E0EA
:100A00000E9479001A9801E010E00E9479001B9A78
:100A100001E010E00E9479001A9A01E010E00E94C3
:100A2000790008959A938A93C80101E00093A50183
:100A300002E00093A50101E010E00E947900C8DF08
:100A400001E00093A50102E00093A50101E010E0A0
:100A50000E9479000091A101BCD100E00093A301A4
:100A600017C001E00093A50102E00093A5010091E9
:100A7000A30110E0F801E55FFD4F0081AAD101E07C
:100A800010E00E947900E3EAF1E000810395008321
:100A90000091A30110E00817190718F301E0009373
:100AA000A50102E00093A501A8DF01E00093A501E4
:100AB00002E00093A50101E010E00E947900899115
:100AC000999108950E94440ED80182DF01E010E060
:100AD0000E9479000091A2017CD100E00093A30163
:100AE00038C01A9A0091650000610093650001E02A
:100AF0000093A50102E00093A50101E010E00E942F
:100B000079001B9A0091650008600093650001E080
:100B10000093A50102E00093A50101E010E00E940E
:100B200079001B9800916500077F0093650001E044
:100B300010E00E9479002091A6010091A30110E02D
:100B4000F801E955FE4F2083E3EAF1E000810395C7
:100B500000830091A30110E00A171B0708F070C082
:100B60000EEE02B900E00093A6011A9A009165000A
:100B700000610093650001E00093A50102E000938D
:100B8000A50101E010E00E9479000AEE02B901E03F
:100B90000093A50102E00093A50190E880E01BC04E
:100BA000092F0095E6EAF1E01081102310830091EF
:100BB00065000F7E009365001B9800916500077F1C
:100BC00000936500969501E00093A50101E010E017
:100BD0000E94790083958830B8F41B9A00916500D3
:100BE00008600093650001E010E00E9479000A9B14
:100BF000D7CFE6EAF1E00081092B00830091650080
:100C0000006100936500D8CF0EEE02B901E00093B9
:100C1000A50102E00093A50101E010E00E94790027
:100C20000091A30110E0CD0101970817190708F002
:100C300058CF1A98009165000F7E0093650057CF3A
:100C4000DCDEE4E00C944B0E0E94420EC801D90198
:100C5000BFDE01E010E00E9479000091A201B9D04E
:100C600000E00093A30138C01A9A0091650000616A
:100C70000093650001E00093A50102E00093A50147
:100C800001E010E00E9479001B9A00916500086065
:100C90000093650001E00093A50102E00093A50127
:100CA00001E010E00E9479001B9800916500077F29
:100CB0000093650001E010E00E9479002091A601F8
:100CC0000091A30110E0FD01E00FF11F2083E3EA92
:100CD000F1E00081039500830091A30110E0081763
:100CE000190708F072C00EEE02B900E00093A601E9
:100CF0001A9A0091650000610093650001E000937D
:100D0000A50102E00093A50101E010E00E94790036
:100D10000AEE02B901E00093A50102E00093A501EB
:100D200000E8502E44241BC0052D0095E6EAF1E0B2
:100D3000108110231083009165000F7E00936500E1
:100D40001B9800916500077F00936500569401E0B1
:100D50000093A50101E010E00E947900439408E0AF
:100D60004016B8F41B9A0091650008600093650076
:100D700001E010E00E9479000A9BD6CFE6EAF1E09C
:100D800000810529008300916500006100936500E2
:100D9000D7CF0EEE02B901E00093A50102E0009367
:100DA000A50101E010E00E9479000091A30110E08C
:100DB000FC0131970E171F0708F056CF1A980091C3
:100DC00065000F7E0093650055CF17DEE6E00C94BA
:100DD000490E8A93802F0EEE02B900E00093A40121
:100DE00022C01A9800916500006100936500880F89
:100DF0001B9A0091650008600093650001E0009374
:100E0000A50102E00093A50101E010E00E94790035
:100E10001B9800916500077F00936500E4EAF1E00C
:100E20000081039500830091A401083048F487FBFA
:100E3000C6F61A9A00916500006100936500D7CF4D
:100E40000AEE02B91A9A00916500006100936500EC
:100E500001E00093A50102E00093A50101E010E08C
:100E60000E9479001B9A009165000860009365005C
:100E700001E00093A50102E00093A50101E00093C9
:100E8000A50102E00093A50101E00093A50102E0A5
:100E90000093A50101E010E00E9479000EEE02B976
:100EA00001E00093A50102E00093A50101E010E03C
:100EB0000E9479001B9800916500077F00936500F0
:100EC000899108952A931A930A931FB72BB72BBFC2
:100ED0001FBF09911991299118952A931A930A9382
:100EE0001FB72BB72BBF1FBF0991199129911895D7
:100EF0002A931A930A931FB72BB72BBF1FBF0991D1
:100F00001991299118959A938A93FA93EA935A938F
:100F10004A933A932A931A930A934FB75BB7009177
:100F20009C00EAEFF9E020813181F901EE5EF94F92
:100F30000083EAEFF9E000811181F801EE5EF94FDC
:100F40000081033229F4E3EBF3E000810395008391
:100F5000EAEFF9E0808191810196EAEFF9E0808380
:100F60009183883E03E0900730F000E010E0EAEF64
:100F7000F9E0008311835BBF4FBF0991199129915B
:100F8000399149915991E991F991899199911895DE
:100F90002A931A930A931FB72BB72BBF1FBF099130
:100FA000199129911895F8940E949100C798009181
:100FB0006500077F00936500009165000F7E009338
:100FC00065000E94190478940E94AB000E94C00939
:100FD00008E40093A10109E40093A201C79A0091DB
:100FE0006500086000936500009165000061009352
:100FF00065000895D8DF08C000911006013011F493
:101000000E9408090E941C080E94B1040091B303C9
:10101000013038F00E94CF0CE3EBF3E000810A9539
:10102000008300910E06013079F700910F06013020
:1010300019F70E944508E6CF0AE200930B0201E08F
:1010400010E00E94120501E010E00E94620523E01A
:1010500030E000E411E00E94A10D0091A7010E9480
:10106000840D03E20E947C0D00910F06002361F4C1
:1010700000911006002341F400911106002321F491
:1010800004E110E00E94800008959A938A9300E0A2
:101090000093AF031BC000E500930B0201E010E0DA
:1010A0000E9412054091AF0350E008E010E00E945A
:1010B000EC0D2FE632E0200F311F08E010E00E9417
:1010C0002406EFEAF3E00081039500830091AF036B
:1010D000083208F300E00093AF0392C04091AF03E1
:1010E00050E008E010E00E94EC0DF801E159FD4FDE
:1010F00080814091AF0350E008E010E00E94EC0DC9
:10110000F801E159FD4F0681801709F074C0409144
:10111000AF0350E008E010E00E94EC0DF801E15947
:10112000FD4F818183704091AF0350E008E010E0F3
:101130000E94EC0DF801E159FD4F07810370801703
:1011400009F059C04091AF0350E008E010E00E9460
:10115000EC0DF801E159FD4F00810F3F09F44BC040
:101160004091AF0350E008E010E00E94EC0DF80160
:10117000E159FD4F80814091AF0350E008E010E05D
:101180000E94EC0DF801E159FD4F0681801799F599
:101190004091AF0350E008E010E00E94EC0DF80130
:1011A000E159FD4F81814091AF0350E008E010E02C
:1011B0000E94EC0DF801E159FD4F07818017D9F429
:1011C00023E030E004E411E00E94A10D25E030E0CE
:1011D000C9014091AF0350E008E010E00E94EC0D1F
:1011E00098010FE612E0020F131F9C010E94B50D3B
:1011F00003E20E947C0DEFEAF3E000810395008397
:101200000091AF03083208F469CF8991999108954C
:101210008A9300E00093AF0314C024E030E009E7B4
:1012200011E00E94A10D23E030E009EA11E00E94E4
:10123000B50D03E20E947C0DEFEAF3E00081039517
:1012400000830091AF030A3008F08EC00091AF0315
:10125000ECE8F0E0FBBFF0E00C94FD0D80E111C084
:1012600088E10FC080E20DC088E20BC080E309C0B6
:1012700088E307C080E405C088E403C088E001C0BB
:1012800080E502E600930B02082F006800930C0231
:1012900002E010E00E94120509E110E00E948000C7
:1012A00000E500930B0201E010E00E94120508E047
:1012B00010E00E9462050091A7011091AD01011795
:1012C00079F70091A8011091AE01011749F723E0C9
:1012D00030E008E411E00E94A10D0091AF03E6EABE
:1012E000F0E0FBBFF0E00C94FD0D24E030E00CE4F6
:1012F00011E00E94A10D97CF24E030E001E511E05C
:101300000E94A10D90CF24E030E006E511E00E949C
:10131000A10D89CF24E030E00BE511E00E94A10D82
:1013200082CF24E030E000E611E00E94A10D7BCFE7
:1013300024E030E005E611E00E94A10D74CF24E026
:1013400030E00AE611E00E94A10D6DCF24E030E00C
:101350000FE611E00E94A10D66CF24E030E004E723
:1013600011E00E94A10D5FCF02E600930B0200E0A6
:1013700000930C0202E010E00E941205899108958A
:1013800000E010E0EAEFF9E00083118300E010E0F4
:10139000ECEFF9E00083118300E00093B30300E079
:1013A00000930E0600E000930F0600E00093B203E6
:1013B0000DC000E02091B20330E0F901E055FC4F90
:1013C0000083E2EBF3E00081039500830091B20318
:1013D000023078F300E00093100600E0009311065D
:1013E00008958A930091B103E0ECF0E0FBBFF0E0D8
:1013F0000C94FD0D0E943B0D0093B4031091B403B7
:1014000002E0109F0092B40300E00093B2030EC00C
:101410000E943B0D2091B20330E0F901EB54FC4FE8
:101420000083E2EBF3E00081039500830091B203B7
:101430001091B403011760F30E943E010E94EE0078
:10144000802F04E20E947C0D0091B0030E947C0D6D
:101450000091B1030E947C0D082F0E947C0D03E2D5
:101460000E947C0D2EC20E943B0D0093B40310918C
:10147000B40302E0109F0092B40300E00093B203B3
:101480000EC00E943B0D2091B20330E0F901EB54F5
:10149000FC4F0083E2EBF3E000810E5F00830091DC
:1014A000B2031091B403011760F30E94C20004E27A
:1014B0000E947C0D0091B0030E947C0D0091B1034D
:1014C0000E947C0D42E00091B4030E94DE0D0E9458
:1014D000840D00E00093B2030EC00091B20310E04F
:1014E000F801EB54FC4F00810E94840DE2EBF3E025
:1014F0000081039500830091B2031091B40301179A
:1015000060F303E20E947C0DDCC10E943B0D00935E
:10151000B4031091B40302E0109F0092B40300E002
:101520000093B2030EC00E943B0D2091B20330E045
:10153000F901EB54FC4F0083E2EBF3E000810E5F16
:1015400000830091B2031091B403011760F30E946D
:10155000C20004E20E947C0D0091B0030E947C0D49
:101560000091B1030E947C0D0091B5030E94840D8F
:101570000091B6030E94840D03E20E947C0DA1C17C
:101580000E941D0D053411F401E001C000E000933C
:101590000E0697C10E941D0D053411F401E001C033
:1015A00000E000930F068DC10E941D0D053411F45B
:1015B00001E001C000E00093100683C104E20E9434
:1015C0007C0D0091B0030E947C0D0091B1030E943C
:1015D0007C0D0091A1010E94840D03E20E947C0D0C
:1015E00070C10E943B0D0E94970104E20E947C0D95
:1015F0000091B0030E947C0D0091B1030E947C0D0C
:101600000091A1010E94840D03E20E947C0D59C14A
:101610000E943B0D0093B4031091B40302E0109FAD
:101620000092B40300E00093B2030EC00E943B0D91
:101630002091B20330E0F901EB54FC4F0083E2EB60
:10164000F3E000810E5F00830091B2031091B403B8
:10165000011760F30E94C20004E20E947C0D009119
:10166000B0030E947C0D0091B1030E947C0D42E00A
:101670000091B4030E94DE0D0E94840D00E00093EF
:10168000B2030EC00091B20310E0F801EB54FC4F1E
:1016900000810E94840DE2EBF3E00081039500835A
:1016A0000091B2031091B403011760F303E20E94AA
:1016B0007C0D07C106E300930B0201E010E00E94DD
:1016C000120501E010E00E94620506E300930B02A0
:1016D0000091A701016000930C0202E010E00E945B
:1016E00012050AE010E00E94800006E300930B025E
:1016F0000091A70100930C0202E010E00E94120585
:101700000AE010E00E94800004E20E947C0D00913B
:10171000B0030E947C0D0091B1030E947C0D03E296
:101720000E947C0DCEC00E94650304E20E947C0DE5
:101730000091B0030E947C0D0091B1030E947C0DCA
:101740000091E104002319F10091E1040F3FF9F049
:1017500042E00091E1040E94DE0D0E94840D00E051
:101760000093B2030091B2031091E104011798F4C1
:101770000091B20310E0F801EE51FB4F00810E948E
:10178000840DE2EBF3E0008103950083EBCF009141
:10179000E1040E94840D03E20E947C0D92C00E942D
:1017A0003B0D0093E1041091E10402E0109F0092D0
:1017B000E10400E00093B2030EC00E943B0D2091B3
:1017C000B20330E0F901EE51FB4F0083E2EBF3E0AE
:1017D0000081039500830091B2031091E104011789
:1017E00060F30E94B2030E948803802F04E20E94EB
:1017F0007C0D0091B0030E947C0D0091B1030E940A
:101800007C0D082F0E947C0D03E20E947C0D59C0C4
:101810000E943B0D0093E1041091E10402E0109F4F
:101820000092E10400E00093B2030EC00E943B0D61
:101830002091B20330E0F901EE51FB4F0083E2EB5F
:10184000F3E00081039500830091B2031091E1045D
:10185000011760F30E94B2030091B1030C3421F42C
:101860000E941D02802F07C00091B1030D3419F4AE
:101870000E94EC02802F04E20E947C0D0091B003D4
:101880000E947C0D0091B1030E947C0D082F0E94E4
:101890007C0D03E20E947C0D14C00E943A03802F4D
:1018A00004E20E947C0D0091B0030E947C0D009127
:1018B000B1030E947C0D082F0E947C0D03E20E9460
:1018C0007C0D899108958A930091B103023599F4B2
:1018D0000E949304802F04E20E947C0D22E030E0FD
:1018E00000EB13E00E94A10D082F0E94840D03E27B
:1018F0000E947C0D52C00091B103073569F40E942B
:101900003B0D802F082F0E9499040AE010E00E94EE
:1019100080000E94930441C00091B103063409F590
:1019200004E20E947C0D0091B0030E947C0D0091A6
:10193000B1030E947C0D25E030E00EE711E00E942B
:10194000A10D28E030E004E811E00E94A10D2DE097
:1019500030E00DE811E00E94A10D03E20E947C0D31
:101960001CC00091B1030D3419F40E94A90115C0E7
:101970000091B103033489F404E20E947C0D0091CC
:10198000B0030E947C0D0091B1030E947C0D01E424
:101990000E947C0D03E20E947C0D899108950E94B3
:1019A0001D0D003429F00E941D0D0332E1F708954A
:1019B0000E941D0D0093B0030E941D0D0093B10302
:1019C0000091B003023511F40CDD05C00091B003A5
:1019D000083409F478DF0E941D0D033221F00E94C3
:1019E0001D0D0332E1F70895F80100E010E02081B9
:1019F000203330F020812A3318F40081005308C0CE
:101A00002081213428F02081273410F400810753ED
:101A10000295007F2181203330F021812A3318F490
:101A20001181105308C02181213428F021812734ED
:101A300010F411811753012B0895AC01ECEFF9E07C
:101A400000811181F801EE5EF94F0081ECEFF9E0C1
:101A5000808191810196ECEFF9E080839183883E4B
:101A600013E0910730F020E030E0ECEFF9E0208364
:101A70003183CA0108959A938A932297ECEFF9E093
:101A800000811181F801EE5EF94F00810883ECEFCF
:101A9000F9E0808191810196ECEFF9E080839183F8
:101AA000883E03E0900730F000E010E0ECEFF9E052
:101AB00000831183ECEFF9E000811181F801EE5E03
:101AC000F94F00810983ECEFF9E080819181019663
:101AD000ECEFF9E080839183883E03E0900730F0DB
:101AE00000E010E0ECEFF9E0008311838E017CDF71
:101AF000229689919991089510919B00212F25FF9D
:101B0000FBCF00939C0008958A93802F082F0295A5
:101B10000F700A3010F4005D05C00A3018F0003173
:101B200008F4095CE9DF8F70082F0A3010F4005DBB
:101B300005C00A3018F0003108F4095CDDDF899136
:101B400008950E94420EC801D901442407C05524BB
:101B5000FC01E40DF51D0081CFDF439455244A16A6
:101B60005B06ACF3E6E00C94490E0E94420EC801FD
:101B7000D901442407C05524FC01E40DF51D008162
:101B8000C3DF439455244A165B06ACF3E6E00C949D
:101B9000490E00008895FECF0FE30DBF01E00EBF98
:101BA000C0E2D1E00E94540E002311F00E94660EA4
:101BB0000E94FA070E94C90D0C94C90D0024E8E0A8
:101BC000EA9532F0001F001C0416D0F3041AF8CF77
:101BD000001F402D00950895149F102D059F100D96
:101BE000049F002D110D08957791679157914791AA
:101BF000179011FA279037900895F9DF041B10E031
:101C000003C0F4DF041B150B20E030E005C0ECDF5F
:101C1000041B150B260B370BB8F010FC17C04791AF
:101C20000790E00FF11F0417100540E02407340768
:101C300058F436F406910024F101E01BF0090994F0
:101C4000E00FF11F27903790F101099411F4D6F7B6
:101C5000F1CF31960EF0319650E060E070E04791A0
:101C60004B3F48F089F34F3F29F04E3F11F07791F9
:101C7000679157914791041B150B260B370B39F3CE
:101C800018F3E7CF5A924A92BA93AA939A938A93F7
:101C900008955D804C80BB81AA8199818881F0E0A4
:101CA000EC0FFD1FEF01089501E0089520E008D03A
:101CB000E9F708953BBF27913BB702D0D9F70895C4
:101CC0002D9301501040202F212B08950CE2402E1F
:101CD0000DE1502E00E0602EF201362D6BBE079113
:101CE0001691F201EE5FFF4F3F4F3BBFA791B691B8
:101CF000F201362DEC5FFF4F3F4F3BBF47915791AD
:101D00006691242F252B262B21F0FA01362FD2DFC6
:101D100001C0CCDF07E0400E00E0501E601EA201B3
:101D2000662D4A335D416040B8F2089563089B0117
:101D30000000005B0040013A1D0024525400245270
:101D4000500024524F0030343030003038303000F2
:101D50003130303000323030300034303030003804
:101D600030303000303030310030303032003032FE
:101D70003030003031303000332E333220003230FA
:101D800031383131323900414E53473038204A49D9
:051D900047204657004A
:0400000300000000F9
:00000001FF
