:020000020000FC
:100000000C94170C1895189518951895189518951F
:100010001895189518951895189518951895189578
:1000200018951895189518950C94A8051895189575
:1000300018951895189518950C949205189518957B
:100040000C949D0518951895189518951895189560
:100050001895189518951895189518951895189538
:100060001895189518951895189518951895189528
:1000700018951895189518950C94B305189518951A
:100080000C94F805189518951895189598018901FC
:1000900001501040232BD1F70895AC0107C084E331
:1000A00098E0FC01CF010197EF2BD9F79801890166
:1000B00001501040232B99F7CA01089500B5046040
:1000C00000BDA89501B5086101BD00E001BD0AB3FE
:1000D0000E630ABB17B30FEF07BB24B30FEF04BBCC
:1000E0000FED02B90FEF0093640000E0009365008C
:1000F0001B9A1C98A8980FEF02BB08950BEF01BB49
:1001000000E0009398000FE00093990002E0009354
:100110009B0008E100939A0006E000939D00009187
:100120009A00006C00939A0008958A93DD9880E00D
:1001300020C0082F10E0000F111FF801E352FA4F02
:1001400000810093FE0101E010E00E944B0301E0FA
:1001500010E00E949B0320919A01082F10E0000FED
:10016000111FF801E352FA4F218304E610E08EDFFD
:10017000839542E00091DC050E94290C8017C8F2AB
:10018000899108958A93DD9880E039C0082F10E0A6
:10019000000F111FF801E352FA4F0081033059F5A7
:1001A000EDE8F1E000811181228133810F7F1F7F13
:1001B000217030700083118322833383082F10E075
:1001C000000F111FF801E352FA4F018110E0312FA7
:1001D000202F10E000E0220F331FEDE8F1E0408116
:1001E000518162817381402B512B622B732B408391
:1001F00051836283738304E610E048DF839542E015
:100200000091DC050E94290C801708F005C1082F19
:1002100010E0000F111FF801E352FA4F0081009324
:10022000FE0101E010E00E944B0301E010E00E949B
:100230009B03082F10E0000F111FF801E352FA4F43
:1002400000810A35D9F2082F10E0000F111FF801C4
:10025000E352FA4F00810B3589F2082F10E0000FAE
:10026000111FF801E352FA4F00810D3539F2082FC2
:1002700010E0000F111FF801E352FA4F00810E3514
:1002800009F4BCCF082F10E0000F111FF801E35252
:10029000FA4F00810F3509F4B1CF082F10E0000F9D
:1002A000111FF801E352FA4F0081063709F4A6CF77
:1002B000082F10E0000F111FF801E352FA4F0081E0
:1002C000073709F49BCF082F10E0000F111FF8012A
:1002D000E352FA4F00810A3A09F490CF082F10E058
:1002E000000F111FF801E352FA4F018110919A019A
:1002F000011711F006E491C0082F10E0000F111F44
:10030000F801E352FA4F00810130A1F0082F10E00C
:10031000000F111FF801E352FA4F0081023051F033
:10032000082F10E0000F111FF801E352FA4F00816F
:10033000033019F401E000939101082F10E0000F41
:10034000111FF801E352FA4F0081013061F5EDE829
:10035000F1E0008111812281338101701E7F2F73B2
:1003600030700083118322833383082F10E0000F45
:10037000111FF801E352FA4F018110E020E030E054
:10038000000F111F221F331FEDE8F1E04081518162
:1003900062817381402B512B622B732B40835183DD
:1003A0006283738328CF082F10E0000F111FF8011C
:1003B000E352FA4F0081023009F0E8CEEDE8F1E0B7
:1003C00000811181228133810F7F11702E73307073
:1003D0000083118322833383082F10E0000F111F45
:1003E000F801E352FA4F018110E020E0322F212F73
:1003F000102F00E0110F221F331FEDE8F1E04081C4
:10040000518162817381402B512B622B732B40836E
:10041000518362837383EFCE03E5899108958A93B4
:10042000DD9880E038C0082F10E0000F111FF801A0
:10043000E352FA4F00810093FE01082F10E0000FF5
:10044000111FF801E352FA4F01810093FF0102E00E
:1004500010E00E944B03082F10E0000F111FF8015D
:10046000E352FA4F00810430A9F4082F10E0000F86
:10047000111FF801E352FA4F018100939401082FF4
:1004800010E0000F111FF801E352FA4F01810395AC
:1004900000939501839542E00091DC050E94290CB0
:1004A000801708F2899108958A93802FDD9804E0DF
:1004B0000093FE018093FF0102E010E00E944B03D5
:1004C000809394018395809395018991089500E02C
:1004D00010EE21E030E041E045BF42E045BFF801C9
:1004E000099508950CE20093FE0101E010E00E94DE
:1004F0004B0301E010E00E949B030CE20093FE011D
:1005000000919A0101600093FF0102E010E00E9457
:100510004B030AE010E0C1DD0CE20093FE01009104
:100520009A010093FF0102E010E00E944B030AE0F1
:1005300010E0B3DD089500E00093920100E0009325
:10054000930158D00895013039F4DB9A0AE010E0A5
:100550000E944D00D99A0895D9980AE010E00E94AF
:100560004D00DB9808950130B9F4C09A0AE010E01C
:100570000E944D00DA9AC29B15C00FEF1FEF2FE1CA
:1005800030E0EDE8F1E000831183228333830AE059
:1005900010E00E944D000895DA980AE010E00E94F1
:1005A0004D00C09808951B98102F10FDC29A10FF9F
:1005B000C298C29B10C0C09B0EC00FEF1FEF2FE16F
:1005C00030E0EDE8F1E000831183228333830AE019
:1005D00010E00E944D0004E610E00E9446000895DD
:1005E000102F10FDC49A10FFC49804E610E00E947A
:1005F0004600089500E0A7DF00E0B5DF00E0D3DFAC
:1006000000E0EEDF089500E0C0990260C299046046
:1006100008958A93802F81FB16F401E001C000E069
:10062000A2DF04E110E00E944D0082FB16F401E01D
:1006300001C000E0B8DF08EC10E00E944D00899195
:1006400008951A9A01E010E00E9446001B9A01E00A
:1006500010E00E9446001A9801E010E00E94460057
:100660001B9801E010E00E94460008951B9801E0ED
:1006700010E00E9446001A9801E010E00E94460037
:100680001B9A01E010E00E9446001A9A01E010E077
:100690000E94460008959A938A93C80101E000934E
:1006A000980102E00093980101E010E00E944600EA
:1006B000C8DF01E00093980102E00093980101E097
:1006C00010E00E94460000919401B6D100E0009332
:1006D000960117C001E00093980102E00093980191
:1006E0000091960110E0F801E250FE4F0081A4D184
:1006F00001E010E00E944600E6E9F1E00081039588
:1007000000830091960110E00817190718F301E023
:100710000093980102E000939801A8DF01E00093A4
:10072000980102E00093980101E010E00E94460069
:100730008991999108950E944D0CD80182DF01E0C2
:1007400010E00E9446000091950176D100E00093F0
:10075000960138C01A9A0091650000610093650007
:1007600001E00093980102E00093980101E010E09D
:100770000E9446001B9A0091650008600093650086
:1007800001E00093980102E00093980101E010E07D
:100790000E9446001B9800916500077F009365004A
:1007A00001E010E00E94460020919901009196011D
:1007B00010E0F801E656FE4F2083E6E9F1E0008103
:1007C000039500830091960110E00A171B0708F0BB
:1007D0006DC0129A00E0009399011A9A0091650089
:1007E00000610093650001E00093980102E000932E
:1007F000980101E010E00E944600129801E0009389
:10080000980102E00093980190E880E01BC0092F56
:100810000095E9E9F1E01081102310830091650053
:100820000F7E009365001B9800916500077F009381
:100830006500969501E00093980101E010E00E94A8
:10084000460083958830B8F41B9A009165000860D3
:100850000093650001E010E00E9446000A9BD7CF9C
:10086000E9E9F1E00081092B008300916500006156
:1008700000936500D8CF129A01E00093980102E03E
:100880000093980101E010E00E944600009196015B
:1008900010E0CD0101970817190708F05BCF1A98EF
:1008A000009165000F7E009365005ACFDFDEE4E023
:1008B0000C94580C0E944B0CC801D901C2DE01E017
:1008C00010E00E94460000919501B6D000E0009330
:1008D000960138C01A9A0091650000610093650086
:1008E00001E00093980102E00093980101E010E01C
:1008F0000E9446001B9A0091650008600093650005
:1009000001E00093980102E00093980101E010E0FB
:100910000E9446001B9800916500077F00936500C8
:1009200001E010E00E94460020919901009196019B
:1009300010E0FD01E00FF11F2083E6E9F1E0008106
:10094000039500830091960110E00817190708F03D
:100950006FC0129A00E0009399011A9A0091650005
:1009600000610093650001E00093980102E00093AC
:10097000980101E010E00E944600129801E0009307
:10098000980102E00093980100E8502E44241BC017
:10099000052D0095E9E9F1E0108110231083009105
:1009A00065000F7E009365001B9800916500077F2E
:1009B00000936500569401E00093980101E010E077
:1009C0000E944600439408E04016B8F41B9A009138
:1009D000650008600093650001E010E00E94460099
:1009E0000A9BD6CFE9E9F1E0008105290083009157
:1009F0006500006100936500D7CF129A01E0009373
:100A0000980102E00093980101E010E00E94460086
:100A10000091960110E0FC0131970E171F0708F0B6
:100A200059CF1A98009165000F7E0093650058CF4A
:100A30001DDEE6E00C94560C8A93802F129A00E09B
:100A40000093970122C01A980091650000610093FD
:100A50006500880F1B9A009165000860009365008F
:100A600001E00093980102E00093980101E010E09A
:100A70000E9446001B9800916500077F0093650067
:100A8000E7E9F1E0008103950083009197010830C8
:100A900048F487FBC6F61A9A00916500006100933E
:100AA0006500D7CF12981A9A0091650000610093F3
:100AB000650001E00093980102E00093980101E0D5
:100AC00010E00E9446001B9A0091650008600093A8
:100AD000650001E00093980102E00093980101E0B5
:100AE0000093980102E00093980101E000939801BF
:100AF00002E00093980101E010E00E944600129A83
:100B000001E00093980102E00093980101E010E0F9
:100B10000E9446001B9800916500077F00936500C6
:100B2000899108952A931A930A931FB72BB72BBF65
:100B30001FBF09911991299118952A931A930A9325
:100B40001FB72BB72BBF1FBF09911991299118957A
:100B50002A931A930A931FB72BB72BBF1FBF099174
:100B60001991299118959A938A93FA93EA935A9333
:100B70004A933A932A931A930A934FB75BB700911B
:100B80009C00E5EFFAE020813181F901E35FF84F45
:100B90000083E5EFFAE000811181F801E35FF84F8F
:100BA0000081033229F4EBEDF5E000810395008329
:100BB000E5EFFAE0808191810196E5EFFAE080832C
:100BC0009183883E03E0900730F000E010E0E5EF0D
:100BD000FAE0008311835BBF4FBF099119912991FE
:100BE000399149915991E991F99189919991189582
:100BF0002A931A930A931FB72BB72BBF1FBF0991D4
:100C0000199129911895F8940E945E00DC9AC79872
:100C100000916500077F00936500009165000F7EDD
:100C2000009365000E949B0278940E947E000E94BF
:100C3000820808E50093940109E500939501C79A9D
:100C400000916500086000936500009165000061F7
:100C5000009365000895D7DF0EC000910B070130A7
:100C600011F40E9416070E94520600910C070130F1
:100C700011F40E947607DD9A0091DB05013038F00F
:100C80000E941A0BEBEDF5E000810A9500830091BC
:100C90000907013051F700910A070130F1F60E946F
:100CA0007806E1CF23E030E000E611E00E94EC0B93
:100CB00002E60093FE0101E010E00E944B0303E016
:100CC00010E00E949B0300919C010F700E94CF0BCB
:100CD00000919B010E94CF0B00919A010E94CF0BC3
:100CE00003E20E94C70B02E310E00E944D0008954A
:100CF0009A938A9391E08FEF00E0009382051BC0E6
:100D00000DE60093FE0101E010E00E944B034091CC
:100D1000820550E008E010E00E94370C22E632E045
:100D2000200F311F08E010E00E945A04E2E8F5E0CD
:100D300000810395008300918205043640F401E0B0
:100D400090279923E9F605E60093FE01DCCF00E049
:100D50000093820563C04091820550E008E010E0F6
:100D60000E94370CF801EE59FD4F90819F71409120
:100D7000820550E008E010E00E94370CF801EE59BF
:100D8000FD4F06810F71901709F043C04091820515
:100D900050E008E010E00E94370CF801EE59FD4FDA
:100DA00000810F710631A8F54091820550E008E0FE
:100DB00010E00E94370CF801EE59FD4F00810F71D1
:100DC000081739F123E030E004E611E00E94EC0B53
:100DD00025E030E0C9014091820550E008E010E0D4
:100DE0000E94370C980102E612E0020F131F9C01CB
:100DF0000E94000C03E20E94C70B4091820550E064
:100E000008E010E00E94370CF801EE59FD4F808198
:100E10008F71E2E8F5E0008103950083009182057F
:100E2000043608F498CF8991999108958A9320E027
:100E300000E081E028C00DE60093FE0101E010E033
:100E40000E944B0308E010E00E949B0310919A015E
:100E50001F710091A0010F711017A9F5181799F5CE
:100E600023E030E008E611E00E94EC0B082F0E941E
:100E7000CF0B23E030E00CE911E00E94000C03E20C
:100E80000E94C70B8395863128F58C3018F4282FE3
:100E900004E00AC0282F2295207F220F082F0695F4
:100EA000069506950370046010E61093FE012093EA
:100EB000FF010093000203E010E00E944B0308E2F0
:100EC00010E00E944D008C3008F0B5CF05E600938D
:100ED000FE01B4CF01E60093FE0100E00093FF01A4
:100EE00002E010E00E944B03899108950E94470C94
:100EF000882444245524662477249924939444E533
:100F000050E020E030E004E815E00E94630C01E0CE
:100F10000093820522C023E030E00CE611E00E943D
:100F2000EC0B009182050E94CF0B24E530E004E831
:100F300015E00E94000C03E20E94C70B01E600933B
:100F4000FE0100E00093FF0102E010E00E944B036D
:100F5000E2E8F5E0008103950083009182050E3000
:100F600008F0BCC001E60093FE0100918205000F6D
:100F7000000F000F00680093FF0102E010E00E94E4
:100F80004B030AE010E00E944D00442455246624DF
:100F9000772428C00091830510E0F801EE59FD4F39
:100FA0002281082D10E0000F111F000F111FE4E82F
:100FB000F5E0E00FF11F0091830510E0E00FF11F55
:100FC0002083E3E8F5E00081039500830091830529
:100FD000043000F301E010E00E944D00482A592A35
:100FE0006A2A7B2AEDE8F1E00081118122813381B8
:100FF000A201B3014023512362237323EDE8F1E002
:1010000000811181228133814017510762077307E4
:1010100009F481CF01E09026992021F405E60093A0
:10102000FE0103C00DE60093FE0101E010E00E9406
:101030004B0322E632E008E010E00E945A0402E688
:1010400012E04FD0802E0FEF801661F2482D01E0A4
:1010500010E020E030E00E943F0CC801D901EDE82B
:10106000F1E00081118122813381AC01BD01402377
:10107000512362237323452B462B472BF9F400E0C1
:101080000093830500918305043008F0ABCF20E086
:10109000082D10E0000F111F000F111FE4E8F5E00C
:1010A000E00FF11F0091830510E0E00FF11F208396
:1010B000E3E8F5E0008103950083E4CF820193012A
:1010C000082319232A233B23081719072A073B075C
:1010D00009F488CF00E00093830578CFEAE00C9410
:1010E000520CF80120812F71F80106810F71201731
:1010F00011F00FEF0895263110F00FEF08952A95A3
:10110000022F089500E010E0E5EFFAE0008311837C
:1011100000E010E0E7EFFAE00083118300E00093C5
:10112000DA050DC000E02091DA0530E0F901E8525F
:10113000FA4F0083EAEDF5E000810395008300910A
:10114000DA05023078F300E00093DB0500E000935D
:10115000090700E000930A0700E000930B0700E096
:1011600000930C0708958A930091D9050735C9F5B6
:101170000E94860B0093DC051091DC0502E0109FB5
:101180000092DC0500E00093DA050EC00E94860B99
:101190002091DA0530E0F901E352FA4F0083EAEDDD
:1011A000F5E00081039500830091DA051091DC05DC
:1011B000011760F30E940F020E94C200802F04E218
:1011C0000E94C70B0091D8050E94C70B0091D9055A
:1011D0000E94C70B082F0E94C70B03E20E94C70B97
:1011E000ABC10091D905023509F052C00E94860BAF
:1011F0000093DC051091DC0502E0109F0092DC05F5
:1012000000E00093DA050EC00E94860B2091DA05FB
:1012100030E0F901E352FA4F0083EAEDF5E0008196
:101220000E5F00830091DA051091DC05011760F371
:101230000E94950004E20E94C70B0091D8050E940D
:10124000C70B0091D9050E94C70B42E00091DC0555
:101250000E94290C0E94CF0B00E00093DA050EC01B
:101260000091DA0510E0F801E352FA4F00810E9484
:10127000CF0BEAEDF5E00081039500830091DA05DC
:101280001091DC05011760F303E20E94C70B54C103
:101290000091D9050835D9F50E94860B0093DC052D
:1012A0001091DC0502E0109F0092DC0500E0009345
:1012B000DA050EC00E94860B2091DA0530E0F901B4
:1012C000E352FA4F0083EAEDF5E000810E5F008300
:1012D0000091DA051091DC05011760F30E9495007A
:1012E00004E20E94C70B0091D8050E94C70B009131
:1012F000D9050E94C70B0091DD050E94CF0B00911C
:10130000DE050E94CF0B03E20E94C70B15C10091BE
:10131000D9050935E1F501E00093DC051091DC0504
:1013200002E0109F0092DC050E94860B0093FE01F4
:101330000E94860B0093FF0102E010E00E944B0325
:1013400008EC10E00E9446000091FE010093FE01AF
:1013500001E010E00E944B0301E010E00E949B03BB
:1013600004E20E94C70B0091D8050E94C70B0091B0
:10137000D9050E94C70B0091FE010E94CF0B00917E
:101380009A010E94CF0B03E20E94C70BD5C00091C7
:10139000D905043551F40E94680B053411F401E0BD
:1013A00001C000E000930907C7C00091D9050035CE
:1013B00051F40E94680B053411F401E001C000E013
:1013C00000930A07B9C00091D9050F3451F40E9467
:1013D000680B053411F401E001C000E000930B0735
:1013E000ABC00091D9050D3451F40E94680B05344F
:1013F00011F401E001C000E000930C079DC00091D2
:10140000D905033499F404E20E94C70B0091D80572
:101410000E94C70B0091D9050E94C70B009194014F
:101420000E94CF0B03E20E94C70B86C00091D90532
:101430000834B9F40E94860B0E94540204E20E9410
:10144000C70B0091D8050E94C70B0091D9050E94D7
:10145000C70B009194010E94CF0B03E20E94C70BBF
:101460006BC00091D905013409F052C00E94860B6F
:101470000093DC051091DC0502E0109F0092DC0572
:1014800000E00093DA050EC00E94860B2091DA0579
:1014900030E0F901E352FA4F0083EAEDF5E0008114
:1014A0000E5F00830091DA051091DC05011760F3EF
:1014B00004E20E94C70B0091D8050E94C70B00915F
:1014C000D9050E94C70B0E94950042E00091DC05FF
:1014D0000E94290C0E94CF0B00E00093DA050EC099
:1014E0000091DA0510E0F801E352FA4F00810E9402
:1014F000CF0BEAEDF5E00081039500830091DA055A
:101500001091DC05011760F303E20E94C70B14C0C1
:101510000091D905093481F40E94720204E20E940C
:10152000C70B0091D8050E94C70B0091D9050E94F6
:10153000C70B03E20E94C70B899108958A9300911B
:10154000D905023599F40E940303802F04E20E941A
:10155000C70B22E030E008ED15E00E94EC0B082FED
:101560000E94CF0B03E20E94C70B62C00091D90515
:101570000735E9F40E94860B802F082F0E9409038B
:101580000AE010E00E944D000E940303802F04E255
:101590000E94C70B22E030E008ED15E00E94EC0B42
:1015A000082F0E94CF0B03E20E94C70B41C000919D
:1015B000D905063409F504E20E94C70B0091D8054D
:1015C0000E94C70B0091D9050E94C70B25E030E0AF
:1015D00000E711E00E94EC0B28E030E006E711E0A4
:1015E0000E94EC0B2DE030E00FE711E00E94EC0BC5
:1015F00003E20E94C70B1CC00091D9050D3419F4F9
:101600000E94670215C00091D905033489F404E2F1
:101610000E94C70B0091D8050E94C70B0091D90505
:101620000E94C70B01E40E94C70B03E20E94C70B94
:10163000899108950E94680B003429F00E94680B7C
:101640000332E1F708950E94680B0093D8050E94C9
:10165000680B0093D9050091D805023511F483DD9C
:1016600005C00091D805083409F468DF0E94680BB2
:10167000033221F00E94680B0332E1F70895F8016C
:1016800000E010E02081203330F020812A3318F46C
:101690000081005308C02081213428F020812734A4
:1016A00010F4008107530295007F2181203330F030
:1016B00021812A3318F41181105308C0218121346B
:1016C00028F02181273410F411811753012B08953C
:1016D000AC01E7EFFAE000811181F801E35FF84F18
:1016E0000081E7EFFAE0808191810196E7EFFAE06F
:1016F00080839183883E13E0910730F020E030E052
:10170000E7EFFAE020833183CA0108959A938A9320
:101710002297E7EFFAE000811181F801E35FF84FCB
:1017200000810883E7EFFAE0808191810196E7EF7D
:10173000FAE080839183883E03E0900730F000E078
:1017400010E0E7EFFAE000831183E7EFFAE00081B1
:101750001181F801E35FF84F00810983E7EFFAE0B8
:10176000808191810196E7EFFAE080839183883E42
:1017700003E0900730F000E010E0E7EFFAE00083CC
:1017800011838E017CDF22968991999108951091A1
:101790009B00212F25FFFBCF00939C0008958A9387
:1017A000802F082F02950F700A3010F4005D05C0DD
:1017B0000A3018F0003108F4095CE9DF8F70082F57
:1017C0000A3010F4005D05C00A3018F0003108F44A
:1017D000095CDDDF899108950E944B0CC801D90195
:1017E000442407C05524FC01E40DF51D0081CFDF22
:1017F000439455244A165B06ACF3E6E00C94560C71
:101800000E944B0CC801D901442407C05524FC0197
:10181000E40DF51D0081C3DF439455244A165B0691
:10182000ACF3E6E00C94560C00008895FECF0FE573
:101830000DBF01E00EBFC0E4D1E00E94610C0023A7
:1018400011F00E947C0C0E942B060E94140C0C9438
:10185000140C0024E8E0EA9532F0001F001C041686
:10186000D0F3041AF8CF001F402D00950895149F5F
:10187000102D059F100D049F002D110D08954A9500
:101880002AF0000F111F221F331FF9CF08959A92DB
:101890008A927A926A925A924A92BA93AA939A93A5
:1018A0008A930895998488847F806E805D804C80BF
:1018B000BB81AA8199818881F0E0EC0FFD1FEF01C7
:1018C000089501E00895F80101C02193BA01415043
:1018D0005040672BD1F7089520E008D0E9F708952C
:1018E0003BBF27913BB702D0D9F708952D93015004
:1018F0001040202F212B089508E5402E09E1502E9D
:1019000000E0602EF201362D6BBE07911691F201B8
:10191000EE5FFF4F3F4F3BBFA791B691F201362DCF
:10192000EC5FFF4F3F4F3BBF479157916691242F8C
:10193000252B262B21F0FA01362FD2DF01C0CCDF78
:1019400007E0400E00E0501E601EA201662D4636E4
:1019500059416040B8F208956C098D010000002DD6
:101960000060016619002452540024525000245291
:101970004F0024524D00332E31392000323031389F
:101980003131303900415449463230204A494720EC
:03199000465700B7
:0400000300000000F9
:00000001FF
