:10000000880E0020BD2F0000B92F0000B92F00007E
:1000100000000000000000000000000000000000E0
:10002000000000000000000000000000B92F0000E8
:100030000000000000000000B92F0000B92F0000F0
:10004000B92F000015010000B92F0000B92F0000E2
:10005000BD160000B92F0000B92F0000D9280000FC
:10006000B92F00009D1B0000AD1B0000BD1B000050
:10007000CD1B0000DD1B0000ED1B0000B92F0000B0
:10008000B92F0000B92F00006512000075120000A2
:10009000851200000000000000000000B92F0000E1
:1000A000B92F0000B92F0000B92F0000B92F0000B0
:1000B0000000000010B5064C2378002B07D1054B3B
:1000C000002B02D0044800E000BF0123237010BDC4
:1000D0000C00002000000000004F0000084B10B58D
:1000E000002B03D00749084800E000BF0748036819
:1000F000002B00D110BD064B002BFBD09847F9E731
:100100000000000010000020004F0000004F000021
:100110000000000010B5064B9B685B0500D410BDC5
:100120008022D200024B9A60024B9847F7E7C04604
:10013000000800401D16000010B582B001AB00227F
:100140001A7001245C709A70002901D001321A7073
:1001500001A9024B984702B010BDC0469517000098
:1001600030B583B001AC012363700022A27023700C
:10017000210009201E4DA84721000A20A847210080
:100180000B20A84721000E20A84721000320A847E4
:1001900021000420A84721001220A847154B8022E7
:1001A00092009A618022D2009A61802212019A61A3
:1001B0008022D2019A6110225A618022D2025A61B1
:1001C00008225A61002105200B4CA047002107207E
:1001D000A04700210620A04700210820A0470021B9
:1001E0001320A04700211420A04703B030BDC04613
:1001F00095170000004400413901000010B5034B81
:100200009847034B9847034B984710BDAD28000013
:100210009512000061010000064B1869C006C00F6E
:1002200040001B691B0701D5042318438023184392
:100230007047C0460044004170B500280BD10C4DFA
:100240008023DB026B610A200A4CA04710236B61FC
:100250000A20A04770BD064D1023AB610A20054C53
:10026000A0478023DB02AB610A20A047F2E7C0462B
:10027000004400410113000010B5002806D10822F7
:10028000044B5A610A20044B984710BD0822014BC9
:100290009A61F7E7004400410113000010B5040023
:1002A000830708D50120084B9847630707D400202F
:1002B000064B984710BD0020034B9847F5E70120F7
:1002C000024B9847F6E7C046390200007902000069
:1002D00001680722CB691A42FCD170474008014BE4
:1002E0001870704754010020024B18784000C0B2CB
:1002F0007047C04654010020014B18687047C04643
:1003000058010020F0B5DE4657464E464546E0B55A
:1003100091B00190304C25682800304B99469847A1
:100320001F2738400126320082402D4B98468023FB
:100330004146CA5020002B4B9B46984783232B7580
:100340002B762B680222924693432B6003AA264BFE
:100350005360002393601373137680218903116126
:1003600001214942918225315354936208315354FB
:100370000131535401315354D7331386019B0393F6
:100380001A4BD3821A4BD3611A4B13621A492000BD
:100390001A4B984725682000D8472B6852461343CC
:1003A0002B602068C8470740BE4043461E60E08877
:1003B000002310216A8B0A4204D101338342F9D30E
:1003C00010236B830E4B039A1A6011B03CBC90460D
:1003D0009946A246AB46F0BD240200206D1B0000EA
:1003E00000E100E0D1020000480D000010270000ED
:1003F0000200100002001100000C0042C50A0000BB
:1004000058010020014B58807047C0466C02002004
:10041000014B58887047C0466C02002000B583B07D
:1004200000226B461A70074B5B68DB061B0F6946A0
:100430008B70CA700A714A706846034B984703B0C4
:1004400000BDC046004000416513000010B5044CDB
:10045000A0472328FCD1034A1378013B137010BD39
:10046000B9080000AE02002070B51C4B5B78522B1F
:1004700004D0572B15D01A4B984770BD194B98478D
:1004800004002420184DA84702211448174B984710
:10049000200AC0B2164EB047E0B2B0472320A847AA
:1004A000E9E7144DA8470400A8472402201880B2A9
:1004B000114B98470B4B9847040024200A4DA8473E
:1004C00002210648094B9847200AC0B2084EB0479F
:1004D000E0B2B0472320A847CDE7C0464C02002039
:1004E0007B100000110400002D0A0000AD0A00007E
:1004F0004D0A0000E50800000504000070B5504BEF
:100500005B78443BDAB2132A10D893004D4AD35893
:100510009F4624204C4CA047022149484B4B98470A
:100520004B4B98474B4B98472320A0474A4B984743
:1005300070BD4A4B98474A4B98470A20494B984709
:100540002420414CA04702213D48404B9847404B56
:100550009847404B98472320A047E7E724203A4D8F
:10056000A84702213648394CA04705213E48A047FC
:1005700008213E48A04713213D48A0472320A84713
:10058000D4E72420304DA84702212D482F4CA04706
:1005900005213848A04708213748A0472320A8470D
:1005A000C4E7364B984704002420274DA847022172
:1005B0002348264B9847A0B2000A264EB047E0B227
:1005C000B0472320A847B1E7244DA8470400A84717
:1005D0002402201880B22A4B9847284B98470400E1
:1005E0002420194DA84702211548184B9847A0B25E
:1005F000000A184EB047E0B2B0472320A84795E75D
:100600002420114CA04702210D48104B98471D4B48
:100610009847104B98472320A04787E70F4B9847F0
:10062000194B98472420084CA04702210448074B47
:100630009847144B9847074B98472320A04775E7E6
:100640004C0200200C4C00002D0A0000AD0A0000F6
:10065000190200004D0A000081100000E5080000AA
:100660009D020000011300009C4C0000A44C0000FF
:10067000B04C0000C44C0000CC4C0000F90200005B
:1006800005030000E9020000DD02000010B5174B71
:100690009847402802D0164B984710BD154C0221B0
:1006A0002000154B98472378453BDAB20F2A05D82E
:1006B0009300124AD3589F46114B98470B4B9847CB
:1006C000232810D10F4A1378013B1370E5E70E4B36
:1006D0009847F3E70D4B9847F0E70D4B9847EDE748
:1006E0000C4B9847EAE7024B9847D6E7B908000059
:1006F0004D0400004C020020490900005C4C000041
:1007000079100000AE020020690400007D10000096
:10071000FD040000D510000010B50E4A13881279B0
:100720000D49CA5401339BB20C498B4209D809497F
:100730000B80232A09D0012209490A480A4B98470D
:1007400010BD0021034B1980F3E7084A13780133E9
:100750001370F0E7A8020020B0020020E7030000B9
:10076000AC0200207402002095200000AE020020A0
:1007700030B591B08023DB05009300230193FF2265
:1007800069460A8100228B72CB72012124206C46BB
:1007900021540130215425316354013163540A93AB
:1007A000053163540131635405932382E376227645
:1007B000227762761323A3766277E1235B020893A4
:1007C00080235B0303931A4B0C931A4B0D93012365
:1007D0005B420E930F93184D184C6A461849280037
:1007E000A0470028F9D1144D2C682000154B9847DC
:1007F0001F2318401E3B8340134A13602A68D369A5
:10080000002BFCD123680222134323600A4C013AD7
:100810000E4920000E4B98473122A35C02210B4366
:10082000A354303A0B4920000B4B984711B030BD10
:10083000020016000200170074020020FD1B0000D9
:10084000001400426D1B000000E100E019070000E9
:100850007D200000AC0200209520000010B5044B64
:1008600000221A805A80034B1A70034B984710BD20
:10087000A8020020AE0200207107000002781300D9
:10088000303BDBB2092B06D9002311004139052981
:1008900001D8373AD3B21B01DBB2427810003038AE
:1008A000C0B2092806D9002011004139052901D814
:1008B000373AD0B218437047074B5B88074AD05C81
:1008C00001339BB2064A934203D90022024B5A805D
:1008D0007047014A5380FBE7A8020020B0020020C5
:1008E000E703000000B583B013494B88134AD05C7E
:1008F00001AA10705A1C92B24A8011498A4207D943
:100900000E4B1A7801AB5A7001220B4B5A800BE048
:100910000A49895C01AA517002339BB2084A93428A
:1009200007D90022044B5A8001A8064B984703B010
:1009300000BD014A5380F7E7A8020020B002002062
:10094000E70300007D080000F0B589B200291AD045
:100950000200013989B2013140180B4D0B490C4C92
:100960008C4600270E0004E063465F80013282421D
:1009700009D04B88EB5C13704B8801339BB2A342C8
:10098000F2D87380F2E7F0BDB0020020A802002088
:10099000E7030000F0B5DE4657464E464546E0B553
:1009A00083B089B2002932D0040001398FB20137F7
:1009B000C7191A4E01AD1A4B98469B46B246C1461E
:1009C00011E059468A5C6A7002339BB2154A934221
:1009D0001AD90023524653802800134B98472070A1
:1009E0000134BC4213D073884246D25C2A705A1C30
:1009F00092B272800B498A42E3D94B461B786B70E6
:100A00000123064A5380E7E7044A5380E4E703B032
:100A10003CBC90469946A246AB46F0BDA8020020D9
:100A2000B0020020E70300007D08000000B583B09D
:100A30006B46D91D087001220248034B984703B04A
:100A400000BDC046740200206D1F000000B583B0D9
:100A50000309092B0ED8303301AA13700F23184055
:100A6000092812D903000A3B052B18D8373001ABEF
:100A700058700DE01A000A3A052A02D901AA13702B
:100A8000ECE7373301AA1370E8E7303001AB587058
:100A9000022201A90348044B984703B000BD01ABF3
:100AA0005870F5E7740200206D1F000010B58AB27F
:100AB00001000248024B984710BDC0467402002056
:100AC0006D1F0000F0B5D6464F464646C0B58AB009
:100AD00006000F00140031600800A04B9847A04AA0
:100AE000116A851C0123AB400B43136209A9237BC8
:100AF0000B701430C5B228009A4B984728009A4BC7
:100B00009847207B0021994B98473B681C209B0706
:100B100005D50AB01CBC90469946A246F0BD3B687C
:100B20001738DB07F5D430688C4B99469847050099
:100B30008F49904B9847AD008F4BEE500023337692
:100B4000737600257383B3832522B554336214333F
:100B50003B60336898461800C8478146802308AA3E
:100B60001370557001239370D570E069276A0028CF
:100B700000D1AFE008AB1870022308AA5370000C34
:100B8000C0B211007D4B9847002F00D1A7E008AB01
:100B90001F70022308AA53703F0CF8B21100774B64
:100BA0009847A38AF380E38A3381237E8022002B37
:100BB00004D1734B9B789B07DB0FDA01A168236993
:100BC0000B4313432422A25C002A02D08022D205C8
:100BD0001343A26A13432C22A25C002A03D1802271
:100BE0009204914202D18022120513432D22A25C6D
:100BF000002A02D08022120413432E22A25C002A73
:100C000002D08022D2031343424612681343424665
:100C1000136080235B00536048461430C0B2594BC8
:100C200098470790FA239B0022685A4391466368CD
:100C30009A46554DA847009001914B465800A84749
:100C400002900391208EA847049005914F4F504A7F
:100C5000504B00980199B84702000B000498059981
:100C6000B8474D4E00224D4BB04704900591484681
:100C7000A84702000B0004980599B84702000B0032
:100C8000474D00980199A847029A039BB04700225C
:100C9000444BA847029A039B434DA847434B9847B0
:100CA000050080239B04A2689A421ED003004020C6
:100CB000FF2D00D92DE700240020FF251D4024062C
:100CC00025430004FF231B04184005434346DD6011
:100CD00000201EE700214046354B98474AE7012196
:100CE0004046334B9847070051E7FA26B600534673
:100CF0005E430098019902000B00274CA04700902A
:100D000001913000204B984700222A4BB84702003F
:100D10000B0000980199244CA0470022214B204C45
:100D2000A047224B9847041E0CD031000798224B55
:100D300098470238001B2B00FF2D0CD8FF28BCD988
:100D40004020E6E67100481E079B9C4660441A4B13
:100D500098470138EFE74020DBE6C046F51A00006F
:100D60000004004081270000F52600003119000032
:100D70008D0E0000311B00006C0900207928000056
:100D8000002000419D270000554B0000C13F00009E
:100D900095D626E80B2E113E393300000000244082
:100DA000C14400000000F03F59390000ED4A000046
:100DB0007D19000000000840513100000168072241
:100DC000CB691A42FCD1704770B5040006683268DE
:100DD000458B838BED1AADB2838B013B9BB2838332
:100DE00013011DD5C37A002B03D0838B9BB2012B3B
:100DF00010D0A38B9BB2002B02D1A37A002B1CD165
:100E00002000124B9847236A5D192823F35CDBB25C
:100E10002B7070BD72688023DB0213437360E8E7B8
:100E2000C37A002BE5D0838B9BB2002BE1D1726893
:100E30008023DB0213437360DBE72000034B9847FA
:100E40007268C0239B0213437360D9E7BD0D000095
:100E500070B5040005686B8B5B0703D51E22252344
:100E6000C25470BD468B838BF61AB6B2838B013B9E
:100E70009BB28383044B9847236A9E193378DBB275
:100E80002822AB54EDE7C046BD0D000070B58000D0
:100E9000754BC45825682B681B01DA0F637E267ECC
:100EA0001E40638B9BB2002B03D1A38B9BB2002B04
:100EB00023D1638B9BB2002B08D0A38B9BB2002B5A
:100EC00004D12533E35C052B00D16DE0638B9BB22D
:100ED000002B24D0A38B9BB2002B20D06B8B9B06C6
:100EE00000D581E0002A04D0A38B9BB2012B00D156
:100EF0007AE041222523E25411E02B7EDB0707D55F
:100F000001232B766B8B9B072ED541222523E254A0
:100F1000A38B9BB263832523E35C052B38D0638BC3
:100F20009BB2002B07D0A38B9BB2002B03D12533A0
:100F3000E35C052B64D02523E35C052B13D025232C
:100F4000E35C002B0FD003232B7500236383A38363
:100F50002533E35C412B03D0A37A002B00D075E04E
:100F6000730700D57BE070BD6B8B5B07D0D5182273
:100F70002523E2540023A383A37A002BC8D02000AA
:100F80003A4B98476A68C0239B0213436B60BFE7E4
:100F90001F33E35C002B03D02000354B9847BEE79E
:100FA0002000344B9847BAE71F33E35C002B00D096
:100FB0008CE703332B750023638325330022E2542F
:100FC000A37A002B07D101232B76F307A7D5E3687B
:100FD00020009847A3E72000244B98476A68C02365
:100FE0009B0213436B60F0E72423E35C002B03D1E7
:100FF0002000204B984792E720001D4B98478EE732
:101000001F33E35C012B96D12B7E9B0701D5022376
:101010002B7603232B750023638325330022E254B0
:10102000B30703D52423E35C012B0BD0F30700D4D3
:1010300081E72423E35C002B00D07CE7E3682000F9
:10104000984778E723692000984774E72000074B0A
:1010500098476A68E023DB0213436B6080E76369AB
:10106000200098477FE7C0466C090020BD0D0000B6
:10107000C90D0000510E0000704770477047000016
:1010800010B50E4B5B78432B0BD0572B14D10C4B68
:1010900098470623184006280ED10A4A0A4B1A80A0
:1010A0000AE02420094CA04702210448084B984735
:1010B0004220A0472320A04710BDC0464C0200207C
:1010C00019020000FF010000620700202D0A000045
:1010D000AD0A000070B582B0404B5B78442B03D062
:1010E000562B45D002B070BD01AC022120003C4D12
:1010F000A84740213B48A8476378247824021C4332
:10110000002B04D1384D2000A8470528FBD0354ED0
:10111000364D402231002000A8470528F9D0344E32
:10112000344D402231002000A8470528F9D02D4B2E
:101130001A782F4B1B789A420BD10123294C2C484B
:10114000E15CC25C914206D10133402BF8D15325BA
:1011500002E0462500E046252420274CA047022136
:101160001E48264B98472800A0472320A047B9E7F0
:1011700001AD022128001A4CA04740211948A04780
:101180002C7824026B781C43194E1A4D40223100F2
:101190002000A8470528F9D0124B1A78144B1B7869
:1011A0009A420BD101230F4C1148E15CC25C914281
:1011B00006D10133402BF8D1532502E0462500E04B
:1011C000462524200C4CA047022104480B4B98478D
:1011D0002800A0472320A04784E7C0464C020020F7
:1011E00095090000D8080020A11500008D1400000A
:1011F00064070020351500002D0A0000AD0A00002C
:1012000070B58000164BC45823689D7B227E637E98
:1012100013401D40EB0706D4AB070BD4EB0610D4EC
:10122000AB0615D470BD2000A3689847012322683F
:101230009373F1E72000E3689847022322689373D1
:10124000ECE7200023699847102322689373E7E7AF
:10125000200063699847236820229A73E2E7C0461A
:101260001C09002010B50020014B984710BDC04656
:101270000112000010B50120014B984710BDC04677
:101280000112000010B50220014B984710BDC04666
:101290000112000070B50020084B98470500084C6B
:1012A000FA218900A047074B186007492800A0478A
:1012B000064B18600522064B1A6070BD69260000B7
:1012C000513100000000002040420F0004000020C7
:1012D00010E000E030B5084B1C68084A002580216A
:1012E0004902013807D3002CFBD054609560136885
:1012F0000B42FCD0F5E730BD0400002010E000E018
:1013000030B5084B1C68084A002580214902013885
:1013100007D3002CFBD05460956013680B42FCD0BF
:10132000F5E730BD0000002010E000E0F0B583B02C
:1013300001AC012565700027A770257021000920E8
:10134000064EB04780229200054B9A612770657067
:1013500021000F20B04703B0F0BDC0469517000034
:101360000044004110B51E4AD36904210B43D361E8
:101370001C4B2022FF321A831A7D0523D20701D489
:10138000180010BD03781B02C02292001340417860
:10139000C901FF220A401343817849001E220A40F6
:1013A0001343C27892048021C9020A401343027990
:1013B0001204C02189020A4013430A4A5360936809
:1013C0005B035B0F084908249C400C8093684B80AA
:1013D00043780B71138BDB05DB0F1B01D0E7C04695
:1013E00000040040004000412800002030B5040007
:1013F000224A1088538843438B4206D280229201AE
:1014000018201F4BCB1893420ED81E4B5D688022CC
:10141000D2022A435A602022FF321A831B7DDB0747
:1014200003D4184B5D60052030BD452C22D8A300A5
:10143000154AD3589F46134B1B8BDB0503D5114B25
:101440005D601020F0E7890849000E4BD96103E088
:10145000890849000B4BD961A52000020443094BC0
:101460001C80190001220B7D1342FCD0054B5D60EE
:101470000020D9E7034B5D601720D5E72800002046
:1014800000C07FFF00400041D84C0000F8B5254B5C
:101490001D885B886B431824834201D22000F8BD6D
:1014A0006B1E1842FAD1013C9542F7D31E4B1B7DAF
:1014B000123CDB07F2D51D4C1B4B1C801D00012488
:1014C0002B7D2342FCD02024FF34174B1C83002AA1
:1014D00022D0012305009D430023571E09E0CE18AA
:1014E0007678360234432C8002339BB202359A421E
:1014F00004D9CC5CBB42F2DBA4B2F4E7094B1B7904
:101500000024002BCAD13F2AC8D8002201000420A1
:10151000074B98470400C1E7024B1B790024002BBE
:10152000F3D0BBE7280000200040004144A5FFFFA6
:10153000ED13000070B5184B1D885B886B431824B1
:10154000834201D2200070BD6B1E1842FAD1013CCB
:101550009542F7D3114B1B7D123CDB07F2D52024BB
:10156000FF340E4B1C83002A14D001239843002320
:10157000561E04E002339BB202309A4208D9048816
:10158000A4B2CC54B342F5DACD18240A6C70F1E75A
:101590000024D7E70024D5E72800002000400041C0
:1015A000134B1A885B8853431821834201D20800E9
:1015B00070479200013A1042F9D10E4B1B7D13394E
:1015C000DB07F4D50B4B2022FF321A838008400042
:1015D000D861094A1A80190001220B7D1342FCD000
:1015E000044B198B1C200140481E81418900DEE715
:1015F000280000200040004102A5FFFF70B58401D3
:10160000044E054D7368191900220420A8470528C7
:10161000F8D070BD30000020ED13000010B5C823D5
:10162000084AD35C002B01D1002010BD1400882390
:10163000D35CD318D87A044B98470022C823E254CD
:10164000F2E7C04630000020FD1500000C4B1B687F
:10165000002B06D1EFF31083002B07D00022094B9B
:101660001A70074A136801331360704772B6BFF3EC
:101670005F8F0022044B1A700132024B1A70F0E7A0
:10168000FC0000200001002008000020084B1A6820
:10169000013A1A601B68002B09D1064B1B78002BFE
:1016A00005D00122044B1A70BFF35F8F62B67047FA
:1016B000FC000020000100200800002070B500227E
:1016C000104B1A70002310491F25104E0D4C0AE0D4
:1016D0000D4908E023780133DBB223700F2B10D8BB
:1016E00000211F2BF4D928001840012282400869EC
:1016F0001042EFD00A619B009B59002BEAD098471B
:10170000E8E770BD28090020001800402C090020DF
:10171000044A137802210B43137053785BB2002BF9
:10172000FBDB70470018004000B583B0124A936994
:1017300040210B43936101A900230B7005200F4B3F
:10174000984705200E4B98470E4A137801210B430A
:10175000137053785BB2002BFBDB0B4B190040314D
:10176000002204C39942FCD11022084B1A60084B96
:10177000984703B000BDC046000400408127000028
:10178000F5260000001800402C09002000E100E0D0
:101790001117000000B583B001AB80221A700A78DF
:1017A0005A704A789A708A78DA701900014B984713
:1017B00003B000BD79280000F0B5DE4657464E461E
:1017C0004546E0B587B08046049116001F00002210
:1017D000002300218B463F24012021000096019721
:1017E0005C4603944446059413E02024641A0500E3
:1017F000E540A84614E0009C019D121BAB415C46ED
:101800004D462C43A346039C45462C430394013983
:1018100025D3202464420C19E7D40500A540A8462E
:1018200004008C40A14692185B4114001D00059EE7
:101830004F463E40B446049E47463E40B24666464A
:1018400057463E4303D00600264332002B00009C3F
:10185000019D9D42DBD8CED19442D8D8CBE7039BE3
:101860005846190007B03CBC90469946A246AB4684
:10187000F0BD10B5490840230024814202D218006F
:1018800010BD1C00091A631C9BB28842F9D9402381
:10189000FF2CF4D814800023F1E70000F0B583B0EA
:1018A0000F00160008AA117804004C434022BC42E5
:1018B00002D9100003B0F0BD002B14D102000800C3
:1018C0000021194CA04701003A0000230020174CCA
:1018D000A04700220123121A8B41120C1B041A4349
:1018E00032800022E5E70022012BF9D10A00002313
:1018F00000210D4CA04702000B000092019338001C
:1019000000210A4CA047050080239B0140229842F9
:10191000CFD8790FF800009A019BA047EA00821AFD
:10192000D2B252032A43DBE7E5320000B9170000C8
:1019300010B582B004000E4B1B78002B07D0002995
:1019400005D10B4B5B78834210D01D200CE001A920
:101950000C701320074B98471320074B9847044BF4
:101960005C7001221A70002002B010BD0020FBE75D
:101970000401002081270000F5260000404B98421A
:1019800031D00AD93F4B98424DD03F4B98425AD064
:101990003E4B984237D0002070473D4B98420CD0C8
:1019A0003C4B9842F7D1012917D000295DD002297C
:1019B00015D0032915D00020EEE7012907D0002912
:1019C00051D0022905D0032905D00020E4E7324890
:1019D000E2E73248E0E73248DEE73248DCE7324807
:1019E000DAE73248D8E7012907D000293FD0022999
:1019F00005D0032905D00020CEE72D48CCE72D489F
:101A0000CAE72D48C8E7012907D0002931D00229AB
:101A100005D0032905D00020BEE72848BCE72848A8
:101A2000BAE72848B8E7012907D0002923D00229BE
:101A300005D0032905D00020AEE72348ACE72348B2
:101A4000AAE72348A8E7012907D0002915D00229D1
:101A500005D0032905D000209EE71E489CE71E48BC
:101A60009AE71E4898E71E4896E7032094E71D482A
:101A700092E71D4890E71D488EE71D488CE7C04659
:101A80000010004200180042001C004200140042F6
:101A900000080042000C004203000500030006009D
:101AA000030007000300010003001E0003001F00E5
:101AB0000300090003000A0003000B0003001100EB
:101AC000030012000300130003000D0003000E00CA
:101AD00003000F00030017000300180003001900A3
:101AE00003000400030008000300100003000C00C2
:101AF0000300160030B587B00B4B6A4632CB32C2BA
:101B000032CB32C2009B83420BD001239A0069463C
:101B10005258824206D00133062BF7D1002007B07D
:101B200030BD0023D8B2FAE7F04D00007047000046
:101B3000F0B50A4B1B78002B0CD1094F094E0A4D0A
:101B40000024DE515A1914600433182BF9D10122F4
:101B5000024B1A708000024BC150F0BD06010020FC
:101B6000080100202D1B00006C09002000B583B087
:101B700009236A46137001335370013393700133A4
:101B8000D3700133137101335371034B98476B4684
:101B9000185603B000BDC046F51A000010B5024B40
:101BA0001B680020984710BD0801002010B5024BAB
:101BB0005B680120984710BD0801002010B5024B5A
:101BC0009B680220984710BD0801002010B5024B09
:101BD000DB680320984710BD0801002010B5024BB8
:101BE0001B690420984710BD0801002010B5024B66
:101BF0005B690520984710BD08010020F0B5DE465E
:101C000057464E464546E0B591B005000C0016001B
:101C100029600800BC4B9847020023680520DB07B9
:101C200006D511B03CBC90469946A246AB46F0BDE5
:101C3000236817309B07F4D4B449086A971C012322
:101C4000BB4003430B620FA92D27F35D0B701432C9
:101C5000D3B202931800AE4B98470298AD4B984709
:101C6000F05D0021AC4B9847F37A6B712423F35C51
:101C7000AB712523F35CEB71F37E2B72337F6B72B8
:101C80002B6898461800A04B9847143000220E236A
:101C900006A98C4663441A80328A02928023DB01B3
:101CA0009A4200D19EE00FD9C023DB01029A9A42EA
:101CB00000D192E080231B029A4200D01FE103234F
:101CC00006930023079308E080239B019A4200D0EB
:101CD00015E1102306930F3B079333680593F368D0
:101CE000039373690493337E9B462623F35C9A46E1
:101CF00073689946002B00D1A0E080235B059945CD
:101D000000D184E0737E002B02D0B37E42469373F1
:101D10002A68029FD369002BFCD10E3306AA944691
:101D200063441B8842469381059B039A1343049A9C
:101D300013434A4613431F435B461B021F4353464C
:101D40005B071F432723F35C002B01D104331F43A0
:101D5000737E9B02327F52021343727F120213433F
:101D60002422B25C520413432522B25C12041343B2
:101D7000B17AF27A114319433389FF2B00D181E004
:101D800080225204174319432C23F35C002B03D108
:101D9000624B9B789B0701D580231F432A68D36938
:101DA000002BFCD1434659602A68D369002BFCD133
:101DB00043461F600EAB80221A7000225A70DA7000
:101DC0009A70336B0A93736B0B93B36B0C93F36B37
:101DD00002930D9300270AAE63E008230693073BA6
:101DE00007937AE733680593F36803937369049361
:101DF000337E9B462623F35C9A4673689946002BF4
:101E000018D080235B05994501D0002025E02723C9
:101E1000F35C002B00D075E7336A1F00C0B2404B63
:101E2000984701000E2206AB9C46624438003D4BA9
:101E3000984712E008230693002307932723F35CB7
:101E4000002B0ED0069B0093079B0E2206A98C4602
:101E50006244B16A306A344FB847002800D0E0E6E7
:101E600050E7336A1F00C0B22D4B98470100069B14
:101E70000093079B0E2206A88446624438002A4F2E
:101E8000B847EAE7F37E002B00D17DE78023DB042F
:101E90001F4379E72000254B984707E00137042FBF
:101EA0000DD0F9B2BB0098590028F3D0431CF5D0EF
:101EB0000EA90870000CC0B21D4B9847EEE7002336
:101EC000EB602B616B61AB61EB612B62AB626B62B0
:101ED0000022EB85AB853033EA540133EA540133F9
:101EE000EA540133EA542868074B98470400114923
:101EF000114B9847A400114BE550002091E61023A8
:101F0000069300230793E8E6F51A0000000400405A
:101F100081270000F5260000311900000020004153
:101F20009D270000731800009D1800007D19000017
:101F300079280000B5200000311B00006C0900204A
:101F4000C2791C23002A01D118007047C28D92B2B9
:101F5000173B002AF8D10368DA69002AFCD11985F9
:101F600002211A7E0A42FCD00023EDE7F0B5CE46EE
:101F7000474680B583B0050001911720002A04D19F
:101F800003B00CBC90469946F0BDEB790530002BB0
:101F9000F6D02C68E369002BFCD1013A93B2994644
:101FA000002601271F4B984611E0731C9BB2019A33
:101FB000915D6A79012A17D089B21E0028001A4B58
:101FC00098474B46013B9BB29946434513D0237E2D
:101FD0003B42EAD1134B227E3A42E6D1012B19D083
:101FE000013B002BF7D1E0E70236B6B2019AD35C91
:101FF0001B021943E2E7237E9B070DD4094B022104
:10200000227E0A420AD1012B0AD0013B002BF7D1D4
:102010000020B5E71220B3E70020B1E70020AFE7CA
:102020001220ADE7FFFF0000411F0000F8B50400DB
:102030000D00160007680F4B9847A38D9BB2002B2D
:1020400003D00D4B98470520F8BDA6850A4B98474D
:10205000656205223223E2542E3BBB75237A002BA6
:1020600001D02023BB75637A0020002BECD008231D
:10207000BB75E9E74D1600008D160000931C9B0010
:10208000C31859603021012393401A00435C134365
:102090004354704710B51723002A01D1180010BD12
:1020A00084790533002CF9D0014B98470300F5E7FC
:1020B0002D200000F8B58000624BC5582C68E369FC
:1020C000002BFCD1237EA67D1E403023EB5C312209
:1020D000AF5C1F40F30722D5EB8D9BB2002B1CD0C9
:1020E000AA6A1378DBB2511CA962697901290ED062
:1020F0009BB2DB05DB0D2385EB8D013B9BB2EB85B2
:10210000002B0CD1013323750133A37507E05178FF
:1021100009020B430232AA62EBE701232375B307DE
:1021200006D50223237500223133EA54FB071AD463
:10213000730765D5AB8D9BB2002B5FD0638BDBB291
:102140001A0714D43F221340002B34D09A0711D51C
:102150001A223223EA54303B63837B0750D5280090
:102160006B6998474CE02800EB689847E0E7372216
:102170001340E9E75A0705D51E223223EA542E3BC5
:102180006383EAE7DA0705D513223223EA54313BA9
:102190006383E2E7DA0605D542223223EA54223B82
:1021A0006383DAE720221A42D7D021323223EA545D
:1021B000123B6383D1E7238DDB05DB0DDAB2696A5D
:1021C0000A706A6A511C69626979012910D0AB8D65
:1021D000013B9BB2AB85002B12D104332375002247
:1021E0002E33EA54BB070BD528002B69984707E02C
:1021F0001B0A53706B6A01336B62E8E70423237593
:10220000F30604D5102323752376FB060ED4B306FC
:1022100004D52023237523763B070BD4330704D53D
:10222000082323752376BB0608D4F8BD2800EB6984
:102230009847ECE72800AB699847EFE72B6A28003E
:102240009847F2E76C09002010B5082803D88000F1
:102250001C4B1B589F46002032E01B4B18692FE097
:102260001A4B1B6A9B059B0F1948D84028E0164B58
:10227000586925E0144B1B6800209B0720D51349A3
:102280001022CB681A42FCD00F4B1A68242313404B
:10229000042B01D00F4813E000200F4B98470A4B46
:1022A0009B681B041B0C58430AE05023074AD35C6D
:1022B00000205B0704D5044BD86801E080200002B1
:1022C00010BDC046084E000020010020000800405C
:1022D00000127A00006CDC029D27000070B50C49EA
:1022E0000B6A0478857840780122104080014026EE
:1022F000B34303432A40D201802083431343032284
:10230000224012020348034013430B6270BDC046D3
:1023100000080040FFFCFFFF10B5037A9B061B0C72
:1023200042899205920D134318494B608379C27913
:10233000134342888488224313434278D2011343D3
:102340000B600378042B11D0202B0ED1037B9B064E
:10235000028A1343C28912040D490A4013430B4AEF
:10236000936011680B4B0B43136010BD037B9B06FE
:10237000028A1343C289120405490A401343034ADF
:102380009360136804210B431360EEE720010020E3
:102390000000FF0324040000082803D88000254B18
:1023A0001B589F46172044E0234A136A02210B431F
:1023B000136200203DE0204A936902210B439361A0
:1023C000002036E01C4A138A02210B4313820020AE
:1023D0002FE0194A938A02210B439382002028E0C0
:1023E00016490B68022213430B60134B9A841900A1
:1023F0000E32CB681A42FCD0104A91680E4BD9625B
:1024000052689A6200229A8419001032CB681A42EC
:10241000FCD00A4B1B689BB2074A9384002008E05B
:10242000054944228B5C022003438B54002000E0CA
:10243000002070472C4E00000008004020010020C2
:10244000F0B58BB0C222D200324B9A60324A536848
:102450001E218B435360012201AB1A7000242F4DC3
:10246000E0B201A9A8470134252CF9D105AB00221F
:10247000002159809A71DA71203119705A70284BF5
:102480001B689B0E3F2B43D005A8037207260673DB
:102490000A23C381234B4381FF3B8380224B03826A
:1024A000224B984704A800244470012787700470C9
:1024B0001F4B984706201F4DA8471F4B984701A95F
:1024C0004F604C700C724C720E7003201B4B98477F
:1024D00003201B4B98470720A8470E491022CB68C2
:1024E0001A42FCD0174A0023137253729372D372AC
:1024F00001A901224A604B7005320A700B724B72BF
:1025000000200E4B984700200D4B98470BB0F0BDB4
:10251000203BB9E70008004000400041812700004F
:1025200024608000FF01000080BBFFFF1923000032
:10253000DD22000099230000492500006D250000E0
:102540002526000000040040064A936908210B4339
:1025500093610122044B1A7019000B781342FCD1CD
:102560007047C04600040040000C004070B50600F3
:1025700004000D782D0205434B78002B02D08023F8
:10258000DB021D434B7A002B02D080231B031D432B
:102590004868012810D9431E184234D1022830D986
:1025A0000223002201325B009842FBD81202324320
:1025B000140080235B031D430B7A002B02D0802381
:1025C0009B031D43134A53785BB2002BFBDB124B7A
:1025D0009847124B1E700F4A53785BB2002BFBDBFF
:1025E0000C4B9C601A0053785BB2002BFBDB094A52
:1025F0005368802149020B401D435560084B9847A2
:1026000070BD0022D2E70402344380239B021D43A5
:10261000D2E7C046000C00404D160000080C0040F8
:102620008D16000010B504000B4A53785BB2002BE6
:10263000FBDB0A4B98470A4B1C70074A53785BB286
:10264000002BFBDB044A516880235B020B43536081
:10265000044B984710BDC046000C00404D160000CA
:10266000040C00408D16000070B504001A4A53781F
:102670005BB2002BFBDB194B9847194B1C70164AB9
:1026800053785BB2002BFBDB134E7068C004C00EA6
:10269000144B98470500124B1C707668F602F60F33
:1026A000114B1C700C4A53785BB2002BFBDB0A4BBE
:1026B0009C682402240C0D4B9847002E07D1012C56
:1026C00007D9210028000A4B9847050001E0013492
:1026D000E540280070BDC046000C00404D160000CB
:1026E000040C004049220000080C00408D16000038
:1026F0005131000010B50400064B9847064B1C7082
:10270000064A53888021C9010B435380044B9847E4
:1027100010BDC0464D160000020C0040000C0040E9
:102720008D16000010B504000F4B98470F4B1C701E
:102730000F4A53881B05180F53880E490B405380CE
:1027400053880D490B40538011008022D2014B88E1
:102750001342FCD106494A8803020648024013434B
:102760004B80064B984710BD4D160000020C0040F0
:10277000000C0040FFF0FFFFFFBFFFFF8D160000C1
:1027800010B50C7824020443024B9847A4B2024BC4
:102790005C8010BD25270000000C004010B504002F
:1027A000064B9847064B1C70064B5C882405240F8B
:1027B000054B98472000054B984710BD4D1600006B
:1027C000020C0040000C00408D160000692600003D
:1027D00030B5D378002B35D11378802B29D01B0648
:1027E00080246402234354780225AC4306D19478B4
:1027F000002C20D18024A402234341605478013C62
:10280000012C1CD90D042D0CA024E4052C431C43E1
:1028100084620D0CD02424062C431C438462D4789B
:10282000002C22D15B031CD59378012B1ED0416173
:1028300017E00023D7E7C024E4022343DDE70D4C73
:102840002340DFE741600C04240CA023DB05234375
:1028500083620C0CD0231B0623438362D378002BA6
:1028600003D15378013B012B02D930BD8161F8E7D8
:102870008160FAE7FFFFFBFF10B50A00C1090023E2
:10288000002904D14309DB0105498C4663441F2418
:102890002040012181401800024B984710BDC046DE
:1028A00000440041D12700007047000010B5054BDF
:1028B0009847054B9847054B9847054B9847054B5C
:1028C000984710BD412400002D130000A9280000E6
:1028D00029170000A9280000F0B5DE4657464E46ED
:1028E0004546E0B583B0C44B1F683D682B78DB09D3
:1028F00014D12E8CB6B2002E00D02DE2AE8BB6B223
:10290000AB235B00FB5AAA225200BD5A1D40354042
:102910000024BA4FB84B9946984608E22B8C9BB2DC
:10292000002B00D13DE1288C80B2B54B98470400C4
:102930001F2800D935E1030008335B01ED18ED795C
:10294000EDB2AB0741D0AF4A0123834011689943F0
:102950001160030008335B013A6894466344032224
:10296000DA713B18AE331B78DB072ED5A64B1870F7
:102970003A68030008335B019B5C9B079B0F012BAC
:1029800000D194E04201A14B9B185A681201920CAD
:1029900090B29D494A805A689204920C8A805A6883
:1029A0009B490A405A60002807D16201974B9B1847
:1029B0005B689B049B0C944A53808F4B1868A31C44
:1029C0001B01C3185B68904998476B071FD58A4B5A
:1029D00018680268230008335B019B5C9B065B0F51
:1029E000022B75D0230008335B019B5C9B065B0FB9
:1029F000032B00D19EE06201844B9B1800229A7247
:102A000003682200083252019B180422DA712B0756
:102A100015D57C4A0123A340116899431160764B78
:102A20001868230008335B01026894466344082257
:102A3000DA710319AE331B789B0700D594E0EB06DF
:102A400015D5704A0123A3401168994311606A4B60
:102A50001868230008335B0102689446634410221F
:102A6000DA710319AE331B785B0700D58AE0AB0639
:102A700000D42FE1634A0123A340116899431160F8
:102A80005D4B1868230008335B0102689446634479
:102A90002022DA710319AE331B781B0700D419E129
:102AA00059490C7024010419236B984712E1420123
:102AB000564B9B185A689204920C53494A805A68A4
:102AC0001201920C8A805A68920B92035A6074E742
:102AD000230008335B019B5C9B079B0F012B81D17B
:102AE00061014A4B5B1808339B78DB0700D479E718
:102AF000444A0123A3401168994311606201434B8A
:102B00009B1800229A72230008335B0102689446E6
:102B100063440422DA710319AE331B789B0700D497
:102B200075E739490C7010234B702301C3189B6A59
:102B300098476CE7230008335B019B5C9B079B0F66
:102B4000012B00D057E76201304B9B1800229A728C
:102B5000230008335B010268D2180421D171026896
:102B6000D31810225A7152E727490C706201274B83
:102B70009B18DB891F2213404B702301C3189B6AEB
:102B800098475CE720490C706201204B9B185B68FA
:102B90001B019B0C4B802301C318DB6A0021984763
:102BA00065E7AC8BA4B2630738D50423AB83154B20
:102BB0001D6801230120102602E00133082B29D0D3
:102BC00002009A401542F8D039681A0008325201C2
:102BD000525C9206520F032AEFD11A0008325201BA
:102BE000525C9207920F012AE7D11A000832520173
:102BF00089180E71E1E7C04638010020504E0000F0
:102C0000A5320000480100204C010020840900206A
:102C1000FF3F00F09D33FB5CDB0762D423070BD53D
:102C20000022AF4B1A60AF4B1868082302689383E9
:102C30009D33C35C9B0758D4630608D5A94B18681D
:102C40004023026893836533C35CDB0650D4A3063C
:102C500008D5A44B18682023026893838533C35C8E
:102C60001B0748D4E30608D59E4B1868102302685A
:102C700093839533C35C5B0740D423060BD50022B6
:102C8000974B1A60974B186880230268938325330B
:102C9000C35C9B0635D4E3050CD50022904B1A602B
:102CA000904B186880235B00026893835B3BC35C96
:102CB0005B0629D4A3050DD50022894B1A60894BE8
:102CC000186880239B00026893835C3BFF3BC35CD6
:102CD0007F2B1CD803B03CBC90469946A246AB461D
:102CE000F0BD7B683800984798E783689847A3E76A
:102CF00043699847ABE703699847B3E7C3689847C8
:102D0000BBE783699847C6E7C3699847D2E7036A78
:102D10009847DFE723002E339B00424612689B58FA
:102D200071494246106898470134072CD2D063009D
:102D3000DB5B334203D04A461268126893832B420E
:102D4000F2D0062CE6D1694B1B891B098022520068
:102D50001340654A1360DDE73C005934FF3400231B
:102D6000012294465F329146503A92460D3A93467C
:102D7000B8462F00C3E02A003D00474690465B015D
:102D8000ED180823FF33EB5C5B0615D540220823C2
:102D9000FF33EA54883BFF3B42461343544A937146
:102DA00060230B4296D0019B1B01FB18E0331B688C
:102DB0004F49380098478DE70823FF33EB5C9B06AB
:102DC000EED520220823FF33EA54494B42469A713C
:102DD000E6E73D004746019A130008335B01ED1812
:102DE0001023EB71BB186133FF331B78DB0600D473
:102DF00070E7100052013D4B9B185B689B049B0CD5
:102E00003B490B800301FB18DC331B6840469847A5
:102E100060E72A003D00474690465B01ED18082315
:102E2000FF33EB5C9B071ED502220823FF33EA54D5
:102E30002F48883BFF3B424613438371019B5A0155
:102E40002A4B9B1810335B689B049B0C43808B07B9
:102E500000D13FE7019B0D331B01FB185B68244940
:102E60003800984736E70823FF33EB5CDB07EED5E5
:102E700001220823FF33EA541D4843468371019B16
:102E80005B011A4AD21853689B049B0C0380536859
:102E90001B019B0C8380DAE70822FF329A5C520701
:102EA00079D504200822FF329854019842010F4B33
:102EB0009B189B7A9B0705D50C4B9B189A7A02208E
:102EC00082439A720A4B42469A71019B08335B0116
:102ED0003A6894466344DB79DB075CD5FAE6C04682
:102EE00048010020380100203C0100208409002016
:102EF0004001002001330134082B00D1EAE6DDB2A5
:102F0000019332001A4161461142F3D01A0008328F
:102F10005201BA18D279D2B2217A114020780140F8
:102F20004846104200D026E75046104200D050E7F5
:102F30005846104200D06CE70C201042DAD02A002C
:102F40003D00474690465B01EB180822FF329A5C31
:102F50001207A1D504380822FF3298540198420183
:102F6000134B9B189B7E9B0705D5114B9B189A7E94
:102F7000022082439A7680235B42424613430D4AE5
:102F80009371019B08335B013A6894466344DB7993
:102F90009B0700D59EE60C230B4200D19AE6019BCD
:102FA0001B01FB18D8331B6802493800984791E68B
:102FB0008409002040010020FEE70000F8B52A4AFD
:102FC0002A4B9A4211D01A00294B9A420DD2294A13
:102FD00003339B1A9B0801339B000022234822499C
:102FE0008C58845004329A42FAD1234A234B9A4295
:102FF0000AD2D34321495B1803218B4304339B1826
:10300000002102C29342FCD11D4AFF211D4B8B437C
:103010009360FD3990235B001B4AD1501B4AD37843
:103020000325AB4302242343D370D3780C27BB433F
:1030300008263343D370164B987B302290432022CE
:1030400010439873997BB943314399739A7BAA4390
:1030500022439A730F4A536880210B4353600E4BEF
:1030600098470E4B9847FEE7004F000000000020F5
:103070000C000020040000200C000020840A002026
:1030800000ED00E000000000007000410050004131
:103090000048004100400041C54B0000CD30000019
:1030A00010B5064B9847064B9847064B98470122A8
:1030B000054B1A70BFF35F8F62B610BDFD010000B3
:1030C0005D0800001D04000008000020F0B583B07A
:1030D00000AF174B1A68531C1CD0164B80210902F5
:1030E000596006244F201C5499611B6A1B04DB0F96
:1030F000FB71FB79002B0DD0C023DB01196881F334
:1031000008880D498B6072B6BFF35F8F00210B4BAF
:10311000197010470A4B98470A4D0B4E0B4C01E0B3
:103120000120A0472B78002BFAD0B047F8E7C04623
:10313000046000000044004100ED00E008000020B1
:10314000A1300000AE0200208D060000D512000064
:10315000002243088B4274D303098B425FD3030AD6
:103160008B4244D3030B8B4228D3030C8B420DD3E9
:10317000FF22090212BA030C8B4202D31212090277
:1031800065D0030B8B4219D300E0090AC30B8B42B5
:1031900001D3CB03C01A5241830B8B4201D38B0363
:1031A000C01A5241430B8B4201D34B03C01A524108
:1031B000030B8B4201D30B03C01A5241C30A8B424B
:1031C00001D3CB02C01A5241830A8B4201D38B0236
:1031D000C01A5241430A8B4201D34B02C01A5241DA
:1031E000030A8B4201D30B02C01A5241CDD2C3094C
:1031F0008B4201D3CB01C01A524183098B4201D3C8
:103200008B01C01A524143098B4201D34B01C01AB2
:10321000524103098B4201D30B01C01A5241C3082A
:103220008B4201D3CB00C01A524183088B4201D399
:103230008B00C01A524143088B4201D34B00C01A85
:103240005241411A00D20146524110467047FFE7F1
:1032500001B5002000F006F802BDC0460029F7D0F5
:1032600076E770477047C0461C2101231B04984233
:1032700001D3000C10391B0A984201D3000A083907
:103280001B09984201D30009043902A2105C4018BE
:103290007047C04604030202010101010000000062
:1032A00000000000414208401C2101231B049842F9
:1032B00001D3000C10391B0A984201D3000A0839C7
:1032C0001B09984201D30009043902A2105C401A7C
:1032D0007047C0461B1C1D1D1E1E1E1E1F1F1F1FCC
:1032E0001F1F1F1FF0B5CE46474615042D0C2E009C
:1032F00080B50704140C3F0C9946030C7E435D43D4
:10330000674363437F19340CE4199C46A54203D9F3
:1033100080235B029846C4444B46514343433604E2
:10332000360C250C24046544A419591849192000A9
:103330000CBC90469946F0BDF8B54546DE4657466A
:103340004E460C03E0B54E00C90F88460D00610AD9
:10335000440F0C43C70019035800DB0F9B464B0A70
:10336000510F0B43760D400D1900D200D84500D106
:10337000AEE0351A002D00DCF6E000280FD1134333
:1033800000D1DBE06B1E002B00D037E1BA1A974268
:10339000BF41641A7F42E41B0126170024E0C64B9C
:1033A0009E424DD080231B041943382D00DD07E1D8
:1033B0001F2D00DD38E12020431B9A460B005046AC
:1033C0008340994613004846EB401843030050469B
:1033D0008240501E8241E9401A43BA1A611A97424C
:1033E000A441170064420C1B230262D56402650AE3
:1033F000002D00D1DFE02800FFF736FF0300083B77
:103400001F2B00DDD2E020223C00D21A9D40D44088
:103410009F4025439E4200DDC4E09E1B731C1F2B72
:1034200000DDF1E0202238002900D21AD840914076
:1034300097402C000143781E8741DC4000260F4353
:103440007B0709D00F233B40042B05D03B1DBB421B
:10345000BF417F42E4191F0023022CD5964B013651
:103460009E4200D19AE04546944BFF081C406007FD
:10347000760564020743240B760D00212403230BF9
:103480000C0D8F4A24051C431440330523435B0075
:10349000ED075B082B43380019003CBC9046994669
:1034A000A246AB46F8BD6446044300D111E20400D5
:1034B00067467B07C6D145466007FF080743E40817
:1034C0007D4B9E4230D024037605240B760DD4E745
:1034D000331A9A46002B78DD002831D07648864290
:1034E000AED08020000401435346382B00DCE9E0D5
:1034F0000A43511E8A410021D219BA42BF4109191B
:103500007C4217000C192302D3D56B4B01369E4227
:1035100000D13AE10120694B1C407B0807401F4362
:10352000E007074364088BE723003B4300D1CBE16E
:103530008022120314432403240B9EE72E007FE70E
:103540000800104300D1B4E0581E002800D0DEE08F
:10355000BA18BA429B4164185B42E418170001266E
:103560002302A6D50226D5E7002D6ED1701C40059A
:10357000400D012800DCF9E0B81A844687428041FA
:10358000E51A40422D1A280200D489E0D71BBA421E
:1035900092411C1B5242A51AD84629E745460024F1
:1035A00000276AE7454CF61A2C4049E73D002838C9
:1035B000854000272EE73800FFF756FE20301DE734
:1035C0000A43511E8A41002107E7002B00D0F3E097
:1035D000701C43055B0D012B00DCADE0364B9842BF
:1035E00000D1D1E0BA18BA42BF4164187F42E41951
:1035F000E707520817436408060021E72E48854272
:1036000000D193E01D00D0E629001F3EF140202BA1
:1036100000D18DE04022D31A9D402F437D1EAF4143
:1036200000240F43002644E72B000800203BD8402D
:103630000300202D00D17DE04020451BA9400A4316
:10364000511E8A4100211A43C7E6002E50D01A4E5F
:10365000B04257D080266B429946360434434B46DD
:10366000382B00DDD6E01F2B00DD35E12026F51AD2
:103670002600AE40B2463E00DE40AC46350056461F
:103680002E436546AF407D1EAF41DC403743D71B1C
:10369000BA4292410C1B5242A41A0600D846A3E635
:1036A000644667462C4300D0A2E60025002600278A
:1036B00006E71E00C4E6C046FF070000FFFF7FFFCD
:1036C000FFFF0F801F2B63DC2020C31A08009840E7
:1036D0009C46834653461000D84003005846184382
:1036E00063469A40531E9A4153460243D94003E72A
:1036F00026003E4306D0EB439946002BC7D0944E9C
:10370000B042ACD10C0017000600D84698E6904BAA
:103710009A450BD08246E7E6002800D09EE01800CC
:10372000104300D1E9E01C001700D846884E87E618
:10373000002572E7002182E723003B43002E00D0E2
:10374000ABE0002B00D1E7E00B00134300D177E69C
:10375000BA18BA42BF4164187F42E419230200D468
:10376000F2E07C4B17001C40060069E6200038435D
:10377000002ED1D100285BD11C00144300D1A8E059
:103780001C001700D8465BE606000024002797E6D9
:1037900050460B002038C34099465346202B00D199
:1037A00095E0402350461B1A99400A43511E8A4116
:1037B0004B4600211A439FE6002E30D126003E439F
:1037C00067D0DB439A46002B1CD0614EB04260D0DC
:1037D0005346382B00DD96E01F2B00DD9FE02026AE
:1037E000F31A26009E409C46B34653463E00DE40F8
:1037F00033005E461E4363469F407B1E9F415346F7
:10380000DC403743BF189742924164185242A418D3
:10381000060078E627437C1EA741002437E74C4E7C
:10382000B04236D080265B4236049A463443CFE716
:103830001800104300D103E6B81A84466745AD412D
:10384000E01A6D42401B050200D42CE6D71BBA4299
:1038500092411C1B5242A41AD846F1E518001043AD
:1038600000D163E7F808670707438020E4080003F6
:10387000044208D0DD08054205D1D208590711439A
:103880000F002C00D8467B0FE4001C43FF00304E95
:10389000D6E50C0017000600D2E5002B38D00B004F
:1038A000134300D142E7F808670707438020E40884
:1038B00000030442E7D0CB080342E4D1D208490711
:1038C00011430F001C00DEE700270024D5E500218E
:1038D0006BE700250027F3E54E462500203EF54026
:1038E0004B462E00202B2DD04025ED1AAC4027430F
:1038F0007C1EA74100243743C9E680240025240309
:10390000134E0027DCE527437C1EA741002479E7FE
:103910000C0017000E4E93E50C00170090E556467C
:103920002300203EF34099465346202B0ED04023DF
:1039300056469B1B9C4027437C1EA7414B460024B8
:103940001F435FE70024D2E71700B2E50024F2E747
:10395000FF070000FFFF7FFFF0B557464546DE46F4
:103960004E46E0B54C000E0387B0834692461D00DC
:103970008046360B640DCF0F002C4FD06F4B9C420E
:1039800035D08023420F1B04F6001343334399467E
:10399000C30098466A4B00269C4600236444039368
:1039A0002B031B0B9B466B00ED0F50465B0D0195E7
:1039B0005ED0624A934253D05A46D1008022400FD3
:1039C000120402430A4393465246D1005C4A94468D
:1039D000002263443800684084460290E41A16438B
:1039E0000F2E00D9B4E0574BB6009B599F460300F9
:1039F000334399466CD1002398460233082603933B
:103A0000CEE7CB464146039A0197022A65D1019B36
:103A10004A4C9C460023002298466BE00300334347
:103A200099464ED0002E00D1BCE13000FFF71CFCBF
:103A300003000B3B1C2B00DDACE11D22D31A5A46C0
:103A40000100DA4008398E401300334399465B4643
:103A50008B40984600233C4C0026241A03939FE792
:103A600051465A46114329D1002293460232B1E70A
:103A7000594601431ED05B46002B00D19EE15846BB
:103A8000FFF7F2FB03000B3B1C2B00DD8FE1020074
:103A90005946083A91408B461D21CB1A5146D940D0
:103AA0000B0059460B4351469B469140264B002242
:103AB0001B1A8FE7002301229B468BE75146032206
:103AC00088E700239846013304260024039367E720
:103AD0000323B14603930C2662E7032A00D15CE27C
:103AE000019B012A00D0E4E113409C4600230024FE
:103AF0000022984600211203130B0A0D12051A43E7
:103B00002305124C40462240134362465B00D20715
:103B10005B081343190007B03CBC90469946A24687
:103B2000AB46F0BD002380229C4612039846034C0E
:103B3000E0E70023014C00229846DBE7FF07000086
:103B400001FCFFFF604E00000DFCFFFFFFFF0F8038
:103B5000D94500D939E100D134E1002346464D462C
:103B60009A46013C5B460A0E1B021A430B02170CD5
:103B7000039313041B0C3900280090460193FFF7B0
:103B8000E7FA0200019B83465A4328003900914618
:103B9000FFF764FB350C09040D43A9450DD95B46BD
:103BA0004544013BA84500D93AE1A94500D837E191
:103BB00002235B429C464544E3444B46EB1A3900E2
:103BC00018000493FFF7C4FA019B05004343390032
:103BD00004989946FFF742FB330409041B0C0B437E
:103BE000994509D943446A1E984500D91AE1994577
:103BF00000D817E1023D43444A469B1A5A46120434
:103C00002A4303999346100C0A0C914609045A461C
:103C1000090C4E460D001204120C45430591514308
:103C20007243704352190E0CB218954203D9802585
:103C30006D02AC466044150C09041204090C2818E6
:103C40005218834200D2CEE000D1C8E01D1A53467C
:103C50009E1AB24592415242AB1A9A46984500D1FB
:103C600017E139001800FFF773FA019B0500434381
:103C7000390050460493FFF7F1FA04980B04310C15
:103C80001943884209D941446B1E884500D907E190
:103C9000884200D804E1023D4144049BCB1A18003D
:103CA00039000493FFF754FA019B824643433900DD
:103CB00004980193FFF7D2FA01980B043104090C20
:103CC000194388420DD953464144013B884500D9E8
:103CD000E8E0884200D8E5E002235B429C4641448C
:103CE000E244019B2D04CE1A51462943059D4F46BF
:103CF0002A000B04080C1B0C5A4345437B437843B2
:103D00005B19170CFB189D4203D980256D02AC4648
:103D100060441D0C12041B04120C28189B188642C8
:103D200000D293E000D18EE001231943A04BE318A9
:103D3000002B00DC99E04A0700D09EE05A46D201F1
:103D400006D55A469B4B1A4080239346DB00E31866
:103D5000994A934268DD0123029A984C1A40002345
:103D6000944698460022C5E680224B461203134231
:103D70000AD05B46134206D11A431203120BAC461B
:103D800088468E4CB6E64B461A431203120BBC46CD
:103D90008A4CAFE603005A46283B9A4000239146DE
:103DA000984657E65846FFF75FFA203040E6030092
:103DB0005246283B9A400021934677E6FFF754FA93
:103DC00020305FE6884500D2C7E64B46DE075D0837
:103DD00043465B081E434346DB079A46C2E600257E
:103DE000924500D333E7039E5946B446E244B245B8
:103DF000AD416D424544EB180139984507D29842D0
:103E000000D97FE000D1BCE01D1A8B461FE7984522
:103E1000FAD1039D5545F2D943468B461D1A16E744
:103E20009B46CAE61500E7E65A46C90852070A4308
:103E30005B0590465C0D5A460123029952021940D7
:103E4000120B8C4656E6002B00D16FE746444A1E03
:103E5000B04529D91100864200D065E7039A934204
:103E600000D061E762E7012149420120C21A382AE5
:103E700021DD029B03409C4638E60F220A40042ABB
:103E800000D15BE70A00111D9142924152429344D6
:103E900054E7474BE318002BE5DD01225242F2E7DD
:103EA0001D00FAE69A461CE7B04239D86ED01100E0
:103EB0003AE702933AE71F2A3CDC20239B1A0C00C6
:103EC0005846994098404B1E99415B46D440D34098
:103ED000204308431A00430709D00F230340042B53
:103EE00005D00100081D88429B415B42D218130295
:103EF0003AD50123029A01241A4000239446984699
:103F00000022F7E5022149428C46039DE344AC467A
:103F1000E244AA45AD416D424544ED182D1A96E69E
:103F20008A1E03994D008D428941494241447618C9
:103F300003958FE71F204042C31A5846D84003001C
:103F4000202A28D040205D46821A954029434A1EE7
:103F500091411943072300220B4009D00F2300226F
:103F60000B400800042BBDD1010053075202120B75
:103F7000C9081943012388460299002419408C4638
:103F8000B8E55245BED88B46002560E6039D9D42AC
:103F9000C6D3110062E70025D8E780225B461203F2
:103FA0001A43019B1203120B9C468846034CA1E561
:103FB000FF030000FFFFFFFEFE070000FF070000F9
:103FC000F0B557464546DE464E46E0B50C039846EA
:103FD0004E00230B87B0070092469B46760DCD0F0F
:103FE000002E6BD06D4B9E4235D080245B46420F35
:103FF0002404DB0014431C43C3009946684BA346CA
:104000009C46002300276644029343461C035A0043
:10401000DB0F5046240B520D984600D176E05F4BE3
:104020009A426DD08023410F1B040B435C49E4008E
:104030008C461C43C300002062444146B6186940C8
:10404000721C0191944607430F2F00D9B0E0554AE6
:10405000BF00D25997465B460343994600D087E09C
:1040600000239B46023308270293CEE74246019283
:10407000022867D0032800D10EE2012800D062E1B7
:10408000002300240022994601990140CDB200216D
:1040900012030B0D120B1B051343434A2405134057
:1040A0001C436400ED0764082C434846210007B018
:1040B0003CBC90469946A246AB46F0BD03439946A8
:1040C0004FD05B46002B00D189E15846FFF7CCF872
:1040D00003000B3B1C2B00DD7AE11D22D31A3A00B2
:1040E00001005C46DA4008398C4013008F402343BE
:1040F0009B46B94600232D4E0027361A029384E7CB
:10410000534623432AD10024022096E753462343F3
:1041100020D0002C00D157E12000FFF7A5F80300C4
:104120000B3B1C2B00DD49E11D21CB1A514602003F
:10413000D9405346083A944093400C431B4A121A04
:1041400000207AE70125019B144C1D40002300222A
:1041500099469CE70024002201206EE75346032085
:104160006BE700239B4601330427002602934CE7AC
:10417000032381460C27029347E780220023002572
:1041800012039946054C82E75C464B4602986FE75E
:104190005C464B46019502986AE7C046FF0700005F
:1041A00001FCFFFFA04E0000FFFF0F800DFCFFFF92
:1041B0004A464946170C1A0C1B041B0C080419002C
:1041C000000C41431500884619007D43794303954F
:1041D00089462900150045434D44029545462D0C5E
:1041E000AA46029D5544A94506D98A46802149021E
:1041F0008946CA4451460391290C04914146090459
:104200002D04090C88462900250C24044144240C63
:104210000591210041438846210079438A4668433D
:10422000414650448146080C48446F43824503D9B7
:104230008021490289464F44010C8946390049448E
:10424000029141460F0404993F0C88460004C019AE
:1042500080444146049159460F0C0904090C8846D4
:1042600059438A4639005143894641464A4351469B
:10427000090C8B467B43D2185A44934203D98023BE
:104280005B029B46D94451460904090C8A464146C3
:1042900061437C43130C12044B445244A1468A46AA
:1042A0003C0041466C434D4351464D440F0C7D1933
:1042B000A94503D98021490288464444049F0399B3
:1042C000B84641448B468345804141428846514629
:1042D00008042F04000C3F1858460299101889460C
:1042E000904292414F44BA46524299469346C24444
:1042F000D144CB448F42BF41C245894199459B413E
:10430000934592417F4249422D0C52420F435B42FA
:1043100013437F19FF185B463C19DB0D059A6402B5
:104320001C43430213435D1EAB415A46C00D034379
:1043300052021343E20156D501205A0803401343A9
:10434000E207134364085A48604400284DDD5A07C9
:1043500009D00F221A40042A05D01A1D9A429B4107
:104360005B42E4181300E20104D58020514AC000EA
:1043700014406044504A904200DDE3E60125DB082A
:1043800062071A436402019B9146220B4405640DA7
:104390001D407CE6802259461203114208D0144287
:1043A00006D122431203120B45469946434C6EE652
:1043B0005B461A431203120B404C68E60300544656
:1043C000283B9C400023B9E6FEF74EFF2030A6E6CE
:1043D0000300283B9F400023BB4699468AE6FEF730
:1043E00043FF203074E6B446ADE701252A1A382A87
:1043F00006DD019B00241D4000230022994646E66D
:104400001F2A21DC20252000AD1A1E00AB40A84049
:10441000D6405D1EAB4130431843D440430709D01A
:104420000F230340042B05D00300181D98429B4125
:104430005B42E418230221D50125019B01241D4084
:1044400000230022994622E61F2521006D42281AEA
:10445000C1400800202A1DD05F35AA1A944023438A
:104460005C1EA341072503431D400022002D09D0F7
:104470000F2200241A401800042AD6D10300650731
:104480006402220BDB082B4301259946019B002483
:104490001D40FCE50024E2E78022012512032243AF
:1044A00001991203120B0D409946044CEFE5C046EA
:1044B000FF030000FFFFFFFEFE070000FF070000F4
:1044C000F0B54646D6464F460C03C0B5CD0F4E005C
:1044D000610A440F0C43C1005800400D84468A46CF
:1044E0000F001903500F490A0143C648760DA8462C
:1044F000DB0FD200844500D1D8E001204340AB421D
:1045000000D1A6E06046351A002D00DC05E1002848
:1045100010D10B00134300D1D7E06B1E002B00D04D
:104520004BE153469F1ABA458041641A4042241A0F
:1045300001261EE0B34B9E4248D080231B04194342
:10454000382D00DD19E11F2D00DD4CE120230F0087
:104550005B1B10009A409F40E840531E9A41E9407F
:10456000074317435346DF1B611ABA45A44164420F
:104570000C1B230200D4C5E06402650A002D00D1A3
:10458000F6E02800FEF770FE0300083B1F2B00DD5D
:10459000E9E020223C00D21A9D40D4409F402543B0
:1045A0009E4200DDDBE09E1B731C1F2B00DD0AE139
:1045B00020223800D21A290097402C009140D84080
:1045C0007A1E9741DC40002601430F437B0709D048
:1045D0000F233B40042B05D03B1DBB42BF417F4214
:1045E000E4191F00230225D5864B01369E4200D1D7
:1045F000AFE0854B01251C4043466207FF0864027B
:1046000076051743240B760D1D4000212403230B50
:104610000C0D7E4A24051C431440330523435B00E4
:10462000ED075B082B43380019001CBC90469946E7
:10463000A246F0BD012543466207FF081743E40880
:104640001D40704B9E4236D024037605240B760D18
:10465000DBE76346F31A002B00DC94E06046002899
:1046600035D068488642B1D080273F043943382B83
:1046700000DCFDE00A43170000217A1E97415744F1
:1046800057458041091944420C1923023AD55D4B24
:1046900001369E4200D14BE101225B4B1C407B085E
:1046A00017401F43E207174364088FE708001043D1
:1046B00000D024E721E723003B4300D1B9E1802269
:1046C000120314432403240B9FE72E007EE7080007
:1046D000104300D1CAE0581E8446002800D0E7E00D
:1046E0005244524580416418404224181700012664
:1046F000230207D50226CFE764462C4300D1B3E15D
:104700002C0067467B0700D062E76307FF081F4362
:1047100001254346E4081D4093E7002D78D1751C20
:104720006D056D0D012D00DCF2E05046801A8245CA
:10473000BF41651A7F42ED1B8446280200D48CE0FD
:104740005046171ABA4292410C1B5542651B9846B7
:1047500014E70125434600241D40002755E72A4C55
:10476000F61A2C4032E73D0028388540002717E72D
:104770003800FEF779FD203006E70A4317000021D4
:104780007A1E9741EEE6002B00D0E5E0731C9C46B4
:104790005B055B0D012B00DC9FE01A4B9C4500D1B3
:1047A000C5E0524452458041641840422418E7074E
:1047B000520817436408664608E71248854200D14C
:1047C00085E01D00BCE629001F3EF140202B00D1F2
:1047D0007FE04022D31A9D402F437D1EAF4100242D
:1047E0000F4300268EE72B000F00203BDF40202DDB
:1047F00071D040235D1BA9400A43511E8A4100210C
:104800001743AFE6FF070000FFFF7FFFFFFF0F80AA
:10481000002E3ED0B34EB44545D0802636046D42BE
:104820003443382D00DDA8E01F2D00DD1FE12026D8
:1048300027005046761BB740E84007435046B0403B
:10484000461EB041EC403843171ABA4292410C1B45
:104850005242A41A664698468BE6644667462C4345
:1048600000D08BE6002500260027EAE61E00ADE614
:104870001F2B60DC2027F81A0F00844687401000A9
:10488000D840074360468240501E8241D9401743BA
:10489000F5E626005046064305D0ED43002DD3D063
:1048A000904EB445BDD10C001700664698468DE683
:1048B0008C4883420BD06346D9E6002D00D096E0A9
:1048C0000800104300D1E2E00C0017009846854E26
:1048D0007CE6002580E700218EE723005046034355
:1048E000002E00D0A8E0002B00D1DEE00B00134327
:1048F00000D16BE65244524580416418404224186E
:104900001700230200D4FDE6774B66461C405DE6A7
:10491000250050460543002ECFD1002D4FD10C006D
:10492000144300D1A0E00C00170098464EE66646FE
:104930000024002785E61F000800203FF8400700FC
:10494000202B00D18EE04020C31A99400A43511E0B
:104950008A410021174392E6002E14D126005046CA
:10496000064362D0DB43002B5CD18718974292410B
:1049700064185242A418664687E650462043441EF7
:10498000A041002460E7574EB4454ED0802636043F
:104990005B423443382B00DD7FE01F2B00DD8BE0D2
:1049A000202627005046F61AB740D8400743504605
:1049B000B040461EB0410743DC40BF18D6E70D00AB
:1049C000154300D102E65046801A8245BF41651A60
:1049D0007F42ED1B8446280200D48DE65046171A0C
:1049E000BA4292410C1B5242A41A9846EEE50D00C1
:1049F000154300D16BE750466707C0080743802086
:104A0000E4080003044207D0CD08054204D12C007D
:104A10009846D70849070F437B0FE4001C43FF006B
:104A2000304ED3E52F4EB445B4D10C001700664686
:104A3000CCE500270024E8E5002B39D00B00134318
:104A400000D144E7C008670707438020E40800035B
:104A50000442E1D0CB080342DED1D70849070F4317
:104A60001C00D9E7002171E700250027E9E52E00A9
:104A70002700203EF740202D2FD04026751BAC404C
:104A800050462043441EA04100243843DCE68024E5
:104A900000252403134E0027D3E55046204307008A
:104AA000781E87410024BF1860E70C0017008DE5D1
:104AB0000C0017000B4E89E51E002700203EF74032
:104AC000202B0CD04026F31A9C4050462043441E15
:104AD000A04107430024BF1848E70024D0E7002482
:104AE000F3E7C046FF070000FFFF7FFF30B5134D1F
:104AF0000A034B00120B5B0DC90F0024AB4210DD03
:104B00000F4CA3420FDC80240E4D64032243ED1AA8
:104B10001F2D0BDD0C48C31ADA405442002900D186
:104B20001400200030BD094BCC18FAE7084CE840CF
:104B3000A44663449A400243EFE7C046FE030000E8
:104B40001D0400003304000013040000FFFFFF7F7A
:104B5000EDFBFFFF10B5041E28D0FEF785FB154BBB
:104B6000154A1B1AD21A1F2A15DD144AD21A94406C
:104B7000002224035B05240B5B0D0021100024039D
:104B80000A0D240B120522430D4C1B052240134332
:104B90005B00590810BD210091400A000B21081A42
:104BA000C4405B052403240B5B0DE6E700230024CF
:104BB0000022E2E71E04000033040000130400009A
:104BC000FFFF0F8070B500260C4D0D4C641BA41028
:104BD000A64209D1002600F083F90A4D0A4C641B55
:104BE000A410A64205D170BDB300EB58984701361A
:104BF000EEE7B300EB5898470136F2E7EC4E0000C1
:104C0000EC4E0000EC4E0000F04E0000A20500004B
:104C10002C0500005C0500002C0500002C050000A0
:104C2000000600002C0500002C0500008205000095
:104C30002C0500002C0500002C050000C805000014
:104C40002C050000120500001C0600002C050000C9
:104C50002C0500002C05000032050000B8060000FD
:104C6000BC060000BC060000DA060000BC0600001E
:104C7000BC060000BC060000BC060000CE0600001A
:104C8000BC060000BC060000BC060000BC0600001C
:104C9000D4060000BC060000E0060000302E3031D3
:104CA0002000000032303139303230310000000055
:104CB0004E6577204A696720462F572055706772E6
:104CC00061646500302E313420000000323031380C
:104CD00030373235000000007414000074140000F6
:104CE000501400007414000050140000361400002A
:104CF00036140000741400007414000074140000D2
:104D00007414000074140000741400007414000083
:104D10007414000074140000741400007414000073
:104D20007414000074140000741400007414000063
:104D30007414000074140000741400007414000053
:104D40007414000074140000741400007414000043
:104D50007414000074140000741400007414000033
:104D60007414000074140000741400007414000023
:104D70007414000074140000741400007414000013
:104D80007414000074140000741400007414000003
:104D900074140000741400007414000074140000F3
:104DA00074140000741400007414000074140000E3
:104DB00074140000741400007414000074140000D3
:104DC00074140000741400007414000074140000C3
:104DD00074140000741400005014000050140000FB
:104DE0005814000058140000581400005814000013
:104DF00000080042000C0042001000420014004273
:104E000000180042001C00425A22000056220000F6
:104E100056220000BC220000BC2200006E220000CE
:104E20006022000074220000AA220000C4230000B7
:104E3000A4230000A423000030240000B6230000B7
:104E4000D2230000A8230000E0230000202400005B
:104E50000400080070008000010000010002000052
:104E6000503B0000323B0000EC3A00000A3A0000E0
:104E7000EC3A0000243B0000EC3A00000A3A000043
:104E8000323B0000323B0000243B00000A3A0000A5
:104E9000023A0000023A0000023A0000683D0000B9
:104EA000B041000070400000704000006C40000005
:104EB00088410000884100007A4100006C400000F9
:104EC000884100007A410000884100006C400000E9
:104ED0009041000090410000904100009443000088
:104EE000F8B5C046F8BC08BC9E467047DD0000001F
:104EF000F8B5C046F8BC08BC9E467047B500000037
:0C4F0000401F000008000000010000003D
:00000001FF
