:020000020000FC
:100000000C94AE081895189518951895189518958C
:100010001895189518951895189518951895189578
:1000200018951895189518950C94480418951895D6
:1000300018951895189518950C94320418951895DC
:100040000C943D04189518951895189518951895C1
:100050001895189518951895189518951895189538
:100060001895189518951895189518951895189528
:1000700018951895189518950C945304189518957B
:100080000C9498041895189518951895980189015D
:1000900001501040232BD1F70895AC0107C084E331
:1000A00098E0FC01CF010197EF2BD9F79801890166
:1000B00001501040232B99F7CA01089500B5046040
:1000C00000BDA89501B5086101BD00E001BD0EE7C6
:1000D0000ABB0FEF07BB0FEF04BB0FED02B90FEF29
:1000E0000093640000E0009365001A9A1B9A08953B
:1000F0000BEF01BB00E0009398000FE00093990024
:1001000002E000939B0008E100939A0006E0009350
:100110009D0000919A00006C00939A0008958A93C4
:1001200080E020C0082F10E0000F111FF801ED5CE7
:10013000FB4F00810093D30101E010E00E94D30146
:1001400001E010E00E94230220916F01082F10E0CF
:10015000000F111FF801ED5CFB4F218304E610E056
:1001600095DF839542E0009132040E94C008801719
:10017000C8F2899108958A9380E004C004E610E0F3
:1001800085DF839542E0009132040E94C008801709
:1001900000F5082F10E0000F111FF801ED5CFB4F78
:1001A00000810093D30101E010E00E94D30101E03F
:1001B00010E00E942302082F10E0000F111FF80129
:1001C000ED5CFB4F018110916F010117B9F206E45C
:1001D00001C003E5899108958A9380E019C0082F32
:1001E00010E0000F111FF801ED5CFB4F0081009340
:1001F000D301082F10E0000F111FF801ED5CFB4F39
:1002000001810093D40102E010E00E94D3018395A4
:1002100042E0009132040E94C008801700F38991E7
:10022000089500936901039500936A01089500E021
:1002300010EE21E030E041E045BF42E045BFF8016B
:100240000995089500E00093650100E000936601C0
:1002500059D001E00093670101E000936801DC9A46
:10026000DD9ADE9A0895013039F4DB9A0AE010E055
:100270000E944D00D99A0895D9980AE010E00E9492
:100280004D00DB980895013099F4C09A0AE010E01F
:100290000E944D00DA9AC29B11C00FEF11E0E3E615
:1002A000F1E0008311830AE010E00E944D00089500
:1002B000DA980AE010E00E944D00C09808951B985B
:1002C000102F10FDC29A10FFC298C29B0CC0C09B99
:1002D0000AC00FEF11E0E3E6F1E0008311830AE0CA
:1002E00010E00E944D0004E610E00E9446000895D0
:1002F000102F10FDC49A10FFC49804E610E00E946D
:100300004600089500E0AFDF00E0BDDF00E0D7DF8A
:1003100000E0EEDF089500E0C0990260C299046039
:1003200008958A93802F81FB16F401E001C000E05C
:10033000AADF04E110E00E944D0082FB16F401E008
:1003400001C000E0BCDF08EC10E00E944D00899184
:1003500008951A9A01E010E00E9446001B9A01E0FD
:1003600010E00E9446001A9801E010E00E9446004A
:100370001B9801E010E00E94460008951B9801E0E0
:1003800010E00E9446001A9801E010E00E9446002A
:100390001B9A01E010E00E9446001A9A01E010E06A
:1003A0000E94460008959A938A93C80101E0009341
:1003B0006D0102E000936D0101E010E00E94460033
:1003C000C8DF01E000936D0102E000936D0101E0E0
:1003D00010E00E94460000916901BCD100E000934A
:1003E0006B0117C001E000936D0102E000936D0105
:1003F00000916B0110E0F801ED52FE4F0081AAD18F
:1004000001E010E00E944600EBE6F1E00081039578
:10041000008300916B0110E00817190718F301E041
:1004200000936D0102E000936D01A8DF01E00093ED
:100430006D0102E000936D0101E010E00E944600B2
:100440008991999108950E94D808D80182DF01E02E
:1004500010E00E94460000916A017CD100E0009308
:100460006B0138C01A9A0091650000610093650025
:1004700001E000936D0102E000936D0101E010E0E6
:100480000E9446001B9A0091650008600093650079
:1004900001E000936D0102E000936D0101E010E0C6
:1004A0000E9446001B9800916500077F009365003D
:1004B00001E010E00E94460020916E0100916B0166
:1004C00010E0F801E159FE4F2083EBE6F1E00081F6
:1004D0000395008300916B0110E00A171B0708F0D9
:1004E00070C00EEE02B900E000936E011A9A0091FE
:1004F000650000610093650001E000936D0102E07A
:1005000000936D0101E010E00E9446000AEE02B97E
:1005100001E000936D0102E000936D0190E880E03E
:100520001BC0092F0095EEE6F1E010811023108327
:10053000009165000F7E009365001B980091650097
:10054000077F00936500969501E000936D0101E03F
:1005500010E00E94460083958830B8F41B9A009101
:10056000650008600093650001E010E00E9446000D
:100570000A9BD7CFEEE6F1E00081092B00830091C2
:100580006500006100936500D8CF0EEE02B901E06E
:1005900000936D0102E000936D0101E010E00E9404
:1005A000460000916B0110E0CD0101970817190773
:1005B00008F058CF1A98009165000F7E00936500EF
:1005C00057CFDCDEE4E00C94DF080E94D608C801B7
:1005D000D901BFDE01E010E00E94460000916A01EF
:1005E000B9D000E000936B0138C01A9A0091650001
:1005F00000610093650001E000936D0102E000934B
:100600006D0101E010E00E9446001B9A0091650018
:1006100008600093650001E000936D0102E0009323
:100620006D0101E010E00E9446001B9800916500FA
:10063000077F0093650001E010E00E9446002091D2
:100640006E0100916B0110E0FD01E00FF11F2083AE
:10065000EBE6F1E000810395008300916B0110E06F
:100660000817190708F072C00EEE02B900E00093F7
:100670006E011A9A0091650000610093650001E027
:1006800000936D0102E000936D0101E010E00E9413
:1006900046000AEE02B901E000936D0102E000930A
:1006A0006D0100E8502E44241BC0052D0095EEE698
:1006B000F1E0108110231083009165000F7E0093FC
:1006C00065001B9800916500077F009365005694B4
:1006D00001E000936D0101E010E00E9446004394A8
:1006E00008E04016B8F41B9A00916500086000937A
:1006F000650001E010E00E9446000A9BD6CFEEE6BE
:10070000F1E00081052900830091650000610093FC
:100710006500D7CF0EEE02B901E000936D0102E053
:1007200000936D0101E010E00E94460000916B0112
:1007300010E0FC0131970E171F0708F056CF1A98EA
:10074000009165000F7E0093650055CF17DEE6E04F
:100750000C94DD088A93802F0EEE02B900E000931E
:100760006C0122C01A980091650000610093650039
:10077000880F1B9A0091650008600093650001E0F6
:1007800000936D0102E000936D0101E010E00E9412
:1007900046001B9800916500077F00936500ECE61A
:1007A000F1E000810395008300916C01083048F46A
:1007B00087FBC6F61A9A00916500006100936500F8
:1007C000D7CF0AEE02B91A9A009165000061009332
:1007D000650001E000936D0102E000936D0101E00E
:1007E00010E00E9446001B9A00916500086000938B
:1007F000650001E000936D0102E000936D0101E0EE
:1008000000936D0102E000936D0101E000936D0122
:1008100002E000936D0101E010E00E9446000EEE40
:1008200002B901E000936D0102E000936D0101E067
:1008300010E00E9446001B9800916500077F00931E
:100840006500899108950E94D808C901DA010093D2
:10085000D30101E010E0A7DD9C018D01B6DEE4E0EC
:100860000C94DF082A931A930A931FB72BB72BBF58
:100870001FBF09911991299118952A931A930A93E8
:100880001FB72BB72BBF1FBF09911991299118953D
:100890002A931A930A931FB72BB72BBF1FBF099137
:1008A0001991299118959A938A93FA93EA935A93F6
:1008B0004A933A932A931A930A934FB75BB70091DE
:1008C0009C00E9E4F9E020813181F901EF59FA4F08
:1008D0000083E9E4F9E000811181F801EF59FA4F52
:1008E0000081033229F4E1E3F4E000810395008301
:1008F000E9E4F9E0808191810196E9E4F9E08083FF
:100900009183883E03E0900730F000E010E0E9E4D6
:10091000F9E0008311835BBF4FBF099119912991C1
:10092000399149915991E991F99189919991189544
:100930002A931A930A931FB72BB72BBF1FBF099196
:10094000199129911895F8940E945E00C79800911A
:100950006500077F00936500009165000F7E00939E
:1009600065000E94220178940E9478000E94AE05E2
:1009700004EF0093690105EF00936A01C79A0091A3
:1009800065000860009365000091650000610093B8
:1009900065000895D8DF00913104013038F00E94DD
:1009A000B107E1E3F4E000810A95008300915F055F
:1009B000013089F700916005013011F40E940205B1
:1009C0000E94E304E8CF43E050E02BE234E000E291
:1009D0000E94230423E030E000E411E00E94830839
:1009E00023E030E00BE214E00E94970803E20E944B
:1009F0005E0800916005002321F404E110E00E94EC
:100A00004D0008950E94D80880E080E012C04AE0BE
:100A100050E0DA01482F50E00AE010E00E94CE08D2
:100A200027E332E0200F311FAD0100E30E942304D1
:100A30008395823360F380E08BC0482F50E00AE05A
:100A400010E00E94CE08F801E95CFD4F90819E7F86
:100A5000482F50E00AE010E00E94CE08F801E95C5F
:100A6000FD4F07810E7F901771F4482F50E00AE088
:100A700010E00E94CE08F801E95CFD4F00810E7F76
:100A8000002309F04AC0482F50E00AE010E00E941D
:100A9000CE08F801E95CFD4F91819D7F482F50E021
:100AA0000AE010E00E94CE08F801E95CFD4F0085E5
:100AB0000D7F901769F4482F50E00AE010E00E9483
:100AC000CE08F801E95CFD4F01810D7F002329F577
:100AD000482F50E00AE010E00E94CE08F801E95CDF
:100AE000FD4F92819F77482F50E00AE010E00E946E
:100AF000CE08F801E95CFD4F01850F77901739F5B5
:100B0000482F50E00AE010E00E94CE08F801E95CAE
:100B1000FD4F02810F770023D1F023E030E004E4A1
:100B200011E00E94830827E030E0D901482F50E00F
:100B30000AE010E00E94CE08980107E312E0020FDD
:100B4000131F9D010E94970803E20E945E0883958F
:100B5000823308F472CFE4E00C94DF0800E010E088
:100B6000E9E4F9E00083118300E010E0EBE4F9E050
:100B70000083118300E00093310400E000935F05DF
:100B800000E00093600500E0009330040DC000E039
:100B90002091300430E0F901E25DFB4F0083E0E397
:100BA000F4E000810395008300913004023078F373
:100BB00008958A9300912F04015409F41CC1025036
:100BC00009F4EFC0055009F4FFC00A9509F422C1E9
:100BD000075009F4DCC0025009F442C0025009F485
:100BE000CCC0035021F00A9509F48CC04CC10E947E
:100BF0001D08009332041091320402E0109F00920D
:100C0000320400E0009330040EC00E941D082091C1
:100C1000300430E0F901ED5CFB4F0083E0E3F4E0E9
:100C20000081039500830091300410913204011774
:100C300060F30E94EC000E94BB00802F04E20E943F
:100C40005E0800912E040E945E0800912F040E940D
:100C50005E08082F0E945E0803E20E945E0813C12E
:100C60000E941D08009332041091320402E0109F8C
:100C70000092320400E0009330040EC00E941D0870
:100C80002091300430E0F901ED5CFB4F0083E0E39C
:100C9000F4E000810E5F0083009130041091320473
:100CA000011760F30E948F0004E20E945E08009129
:100CB0002E040E945E0800912F040E945E0842E00C
:100CC000009132040E94C0080E94660800E0009370
:100CD00030040EC00091300410E0F801ED5CFB4FD1
:100CE00000810E946608E0E3F4E000810395008340
:100CF0000091300410913204011760F303E20E9466
:100D00005E08C1C00E941D08009332041091320495
:100D100002E0109F0092320400E0009330040EC005
:100D20000E941D082091300430E0F901ED5CFB4F7A
:100D30000083E0E3F4E000810E5F00830091300463
:100D400010913204011760F30E948F0004E20E94A8
:100D50005E0800912E040E945E0800912F040E94FC
:100D60005E08009133040E946608009134040E94DA
:100D7000660803E20E945E0886C00E94FF070534F1
:100D800011F401E001C000E000935F057CC00E9407
:100D9000FF07053411F401E001C000E00093600595
:100DA00072C004E20E945E0800912E040E945E0858
:100DB00000912F040E945E08009169010E9466085C
:100DC00003E20E945E085FC00E941D080E9411019C
:100DD00004E20E945E0800912E040E945E080091C9
:100DE0002F040E945E08009169010E94660803E2D8
:100DF0000E945E0848C004E20E945E0800912E0432
:100E00000E945E0800912F040E945E0803E20E9487
:100E10005E0839C00CE00093D30101E010E00E94AD
:100E2000D30101E010E00E9423020CE00093D30103
:100E300000916F0108600093D40102E010E00E946D
:100E4000D3010AE010E00E944D000CE00093D301B2
:100E500000916F01077F0093D40102E010E00E942F
:100E6000D3010AE010E00E944D0004E20E945E08F7
:100E700000912E040E945E0800912F040E945E08DB
:100E800003E20E945E08899108958A9300912F04DD
:100E9000023599F40E948B01802F04E20E945E08C3
:100EA00022E030E00EE214E00E948308082F0E9446
:100EB000660803E20E945E0852C000912F040735C5
:100EC00069F40E941D08802F082F0E9491010AE0FA
:100ED00010E00E944D000E948B0141C000912F0440
:100EE000063409F504E20E945E0800912E040E9477
:100EF0005E0800912F040E945E0825E030E008E4BF
:100F000011E00E94830828E030E00EE411E00E9426
:100F100083082BE030E007E511E00E94830803E23C
:100F20000E945E081CC000912F040D3419F40E9429
:100F3000170115C000912F04033489F404E20E94C4
:100F40005E0800912E040E945E0800912F040E940A
:100F50005E0801E40E945E0803E20E945E08899137
:100F600008950E94FF07003429F00E94FF07033212
:100F7000E1F708950E94FF0700932E040E94FF07E7
:100F800000932F0400912E04023511F412DE05C0E7
:100F900000912E04083409F478DF0E94FF07033221
:100FA00021F00E94FF070332E1F70895F80100E005
:100FB00010E02081203330F020812A3318F40081A2
:100FC000005308C02081213428F02081273410F4F8
:100FD000008107530295007F2181203330F0218169
:100FE0002A3318F41181105308C02181213428F0CC
:100FF0002181273410F411811753012B0895AC017E
:10100000EBE4F9E000811181F801EF59FA4F00811A
:10101000EBE4F9E0808191810196EBE4F9E08083D3
:101020009183883E13E0910730F020E030E0EBE45C
:10103000F9E020833183CA0108959A938A93229715
:10104000EBE4F9E000811181F801EF59FA4F0081DA
:101050000883EBE4F9E0808191810196EBE4F9E00B
:1010600080839183883E03E0900730F000E010E039
:10107000EBE4F9E000831183EBE4F9E000811181F6
:10108000F801EF59FA4F00810983EBE4F9E0808120
:1010900091810196EBE4F9E080839183883E03E03F
:1010A000900730F000E010E0EBE4F9E000831183FA
:1010B0008E017CDF229689919991089510919B0071
:1010C000212F25FFFBCF00939C0008958A93802F4A
:1010D000082F02950F700A3010F4005D05C00A3029
:1010E00018F0003108F4095CE9DF8F70082F0A302E
:1010F00010F4005D05C00A3018F0003108F4095CF6
:10110000DDDF899108950E94D608C801D9014424E1
:1011100007C05524FC01E40DF51D0081CFDF439489
:1011200055244A165B06ACF3E6E00C94DD080E94F9
:10113000D608C801D901442407C05524FC01E40D98
:10114000F51D0081C3DF439455244A165B06ACF3BA
:10115000E6E00C94DD0800008895FECF0FE30DBF9C
:1011600001E00EBFC0E2D1E00E94E808002311F0C8
:101170000E94FA080E94CA040E94AB080C94AB08B3
:101180000024E8E0EA9532F0001F001C0416D0F3BA
:10119000041AF8CF001F402D00950895149F102DBC
:1011A000059F100D049F002D110D08955A924A922B
:1011B000BA93AA939A938A9308955D804C80BB81D9
:1011C000AA8199818881F0E0EC0FFD1FEF0108955D
:1011D00001E0089520E008D0E9F708953BBF27918A
:1011E0003BB702D0D9F708952D9301501040202F1E
:1011F000212B089504E5402E02E1502E00E0602EE0
:10120000F201362D6BBE07911691F201EE5FFF4F92
:101210003F4F3BBFA791B691F201362DEC5FFF4FD8
:101220003F4F3BBF479157916691242F252B262B8B
:1012300021F0FA01362FD2DF01C0CCDF07E0400EEB
:1012400000E0501E601EA201662D423652416040F1
:10125000B8F20895EA07630100000023004001622C
:1012600012002452540024525000332E31322000F8
:1012700032303230303232370054533230204A4923
:05128000472046570065
:0400000300000000F9
:00000001FF
