:020000020000FC
:100000000C94250C18951895189518951895189511
:100010001895189518951895189518951895189578
:1000200018951895189518950C94A8051895189575
:1000300018951895189518950C949205189518957B
:100040000C949D0518951895189518951895189560
:100050001895189518951895189518951895189538
:100060001895189518951895189518951895189528
:1000700018951895189518950C94B305189518951A
:100080000C94F805189518951895189598018901FC
:1000900001501040232BD1F70895AC0107C084E331
:1000A00098E0FC01CF010197EF2BD9F79801890166
:1000B00001501040232B99F7CA01089500B5046040
:1000C00000BDA89501B5086101BD00E001BD0AB3FE
:1000D0000E630ABB17B30FEF07BB24B30FEF04BBCC
:1000E0000FED02B90FEF0093640000E0009365008C
:1000F0001B9A1C98A8980FEF02BB08950BEF01BB49
:1001000000E0009398000FE00093990002E0009354
:100110009B0008E100939A0006E000939D00009187
:100120009A00006C00939A0008958A93DD9880E00D
:1001300020C0082F10E0000F111FF801E25DFB4FF7
:1001400000810093DF0101E010E00E944B0301E019
:1001500010E00E949B0320917B01082F10E0000F0C
:10016000111FF801E25DFB4F218304E610E08EDFF2
:10017000839542E000912D040E94370C8017C8F24D
:10018000899108958A93DD9880E039C0082F10E0A6
:10019000000F111FF801E25DFB4F0081033059F59C
:1001A000EEE6F1E000811181228133810F7F1F7F14
:1001B000217030700083118322833383082F10E075
:1001C000000F111FF801E25DFB4F018110E0312F9C
:1001D000202F10E000E0220F331FEEE6F1E0408117
:1001E000518162817381402B512B622B732B408391
:1001F00051836283738304E610E048DF839542E015
:1002000000912D040E94370C801708F005C1082FBB
:1002100010E0000F111FF801E25DFB4F0081009319
:10022000DF0101E010E00E944B0301E010E00E94BA
:100230009B03082F10E0000F111FF801E25DFB4F38
:1002400000810A35D9F2082F10E0000F111FF801C4
:10025000E25DFB4F00810B3589F2082F10E0000FA3
:10026000111FF801E25DFB4F00810D3539F2082FB7
:1002700010E0000F111FF801E25DFB4F00810E3509
:1002800009F4BCCF082F10E0000F111FF801E25D48
:10029000FB4F00810F3509F4B1CF082F10E0000F9C
:1002A000111FF801E25DFB4F0081063709F4A6CF6C
:1002B000082F10E0000F111FF801E25DFB4F0081D5
:1002C000073709F49BCF082F10E0000F111FF8012A
:1002D000E25DFB4F00810A3A09F490CF082F10E04D
:1002E000000F111FF801E25DFB4F018110917B01AE
:1002F000011711F006E491C0082F10E0000F111F44
:10030000F801E25DFB4F00810130A1F0082F10E001
:10031000000F111FF801E25DFB4F0081023051F028
:10032000082F10E0000F111FF801E25DFB4F008164
:10033000033019F401E000937201082F10E0000F60
:10034000111FF801E25DFB4F0081013061F5EEE61F
:10035000F1E0008111812281338101701E7F2F73B2
:1003600030700083118322833383082F10E0000F45
:10037000111FF801E25DFB4F018110E020E030E049
:10038000000F111F221F331FEEE6F1E04081518163
:1003900062817381402B512B622B732B40835183DD
:1003A0006283738328CF082F10E0000F111FF8011C
:1003B000E25DFB4F0081023009F0E8CEEEE6F1E0AD
:1003C00000811181228133810F7F11702E73307073
:1003D0000083118322833383082F10E0000F111F45
:1003E000F801E25DFB4F018110E020E0322F212F68
:1003F000102F00E0110F221F331FEEE6F1E04081C5
:10040000518162817381402B512B622B732B40836E
:10041000518362837383EFCE03E5899108958A93B4
:10042000DD9880E038C0082F10E0000F111FF801A0
:10043000E25DFB4F00810093DF01082F10E0000F09
:10044000111FF801E25DFB4F01810093E00102E022
:1004500010E00E944B03082F10E0000F111FF8015D
:10046000E25DFB4F00810430A9F4082F10E0000F7B
:10047000111FF801E25DFB4F018100937501082F08
:1004800010E0000F111FF801E25DFB4F01810395A1
:1004900000937601839542E000912D040E94370C71
:1004A000801708F2899108958A93802FDD9804E0DF
:1004B0000093DF018093E00102E010E00E944B0313
:1004C000809375018395809376018991089500E06A
:1004D00010EE21E030E041E045BF42E045BFF801C9
:1004E000099508950CE20093DF0101E010E00E94FD
:1004F0004B0301E010E00E949B030CE20093DF013C
:1005000000917B0101600093E00102E010E00E9495
:100510004B030AE010E0C1DD0CE20093DF01009123
:100520007B010093E00102E010E00E944B030AE02F
:1005300010E0B3DD089500E00093730100E0009344
:10054000740158D00895013039F4DB9A0AE010E0C4
:100550000E944D00D99A0895D9980AE010E00E94AF
:100560004D00DB9808950130B9F4C09A0AE010E01C
:100570000E944D00DA9AC29B15C00FEF1FEF2FE1CA
:1005800030E0EEE6F1E000831183228333830AE05A
:1005900010E00E944D000895DA980AE010E00E94F1
:1005A0004D00C09808951B98102F10FDC29A10FF9F
:1005B000C298C29B10C0C09B0EC00FEF1FEF2FE16F
:1005C00030E0EEE6F1E000831183228333830AE01A
:1005D00010E00E944D0004E610E00E9446000895DD
:1005E000102F10FDC49A10FFC49804E610E00E947A
:1005F0004600089500E0A7DF00E0B5DF00E0D3DFAC
:1006000000E0EEDF089500E0C0990260C299046046
:1006100008958A93802F81FB16F401E001C000E069
:10062000A2DF04E110E00E944D0082FB16F401E01D
:1006300001C000E0B8DF08EC10E00E944D00899195
:1006400008951A9A01E010E00E9446001B9A01E00A
:1006500010E00E9446001A9801E010E00E94460057
:100660001B9801E010E00E94460008951B9801E0ED
:1006700010E00E9446001A9801E010E00E94460037
:100680001B9A01E010E00E9446001A9A01E010E077
:100690000E94460008959A938A93C80101E000934E
:1006A000790102E00093790101E010E00E94460028
:1006B000C8DF01E00093790102E00093790101E0D5
:1006C00010E00E94460000917501B6D100E0009351
:1006D000770117C001E00093790102E000937901EE
:1006E0000091770110E0F801E152FE4F0081A4D1A2
:1006F00001E010E00E944600E7E7F1E00081039589
:1007000000830091770110E00817190718F301E042
:100710000093790102E000937901A8DF01E00093E2
:10072000790102E00093790101E010E00E944600A7
:100730008991999108950E945C0CD80182DF01E0B3
:1007400010E00E9446000091760176D100E000930F
:10075000770138C01A9A0091650000610093650026
:1007600001E00093790102E00093790101E010E0DB
:100770000E9446001B9A0091650008600093650086
:1007800001E00093790102E00093790101E010E0BB
:100790000E9446001B9800916500077F009365004A
:1007A00001E010E00E94460020917A01009177015B
:1007B00010E0F801E558FE4F2083E7E7F1E0008103
:1007C000039500830091770110E00A171B0708F0DA
:1007D0006DC0129A00E000937A011A9A00916500A8
:1007E00000610093650001E00093790102E000934D
:1007F000790101E010E00E944600129801E00093A8
:10080000790102E00093790190E880E01BC0092F94
:100810000095EAE7F1E01081102310830091650054
:100820000F7E009365001B9800916500077F009381
:100830006500969501E00093790101E010E00E94C7
:10084000460083958830B8F41B9A009165000860D3
:100850000093650001E010E00E9446000A9BD7CF9C
:10086000EAE7F1E00081092B008300916500006157
:1008700000936500D8CF129A01E00093790102E05D
:100880000093790101E010E00E9446000091770199
:1008900010E0CD0101970817190708F05BCF1A98EF
:1008A000009165000F7E009365005ACFDFDEE4E023
:1008B0000C94680C0E945A0CC801D901C2DE01E0F8
:1008C00010E00E94460000917601B6D000E000934F
:1008D000770138C01A9A00916500006100936500A5
:1008E00001E00093790102E00093790101E010E05A
:1008F0000E9446001B9A0091650008600093650005
:1009000001E00093790102E00093790101E010E039
:100910000E9446001B9800916500077F00936500C8
:1009200001E010E00E94460020917A0100917701D9
:1009300010E0FD01E00FF11F2083E7E7F1E0008107
:10094000039500830091770110E00817190708F05C
:100950006FC0129A00E000937A011A9A0091650024
:1009600000610093650001E00093790102E00093CB
:10097000790101E010E00E944600129801E0009326
:10098000790102E00093790100E8502E44241BC055
:10099000052D0095EAE7F1E0108110231083009106
:1009A00065000F7E009365001B9800916500077F2E
:1009B00000936500569401E00093790101E010E096
:1009C0000E944600439408E04016B8F41B9A009138
:1009D000650008600093650001E010E00E94460099
:1009E0000A9BD6CFEAE7F1E0008105290083009158
:1009F0006500006100936500D7CF129A01E0009373
:100A0000790102E00093790101E010E00E944600C4
:100A10000091770110E0FC0131970E171F0708F0D5
:100A200059CF1A98009165000F7E0093650058CF4A
:100A30001DDEE6E00C94660C8A93802F129A00E08B
:100A40000093780122C01A9800916500006100931C
:100A50006500880F1B9A009165000860009365008F
:100A600001E00093790102E00093790101E010E0D8
:100A70000E9446001B9800916500077F0093650067
:100A8000E8E7F1E0008103950083009178010830E8
:100A900048F487FBC6F61A9A00916500006100933E
:100AA0006500D7CF12981A9A0091650000610093F3
:100AB000650001E00093790102E00093790101E013
:100AC00010E00E9446001B9A0091650008600093A8
:100AD000650001E00093790102E00093790101E0F3
:100AE0000093790102E00093790101E0009379011C
:100AF00002E00093790101E010E00E944600129AA2
:100B000001E00093790102E00093790101E010E037
:100B10000E9446001B9800916500077F00936500C6
:100B2000899108952A931A930A931FB72BB72BBF65
:100B30001FBF09911991299118952A931A930A9325
:100B40001FB72BB72BBF1FBF09911991299118957A
:100B50002A931A930A931FB72BB72BBF1FBF099174
:100B60001991299118959A938A93FA93EA935A9333
:100B70004A933A932A931A930A934FB75BB700911B
:100B80009C00E6E4F9E020813181F901E25AFA4F54
:100B90000083E6E4F9E000811181F801E25AFA4F9E
:100BA0000081033229F4ECE2F4E000810395008334
:100BB000E6E4F9E0808191810196E6E4F9E0808342
:100BC0009183883E03E0900730F000E010E0E6E417
:100BD000F9E0008311835BBF4FBF099119912991FF
:100BE000399149915991E991F99189919991189582
:100BF0002A931A930A931FB72BB72BBF1FBF0991D4
:100C0000199129911895F8940E945E00DC9AC79872
:100C100000916500077F00936500009165000F7EDD
:100C2000009365000E949B0278940E947E000E94BF
:100C3000900808E60093750109E600937601C79ACB
:100C400000916500086000936500009165000061F7
:100C5000009365000895D7DF0EC000915C05013058
:100C600011F40E9416070E94520600915D050130A2
:100C700011F40E947E07DD9A00912C04013038F0B7
:100C80000E94280BECE2F4E000810A9500830091B9
:100C90005A05013051F700915B050130F1F60E94D1
:100CA0007806E1CF23E030E000E411E00E94FA0B87
:100CB00002E60093DF0101E010E00E944B0303E035
:100CC00010E00E949B0300917D010F700E94DD0BDC
:100CD00000917C010E94DD0B00917B010E94DD0BE5
:100CE00003E20E94D50B01E010E00E944D00089540
:100CF0009A938A9391E08FEF00E00093D3031BC097
:100D00000DE60093DF0101E010E00E944B034091EB
:100D1000D30350E008E010E00E94450C23E432E0E9
:100D2000200F311F08E010E00E945A04E3EDF3E0C9
:100D30000081039500830091D303023340F401E066
:100D400090279923E9F605E60093DF01DCCF00E068
:100D50000093D30363C04091D30350E008E010E058
:100D60000E94450CF801ED5BFD4F90819F71409111
:100D7000D30350E008E010E00E94450CF801ED5B61
:100D8000FD4F06810F71901709F043C04091D303C6
:100D900050E008E010E00E94450CF801ED5BFD4FCB
:100DA00000810F710631A8F54091D30350E008E0AF
:100DB00010E00E94450CF801ED5BFD4F00810F71C2
:100DC000081739F123E030E004E411E00E94FA0B47
:100DD00025E030E0C9014091D30350E008E010E085
:100DE0000E94450C980103E412E0020F131F9C01BE
:100DF0000E940E0C03E20E94D50B4091D30350E0F9
:100E000008E010E00E94450CF801ED5BFD4F808189
:100E10008F71E3EDF3E00081039500830091D3032C
:100E2000023308F498CF8991999108958A9320E02C
:100E300000E081E028C00DE60093DF0101E010E052
:100E40000E944B0308E010E00E949B0310917B017D
:100E50001F71009181010F711017E9F51817D9F56D
:100E600023E030E008E411E00E94FA0B082F0E9412
:100E7000DD0B23E030E00DE711E00E940E0C03E2F1
:100E80000E94D50B8395863168F58B30D9F38C3071
:100E9000C9F38D30B9F38531A9F38C3018F4282FBC
:100EA00004E00AC0282F2295207F220F082F0695E4
:100EB000069506950370046010E61093DF012093F9
:100EC000E0010093E10103E010E00E944B0308E21F
:100ED00010E00E944D008C3008F0ADCF05E6009385
:100EE000DF01ACCF01E60093DF0100E00093E001F9
:100EF00002E010E00E944B03899108950E94550C76
:100F0000AA2444245524662477249924939444E500
:100F100050E020E030E005ED13E00E94730C01E0AA
:100F20000093D3034FC00091D40310E0F801ED5BB0
:100F3000FD4F32810A2D10E0000F111F000F111F0D
:100F4000E5EDF3E0E00FF11F0091D40310E0E00FB6
:100F5000F11F3083E4EDF3E00081039500830091FD
:100F6000D403043000F301E010E00E944D00482A51
:100F7000592A6A2A7B2A8394082D802E0832F8F198
:100F800023E030E00CE411E00E94FA0B0091D3035F
:100F90000E94DD0B24E530E005ED13E00E940E0C0D
:100FA00003E20E94D50B01E60093DF0100E000930D
:100FB000E00102E010E00E944B03E3EDF3E000816A
:100FC000039500830091D3030E3008F095C001E62D
:100FD0000093DF010091D303000F000F000F0068A2
:100FE0000093E00102E010E00E944B030AE010E0F1
:100FF0000E944D0044245524662477248824EEE67C
:10100000F1E00081118122813381A201B3014023EB
:10101000512362237323EEE6F1E0008111812281E6
:101020003381401751076207730709F4A9CF01E024
:101030009026992021F405E60093DF0103C00DE618
:101040000093DF0101E010E00E944B0323E432E053
:1010500008E010E00E945A0403E412E050D0A02EF1
:101060000FEFA01609F487CF4A2D01E010E020E031
:1010700030E00E944D0CC801D901EEE6F1E000819C
:10108000118122813381AC01BD01402351236223B0
:101090007323452B462B472BF9F400E00093D40330
:1010A0000091D403043008F066CF20E00A2D10E050
:1010B000000F111F000F111FE5EDF3E0E00FF11F0E
:1010C0000091D40310E0E00FF11F2083E4EDF3E082
:1010D000008103950083E4CF820193010823192343
:1010E0002A233B23081719072A073B0709F443CF94
:1010F00000E00093D40333CFEBE00C94610CF801D3
:1011000020812F71F80106810F71201711F00FEF68
:101110000895263110F00FEF08952A95022F0895B3
:1011200000E010E0E6E4F9E00083118300E010E065
:10113000E8E4F9E00083118300E000932B040DC084
:1011400000E020912B0430E0F901E75DFB4F0083C4
:10115000EBE2F4E000810395008300912B04023060
:1011600078F300E000932C0400E000935A0500E0BF
:1011700000935B0500E000935C0500E000935D05D3
:1011800008958A9300912A040735C9F50E94940BAB
:1011900000932D0410912D0402E0109F00922D0465
:1011A00000E000932B040EC00E94940B20912B04AE
:1011B00030E0F901E25DFB4F0083EBE2F4E00081F7
:1011C0000395008300912B0410912D04011760F307
:1011D0000E940F020E94C200802F04E20E94D50BE1
:1011E000009129040E94D50B00912A040E94D50B7E
:1011F000082F0E94D50B03E20E94D50BABC10091D2
:101200002A04023509F052C00E94940B00932D0469
:1012100010912D0402E0109F00922D0400E0009335
:101220002B040EC00E94940B20912B0430E0F90196
:10123000E25DFB4F0083EBE2F4E000810E5F008390
:1012400000912B0410912D04011760F30E9495006A
:1012500004E20E94D50B009129040E94D50B009155
:101260002A040E94D50B42E000912D040E94370C05
:101270000E94DD0B00E000932B040EC000912B04B4
:1012800010E0F801E25DFB4F00810E94DD0BEBE214
:10129000F4E000810395008300912B0410912D044C
:1012A000011760F303E20E94D50B54C100912A0498
:1012B0000835D9F50E94940B00932D0410912D044C
:1012C00002E0109F00922D0400E000932B040EC05A
:1012D0000E94940B20912B0430E0F901E25DFB4F5A
:1012E0000083EBE2F4E000810E5F008300912B04A9
:1012F00010912D04011760F30E94950004E20E94F2
:10130000D50B009129040E94D50B00912A040E945C
:10131000D50B00912E040E94DD0B00912F040E943A
:10132000DD0B03E20E94D50B15C100912A0409359B
:10133000E1F501E000932D0410912D0402E0109FCF
:1013400000922D040E94940B0093DF010E94940BE5
:101350000093E00102E010E00E944B0308EC10E073
:101360000E9446000091DF010093DF0101E010E0E0
:101370000E944B0301E010E00E949B0304E20E94E4
:10138000D50B009129040E94D50B00912A040E94DC
:10139000D50B0091DF010E94DD0B00917B010E94C3
:1013A000DD0B03E20E94D50BD5C000912A04043561
:1013B00051F40E94760B053411F401E001C000E005
:1013C00000935A05C7C000912A04003551F40E94C9
:1013D000760B053411F401E001C000E000935B05D9
:1013E000B9C000912A040F3451F40E94760B0534E1
:1013F00011F401E001C000E000935C05ABC0009176
:101400002A040D3451F40E94760B053411F401E0E6
:1014100001C000E000935D059DC000912A040334E3
:1014200099F404E20E94D50B009129040E94D50B87
:1014300000912A040E94D50B009175010E94DD0BDA
:1014400003E20E94D50B86C000912A040834B9F447
:101450000E94940B0E94540204E20E94D50B00915A
:1014600029040E94D50B00912A040E94D50B0091FB
:1014700075010E94DD0B03E20E94D50B6BC0009149
:101480002A04013409F052C00E94940B00932D04E9
:1014900010912D0402E0109F00922D0400E00093B3
:1014A0002B040EC00E94940B20912B0430E0F90114
:1014B000E25DFB4F0083EBE2F4E000810E5F00830E
:1014C00000912B0410912D04011760F304E20E9497
:1014D000D50B009129040E94D50B00912A040E948B
:1014E000D50B0E94950042E000912D040E94370C1C
:1014F0000E94DD0B00E000932B040EC000912B0432
:1015000010E0F801E25DFB4F00810E94DD0BEBE291
:10151000F4E000810395008300912B0410912D04C9
:10152000011760F303E20E94D50B14C000912A0456
:10153000093481F40E94720204E20E94D50B0091EA
:1015400029040E94D50B00912A040E94D50B03E2C6
:101550000E94D50B899108958A9300912A0402353F
:1015600099F40E940303802F04E20E94D50B22E02D
:1015700030E009E214E00E94FA0B082F0E94DD0B14
:1015800003E20E94D50B62C000912A040735E9F4FA
:101590000E94940B802F082F0E9409030AE010E09C
:1015A0000E944D000E940303802F04E20E94D50B8D
:1015B00022E030E009E214E00E94FA0B082F0E94BA
:1015C000DD0B03E20E94D50B41C000912A040634D2
:1015D00009F504E20E94D50B009129040E94D50B65
:1015E00000912A040E94D50B25E030E000E511E0CF
:1015F0000E94FA0B28E030E006E511E00E94FA0BA9
:101600002EE030E00FE511E00E94FA0B03E20E94A9
:10161000D50B1CC000912A040D3419F40E946702F6
:1016200015C000912A04033489F404E20E94D50B0A
:10163000009129040E94D50B00912A040E94D50B29
:1016400001E40E94D50B03E20E94D50B8991089515
:101650000E94760B003429F00E94760B0332E1F7EA
:1016600008950E94760B009329040E94760B009344
:101670002A0400912904023511F483DD05C000918C
:101680002904083409F468DF0E94760B033221F044
:101690000E94760B0332E1F70895F80100E010E0B4
:1016A0002081203330F020812A3318F40081005348
:1016B00008C02081213428F02081273410F40081D3
:1016C00007530295007F2181203330F021812A3396
:1016D00018F41181105308C02181213428F0218190
:1016E000273410F411811753012B0895AC01E8E45D
:1016F000F9E000811181F801E25AFA4F0081E8E433
:10170000F9E0808191810196E8E4F9E0808391839A
:10171000883E13E0910730F020E030E0E8E4F9E0A3
:1017200020833183CA0108959A938A932297E8E42B
:10173000F9E000811181F801E25AFA4F0081088333
:10174000E8E4F9E0808191810196E8E4F9E08083A2
:101750009183883E03E0900730F000E010E0E8E479
:10176000F9E000831183E8E4F9E000811181F801D8
:10177000E25AFA4F00810983E8E4F9E0808191811F
:101780000196E8E4F9E080839183883E03E09007C6
:1017900030F000E010E0E8E4F9E0008311838E010E
:1017A0007CDF229689919991089510919B00212FB9
:1017B00025FFFBCF00939C0008958A93802F082F6C
:1017C00002950F700A3010F4005D05C00A3018F061
:1017D000003108F4095CE9DF8F70082F0A3010F43B
:1017E000005D05C00A3018F0003108F4095CDDDF47
:1017F000899108950E945A0CC801D901442407C058
:101800005524FC01E40DF51D0081CFDF43945524E0
:101810004A165B06ACF3E6E00C94660C0E945A0C88
:10182000C801D901442407C05524FC01E40DF51D6D
:101830000081C3DF439455244A165B06ACF3E6E00F
:101840000C94660C00008895FECF0FE30DBF01E0FD
:101850000EBFC0E2D1E00E94710C002311F00E9483
:101860008C0C0E942B060E94220C0C94220C00244B
:10187000E8E0EA9532F0001F001C0416D0F3041AC9
:10188000F8CF001F402D00950895149F102D059F3F
:10189000100D049F002D110D08954A952AF0000F98
:1018A000111F221F331FF9CF0895AA929A928A928C
:1018B0007A926A925A924A92BA93AA939A938A9384
:1018C0000895AA84998488847F806E805D804C808E
:1018D000BB81AA8199818881F0E0EC0FFD1FEF01A7
:1018E000089501E00895F80101C02193BA01415023
:1018F0005040672BD1F7089520E008D0E9F708950C
:101900003BBF27913BB702D0D9F708952D930150E3
:101910001040202F212B089508E7402E09E1502E7A
:1019200000E0602EF201362D6BBE07911691F20198
:10193000EE5FFF4F3F4F3BBFA791B691F201362DAF
:10194000EC5FFF4F3F4F3BBF479157916691242F6C
:10195000252B262B21F0FA01362FD2DF01C0CCDF58
:1019600007E0400E00E0501E601EA201662D4638C2
:1019700059416040B8F20895DC076E010000002E66
:101980000040018619002452540024525000245271
:101990004F0024524D00332E313420003230313884
:1019A0003131303800414E4D473136204A494720C9
:0419B000462F570067
:0400000300000000F9
:00000001FF
