:020000020000FC
:100000000C942B1418951895189518951895189503
:100010001895189518951895189518951895189578
:1000200018951895189518950C94890E189518958B
:1000300018951895189518950C94570E18951895AD
:100040000C94620E18951895189518951895189592
:100050001895189518951895189518951895189538
:100060001895189518951895189518951895189528
:1000700018951895189518950C94940E1895189530
:100080000C94D90E18951895189518959A938A93EB
:10009000C80103C008EE13E008D0FC01CF010197AE
:1000A000EF2BC1F789919991089598018901015029
:1000B0001040232BD1F70895F894E199FECF1FBB90
:1000C0000EBB2DBBE29AE19A78940895F894E199D9
:1000D000FECF1FBB0EBBE09A78940DB3089500B518
:1000E000046000BDA89501B5086101BD00E001BD37
:1000F0000AB30E630ABB17B30FEF07BB24B30FEFAE
:1001000004BB0FED02B90FEF0093640000E0009311
:100110006500A8980FEF02BB1B981C9A1E980895C3
:100120000BEF01BB00E0009398000FE000939900F3
:1001300002E000939B0008E100939A0006E0009320
:100140009D0000919A00006C00939A0008958A9394
:10015000DD9880E01AC021E030E0082F10E0000FA9
:10016000111FF801EA5BFD4F00810E944A0E2091A9
:100170006D01082F10E0000F111FF801EA5BFD4F21
:10018000218304E610E091DF839542E0009145026F
:100190000E943D148017F8F2899108958A93DD98A2
:1001A00080E004C004E610E080DF839542E0009127
:1001B00045020E943D148017D0F421E030E0082F62
:1001C00010E0000F111FF801EA5BFD4F00810E9453
:1001D0004A0E082F10E0000F111FF801EA5BFD4FD7
:1001E000018110916D010117E9F206E401C003E5F8
:1001F000899108958A93DD9880E019C0082F10E056
:10020000000F111FF801EA5BFD4F00810093D1013F
:10021000082F10E0000F111FF801EA5BFD4F01816C
:100220000093D20102E010E00E948408839542E02E
:10023000009145020E943D14801700F389910895B2
:10024000DD980093680103950093690108959A93DE
:100250008A93DD9800E010E039DF0093720300918B
:1002600072030023A9F0009172030F3F89F080E030
:100270000BC0082F10E00F5F1F4F28DF90E0FC013C
:10028000ED58FC4F0083839500917203801788F32B
:100290008991999108959A938A93DD9800E010E0EE
:1002A00015DF0093720300917203002321F0009187
:1002B00072030F3F11F406E416C080E001C083957D
:1002C00000917203801770F4082F10E00F5F1F4F2A
:1002D000FDDE90E0FC01ED58FC4F1081101779F322
:1002E00006E401C003E58991999108959A938A9350
:1002F000DD982091720300E010E0DEDE80E00BC0AC
:1003000090E0FC01ED58FC4F2081082F10E00F5FBA
:100310001F4FD2DE839500917203801788F3899175
:100320009991089500E010EE21E030E041E045BFF2
:1003300042E045BFF801099508951E9808EE13E0C4
:10034000B4DE1E9A08EE13E0B0DE1E9808EE13E04D
:10035000ACDE0895AC0107C084E398E0FC01CF0156
:100360000197EF2BD9F79801890101501040232BF9
:1003700099F7CA01089501E00093660100E0009337
:10038000670131D008950895013069F4C09A0AE0F8
:1003900010E00E94AA01DA9A00E510E00E944600EF
:1003A0000E949D010895DA980AE010E00E94AA01D7
:1003B000C0980895102F10FDC29A10FFC29804E64D
:1003C00010E00E9455000895002311F401E001C0DF
:1003D00000E0102F10FD1C9A10FF1C9804E610E09E
:1003E0000E945500089500E0CEDF00E0CDDF00E080
:1003F000E1DF00E0E9DF0895002311F4DD980895BE
:10040000DD9A089500E0C0990260C29904601C9BC7
:10041000016008958A93802F81FB16F401E001C0EA
:1004200000E0B2DF04E110E00E94AA0182FB16F4B2
:1004300001E001C000E0BEDF04E110E00E94AA017B
:10044000082F0170C1DF08EC10E00E94AA01899119
:1004500008950093680101600093690108951A9A54
:1004600001E000936B011B9A01E000936B011A9865
:1004700001E000936B0102E000936B0101E0009347
:100480006B0102E000936B0101E000936B0101E05E
:1004900000936B0102E000936B0101E000936B019C
:1004A00002E000936B0101E000936B0101E0009317
:1004B0006B0102E000936B0101E000936B0102E02D
:1004C00000936B0101E000936B0101E000936B016D
:1004D00002E000936B0101E000936B0102E00093E6
:1004E0006B0101E000936B011B9801E000936B012D
:1004F00002E000936B0101E000936B0102E00093C6
:100500006B0101E000936B0101E000936B0102E0DD
:1005100000936B0101E000936B0102E000936B011B
:1005200001E000936B0101E000936B0102E0009396
:100530006B0101E000936B0102E000936B0101E0AD
:1005400000936B0101E000936B0102E000936B01EB
:1005500001E000936B0102E000936B0101E0009366
:100560006B0108951B9801E000936B011A9801E05C
:1005700000936B011B9A01E000936B0102E0009372
:100580006B0101E000936B0102E000936B0101E05D
:1005900000936B0101E000936B0102E000936B019B
:1005A00001E000936B0102E000936B0101E0009316
:1005B0006B0101E000936B0102E000936B0101E02D
:1005C00000936B0102E000936B0101E000936B016B
:1005D00001E000936B0102E000936B0101E00093E6
:1005E0006B0102E000936B0101E000936B011A9A2A
:1005F00001E000936B0102E000936B0101E00093C6
:100600006B0102E000936B0101E000936B0101E0DC
:1006100000936B0102E000936B0101E000936B011A
:1006200002E000936B0101E000936B0101E0009395
:100630006B0102E000936B0101E000936B0102E0AB
:1006400000936B0101E000936B0101E000936B01EB
:1006500002E000936B0101E000936B0102E0009364
:100660006B0101E000936B01089510916500186023
:100670001093650010916500106110936500129A47
:1006800007FB16F411E001C010E010FB13B112F9E2
:1006900013B911E010936B0112E010936B0111E09C
:1006A00010936B0112E010936B0111E010936B013A
:1006B00011E010936B0112E010936B0111E01093A5
:1006C0006B0112E010936B0111E010936B0111E0CC
:1006D00010936B0112E010936B011B9A11E01093C1
:1006E0006B0112E010936B0111E010936B0112E0AB
:1006F00010936B0111E010936B0111E010936B01EB
:1007000012E010936B0111E010936B0112E0109353
:100710006B0111E010936B0111E010936B0112E07B
:1007200010936B0111E010936B0112E010936B01B9
:1007300011E010936B0111E010936B0112E0109324
:100740006B0111E010936B0112E010936B0111E04B
:1007500010936B0111E010936B0112E010936B0189
:1007600011E010936B0112E010936B011B9811E0E4
:1007700010936B0112E010936B0111E010936B0169
:1007800012E010936B0111E010936B0111E01093D4
:100790006B0112E010936B0111E010936B0112E0FA
:1007A00010936B0106FB16F411E001C010E010FB82
:1007B00013B112F913B911E010936B0112E0109309
:1007C0006B0111E010936B0112E010936B0111E0CB
:1007D00010936B0111E010936B0112E010936B0109
:1007E00011E010936B0112E010936B0111E0109374
:1007F0006B0111E010936B0112E010936B011B9AD7
:1008000011E010936B0112E010936B0111E0109353
:100810006B0112E010936B0111E010936B0111E07A
:1008200010936B0112E010936B0111E010936B01B8
:1008300012E010936B0111E010936B0111E0109323
:100840006B0112E010936B0111E010936B0112E049
:1008500010936B0111E010936B0111E010936B0189
:1008600012E010936B0111E010936B0112E01093F2
:100870006B0111E010936B0111E010936B0112E01A
:1008800010936B0111E010936B0112E010936B0158
:100890001B9811E010936B0112E010936B0111E0B3
:1008A00010936B0112E010936B0111E010936B0138
:1008B00011E010936B0112E010936B0111E01093A3
:1008C0006B0112E010936B0105FB16F411E001C0FF
:1008D00010E010FB13B112F913B911E010936B0182
:1008E00012E010936B0111E010936B0112E0109372
:1008F0006B0111E010936B0111E010936B0112E09A
:1009000010936B0111E010936B0112E010936B01D7
:1009100011E010936B0111E010936B0112E0109342
:100920006B011B9A11E010936B0112E010936B01A5
:1009300011E010936B0112E010936B0111E0109322
:100940006B0111E010936B0112E010936B0111E049
:1009500010936B0112E010936B0111E010936B0187
:1009600011E010936B0112E010936B0111E01093F2
:100970006B0112E010936B0111E010936B0111E019
:1009800010936B0112E010936B0111E010936B0157
:1009900012E010936B0111E010936B0111E01093C2
:1009A0006B0112E010936B0111E010936B0112E0E8
:1009B00010936B011B9811E010936B0112E01093E0
:1009C0006B0111E010936B0112E010936B0111E0C9
:1009D00010936B0111E010936B0112E010936B0107
:1009E00011E010936B0112E010936B0104FB16F4FD
:1009F00011E001C010E010FB13B112F913B911E0BE
:100A000010936B0112E010936B0111E010936B01D6
:100A100012E010936B0111E010936B0111E0109341
:100A20006B0112E010936B0111E010936B0112E067
:100A300010936B0111E010936B0111E010936B01A7
:100A400012E010936B011B9A11E010936B0112E0FE
:100A500010936B0111E010936B0112E010936B0186
:100A600011E010936B0111E010936B0112E01093F1
:100A70006B0111E010936B0112E010936B0111E018
:100A800010936B0111E010936B0112E010936B0156
:100A900011E010936B0112E010936B0111E01093C1
:100AA0006B0111E010936B0112E010936B0111E0E8
:100AB00010936B0112E010936B0111E010936B0126
:100AC00011E010936B0112E010936B0111E0109391
:100AD0006B0112E010936B011B9811E010936B01F6
:100AE00012E010936B0111E010936B0112E0109370
:100AF0006B0111E010936B0111E010936B0112E098
:100B000010936B0111E010936B0112E010936B01D5
:100B100003FB16F411E001C010E010FB13B112F951
:100B200013B911E010936B0112E010936B0111E007
:100B300010936B0112E010936B0111E010936B01A5
:100B400011E010936B0112E010936B0111E0109310
:100B50006B0112E010936B0111E010936B0111E037
:100B600010936B0112E010936B011B9A11E010932C
:100B70006B0112E010936B0111E010936B0112E016
:100B800010936B0111E010936B0111E010936B0156
:100B900012E010936B0111E010936B0112E01093BF
:100BA0006B0111E010936B0111E010936B0112E0E7
:100BB00010936B0111E010936B0112E010936B0125
:100BC00011E010936B0111E010936B0112E0109390
:100BD0006B0111E010936B0112E010936B0111E0B7
:100BE00010936B0111E010936B0112E010936B01F5
:100BF00011E010936B0112E010936B011B9811E050
:100C000010936B0112E010936B0111E010936B01D4
:100C100012E010936B0111E010936B0111E010933F
:100C20006B0112E010936B0111E010936B0112E065
:100C300010936B0102FB16F411E001C010E010FBF1
:100C400013B112F913B911E010936B0112E0109374
:100C50006B0111E010936B0112E010936B0111E036
:100C600010936B0111E010936B0112E010936B0174
:100C700011E010936B0112E010936B0111E01093DF
:100C80006B0111E010936B0112E010936B011B9A42
:100C900011E010936B0112E010936B0111E01093BF
:100CA0006B0112E010936B0111E010936B0111E0E6
:100CB00010936B0112E010936B0111E010936B0124
:100CC00012E010936B0111E010936B0111E010938F
:100CD0006B0112E010936B0111E010936B0112E0B5
:100CE00010936B0111E010936B0111E010936B01F5
:100CF00012E010936B0111E010936B0112E010935E
:100D00006B0111E010936B0111E010936B0112E085
:100D100010936B0111E010936B0112E010936B01C3
:100D20001B9811E010936B0112E010936B0111E01E
:100D300010936B0112E010936B0111E010936B01A3
:100D400011E010936B0112E010936B0111E010930E
:100D50006B0112E010936B0101FB16F411E001C06E
:100D600010E010FB13B112F913B911E010936B01ED
:100D700012E010936B0111E010936B0112E01093DD
:100D80006B0111E010936B0111E010936B0112E005
:100D900010936B0111E010936B0112E010936B0143
:100DA00011E010936B0111E010936B0112E01093AE
:100DB0006B011B9A11E010936B0112E010936B0111
:100DC00011E010936B0112E010936B0111E010938E
:100DD0006B0111E010936B0112E010936B0111E0B5
:100DE00010936B0112E010936B0111E010936B01F3
:100DF00011E010936B0112E010936B0111E010935E
:100E00006B0112E010936B0111E010936B0111E084
:100E100010936B0112E010936B0111E010936B01C2
:100E200012E010936B0111E010936B0111E010932D
:100E30006B0112E010936B0111E010936B0112E053
:100E400010936B011B9811E010936B0112E010934B
:100E50006B0111E010936B0112E010936B0111E034
:100E600010936B0111E010936B0112E010936B0172
:100E700011E010936B0112E010936B01102F10FD25
:100E80001A9A10FF1A9801E000936B0102E0009398
:100E90006B0101E000936B0102E000936B0101E044
:100EA00000936B0101E000936B0102E000936B0182
:100EB00001E000936B0102E000936B0101E00093FD
:100EC0006B0101E000936B0102E000936B011B9A40
:100ED00001E000936B0102E000936B0101E00093DD
:100EE0006B0102E000936B0101E000936B0101E0F4
:100EF00000936B0102E000936B0101E000936B0132
:100F000002E000936B0101E000936B0101E00093AC
:100F10006B0102E000936B0101E000936B0102E0C2
:100F200000936B0101E000936B0101E000936B0102
:100F300002E000936B0101E000936B0102E000937B
:100F40006B0101E000936B0101E000936B0102E093
:100F500000936B0101E000936B0102E000936B01D1
:100F60001B9801E000936B0102E000936B01129863
:100F70001A9A01E000936B0102E000936B0101E01B
:100F800000936B0102E000936B0101E000936B01A1
:100F900001E000936B0102E000936B0101E000931C
:100FA0006B0102E000936B0101E000936B0101E033
:100FB00000936B0102E000936B0101E000936B0171
:100FC00002E000936B0101E000936B0101E00093EC
:100FD0006B0102E000936B0101E000936B0102E002
:100FE00000936B011B9A01E000936B0102E00093F8
:100FF0006B0101E000936B0102E000936B0101E0E3
:1010000000936B0101E000936B0102E000936B0120
:1010100001E000936B0102E000936B0101E000939B
:101020006B0101E000936B0102E000936B0101E0B2
:1010300000936B0102E000936B0101E000936B01F0
:1010400001E000936B0102E000936B0101E000936B
:101050006B0102E000936B0101E000936B0101E082
:1010600000936B0102E000936B0101E000936B01C0
:1010700002E000936B011B9801E000936B0102E01A
:1010800000936B0101E000936B0102E000936B01A0
:1010900001E000936B0101E000936B0102E000931B
:1010A0006B0101E000936B0102E000936B0101E032
:1010B00000936B0101E000936B0102E000936B0170
:1010C00001E000936B0102E000936B0101E00093EB
:1010D0006B0101E000936B0102E000936B0101E002
:1010E00000936B0102E000936B0101E000936B0140
:1010F000129A00916500077F0093650000916500DA
:101100000F7E0093650008959A938A93C801A7D92A
:1011100000916801AADA00E000936A010DC0009115
:101120006A0110E0F801EF52FE4F00819EDAEAE614
:10113000F1E000810395008300916A0110E0081737
:10114000190768F30FDA8991999108959A938A9310
:10115000902F812F84D90091680187DA092F85DAD1
:10116000082F83DAFFD98991999108959A938A93E8
:10117000C80175D90091690178DA00E07BC01A9A3C
:1011800011E010936B0112E010936B0111E01093CA
:101190006B0112E010936B0111E010936B0111E0F1
:1011A00010936B0112E010936B0111E010936B012F
:1011B00012E010936B0111E010936B011B9A11E088
:1011C00010936B0112E010936B0111E010936B010F
:1011D00012E010936B0111E010936B0111E010937A
:1011E0006B0112E010936B0111E010936B0112E0A0
:1011F00010936B0111E010936B0111E010936B01E0
:1012000012E010936B0111E010936B0112E0109348
:101210006B0111E010936B0111E010936B0112E070
:1012200010936B0111E010936B0112E010936B01AE
:1012300011E010936B0111E010936B0112E0109319
:101240006B0111E010936B0112E010936B011B987E
:1012500020916C0110E0F801E359FE4F20831091BA
:101260006500177F10936500109165001F7E109335
:101270006500039510E00817190708F0BEC4109127
:10128000650018601093650010916500106110935F
:10129000650010E010936C01129A1A9A11E01093F5
:1012A0006B0112E010936B0111E010936B0112E0DF
:1012B00010936B0111E010936B0111E010936B011F
:1012C00012E010936B0111E010936B0112E0109388
:1012D0006B0111E010936B01129811E010936B01F8
:1012E00012E010936B0111E010936B0112E0109368
:1012F0006B0111E010936B0111E010936B0112E090
:1013000010936B0111E010936B0112E010936B01CD
:1013100011E010936B011B9A11E010936B0112E026
:1013200010936B0111E010936B0112E010936B01AD
:1013300011E010936B0111E010936B0112E0109318
:101340006B0111E010936B0112E010936B0111E03F
:1013500010936B0111E010936B0112E010936B017D
:1013600011E010936B0112E010936B0111E01093E8
:101370006B0111E010936B0112E010936B0111E00F
:1013800010936B0112E010936B010A9B06C0ECE610
:10139000F1E010811068108305C0ECE6F1E01081E7
:1013A0001F7710831B9811E010936B0112E01093CC
:1013B0006B0111E010936B0112E010936B0111E0CF
:1013C00010936B0111E010936B0112E010936B010D
:1013D00011E010936B0112E010936B0111E0109378
:1013E0006B0111E010936B0112E010936B0111E09F
:1013F00010936B0112E010936B0111E010936B01DD
:1014000011E010936B0112E010936B0111E0109347
:101410006B0112E010936B0111E010936B0111E06E
:1014200010936B0112E010936B0111E010936B01AC
:1014300012E010936B0111E010936B011B9A11E005
:1014400010936B0112E010936B0111E010936B018C
:1014500012E010936B0111E010936B0111E01093F7
:101460006B0112E010936B0111E010936B0112E01D
:1014700010936B0111E010936B0111E010936B015D
:1014800012E010936B0111E010936B0112E01093C6
:101490006B0111E010936B0111E010936B0112E0EE
:1014A00010936B0111E010936B0112E010936B012C
:1014B0000A9B06C0ECE6F1E010811064108305C0C1
:1014C000ECE6F1E010811F7B10831B9811E0109374
:1014D0006B0112E010936B0111E010936B0112E0AD
:1014E00010936B0111E010936B0111E010936B01ED
:1014F00012E010936B0111E010936B0112E0109356
:101500006B0111E010936B0111E010936B0112E07D
:1015100010936B0111E010936B0112E010936B01BB
:1015200011E010936B0111E010936B0112E0109326
:101530006B0111E010936B0112E010936B0111E04D
:1015400010936B0111E010936B0112E010936B018B
:1015500011E010936B0112E010936B0111E01093F6
:101560006B011B9A11E010936B0112E010936B0159
:1015700011E010936B0112E010936B0111E01093D6
:101580006B0111E010936B0112E010936B0111E0FD
:1015900010936B0112E010936B0111E010936B013B
:1015A00011E010936B0112E010936B0111E01093A6
:1015B0006B0112E010936B0111E010936B0111E0CD
:1015C00010936B0112E010936B0111E010936B010B
:1015D00012E010936B010A9B06C0ECE6F1E010816B
:1015E0001062108305C0ECE6F1E010811F7D1083CE
:1015F0001B9811E010936B0112E010936B0111E046
:1016000010936B0112E010936B0111E010936B01CA
:1016100011E010936B0112E010936B0111E0109335
:101620006B0112E010936B0111E010936B0111E05C
:1016300010936B0112E010936B0111E010936B019A
:1016400012E010936B0111E010936B0111E0109305
:101650006B0112E010936B0111E010936B0112E02B
:1016600010936B0111E010936B0111E010936B016B
:1016700012E010936B0111E010936B0112E01093D4
:101680006B0111E010936B011B9A11E010936B0139
:1016900012E010936B0111E010936B0112E01093B4
:1016A0006B0111E010936B0111E010936B0112E0DC
:1016B00010936B0111E010936B0112E010936B011A
:1016C00011E010936B0111E010936B0112E0109385
:1016D0006B0111E010936B0112E010936B0111E0AC
:1016E00010936B0111E010936B0112E010936B01EA
:1016F00011E010936B0112E010936B010A9B06C07E
:10170000ECE6F1E010811061108305C0ECE6F1E039
:1017100010811F7E10831B9811E010936B0112E063
:1017200010936B0111E010936B0112E010936B01A9
:1017300011E010936B0111E010936B0112E0109314
:101740006B0111E010936B0112E010936B0111E03B
:1017500010936B0111E010936B0112E010936B0179
:1017600011E010936B0112E010936B0111E01093E4
:101770006B0111E010936B0112E010936B0111E00B
:1017800010936B0112E010936B0111E010936B0149
:1017900011E010936B0112E010936B0111E01093B4
:1017A0006B0112E010936B0111E010936B011B9A17
:1017B00011E010936B0112E010936B0111E0109394
:1017C0006B0112E010936B0111E010936B0111E0BB
:1017D00010936B0112E010936B0111E010936B01F9
:1017E00012E010936B0111E010936B0111E0109364
:1017F0006B0112E010936B0111E010936B0112E08A
:1018000010936B0111E010936B0111E010936B01C9
:1018100012E010936B0111E010936B0112E0109332
:101820006B010A9B06C0ECE6F1E0108118601083A2
:1018300005C0ECE6F1E01081177F10831B9811E0E2
:1018400010936B0112E010936B0111E010936B0188
:1018500012E010936B0111E010936B0111E01093F3
:101860006B0112E010936B0111E010936B0112E019
:1018700010936B0111E010936B0111E010936B0159
:1018800012E010936B0111E010936B0112E01093C2
:101890006B0111E010936B0111E010936B0112E0EA
:1018A00010936B0111E010936B0112E010936B0128
:1018B00011E010936B0111E010936B0112E0109393
:1018C0006B0111E010936B0112E010936B0111E0BA
:1018D00010936B011B9A11E010936B0112E01093AF
:1018E0006B0111E010936B0112E010936B0111E09A
:1018F00010936B0111E010936B0112E010936B01D8
:1019000011E010936B0112E010936B0111E0109342
:101910006B0111E010936B0112E010936B0111E069
:1019200010936B0112E010936B0111E010936B01A7
:1019300011E010936B0112E010936B0111E0109312
:101940006B0112E010936B010A9B06C0ECE6F1E01C
:1019500010811460108305C0ECE6F1E010811B7F5C
:1019600010831B9811E010936B0112E010936B0130
:1019700011E010936B0112E010936B0111E01093D2
:101980006B0111E010936B0112E010936B0111E0F9
:1019900010936B0112E010936B0111E010936B0137
:1019A00011E010936B0112E010936B0111E01093A2
:1019B0006B0112E010936B0111E010936B0111E0C9
:1019C00010936B0112E010936B0111E010936B0107
:1019D00012E010936B0111E010936B0111E0109372
:1019E0006B0112E010936B0111E010936B0112E098
:1019F00010936B0111E010936B011B9A11E010938F
:101A00006B0112E010936B0111E010936B0112E077
:101A100010936B0111E010936B0111E010936B01B7
:101A200012E010936B0111E010936B0112E0109320
:101A30006B0111E010936B0111E010936B0112E048
:101A400010936B0111E010936B0112E010936B0186
:101A500011E010936B0111E010936B0112E01093F1
:101A60006B0111E010936B0112E010936B010A9B64
:101A700006C0ECE6F1E010811260108305C0ECE6D0
:101A8000F1E010811D7F10831B9811E010936B0112
:101A900012E010936B0111E010936B0112E01093B0
:101AA0006B0111E010936B0111E010936B0112E0D8
:101AB00010936B0111E010936B0112E010936B0116
:101AC00011E010936B0111E010936B0112E0109381
:101AD0006B0111E010936B0112E010936B0111E0A8
:101AE00010936B0111E010936B0112E010936B01E6
:101AF00011E010936B0112E010936B0111E0109351
:101B00006B0111E010936B0112E010936B0111E077
:101B100010936B0112E010936B0111E010936B01B5
:101B20001B9A11E010936B0112E010936B0111E00E
:101B300010936B0112E010936B0111E010936B0195
:101B400011E010936B0112E010936B0111E0109300
:101B50006B0112E010936B0111E010936B0111E027
:101B600010936B0112E010936B0111E010936B0165
:101B700012E010936B0111E010936B0111E01093D0
:101B80006B0112E010936B0111E010936B0112E0F6
:101B900010936B010A9B06C0ECE6F1E01081116026
:101BA000108305C0ECE6F1E010811E7F10831B98C6
:101BB00011E010936B0112E010936B0111E0109390
:101BC0006B0112E010936B0111E010936B0111E0B7
:101BD00010936B0112E010936B0111E010936B01F5
:101BE00012E010936B01129A10E0FC0131970E176E
:101BF0001F0708F0C4CA1A98C3CA01E000936B011A
:101C000002E000936B0101E000936B0102E000939E
:101C10006B0101E000936B0101E000936B0102E0B6
:101C200000936B0101E000936B0102E000936B01F4
:101C300001E000936B0101E000936B0102E000936F
:101C40006B0101E000936B0102E000936B0101E086
:101C500000936B0101E000936B0102E000936B01C4
:101C600001E000936B0102E000936B0101E000933F
:101C70006B0101E000936B0102E000936B0101E056
:101C800000936B0102E000936B010E94B202899104
:101C9000999108959A938A93C9010093D10101E023
:101CA00010E032DA8C0162DA8991999108952A93D1
:101CB0001A930A931FB72BB72BBF1FBF0991199116
:101CC000299118959A938A93FA93EA933A922A92D1
:101CD0001A920A927A936A935A934A933A932A935E
:101CE0001A930A938FB79BB70E94620F9BBF8FBF57
:101CF0000991199129913991499159916991799154
:101D00000990199029903990E991F99189919991C7
:101D100018952A931A930A931FB72BB72BBF1FBF8F
:101D200009911991299118959A938A93FA93EA93B4
:101D30005A934A933A932A931A930A934FB75BB7ED
:101D400000919C00EAE8F8E020813181F901EE552C
:101D5000FB4F0083EAE8F8E000811181F801EE55BD
:101D6000FB4F0081033229F4E4E4F2E000810395A3
:101D70000083EAE8F8E0808191810196EAE8F8E0E2
:101D800080839183883E03E0900730F000E010E00C
:101D9000EAE8F8E0008311835BBF4FBF0991199116
:101DA0002991399149915991E991F99189919991A3
:101DB00018952A931A930A931FB72BB72BBF1FBFEF
:101DC0000991199129911895F8940E946F000E9429
:101DD000BB010E9490000E942A1000ED0E9429027F
:101DE0000E940B0FC79A0091650008600093650080
:101DF000009165000061009365007894089503E008
:101E000010E00E944600E0DFDD9A0E9419130E9454
:101E1000810FDD98F9CF00E007BF00E002BF00E0CE
:101E200003BF00E00093350200E00093360206ECA9
:101E3000009338020AE010E0E5E3F2E00483158342
:101E400000E010E0E5E3F2E00683178300E0009392
:101E50003D0201E000933E020895E5E3F2E00483D1
:101E600015830895E5E3F2E004811581089500915A
:101E700036020130A8F000913502002311F501E08F
:101E80000093350200E010E0E5E3F2E006831783FB
:101E900001E007BF0091380202BF06E003BF0895CA
:101EA00000913602002369F400913502013049F4B3
:101EB00000E00093350200E007BF00E002BF00E051
:101EC00003BF08959C010091380202BFE5E3F2E0F0
:101ED000868197810196E5E3F2E086839783E5E3C7
:101EE000F2E0048115818017910748F000E010E0CE
:101EF000E5E3F2E00683178301E000933702C901AE
:101F0000089500913702013099F400E00E94FC012D
:101F1000E5E3F2E0018100FD0CD0E5E3F2E00181B0
:101F200001FD22D001E00E94FC0100E00093370295
:101F3000089524E030E000E10E944A0E23E030E002
:101F400000E411E00E94001400916D010E94E3136F
:101F500000916F010E94E313009170010E94E3134E
:101F600003E20E94DB13089521E030E00AE20E94C0
:101F70004A0E00916D0100934002E0E4F2E000811E
:101F800007FF67C025E030E00BE20E944A0E009197
:101F90003E02013008F45DC000913E02023108F0BB
:101FA00058C000913E02013021F400E100933F024D
:101FB00005C000913E02025000933F0200913F0293
:101FC0000430A0F423E030E004E411E00E940014A7
:101FD00000913F020E94E31325E030E00DE611E09E
:101FE0000E94141403E20E94DB1320C000913F0200
:101FF0000830A8F023E030E004E411E00E9400146F
:1020000000913F0204500E94E31325E030E00DE60A
:1020100011E00E94141403E20E94DB1307C0009138
:102020003E02039500933E020A30C9F300913E023E
:10203000039500933E02023118F001E000933E0246
:1020400010913E02009140020076102B0AE20E949D
:10205000A608089500E010E0EAE8F8E000831183A4
:1020600000E010E0ECE8F8E00083118300E000936A
:1020700043020DC000E02091430230E0F901EF5B24
:10208000FD4F0083E3E4F2E00081039500830091BB
:102090004302023078F300E00093440200E0009332
:1020A0009F0400E00093A00408958A9300914202E7
:1020B0000735C9F50E949A13009345021091450215
:1020C00002E0109F0092450200E0009343020EC020
:1020D0000E949A132091430230E0F901EA5BFD4F20
:1020E0000083E3E4F2E00081039500830091430262
:1020F00010914502011760F30E94FA000E94CE0081
:10210000802F04E20E94DB13009141020E94DB1346
:10211000009142020E94DB13082F0E94DB1303E2AE
:102120000E94DB1354C100914202023509F052C0F3
:102130000E949A13009345021091450202E0109FFD
:102140000092450200E0009343020EC00E949A13E1
:102150002091430230E0F901EA5BFD4F0083E3E4A4
:10216000F2E000810E5F008300914302109145026E
:10217000011760F30E94A70004E20E94DB130091A4
:1021800041020E94DB13009142020E94DB1342E0F5
:10219000009145020E943D140E94E31300E0009369
:1021A00043020EC00091430210E0F801EA5BFD4FCC
:1021B00000810E94E313E3E4F2E0008103950083D1
:1021C0000091430210914502011760F303E20E945F
:1021D000DB13FDC000914202043591F40E947C1390
:1021E000053431F4E5E3F2E001810160018305C0CB
:1021F000E5E3F2E001810E7F01830E94370FE7C023
:1022000000914202003579F50E947C13053419F5DE
:10221000E5E3F2E001810260018321E030E00AE2BF
:102220000E944A0E00916D010F7100933E020091D1
:102230003E02039500933E02023118F001E0009344
:102240003E0210913E0200916D010076102B0AE2D1
:102250000E94A60805C0E5E3F2E001810D7F01833D
:102260000E94370FB4C000914202033499F404E293
:102270000E94DB13009141020E94DB130091420295
:102280000E94DB13009168010E94E31303E20E94A5
:10229000DB139DC0009142020834B9F40E949A13E6
:1022A0000E94200104E20E94DB13009141020E947F
:1022B000DB13009142020E94DB13009168010E942F
:1022C000E31303E20E94DB1382C000914202013457
:1022D00079F404E20E94DB13009141020E94DB13B7
:1022E000009142020E94DB1303E20E94DB136FC0E5
:1022F000009142020934A1F521E030E009E00E949A
:102300004A0E09E00093D10100916D01086000932D
:10231000D20102E010E00E94840804E110E00E9473
:10232000460009E00093D10100916D01077F009301
:10233000D20102E010E00E94840804E110E00E9453
:10234000460004E20E94DB13009141020E94DB136D
:10235000009142020E94DB1303E20E94DB1337C0AC
:1023600000914202043489F40E949D0104E20E941B
:10237000DB13009141020E94DB13009142020E9494
:10238000DB1303E20E94DB1322C0009142020835F6
:10239000F1F40E949A130093A10421E030E000912F
:1023A000A1040E944A0E04E20E94DB1322E030E006
:1023B00001E412E00E9400140091A1040E94E313C2
:1023C00000916D010E94E31303E20E94DB138991E7
:1023D00008959A938A9300914202025519F005508C
:1023E000C1F039C00E94320FC80104E20E94DB1321
:1023F00022E030E001E412E00E9400148C01012F81
:102400000E94E313082F0E94E31303E20E94DB13F0
:1024100022C00E949A13902F80E00E949A1310E02D
:10242000800F911F8C010E942D0F0E94320FC80156
:1024300004E20E94DB1322E030E001E412E00E949B
:1024400000148C01012F0E94E313082F0E94E31354
:1024500003E20E94DB138991999108958A93009178
:1024600042020235E1F50E94270104E20E94DB13DB
:10247000009141020E94DB13009142020E94DB1393
:1024800000917203002319F1009172030F3FF9F0DC
:1024900042E0009172030E943D140E94E31300E0A9
:1024A000009343020091430210917203011798F4C4
:1024B0000091430210E0F801ED58FC4F00810E94AA
:1024C000E313E3E4F2E0008103950083EBCF009196
:1024D00072030E94E31303E20E94DB133CC00091ED
:1024E00042020735C1F50E949A13009372031091BE
:1024F000720302E0109F0092720300E00093430217
:102500000EC00E949A132091430230E0F901ED5869
:10251000FC4F0083E3E4F2E0008103950083009127
:10252000430210917203011760F30E9476010E942A
:102530004B01802F04E20E94DB13009141020E94B4
:10254000DB13009142020E94DB13082F0E94DB1371
:1025500003E20E94DB13899108958A93009142025D
:10256000023599F40E940202802F04E20E94DB13DC
:1025700022E030E001E412E00E940014082F0E94E3
:10258000E31303E20E94DB1352C0009142020735BD
:1025900069F40E949A13802F082F0E940A020AE011
:1025A00010E00E94AA010E94020241C00091420272
:1025B000063409F504E20E94DB13009141020E94F7
:1025C000DB13009142020E94DB1325E030E008E4B7
:1025D00011E00E94001428E030E00EE411E00E94B7
:1025E00000142EE030E007E511E00E94001403E241
:1025F0000E94DB131CC0009142020D3419F40E94AA
:10260000920115C000914202033489F404E20E9451
:10261000DB13009141020E94DB13009142020E94F1
:10262000DB1301E40E94DB1303E20E94DB138991B8
:10263000089512C000914102083409F48EDF0E940F
:102640007C13033221F00E947C130332E1F7E4E4AF
:10265000F2E000810A95008300914402013040F0CD
:102660000E947C13003429F00E947C130332E1F7AE
:1026700008950E947C13009341020E947C130093F2
:10268000420200914102023511F40FDDD8CF0091D2
:1026900041020D3411F49DDED2CF00914102053488
:1026A00049F6DCDECCCFF80100E010E020812033D9
:1026B00030F020812A3318F40081005308C02081B3
:1026C000213428F02081273410F40081075302952B
:1026D000007F2181203330F021812A3318F41181C9
:1026E000105308C02181213428F02181273410F4AF
:1026F00011811753012B0895AC01ECE8F8E000813B
:102700001181F801EE55FB4F0081ECE8F8E0808183
:1027100091810196ECE8F8E080839183883E13E094
:10272000910730F020E030E0ECE8F8E020833183DE
:10273000CA0108959A938A932297ECE8F8E0008101
:102740001181F801EE55FB4F00810883ECE8F8E0B9
:10275000808191810196ECE8F8E080839183883E46
:1027600003E0900730F000E010E0ECE8F8E00083D0
:102770001183ECE8F8E000811181F801EE55FB4F80
:1027800000810983ECE8F8E0808191810196ECE812
:10279000F8E080839183883E03E0900730F000E00A
:1027A00010E0ECE8F8E0008311838E017CDF2296D4
:1027B00089919991089510919B00212F25FFFBCFBE
:1027C00000939C0008958A93802F082F02950F7024
:1027D0000A3010F4005D05C00A3018F0003108F42A
:1027E000095CE9DF8F70082F0A3010F4005D05C026
:1027F0000A3018F0003108F4095CDDDF8991089592
:102800000E944B14C801D901442407C05524FC017F
:10281000E40DF51D0081CFDF439455244A165B0675
:10282000ACF3E6E00C9452140E944B14C801D90199
:10283000442407C05524FC01E40DF51D0081C3DFCD
:10284000439455244A165B06ACF3E6E00C9452140C
:1028500000008895FECF0FE30DBF01E00EBFC0E280
:10286000D1E00E945D14002311F00E946F140E94B9
:10287000FF0E0E9428140C9428140024E8E0EA9526
:1028800032F0001F001C0416D0F3041AF8CF001F0A
:10289000402D009508955A924A92BA93AA939A931A
:1028A0008A9308955D804C80BB81AA81998188813B
:1028B000F0E0EC0FFD1FEF01089501E0089520E026
:1028C00008D0E9F708953BBF27913BB702D0D9F76D
:1028D00008952D9301501040202F212B08950EE3D1
:1028E000402E09E2502E00E0602EF201362D6BBE24
:1028F00007911691F201EE5FFF4F3F4F3BBFA7914B
:10290000B691F201362DEC5FFF4F3F4F3BBF479131
:1029100057916691242F252B262B21F0FA01362F73
:10292000D2DF01C0CCDF07E0400E00E0501E601E89
:10293000A201662D4C3459426040B8F20895280730
:102940006601000000260040014C2900245254007A
:1029500024525000332E31312000323031383132A0
:1029600032370054534D313253204A494720462FC5
:0229700057000E
:0400000300000000F9
:00000001FF
