:020000020000FC
:100000000C94A10B18951895189518951895189596
:100010001895189518951895189518951895189578
:1000200018951895189518950C94C6041895189558
:1000300018951895189518950C94B004189518955E
:100040000C94BB0418951895189518951895189543
:100050001895189518951895189518951895189538
:100060001895189518951895189518951895189528
:1000700018951895189518950C94D10418951895FD
:100080000C941605189518951895189598018901DE
:1000900001501040232BD1F70895AC0107C084E331
:1000A00098E0FC01CF010197EF2BD9F79801890166
:1000B00001501040232B99F7CA01089500B5046040
:1000C00000BDA89501B5086101BD00E001BD0AB3FE
:1000D0000E630ABB17B30FEF07BB24B30FEF04BBCC
:1000E0000FED02B90FEF0093640000E0009365008C
:1000F0001B9A1C98A8980FEF02BB08950BEF01BB49
:1001000000E0009398000FE00093990002E0009354
:100110009B0008E100939A0006E000939D00009187
:100120009A00006C00939A0008958A93DD9880E00D
:100130002FC0082F10E0000F111FF801EA52FC4FEA
:1001400000810093070201E010E00E94600201E0DC
:1001500010E00E94B002082F10E0000F111FF801FC
:10016000EA52FC4F00810C3129F4E3EAF1E000810E
:10017000006100832091A301082F10E0000F111FE0
:10018000F801EA52FC4F218304E610E07FDF8395FB
:1001900042E00091D5030E94B30B801750F2899181
:1001A00008958A93DD9880E020C0082F10E0000FAA
:1001B000111FF801EA52FC4F0081013091F4082F21
:1001C00010E0000F111FF801EA52FC4F018110E00E
:1001D00000601160E8E9F1E00083118301E0009321
:1001E0009A0104E610E052DF839542E00091D503C6
:1001F0000E94B30B8017D8F5082F10E0000F111FD5
:10020000F801EA52FC4F00810093070201E010E080
:100210000E94600201E010E00E94B002082F10E08E
:10022000000F111FF801EA52FC4F00810C3181F4DC
:10023000082F10E0000F111FF801EA52FC4F018156
:100240000F7E1091A3011F7E011759F206E410C022
:10025000082F10E0000F111FF801EA52FC4F018136
:100260001091A301011709F4A0CF06E401C003E532
:10027000899108958A93DD9880E04CC0082F10E0A2
:10028000000F111FF801EA52FC4F00810A3451F4AB
:1002900009E40093070201E00093080202E010E085
:1002A0000E946002082F10E0000F111FF801EA52AF
:1002B000FC4F008100930702082F10E0000F111F70
:1002C000F801EA52FC4F01810093080202E010E0BD
:1002D0000E946002082F10E0000F111FF801EA527F
:1002E000FC4F00810630A9F4082F10E0000F111F09
:1002F000F801EA52FC4F018100939D01082F10E0A4
:10030000000F111FF801EA52FC4F01810395009381
:100310009E01839542E00091D5030E94B30B8017A4
:1003200008F4ACCF899108958A93802FDD9806E078
:10033000009307028093080202E010E00E9460022E
:1003400080939D01839580939E018991089500E09B
:1003500010EE21E030E041E045BF42E045BFF8014A
:100360000995089500E000939B0100E000939C0133
:1003700056D00895013039F4DB9A0AE010E00E946B
:100380004D00D99A0895D9980AE010E00E944D00D6
:10039000DB980895013099F4C09A0AE010E00E94B9
:1003A0004D00DA9AC29B17C00FEF11E0E8E9F1E0C7
:1003B000008311830AE010E00E944D000895DA984E
:1003C0000AE010E00E944D00C09808E400939D01EF
:1003D00009E400939E0108951B98102F10FDC29A06
:1003E00010FFC298C29B0CC0C09B0AC00FEF11E067
:1003F000E8E9F1E0008311830AE010E00E944D007B
:1004000004E610E00E9446000895102F10FDC49AE3
:1004100010FFC49804E610E00E944600089500E032
:10042000A9DF00E0B7DF00E0D7DF00E0EEDF0895EE
:1004300000E0C0990260C299046008958A93802FF9
:1004400081FB16F401E001C000E0A4DF04E110E04C
:100450000E944D0082FB16F401E001C000E0BCDF09
:1004600008EC10E00E944D00899108951A9A01E06D
:1004700010E00E9446001B9A01E010E00E94460036
:100480001A9801E010E00E9446001B9801E010E07D
:100490000E94460008951B9801E010E00E9446006B
:1004A0001A9801E010E00E9446001B9A01E010E05B
:1004B0000E9446001A9A01E010E00E94460008954A
:1004C0009A938A93C80101E00093A10102E000938E
:1004D000A10101E010E00E944600C8DF01E00093A6
:1004E000A10102E00093A10101E010E00E9446009A
:1004F00000919D01BCD100E000939F0117C001E075
:100500000093A10102E00093A10100919F0110E07E
:10051000F801E95FFD4F0081AAD101E010E00E94DF
:100520004600EFE9F1E000810395008300919F010F
:1005300010E00817190718F301E00093A10102E089
:100540000093A101A8DF01E00093A10102E0009364
:10055000A10101E010E00E9446008991999108955F
:100560000E94D10BD80182DF01E010E00E9446001A
:1005700000919E017CD100E000939F0138C01A9A3F
:100580000091650000610093650001E00093A10106
:1005900002E00093A10101E010E00E9446001B9AD6
:1005A0000091650008600093650001E00093A101DF
:1005B00002E00093A10101E010E00E9446001B98B8
:1005C00000916500077F0093650001E010E00E9444
:1005D00046002091A20100919F0110E0F801ED5525
:1005E000FE4F2083EFE9F1E0008103950083009145
:1005F0009F0110E00A171B0708F070C00EEE02B949
:1006000000E00093A2011A9A009165000061009336
:10061000650001E00093A10102E00093A10101E067
:1006200010E00E9446000AEE02B901E00093A10129
:1006300002E00093A10190E880E01BC0092F009523
:10064000E2EAF1E0108110231083009165000F7E33
:10065000009365001B9800916500077F009365007B
:10066000969501E00093A10101E010E00E94460090
:1006700083958830B8F41B9A009165000860009358
:10068000650001E010E00E9446000A9BD7CFE2EA35
:10069000F1E00081092B0083009165000061009367
:1006A0006500D8CF0EEE02B901E00093A10102E08F
:1006B0000093A10101E010E00E94460000919F011B
:1006C00010E0CD0101970817190708F058CF1A98C4
:1006D000009165000F7E0093650057CFDCDEE4E0FB
:1006E0000C94D80B0E94CF0BC801D901BFDE01E0EA
:1006F00010E00E94460000919E01B9D000E00093F6
:100700009F0138C01A9A009165000061009365004E
:1007100001E00093A10102E00093A10101E010E0DB
:100720000E9446001B9A00916500086000936500D6
:1007300001E00093A10102E00093A10101E010E0BB
:100740000E9446001B9800916500077F009365009A
:1007500001E010E00E9446002091A20100919F015B
:1007600010E0FD01E00FF11F2083EFE9F1E00081CF
:100770000395008300919F0110E00817190708F006
:1007800072C00EEE02B900E00093A2011A9A009125
:10079000650000610093650001E00093A10102E0A3
:1007A0000093A10101E010E00E9446000AEE02B9A8
:1007B00001E00093A10102E00093A10100E8502EA6
:1007C00044241BC0052D0095E2EAF1E010811023BE
:1007D0001083009165000F7E009365001B980091C7
:1007E0006500077F00936500569401E00093A10126
:1007F00001E010E00E944600439408E04016B8F47F
:100800001B9A0091650008600093650001E010E00C
:100810000E9446000A9BD6CFE2EAF1E0008105295A
:10082000008300916500006100936500D7CF0EEE54
:1008300002B901E00093A10102E00093A10101E0EF
:1008400010E00E94460000919F0110E0FC013197EA
:100850000E171F0708F056CF1A98009165000F7EFB
:100860000093650055CF17DEE6E00C94D60B8A9313
:10087000802F0EEE02B900E00093A00122C01A986A
:1008800000916500006100936500880F1B9A00913C
:10089000650008600093650001E00093A10102E09B
:1008A0000093A10101E010E00E9446001B98009116
:1008B0006500077F00936500E0EAF1E000810395A1
:1008C00000830091A001083048F487FBC6F61A9A0D
:1008D00000916500006100936500D7CF0AEE02B970
:1008E0001A9A0091650000610093650001E0009391
:1008F000A10102E00093A10101E010E00E94460086
:100900001B9A0091650008600093650001E0009368
:10091000A10102E00093A10101E00093A10102E026
:100920000093A10101E00093A10102E00093A10165
:1009300001E010E00E9446000EEE02B901E00093D3
:10094000A10102E00093A10101E010E00E94460035
:100950001B9800916500077F0093650089910895B9
:100960002A931A930A931FB72BB72BBF1FBF099166
:100970001991299118952A931A930A931FB72BB7A7
:100980002BBF1FBF09911991299118952A931A938A
:100990000A931FB72BB72BBF1FBF0991199129913C
:1009A00018959A938A93FA93EA935A934A933A93AF
:1009B0002A931A930A934FB75BB700919C00EEEE0F
:1009C000F8E020813181F901EA5FFA4F0083EEEE11
:1009D000F8E000811181F801EA5FFA4F00810332EB
:1009E00029F4E4EDF3E0008103950083EEEEF8E0F6
:1009F000808191810196EEEEF8E080839183883EBC
:100A000003E0900730F000E010E0EEEEF8E0008345
:100A100011835BBF4FBF0991199129913991499178
:100A20005991E991F9918991999118952A931A937D
:100A30000A931FB72BB72BBF1FBF0991199129919B
:100A40001895F8940E945E00DC9AC79800916500A2
:100A5000077F00936500009165000F7E009365009D
:100A60000E94B20178940E947E000E94340808E43B
:100A700000939D0109E400939E01C79A00916500CF
:100A800008600093650000916500006100936500B7
:100A90000895D7DF0EC000910405013011F40E94C3
:100AA0005C060E94700500910505013011F40E945A
:100AB000F206DD9A0091D403013038F00E94A40AB6
:100AC000E4EDF3E000810A95008300910205013016
:100AD00051F7009103050130F1F60E949905E1CF2D
:100AE0000AE20093070201E010E00E94600201E0C8
:100AF00010E00E94B00223E030E000E411E00E9428
:100B0000760B0091A3010E94590B03E20E94510B46
:100B100000910305002361F400910405002341F4D2
:100B200000910505002321F404E110E00E944D002E
:100B300008959A938A9300E00093AB031BC000E5ED
:100B40000093070201E010E00E9460024091AB03B5
:100B500050E008E010E00E94C10B2BE632E0200FCD
:100B6000311F08E010E00E947203EBEAF3E000811D
:100B7000039500830091AB03083208F300E0009373
:100B8000AB0392C04091AB0350E008E010E00E943C
:100B9000C10BF801E559FD4F80814091AB0350E056
:100BA00008E010E00E94C10BF801E559FD4F0681F5
:100BB000801709F074C04091AB0350E008E010E0EA
:100BC0000E94C10BF801E559FD4F8181837040916E
:100BD000AB0350E008E010E00E94C10BF801E559BA
:100BE000FD4F07810370801709F059C04091AB0396
:100BF00050E008E010E00E94C10BF801E559FD4FFC
:100C000000810F3F09F44BC04091AB0350E008E076
:100C100010E00E94C10BF801E559FD4F8081409121
:100C2000AB0350E008E010E00E94C10BF801E55969
:100C3000FD4F0681801799F54091AB0350E008E025
:100C400010E00E94C10BF801E559FD4F81814091F0
:100C5000AB0350E008E010E00E94C10BF801E55939
:100C6000FD4F07818017D9F423E030E004E411E060
:100C70000E94760B25E030E0C9014091AB0350E0C3
:100C800008E010E00E94C10B98010BE612E0020F91
:100C9000131F9C010E948A0B03E20E94510BEBEA96
:100CA000F3E00081039500830091AB03083208F460
:100CB00069CF8991999108958A9300E00093AB03DD
:100CC00014C024E030E000E611E00E94760B23E03F
:100CD00030E005EA11E00E948A0B03E20E94510B0A
:100CE000EBEAF3E00081039500830091AB0305304C
:100CF00008F06CC00091AB03005049F00A9549F030
:100D00000A9549F00A9549F00A9549F009C088E02A
:100D100007C080E105C088E103C080E201C088E22D
:100D200002E600930702082F00680093080202E021
:100D300010E00E94600209E110E00E944D0000E511
:100D40000093070201E010E00E94600208E010E05A
:100D50000E94B0020091A3011091A901011779F737
:100D60000091A4011091AA01011749F723E030E096
:100D700008E411E00E94760B0091AB03005051F0A3
:100D80000A9579F00A95A1F00A95C9F00A9509F437
:100D900098CF9DCF24E030E00CE411E00E94760B68
:100DA00096CF24E030E001E511E00E94760B8FCF72
:100DB00024E030E006E511E00E94760B88CF24E0C5
:100DC00030E00BE511E00E94760B81CF02E6009344
:100DD000070200E00093080202E010E00E946002B7
:100DE000899108950E94CF0B20E080E090E000916F
:100DF0009A01002359F044E250E020E030E00DEA8F
:100E000013E00E94E30B00E000939A0101E00093DD
:100E1000AB0343C00091AC0310E0F801E559FD4F6E
:100E20003281022F10E0000F111F000F111FEDEA99
:100E3000F3E0E00FF11F0091AC0310E0E00FF11FB1
:100E40003083ECEAF3E00081039500830091AC036A
:100E5000043000F301E010E00E944D008429952940
:100E6000A3950A2FA02F083280F123E030E005E699
:100E700011E00E94760B0091AB030E94590B24E213
:100E800030E00DEA13E00E948A0B03E20E94510B4E
:100E9000EBEAF3E00081039500830091AB030E3091
:100EA00008F06EC003E6009307020091AB030061F7
:100EB0000093080202E010E00E94600206E010E0E9
:100EC0000E944D0080E090E0A0E0282FE8E9F1E0EA
:100ED000008120232F71E8E9F1E000810F712017D4
:100EE00021F200E50093070201E010E00E94600299
:100EF0002BE632E008E010E00E9472032BE632E0BD
:100F00000091AB0381D0202F2F3F09F4A9CF422FAE
:100F100001E010E00E94C90B2801E8E9F1E000813E
:100F20001181A20140235123452BF9F400E00093E5
:100F3000AC030091AC03043008F092CF30E0022FF4
:100F400010E0000F111F000F111FEDEAF3E0E00F9A
:100F5000F11F0091AC0310E0E00FF11F3083ECEAC9
:100F6000F3E0008103950083E4CF8C010421152177
:100F70000415150509F474CF00E00093AC0366CFA7
:100F800003E60093070200E00093080202E010E08D
:100F90000E946002E6E00C94D60B20E001C023958D
:100FA0002930A8F4F801408130E0F901E759FE4FFB
:100FB00030814317A1F7F80141814F7030E0F9010A
:100FC000EE58FE4F3081431751F7022F08950FEF6F
:100FD0000895202F222311F428E003C02A9501C090
:100FE00028E0422F01E010E00E94C90BE8E9F1E09F
:100FF0004081518104231523012B21F4222381F305
:101000002A95EFCF022F08950E94D10BB02FC9016E
:101010008C01C3DFA02F8C010A5F1F4FBEDFAF3FE3
:1010200011F00F3F11F40FEF1CC0FC01218122953C
:101030002F70FC01178112951F703B2F121720F49F
:10104000125FB21708F4325F321720F0131710F056
:101050000FEF07C0131718F4BCDF102F01C0102FBB
:10106000012FE4E00C94D80B00E010E0EEEEF8E085
:101070000083118300E010E0E0EFF8E000831183CB
:1010800000E00093D40300E00093020500E0009329
:10109000030500E00093D3030DC000E02091D303CB
:1010A00030E0F901EF52FC4F0083E3EDF3E0008103
:1010B000039500830091D303023078F300E000939E
:1010C000040500E00093050508958A930091D2037A
:1010D0000735C9F50E94100B0093D5031091D50375
:1010E00002E0109F0092D50300E00093D3030EC0EE
:1010F0000E94100B2091D30330E0F901EA52FC4F1B
:101100000083E3EDF3E00081039500830091D303B6
:101110001091D503011760F30E943A010E94D1009B
:10112000802F04E20E94510B0091D1030E94510BC9
:101130000091D2030E94510B082F0E94510B03E231
:101140000E94510B93C10091D203023509F052C0A5
:101150000E94100B0093D5031091D50302E0109F5D
:101160000092D50300E00093D3030EC00E94100B41
:101170002091D30330E0F901EA52FC4F0083E3ED04
:10118000F3E000810E5F00830091D3031091D5033B
:10119000011760F30E94950004E20E94510B009138
:1011A000D1030E94510B0091D2030E94510B42E0E7
:1011B0000091D5030E94B30B0E94590B00E00093ED
:1011C000D3030EC00091D30310E0F801EA52FC4FA4
:1011D00000810E94590BE3EDF3E000810395008349
:1011E0000091D3031091D503011760F303E20E942D
:1011F000510B3CC10091D2030835D9F50E94100B68
:101200000093D5031091D50302E0109F0092D503FF
:1012100000E00093D3030EC00E94100B2091D30373
:1012200030E0F901EA52FC4F0083E3EDF3E0008186
:101230000E5F00830091D3031091D503011760F373
:101240000E94950004E20E94510B0091D1030E947C
:10125000510B0091D2030E94510B0091D6030E94C2
:10126000590B0091D7030E94590B03E20E94510BC6
:10127000FDC00091D203043551F40E94F20A0534F6
:1012800011F401E001C000E000930205EFC00091FD
:10129000D203003551F40E94F20A053411F401E042
:1012A00001C000E000930305E1C00091D2030F34B8
:1012B00051F40E94F20A053411F401E001C000E08B
:1012C00000930405D3C00091D2030D3451F40E9461
:1012D000F20A053411F401E001C000E000930505B5
:1012E000C5C00091D203033499F404E20E94510B6B
:1012F0000091D1030E94510B0091D2030E94510B27
:1013000000919D010E94590B03E20E94510BAEC057
:101310000091D2030834B9F40E94100B0E9494018A
:1013200004E20E94510B0091D1030E94510B0091E5
:10133000D2030E94510B00919D010E94590B03E2C0
:101340000E94510B93C00091D203013409F052C0A6
:101350000E94100B0093D5031091D50302E0109F5B
:101360000092D50300E00093D3030EC00E94100B3F
:101370002091D30330E0F901EA52FC4F0083E3ED02
:10138000F3E000810E5F00830091D3031091D50339
:10139000011760F30E94950004E20E94510B009136
:1013A000D1030E94510B0091D2030E94510B42E0E5
:1013B0000091D5030E94B30B0E94590B00E00093EB
:1013C000D3030EC00091D30310E0F801EA52FC4FA2
:1013D00000810E94590BE3EDF3E000810395008347
:1013E0000091D3031091D503011760F303E20E942B
:1013F000510B3CC00091D2030934C1F506E30093C0
:10140000070201E010E00E94600201E010E00E948B
:10141000B00206E3009307020091A301016000936C
:10142000080202E010E00E9460020AE010E00E9460
:101430004D0006E3009307020091A3010093080208
:1014400002E010E00E9460020AE010E00E944D00FD
:1014500004E20E94510B0091D1030E94510B0091B4
:10146000D2030E94510B03E20E94510B899108950F
:101470008A930091D203023599F40E941802802FBA
:1014800004E20E94510B22E030E001ED13E00E94E3
:10149000760B082F0E94590B03E20E94510B52C099
:1014A0000091D203073569F40E94100B802F082F9A
:1014B0000E941E020AE010E00E944D000E941802E5
:1014C00041C00091D203063409F504E20E94510B99
:1014D0000091D1030E94510B0091D2030E94510B45
:1014E00025E030E00BE711E00E94760B28E030E0C9
:1014F00001E811E00E94760B2DE030E00AE811E0EF
:101500000E94760B03E20E94510B1CC00091D20393
:101510000D3419F40E94A70115C00091D2030334C1
:1015200089F404E20E94510B0091D1030E94510BF7
:101530000091D2030E94510B01E40E94510B03E27F
:101540000E94510B899108950E94F20A003429F0FB
:101550000E94F20A0332E1F708950E94F20A009312
:10156000D1030E94F20A0093D2030091D103023505
:1015700011F4ABDD05C00091D103083409F478DF24
:101580000E94F20A033221F00E94F20A0332E1F7CC
:101590000895F80100E010E02081203330F0208130
:1015A0002A3318F40081005308C02081213428F028
:1015B0002081273410F4008107530295007F218198
:1015C000203330F021812A3318F41181105308C0E0
:1015D0002181213428F02181273410F411811753FF
:1015E000012B0895AC01E0EFF8E000811181F801D2
:1015F000EA5FFA4F0081E0EFF8E080819181019687
:10160000E0EFF8E080839183883E13E0910730F0AB
:1016100020E030E0E0EFF8E020833183CA01089554
:101620009A938A932297E0EFF8E000811181F80104
:10163000EA5FFA4F00810883E0EFF8E08081918152
:101640000196E0EFF8E080839183883E03E0900705
:1016500030F000E010E0E0EFF8E000831183E0EF0D
:10166000F8E000811181F801EA5FFA4F00810983F7
:10167000E0EFF8E0808191810196E0EFF8E080836F
:101680009183883E03E0900730F000E010E0E0EF47
:10169000F8E0008311838E017CDF22968991999175
:1016A000089510919B00212F25FFFBCF00939C00F4
:1016B00008958A93802F082F02950F700A3010F436
:1016C000005D05C00A3018F0003108F4095CE9DF5C
:1016D0008F70082F0A3010F4005D05C00A3018F032
:1016E000003108F4095CDDDF899108950E94CF0B79
:1016F000C801D901442407C05524FC01E40DF51D9F
:101700000081CFDF439455244A165B06ACF3E6E034
:101710000C94D60B0E94CF0BC801D901442407C0FA
:101720005524FC01E40DF51D0081C3DF43945524CD
:101730004A165B06ACF3E6E00C94D60B00008895E5
:10174000FECF0FE30DBF01E00EBFC0E2D1E00E946B
:10175000E10B002311F00E94FC0B0E9449050E943E
:101760009E0B0C949E0B0024E8E0EA9532F0001FDB
:10177000001C0416D0F3041AF8CF001F402D00956A
:101780000895149F102D059F100D049F002D110D1D
:1017900008954A951AF0000F111FFBCF08955A9231
:1017A0004A92BA93AA939A938A9308955D804C8043
:1017B000BB81AA8199818881F0E0EC0FFD1FEF01C8
:1017C000089501E00895F80101C02193BA01415044
:1017D0005040672BD1F7089520E008D0E9F708952D
:1017E0003BBF27913BB702D0D9F708952D93015005
:1017F0001040202F212B089508E5402E08E1502E9F
:1018000000E0602EF201362D6BBE07911691F201B9
:10181000EE5FFF4F3F4F3BBFA791B691F201362DD0
:10182000EC5FFF4F3F4F3BBF479157916691242F8D
:10183000252B262B21F0FA01362FD2DF01C0CCDF79
:1018400007E0400E00E0501E601EA201662D4636E5
:1018500058416040B8F208955A07980100000058B6
:1018600000400166180024525400245250002452B3
:101870004F003032303000303430300030383030CB
:10188000003130303000323030300024524D000210
:10189000040810204080000100000000000000014A
:1018A00000332E32312000323031383132323700BD
:0E18B000414E4D473034204A494720465700EC
:0400000300000000F9
:00000001FF
