:020000020000FC
:100000000C94270F1895189518951895189518950C
:100010001895189518951895189518951895189578
:1000200018951895189518950C94530A18951895C5
:1000300018951895189518950C943D0A18951895CB
:100040000C94480A189518951895189518951895B0
:100050001895189518951895189518951895189538
:100060001895189518951895189518951895189528
:1000700018951895189518950C945E0A189518956A
:100080000C94A30A18951895189518959A938A9325
:10009000C80103C008EE13E008D0FC01CF010197AE
:1000A000EF2BC1F789919991089598018901015029
:1000B0001040232BD1F70895F894E199FECF1FBB90
:1000C0000EBB2DBBE29AE19A78940895F894E199D9
:1000D000FECF1FBB0EBBE09A78940DB3089500B518
:1000E000046000BDA89501B5086101BD00E001BD37
:1000F0000AB30E630ABB17B30FEF07BB24B30FEFAE
:1001000004BB32B10FEF02B90FEF0093640000E0BF
:1001100000936500A8980FEF02BB1B981C9A1E98CD
:1001200008950BEF01BB00E0009398000FE00093EF
:10013000990002E000939B0008E100939A0006E01A
:1001400000939D0000919A00006C00939A0008951E
:100150008A93DD9880E020C0082F10E0000F111F67
:10016000F801E755FB4F00810093300401E010E0F7
:100170000E94890401E010E00E94E1042091CC0378
:10018000082F10E0000F111FF801E755FB4F2183E6
:1001900004E610E08ADF839542E00091A8040E9403
:1001A000390F8017C8F2899108958A93DD9880E00D
:1001B00004C004E610E079DF839542E00091A804D2
:1001C0000E94390F801700F5082F10E0000F111F53
:1001D000F801E755FB4F00810093300401E010E087
:1001E0000E94890401E010E00E94E104082F10E061
:1001F000000F111FF801E755FB4F01811091CC034F
:100200000117B9F206E401C003E5899108958A93C4
:10021000DD9880E02DC0082F10E0000F111FF801BD
:10022000E755FB4F008100933004082F10E0000FCA
:10023000111FF801E755FB4F01810093310402E0E3
:1002400010E00E948904082F10E0000F111FF80130
:10025000E755FB4F0081063051F4082F10E0000FE6
:10026000111FF801E755FB4F01810093940483951A
:1002700042E00091A8040E94390F801760F2899132
:100280000895DD98009397040395009398040895CA
:100290000E94510FDD980E94410439D10091D5058B
:1002A0000F3F09F450C080E029C0082F10E0000F74
:1002B000111FF801EA52FA4F008100933004082F11
:1002C00010E0000F111FF801EA52FA4F018100936C
:1002D000310402E010E00E948904082F10E0000FB2
:1002E000111FF801EA52FA4F2081082F10E0000F89
:1002F000111FF801E755FB4F2083839542E00091E1
:10030000D5050E94390F801780F20091D505009322
:10031000A8040AE010E0BADE0DE50093300401E025
:1003200010E00E94890401E010E00E94E104A09125
:10033000CC03A695A695A695A83058F0DC980E9407
:1003400056040FE475C0DE98DC980E94560405E45C
:100350006FC00BE5009330040A2F0F5E0093310449
:1003600002E010E00E94890404E610E09EDE0CE545
:100370000093300402E20093310402E010E00E9496
:10038000890404E610E091DEC79808EE13E07EDEF3
:10039000C79A0E94560408EC10E078DE01E00E9443
:1003A000200401E00E94280404EF11E06FDED0DE9B
:1003B00080E001C0839542E00091A8040E94390FBB
:1003C0008017B8F4082F10E0000F111FF801EA524F
:1003D000FA4F2181082F10E0000F111FF801E75597
:1003E000FB4F0181201731F3DC980E94560406E48C
:1003F0001FC00DE50093300401E010E00E94890465
:1004000001E010E00E94E104B0E011960091CC03FD
:1004100006950695069510E0A017B10729F0DC981F
:100420000E94560406E404C0DC9A0E94560403E5C8
:10043000E4E00C94580F8A93DD980E94410467D041
:100440000091D5050F3FB9F180E011C0082F10E0F1
:10045000000F111FF801EA52FA4F2081082F10E017
:10046000000F111FF801E755FB4F2083839542E0F1
:100470000091D5050E94390F801740F30091D505F2
:100480000093A8040AE010E001DEC79808EE13E02C
:10049000FDDDC79A0E94560408EC10E0F7DD01E08C
:1004A0000E94200401E00E94280404EF11E0EEDD28
:1004B0004FDE80E005C0DE98DC9805E426C0839519
:1004C00042E00091A8040E94390F8017B8F4082F69
:1004D00010E0000F111FF801EA52FA4F2181082F96
:1004E00010E0000F111FF801E755FB4F01812017A5
:1004F00031F3DC980E94560406E407C0DC9A0E949F
:10050000560408EC10E0C2DD03E5899108959A9342
:100510008A93DD9800E010E0D9DD0093D5050091C5
:10052000D5050023A9F00091D5050F3F89F080E0A3
:100530000BC0082F10E00F5F1F4FC8DD90E0FC01DB
:10054000EA52FA4F008383950091D505801788F30E
:100550008991999108959A938A93DD9800E010E02B
:10056000B5DD0093D5050091D505002321F000915C
:10057000D5050F3F11F406E416C080E001C0839555
:100580000091D505801770F4082F10E00F5F1F4F02
:100590009DDD90E0FC01EA52FA4F1081101779F3CB
:1005A00006E401C003E58991999108959A938A938D
:1005B000DD982091D50500E010E07EDD80E00BC0E5
:1005C00090E0FC01EA52FA4F2081082F10E00F5F03
:1005D0001F4F72DD83950091D505801788F38991AF
:1005E0009991089500E010EE21E030E041E045BF30
:1005F00042E045BFF8010995089505E200933004F3
:1006000001E010E00E94890401E010E00E94E10492
:1006100004E20E94080F02E50E94080F04E50E9410
:10062000080F0091CC030E94E20E03E20E94080F23
:1006300008950E94510F90E00FE10093300480E094
:1006400016C001E010E00E94890426E030E0D901E4
:10065000482F50E006E010E00E94470F980104E7A1
:1006600011E0020F131F9D010E94960783958436A7
:1006700040F380E001C08395843608F0AAC0482F7B
:1006800050E006E010E00E94470FF801EC58FE4FE2
:10069000A081AE7F482F50E006E010E00E94470F97
:1006A000F801EC58FE4F05810E7FA01721F7482F67
:1006B00050E006E010E00E94470FF801EC58FE4FB2
:1006C00000810E7F0058C9F0025859F0025059F0CD
:1006D000045059F0085059F0005159F0005259F0A7
:1006E0000EC0A0E00DC0A1E00BC0A2E009C0A3E0D5
:1006F00007C0A4E005C0A5E003C0A6E001C0AFEFBD
:10070000A73008F0B8CF79DF04E20E94080F02E5B5
:100710000E94080F00E50E94080F0A2F0E94E20EB7
:10072000482F50E006E010E00E94470FF801EC5817
:10073000FE4F008106950695109194040123002335
:1007400099F5482F50E006E010E00E94470FF801AD
:10075000EC58FE4F01810F730E94E20E482F50E0CB
:1007600006E010E00E94470FF801EC58FE4F0281AE
:100770000E94E20E482F50E006E010E00E94470F72
:10078000F801EC58FE4F03810F730E94E20E482FD0
:1007900050E006E010E00E94470FF801EC58FE4FD1
:1007A00004810E94E20E0CC000E00E94E20E00E014
:1007B0000E94E20E00E00E94E20E00E00E94E20EC3
:1007C00003E20E94080F9395092F902F0B3008F435
:1007D00052CFE4E00C94580F04E110E057DCC09ACB
:1007E0000EE110E053DCDA9A00E510E04FDC1E98D1
:1007F00008EE13E05ADC1E9A08EE13E056DC1E9851
:1008000008EE13E052DC0895C098DA98089506E0E7
:100810000093300401E010E00E94890401E010E040
:100820000E94E1040091CC0300939404089501E038
:100830000093950400E00093960438D0089508953D
:10084000013019F40E94EC0308950E9404040895F5
:10085000102F10FDC29A10FFC29804E610E00E940B
:1008600055000895002311F401E001C000E0102FAD
:1008700010FD1C9A10FF1C9804E610E00E94550021
:10088000089501E0DDDF04E110E00E94460001E090
:10089000D6DF08EE13E00E94460001E0D9DF01E058
:1008A000E1DF0CE211E00E944600089500E0C7DF9E
:1008B00000E0C6DF00E0CCDF00E0D4DF08951A9A44
:1008C00001E010E00E9455001B9A01E010E00E9438
:1008D00055001A9801E010E00E9455001B9801E0B5
:1008E00010E00E94550008951B9801E010E00E945E
:1008F00055001A9801E010E00E9455001B9A01E093
:1009000010E00E9455001A9A01E010E00E94550084
:1009100008959A938A93C80101E00093990402E034
:100920000093990401E010E00E945500C8DF01E047
:100930000093990402E00093990401E010E00E9402
:1009400055000091970419D500E010E0EDE9F4E0BE
:10095000008311831BC001E00093990402E000931F
:100960009904EDE9F4E000811181F801E05DFB4FAD
:10097000008103D501E010E00E945500EDE9F4E0AC
:10098000008111810F5F1F4F00831183EDE9F4E0B7
:100990000081118108171907F0F201E00093990412
:1009A00002E000939904A0DF01E00093990402E0C3
:1009B0000093990401E010E00E94550089919991FB
:1009C00008950E94510FD8017ADF01E010E00E94E3
:1009D000550000919804D1D400E010E0EDE9F4E076
:1009E0000083118340C01A9A009165000061009352
:1009F000650001E00093990402E00093990401E08E
:100A000010E00E9455001B9A009165000860009359
:100A1000650001E00093990402E00093990401E06D
:100A200010E00E9455001B9800916500077F00931D
:100A3000650001E010E00E94550001E010E00E9416
:100A4000550000919A04EDE9F4E020813181F9012B
:100A5000E453FC4F0083EDE9F4E0008111810F5F66
:100A60001F4F00831183EDE9F4E0008111810A1723
:100A70001B0708F057C2129A00E000939A041A9AD2
:100A80000091650000610093650001E00093990406
:100A900002E00093990401E010E00E94550001E09B
:100AA00010E00E945500129801E00093990402E0C2
:100AB000009399041B9A00916500086000936500FB
:100AC00001E00093990402E00093990401E010E032
:100AD0000E94550001E010E00E9455000A9B0BC0E7
:100AE000EAE9F4E00081006800830091650000619C
:100AF000009365000AC0EAE9F4E000810F77008303
:100B0000009165000F7E009365001B9800916500C1
:100B1000077F0093650001E00093990402E00093D1
:100B2000990401E010E00E94550001E010E00E94ED
:100B3000550001E010E00E9455001B9A00916500ED
:100B400008600093650001E00093990402E00093BF
:100B5000990401E010E00E94550001E010E00E94BD
:100B600055000A9B0BC0EAE9F4E0008100640083B1
:100B7000009165000061009365000AC0EAE9F4E0B5
:100B800000810F7B0083009165000F7E009365005C
:100B90001B9800916500077F0093650001E00093BA
:100BA000990402E00093990401E010E00E945500CE
:100BB00001E010E00E94550001E010E00E945500A5
:100BC0001B9A0091650008600093650001E00093A6
:100BD000990402E00093990401E010E00E9455009E
:100BE00001E010E00E9455000A9B0BC0EAE9F4E026
:100BF0000081006200830091650000610093650040
:100C00000AC0EAE9F4E000810F7D008300916500ED
:100C10000F7E009365001B9800916500077F00938D
:100C2000650001E00093990402E00093990401E05B
:100C300010E00E94550001E010E00E94550001E024
:100C400010E00E9455001B9A009165000860009317
:100C5000650001E00093990402E00093990401E02B
:100C600010E00E94550001E010E00E9455000A9B30
:100C70000BC0EAE9F4E000810061008300916500A7
:100C80000061009365000AC0EAE9F4E000810F7E8C
:100C90000083009165000F7E009365001B98009112
:100CA0006500077F0093650001E00093990402E06E
:100CB0000093990401E010E00E94550001E010E06B
:100CC0000E94550001E010E00E9455001B9A00911F
:100CD000650008600093650001E00093990402E05C
:100CE0000093990401E010E00E94550001E010E03B
:100CF0000E9455000A9B0BC0EAE9F4E000810860FD
:100D00000083009165000061009365000AC0EAE974
:100D1000F4E00081077F0083009165000F7E00935F
:100D200065001B9800916500077F0093650001E056
:100D30000093990402E00093990401E010E00E94FE
:100D4000550001E010E00E94550001E010E00E9413
:100D500055001B9A0091650008600093650001E052
:100D60000093990402E00093990401E010E00E94CE
:100D7000550001E010E00E9455000A9B0BC0EAE913
:100D8000F4E000810460008300916500006100933D
:100D900065000AC0EAE9F4E000810B7F008300915E
:100DA00065000F7E009365001B9800916500077F2A
:100DB0000093650001E00093990402E00093990418
:100DC00001E010E00E94550001E010E00E94550093
:100DD00001E010E00E9455001B9A00916500086038
:100DE0000093650001E00093990402E000939904E8
:100DF00001E010E00E94550001E010E00E94550063
:100E00000A9B0BC0EAE9F4E00081026000830091D4
:100E100065000061009365000AC0EAE9F4E0008122
:100E20000D7F0083009165000F7E009365001B9885
:100E300000916500077F0093650001E0009399042D
:100E400002E00093990401E010E00E94550001E0E7
:100E500010E00E94550001E010E00E9455001B9A2E
:100E60000091650008600093650001E0009399041B
:100E700002E00093990401E010E00E94550001E0B7
:100E800010E00E9455000A9B0BC0EAE9F4E00081E3
:100E900001600083009165000061009365000AC055
:100EA000EAE9F4E000810E7F0083009165000F7E87
:100EB000009365001B9800916500077F0093650013
:100EC00001E00093990402E00093990401E010E02E
:100ED0000E94550001E010E00E94550001E010E082
:100EE0000E945500129A01E010E00E94550001E0B6
:100EF0000093990402E00093990401E010E00E943D
:100F00005500EDE9F4E000811181CD01019708174A
:100F1000190708F068CD1A98009165000F7E0093BC
:100F2000650067CDE1DCE4E00C94580F0E94510F9E
:100F3000D801C901C4DC009198041FD200E010E080
:100F4000EDE9F4E00083118334C01A9A0091650042
:100F500000610093650001E00093990402E00093B2
:100F600099041B9A0091650008600093650001E0F8
:100F70000093990402E0009399041B980091650086
:100F8000077F0093650001E010E00E94550000918A
:100F90009A04EDE9F4E020813181FD01E20FF31FB5
:100FA0000083EDE9F4E0008111810F5F1F4F0083A2
:100FB0001183EDE9F4E0008111810817190708F0A9
:100FC000D8C1129A00E000939A041A9A0091650021
:100FD00000610093650001E00093990402E0009332
:100FE0009904129801E0009399041B9A00916500FE
:100FF00008600093650001E00093990402E000930B
:1010000099040A9B0BC0EAE9F4E0008100680083C0
:10101000009165000061009365000AC0EAE9F4E010
:1010200000810F770083009165000F7E00936500BB
:101030001B9800916500077F0093650001E0009315
:10104000990402E00093990401E010E00E94550029
:101050001B9A0091650008600093650001E0009311
:10106000990402E0009399040A9B0BC0EAE9F4E0BA
:1010700000810064008300916500006100936500B9
:101080000AC0EAE9F4E000810F7B0083009165006B
:101090000F7E009365001B9800916500077F009309
:1010A000650001E00093990402E00093990401E0D7
:1010B00010E00E9455001B9A0091650008600093A3
:1010C000650001E00093990402E0009399040A9BF3
:1010D0000BC0EAE9F4E00081006200830091650042
:1010E0000061009365000AC0EAE9F4E000810F7D29
:1010F0000083009165000F7E009365001B980091AE
:101100006500077F0093650001E00093990402E009
:101110000093990401E010E00E9455001B9A009191
:10112000650008600093650001E00093990402E007
:101130000093990401E010E00E94550001E010E0E6
:101140000E9455000A9B0BC0EAE9F4E000810061AF
:101150000083009165000061009365000AC0EAE920
:10116000F4E000810F7E0083009165000F7E009304
:1011700065001B9800916500077F0093650001E002
:101180000093990402E00093990401E010E00E94AA
:10119000550001E010E00E94550001E010E00E94BF
:1011A00055001B9A0091650008600093650001E0FE
:1011B0000093990402E0009399040A9B0BC0EAE9AA
:1011C000F4E00081086000830091650000610093F5
:1011D00065000AC0EAE9F4E00081077F008300911E
:1011E00065000F7E009365001B9800916500077FE6
:1011F0000093650001E00093990402E000939904D4
:1012000001E010E00E9455001B9A00916500086003
:101210000093650001E00093990402E000939904B3
:101220000A9B0BC0EAE9F4E00081046000830091AE
:1012300065000061009365000AC0EAE9F4E00081FE
:101240000B7F0083009165000F7E009365001B9863
:1012500000916500077F0093650001E00093990409
:1012600002E00093990401E010E00E9455001B9AEF
:101270000091650008600093650001E00093990407
:1012800002E0009399040A9B0BC0EAE9F4E00081B4
:1012900002600083009165000061009365000AC050
:1012A000EAE9F4E000810D7F0083009165000F7E84
:1012B000009365001B9800916500077F009365000F
:1012C00001E00093990402E00093990401E010E02A
:1012D0000E9455001B9A009165000860009365000C
:1012E00001E00093990402E0009399040A9B0BC06B
:1012F000EAE9F4E00081016000830091650000618B
:10130000009365000AC0EAE9F4E000810E7F0083E3
:10131000009165000F7E009365001B9800916500A9
:10132000077F0093650001E00093990402E00093B9
:10133000990401E010E00E945500129A01E010E0CB
:101340000E94550001E00093990402E00093990483
:10135000EDE9F4E000811181FC0131970E171F07C0
:1013600008F0F3CD1A98009165000F7E0093650098
:10137000F2CDBADAE4E00C94580F0E94510F802F9E
:10138000129A00E010E0EBE9F4E00083118325C03D
:101390001A9800916500006100936500880F1B9A00
:1013A0000091650008600093650001E000939904D6
:1013B00002E00093990401E010E00E9455001B98A0
:1013C00000916500077F00936500EBE9F4E0008180
:1013D00011810F5F1F4F00831183ABE9B4E0ED91E2
:1013E000FC91389748F487FB9EF61A9A00916500A5
:1013F000006100936500D2CF12981A9A009165009F
:1014000000610093650001E00093990402E00093FD
:10141000990401E010E00E9455001B9A00916500BC
:1014200008600093650001E00093990402E00093D6
:10143000990401E00093990402E00093990401E00B
:101440000093990402E00093990401E010E00E94E7
:101450005500129A01E00093990402E00093990468
:1014600001E010E00E9455001B9800916500077F85
:1014700000936500E4E00C94580F2A931A930A93A2
:101480001FB72BB72BBF1FBF099119912991189531
:101490002A931A930A931FB72BB72BBF1FBF09912B
:1014A0001991299118952A931A930A931FB72BB76C
:1014B0002BBF1FBF09911991299118959A938A936F
:1014C000FA93EA935A934A933A932A931A930A9374
:1014D0004FB75BB700919C00ECEEFAE020813181C0
:1014E000F901EC5FF84F0083ECEEFAE00081118126
:1014F000F801EC5FF84F0081033229F4E7EAF4E0E9
:10150000008103950083ECEEFAE0808191810196E1
:10151000ECEEFAE080839183883E03E0900730F0A0
:1015200000E010E0ECEEFAE0008311835BBF4FBFF8
:10153000099119912991399149915991E991F9911B
:101540008991999118952A931A930A931FB72BB7EB
:101550002BBF1FBF0991199129911895F8940E94EA
:101560006F00DC9AC79800916500077F00936500C3
:10157000009165000F7E009365000E941704789427
:101580000E9491000E941F0B02ED0093970403ED4F
:1015900000939804C79A0091650008600093650065
:1015A0000091650000610093650008959A938A9305
:1015B000009102070130B1F5E1EAF4E08081918108
:1015C0000196E1EAF4E080839183893803E1900792
:1015D000E0F000E010E0E1EAF4E000831183EFE9DD
:1015E000F4E0808191810196EFE9F4E080839183BA
:1015F000823000E0900748F000E010E0EFE9F4E00E
:101600000083118301E00093A3040091A30401303F
:1016100049F400910207013011F40E94190300E01F
:101620000093A30489919991089503E010E00E942A
:10163000460094DFDD9A0E94200EB8DFFBCF00E069
:1016400010E0ECEEFAE00083118300E010E0EEEE33
:10165000FAE00083118300E00093A6040DC000E0CF
:101660002091A60430E0F901EC55FB4F0083E6EA37
:10167000F4E00081039500830091A604023078F322
:1016800000E00093A70400E00093020700E000934D
:10169000030708958A930091A5040735C9F50E94B0
:1016A000830E0093A8041091A80402E0109F0092FA
:1016B000A80400E00093A6040EC00E94830E2091AF
:1016C000A60430E0F901E755FB4F0083E6EAF4E0B9
:1016D0000081039500830091A6041091A8040117CE
:1016E00060F30E9407010E94D500802F04E20E944F
:1016F000080F0091A4040E94080F0091A5040E9405
:10170000080F082F0E94080F03E20E94080F0FC164
:101710000091A504023509F052C00E94830E009387
:10172000A8041091A80402E0109F0092A80400E011
:101730000093A6040EC00E94830E2091A60430E000
:10174000F901E755FB4F0083E6EAF4E000810E5F04
:1017500000830091A6041091A804011760F30E9471
:10176000A80004E20E94080F0091A4040E94080F40
:101770000091A5040E94080F42E00091A8040E9475
:10178000390F0E94E20E00E00093A6040EC0009103
:10179000A60410E0F801E755FB4F00810E94E20E1D
:1017A000E6EAF4E00081039500830091A60410911D
:1017B000A804011760F303E20E94080FB8C000916B
:1017C000A504043561F40E94C40E053411F401E04F
:1017D00001C000E0009302070E940704A8C0009126
:1017E000A504003551F40E94C40E053411F401E043
:1017F00001C000E0009303079AC00091A5040334E0
:1018000099F404E20E94080F0091A4040E94080FBA
:101810000091A5040E94080F009197040E94E20E17
:1018200003E20E94080F83C00091A5040834B9F4B4
:101830000E94830E0E94410104E20E94080F009161
:10184000A4040E94080F0091A5040E94080F0091B3
:1018500097040E94E20E03E20E94080F68C0009104
:10186000A504013471F504E20E94080F0091A4045C
:101870000E94080F0091A5040E94080F42E0009109
:10188000A8040E94390F0E94E20E00E00093A60413
:101890000EC00091A60410E0F801E755FB4F00814F
:1018A0000E94E20EE6EAF4E00081039500830091D5
:1018B000A6041091A804011760F303E20E94080F28
:1018C00036C00091A504093491F504E0009330047A
:1018D00001E010E00E94890401E010E00E94E104B0
:1018E0000091CC0308600093310402E010E00E94F4
:1018F000890404E110E00E9446000091CC030093AB
:10190000310402E010E00E94890404E110E00E942A
:10191000460004E20E94080F0091A4040E94080FF0
:101920000091A5040E94080F03E20E94080F89910C
:1019300008958A930091A504073529F00091A50424
:10194000063509F044C00E94830E0093D50510911E
:10195000D50502E0109F0092D50500E00093A60493
:101960000EC00E94830E2091A60430E0F901EA52D5
:10197000FA4F0083E6EAF4E00081039500830091CA
:10198000A6041091D505011760F30E94D6020091BC
:10199000A504073521F40E944801802F07C000915B
:1019A000A504063519F40E941B02802F04E20E9450
:1019B000080F0091A4040E94080F0091A5040E9442
:1019C000080F082F0E94080F03E20E94080F899158
:1019D00008958A930091A5040235E1F50E948702DB
:1019E00004E20E94080F0091A4040E94080F0091D5
:1019F000A5040E94080F0091D505002319F100915C
:101A0000D5050F3FF9F042E00091D5050E94390F4E
:101A10000E94E20E00E00093A6040091A60410913B
:101A2000D505011798F40091A60410E0F801EA52D8
:101A3000FA4F00810E94E20EE6EAF4E0008103958D
:101A40000083EBCF0091D5050E94E20E03E20E94D5
:101A5000080F3CC00091A5040735C1F50E94830E14
:101A60000093D5051091D50502E0109F0092D50591
:101A700000E00093A6040EC00E94830E2091A604ED
:101A800030E0F901EA52FA4F0083E6EAF4E000811F
:101A9000039500830091A6041091D505011760F30A
:101AA0000E94D6020E94AB02802F04E20E94080F1F
:101AB0000091A4040E94080F0091A5040E94080F41
:101AC000082F0E94080F03E20E94080F89910895D1
:101AD0000091A504023599F504E20E94080F0091D7
:101AE000A4040E94080F0091A5040E94080FDB9B2C
:101AF00004C005E40E94080F03C004E40E94080F1C
:101B0000C09B04C005E40E94080F03C004E40E94C7
:101B1000080FC29B04C005E40E94080F03C004E440
:101B20000E94080F1C9904C005E40E94080F03C01E
:101B300004E40E94080F03E20E94080F0895009138
:101B4000A504073569F50E94C40E053421F401E0AF
:101B50000E941F0403C000E00E941F040E94C40EE4
:101B6000053421F401E00E94200403C000E00E943B
:101B700020040E94C40E053421F401E00E942804D0
:101B800003C000E00E9428040E94C40E053421F422
:101B900001E00E943204089500E00E94320408959A
:101BA0000091A504063409F504E20E94080F009193
:101BB000A4040E94080F0091A5040E94080F25E0CC
:101BC00030E000E611E00E94100F28E030E006E669
:101BD00011E00E94100F24E030E00FE611E00E94B7
:101BE000100F03E20E94080F08950091A5040D3420
:101BF00019F40E94F20208950091A504033491F4AF
:101C000004E20E94080F0091A4040E94080F0091B2
:101C1000A5040E94080F01E40E94080F03E20E943D
:101C2000080F08950091A5040F3449F40E94C40ED2
:101C30000E3419F40E94EC0308950E9404040895E0
:101C400012C00091A404083409F442DF0E94C40EBB
:101C5000033221F00E94C40E0332E1F7E7EAF4E018
:101C600000810A9500830091A704013040F00E9492
:101C7000C40E003429F00E94C40E0332E1F7089527
:101C80000E94C40E0093A4040E94C40E0093A504F5
:101C90000091A404023511F4FDDCD8CF0091A40416
:101CA0000D3411F446DED2CF0091A404053449F678
:101CB00090DECCCFF80100E010E02081203330F03E
:101CC00020812A3318F40081005308C02081213478
:101CD00028F02081273410F4008107530295007FFB
:101CE0002181203330F021812A3318F411811053DF
:101CF00008C02181213428F02181273410F411817A
:101D00001753012B08959A938A932297EEEEFAE0E7
:101D100000811181F801EC5FF84F00810883EEEE3D
:101D2000FAE0808191810196EEEEFAE08083918362
:101D3000883E03E0900730F000E010E0EEEEFAE0BD
:101D400000831183EEEEFAE000811181F801EC5F6F
:101D5000F84F00810983EEEEFAE0808191810196CF
:101D6000EEEEFAE080839183883E03E0900730F046
:101D700000E010E0EEEEFAE0008311838E019ADFBE
:101D80002296899199910895AC01EEEEFAE00081D6
:101D90001181F801EC5FF84F0081EEEEFAE08081EE
:101DA00091810196EEEEFAE080839183883E13E004
:101DB000910730F020E030E0EEEEFAE0208331834E
:101DC000CA010895102F12951F701A3010F4105D7B
:101DD00005C01A3018F0103108F4195C20919B00EE
:101DE000322F35FFFBCF10939C000F70102F1A304D
:101DF00010F4105D05C01A3018F0103108F4195CA9
:101E000000919B00202F25FFFBCF10939C0008958D
:101E100010919B00212F25FFFBCF00939C0008957C
:101E20000E944F0FC801D901442407C05524FC016A
:101E3000E40DF51D0081ECDF439455244A165B0642
:101E4000ACF3E6E00C94560F00008895FECF0FE54A
:101E50000DBF01E00EBFC0E4D1E00E94610F00237E
:101E600011F00E94730F0E94150B0E94240F0C9416
:101E7000240F0024E8E0EA9532F0001F001C04164D
:101E8000D0F3041AF8CF001F402D00950895149F39
:101E9000102D059F100D049F002D110D08955A92CD
:101EA0004A92BA93AA939A938A9308955D804C803C
:101EB000BB81AA8199818881F0E0EC0FFD1FEF01C1
:101EC000089501E0089520E008D0E9F708953BBFA8
:101ED00027913BB702D0D9F708952D9301501040B8
:101EE000202F212B089506E4402E0FE1502E00E014
:101EF000602EF201362D6BBE07911691F201EE5F56
:101F0000FF4F3F4F3BBFA791B691F201362DEC5FDB
:101F1000FF4F3F4F3BBF479157916691242F252B91
:101F2000262B21F0FA01362FD2DF01C0CCDF07E0EB
:101F3000400E00E0501E601EA201662D44355F4138
:101F40006040B8F208957C0974010000001400603C
:101F500001541F00332E3030200032303133313104
:081F6000323700545330360003
:0400000300000000F9
:00000001FF
