:020000020000FC
:100000000C94BB1318951895189518951895189574
:100010001895189518951895189518951895189578
:1000200018951895189518950C948A0E189518958A
:1000300018951895189518950C94580E18951895AC
:100040000C94630E18951895189518951895189591
:100050001895189518951895189518951895189538
:100060001895189518951895189518951895189528
:1000700018951895189518950C94950E189518952F
:100080000C94DA0E18951895189518959A938A93EA
:10009000C80103C008EE13E008D0FC01CF010197AE
:1000A000EF2BC1F789919991089598018901015029
:1000B0001040232BD1F70895F894E199FECF1FBB90
:1000C0000EBB2DBBE29AE19A78940895F894E199D9
:1000D000FECF1FBB0EBBE09A78940DB3089500B518
:1000E000046000BDA89501B5086101BD00E001BD37
:1000F0000AB30E630ABB17B30FEF07BB24B30FEFAE
:1001000004BB02B10F6D02B90FEF0093640000E071
:1001100000936500A8980FEF02BB1B981C9A1E98CD
:1001200008950BEF01BB00E0009398000FE00093EF
:10013000990002E000939B0008E100939A0006E01A
:1001400000939D0000919A00006C00939A0008951E
:100150008A93DD9880E01AC021E030E0082F10E09B
:10016000000F111FF801EA5BFD4F00810E944B0E4A
:1001700020916D01082F10E0000F111FF801EA5BBC
:10018000FD4F218304E610E090DF839542E000916B
:1001900045020E94CD138017F8F2899108958A9341
:1001A000DD9880E004C004E610E07FDF839542E044
:1001B000009145020E94CD138017D0F421E030E079
:1001C000082F10E0000F111FF801EA5BFD4F0081BE
:1001D0000E944B0E082F10E0000F111FF801EA5B80
:1001E000FD4F018110916D010117E9F206E401C094
:1001F00003E5899108958A93DD9880E019C0082F5E
:1002000010E0000F111FF801EA5BFD4F0081009321
:10021000D101082F10E0000F111FF801EA5BFD4F1C
:1002200001810093D20102E010E00E9485088395CD
:1002300042E0009145020E94CD13801700F389919E
:100240000895DD980093680103950093690108956E
:100250009A938A93DD9800E010E038DF00937203F0
:10026000009172030023A9F0009172030F3F89F0FF
:1002700080E00BC0082F10E00F5F1F4F27DF90E0DA
:10028000FC01ED58FC4F00838395009172038017A9
:1002900088F38991999108959A938A93DD9800E063
:1002A00010E014DF0093720300917203002321F029
:1002B000009172030F3F11F406E416C080E001C004
:1002C000839500917203801770F4082F10E00F5F80
:1002D0001F4FFCDE90E0FC01ED58FC4F1081101721
:1002E00079F306E401C003E58991999108959A9301
:1002F0008A93DD982091720300E010E0DDDE80E05B
:100300000BC090E0FC01ED58FC4F2081082F10E05D
:100310000F5F1F4FD1DE839500917203801788F322
:1003200089919991089500E010EE21E030E041E0DC
:1003300045BF42E045BFF801099508951E9808EEB3
:1003400013E0B3DE1E9A08EE13E0AFDE1E9808EE4F
:1003500013E0ABDE0895AC0107C084E398E0FC0134
:10036000CF010197EF2BD9F7980189010150104077
:10037000232B99F7CA01089501E00093660100E07C
:100380000093670131D008950895013069F4C09A4F
:100390000AE010E00E94AB01DA9A00E510E00E944A
:1003A00046000E949E010895DA980AE010E00E943B
:1003B000AB01C0980895102F10FDC29A10FFC2988B
:1003C00004E610E00E9455000895002311F401E0B6
:1003D00001C000E0102F10FD1C9A10FF1C9804E6CD
:1003E00010E00E945500089500E0CEDF00E0CDDF70
:1003F00000E0E1DF00E0E9DF0895002311F4DD987B
:100400000895DD9A089500E0C0990260C2990460E1
:100410001C9B016008958A93802F81FB16F401E0F4
:1004200001C000E0B2DF04E110E00E94AB0182FBFA
:1004300016F401E001C000E0BEDF04E110E00E941C
:10044000AB01082F0170C1DF08EC10E00E94AB0186
:1004500089910895009368010160009369010895EE
:100460001A9A01E000936B011B9A01E000936B0163
:100470001A9801E000936B0102E000936B0101E028
:1004800000936B0102E000936B0101E000936B01AC
:1004900001E000936B0102E000936B0101E0009327
:1004A0006B0102E000936B0101E000936B0101E03E
:1004B00000936B0102E000936B0101E000936B017C
:1004C00002E000936B0101E000936B0101E00093F7
:1004D0006B0102E000936B0101E000936B0102E00D
:1004E00000936B0101E000936B011B9801E0009306
:1004F0006B0102E000936B0101E000936B0102E0ED
:1005000000936B0101E000936B0101E000936B012C
:1005100002E000936B0101E000936B0102E00093A5
:100520006B0101E000936B0101E000936B0102E0BD
:1005300000936B0101E000936B0102E000936B01FB
:1005400001E000936B0101E000936B0102E0009376
:100550006B0101E000936B0102E000936B0101E08D
:1005600000936B0108951B9801E000936B011A98AA
:1005700001E000936B011B9A01E000936B0102E024
:1005800000936B0101E000936B0102E000936B01AB
:1005900001E000936B0101E000936B0102E0009326
:1005A0006B0101E000936B0102E000936B0101E03D
:1005B00000936B0101E000936B0102E000936B017B
:1005C00001E000936B0102E000936B0101E00093F6
:1005D0006B0101E000936B0102E000936B0101E00D
:1005E00000936B0102E000936B0101E000936B014B
:1005F0001A9A01E000936B0102E000936B0101E0A5
:1006000000936B0102E000936B0101E000936B012A
:1006100001E000936B0102E000936B0101E00093A5
:100620006B0102E000936B0101E000936B0101E0BC
:1006300000936B0102E000936B0101E000936B01FA
:1006400002E000936B0101E000936B0101E0009375
:100650006B0102E000936B0101E000936B0102E08B
:1006600000936B0101E000936B0108951091650008
:10067000186010936500109165001061109365007B
:10068000129A07FB16F411E001C010E010FB13B141
:1006900012F913B911E010936B0112E010936B0182
:1006A00011E010936B0112E010936B0111E01093B5
:1006B0006B0111E010936B0112E010936B0111E0DC
:1006C00010936B0112E010936B0111E010936B011A
:1006D00011E010936B0112E010936B011B9A11E073
:1006E00010936B0112E010936B0111E010936B01FA
:1006F00012E010936B0111E010936B0111E0109365
:100700006B0112E010936B0111E010936B0112E08A
:1007100010936B0111E010936B0111E010936B01CA
:1007200012E010936B0111E010936B0112E0109333
:100730006B0111E010936B0111E010936B0112E05B
:1007400010936B0111E010936B0112E010936B0199
:1007500011E010936B0111E010936B0112E0109304
:100760006B0111E010936B0112E010936B011B9869
:1007700011E010936B0112E010936B0111E01093E4
:100780006B0112E010936B0111E010936B0111E00B
:1007900010936B0112E010936B0111E010936B0149
:1007A00012E010936B0106FB16F411E001C010E09B
:1007B00010FB13B112F913B911E010936B0112E0A1
:1007C00010936B0111E010936B0112E010936B0119
:1007D00011E010936B0111E010936B0112E0109384
:1007E0006B0111E010936B0112E010936B0111E0AB
:1007F00010936B0111E010936B0112E010936B01E9
:100800001B9A11E010936B0112E010936B0111E041
:1008100010936B0112E010936B0111E010936B01C8
:1008200011E010936B0112E010936B0111E0109333
:100830006B0112E010936B0111E010936B0111E05A
:1008400010936B0112E010936B0111E010936B0198
:1008500012E010936B0111E010936B0111E0109303
:100860006B0112E010936B0111E010936B0112E029
:1008700010936B0111E010936B0111E010936B0169
:1008800012E010936B0111E010936B0112E01093D2
:100890006B011B9811E010936B0112E010936B0138
:1008A00011E010936B0112E010936B0111E01093B3
:1008B0006B0111E010936B0112E010936B0111E0DA
:1008C00010936B0112E010936B0105FB16F411E01D
:1008D00001C010E010FB13B112F913B911E010932D
:1008E0006B0112E010936B0111E010936B0112E0A9
:1008F00010936B0111E010936B0111E010936B01E9
:1009000012E010936B0111E010936B0112E0109351
:100910006B0111E010936B0111E010936B0112E079
:1009200010936B011B9A11E010936B0112E010936E
:100930006B0111E010936B0112E010936B0111E059
:1009400010936B0111E010936B0112E010936B0197
:1009500011E010936B0112E010936B0111E0109302
:100960006B0111E010936B0112E010936B0111E029
:1009700010936B0112E010936B0111E010936B0167
:1009800011E010936B0112E010936B0111E01093D2
:100990006B0112E010936B0111E010936B0111E0F9
:1009A00010936B0112E010936B0111E010936B0137
:1009B00012E010936B011B9811E010936B0112E091
:1009C00010936B0111E010936B0112E010936B0117
:1009D00011E010936B0111E010936B0112E0109382
:1009E0006B0111E010936B0112E010936B0104FB9B
:1009F00016F411E001C010E010FB13B112F913B9A5
:100A000011E010936B0112E010936B0111E0109351
:100A10006B0112E010936B0111E010936B0111E078
:100A200010936B0112E010936B0111E010936B01B6
:100A300012E010936B0111E010936B0111E0109321
:100A40006B0112E010936B011B9A11E010936B0184
:100A500012E010936B0111E010936B0112E0109300
:100A60006B0111E010936B0111E010936B0112E028
:100A700010936B0111E010936B0112E010936B0166
:100A800011E010936B0111E010936B0112E01093D1
:100A90006B0111E010936B0112E010936B0111E0F8
:100AA00010936B0111E010936B0112E010936B0136
:100AB00011E010936B0112E010936B0111E01093A1
:100AC0006B0111E010936B0112E010936B0111E0C8
:100AD00010936B0112E010936B011B9811E01093BF
:100AE0006B0112E010936B0111E010936B0112E0A7
:100AF00010936B0111E010936B0111E010936B01E7
:100B000012E010936B0111E010936B0112E010934F
:100B10006B0103FB16F411E001C010E010FB13B1F0
:100B200012F913B911E010936B0112E010936B01ED
:100B300011E010936B0112E010936B0111E0109320
:100B40006B0111E010936B0112E010936B0111E047
:100B500010936B0112E010936B0111E010936B0185
:100B600011E010936B0112E010936B011B9A11E0DE
:100B700010936B0112E010936B0111E010936B0165
:100B800012E010936B0111E010936B0111E01093D0
:100B90006B0112E010936B0111E010936B0112E0F6
:100BA00010936B0111E010936B0111E010936B0136
:100BB00012E010936B0111E010936B0112E010939F
:100BC0006B0111E010936B0111E010936B0112E0C7
:100BD00010936B0111E010936B0112E010936B0105
:100BE00011E010936B0111E010936B0112E0109370
:100BF0006B0111E010936B0112E010936B011B98D5
:100C000011E010936B0112E010936B0111E010934F
:100C10006B0112E010936B0111E010936B0111E076
:100C200010936B0112E010936B0111E010936B01B4
:100C300012E010936B0102FB16F411E001C010E00A
:100C400010FB13B112F913B911E010936B0112E00C
:100C500010936B0111E010936B0112E010936B0184
:100C600011E010936B0111E010936B0112E01093EF
:100C70006B0111E010936B0112E010936B0111E016
:100C800010936B0111E010936B0112E010936B0154
:100C90001B9A11E010936B0112E010936B0111E0AD
:100CA00010936B0112E010936B0111E010936B0134
:100CB00011E010936B0112E010936B0111E010939F
:100CC0006B0112E010936B0111E010936B0111E0C6
:100CD00010936B0112E010936B0111E010936B0104
:100CE00012E010936B0111E010936B0111E010936F
:100CF0006B0112E010936B0111E010936B0112E095
:100D000010936B0111E010936B0111E010936B01D4
:100D100012E010936B0111E010936B0112E010933D
:100D20006B011B9811E010936B0112E010936B01A3
:100D300011E010936B0112E010936B0111E010931E
:100D40006B0111E010936B0112E010936B0111E045
:100D500010936B0112E010936B0101FB16F411E08C
:100D600001C010E010FB13B112F913B911E0109398
:100D70006B0112E010936B0111E010936B0112E014
:100D800010936B0111E010936B0111E010936B0154
:100D900012E010936B0111E010936B0112E01093BD
:100DA0006B0111E010936B0111E010936B0112E0E5
:100DB00010936B011B9A11E010936B0112E01093DA
:100DC0006B0111E010936B0112E010936B0111E0C5
:100DD00010936B0111E010936B0112E010936B0103
:100DE00011E010936B0112E010936B0111E010936E
:100DF0006B0111E010936B0112E010936B0111E095
:100E000010936B0112E010936B0111E010936B01D2
:100E100011E010936B0112E010936B0111E010933D
:100E20006B0112E010936B0111E010936B0111E064
:100E300010936B0112E010936B0111E010936B01A2
:100E400012E010936B011B9811E010936B0112E0FC
:100E500010936B0111E010936B0112E010936B0182
:100E600011E010936B0111E010936B0112E01093ED
:100E70006B0111E010936B0112E010936B01102FC6
:100E800010FD1A9A10FF1A9801E000936B0102E01E
:100E900000936B0101E000936B0102E000936B0192
:100EA00001E000936B0101E000936B0102E000930D
:100EB0006B0101E000936B0102E000936B0101E024
:100EC00000936B0101E000936B0102E000936B0162
:100ED0001B9A01E000936B0102E000936B0101E0BB
:100EE00000936B0102E000936B0101E000936B0142
:100EF00001E000936B0102E000936B0101E00093BD
:100F00006B0102E000936B0101E000936B0101E0D3
:100F100000936B0102E000936B0101E000936B0111
:100F200002E000936B0101E000936B0101E000938C
:100F30006B0102E000936B0101E000936B0102E0A2
:100F400000936B0101E000936B0101E000936B01E2
:100F500002E000936B0101E000936B0102E000935B
:100F60006B011B9801E000936B0102E000936B01A1
:100F700012981A9A01E000936B0102E000936B0152
:100F800001E000936B0102E000936B0101E000932C
:100F90006B0101E000936B0102E000936B0101E043
:100FA00000936B0102E000936B0101E000936B0181
:100FB00001E000936B0102E000936B0101E00093FC
:100FC0006B0102E000936B0101E000936B0101E013
:100FD00000936B0102E000936B0101E000936B0151
:100FE00002E000936B011B9A01E000936B0102E0A9
:100FF00000936B0101E000936B0102E000936B0131
:1010000001E000936B0101E000936B0102E00093AB
:101010006B0101E000936B0102E000936B0101E0C2
:1010200000936B0101E000936B0102E000936B0100
:1010300001E000936B0102E000936B0101E000937B
:101040006B0101E000936B0102E000936B0101E092
:1010500000936B0102E000936B0101E000936B01D0
:1010600001E000936B0102E000936B0101E000934B
:101070006B0102E000936B011B9801E000936B0190
:1010800002E000936B0101E000936B0102E000932A
:101090006B0101E000936B0101E000936B0102E042
:1010A00000936B0101E000936B0102E000936B0180
:1010B00001E000936B0101E000936B0102E00093FB
:1010C0006B0101E000936B0102E000936B0101E012
:1010D00000936B0101E000936B0102E000936B0150
:1010E00001E000936B0102E000936B0101E00093CB
:1010F0006B01129A00916500077F009365000091D3
:1011000065000F7E0093650008959A938A93C80145
:10111000A7D900916801AADA00E000936A010DC026
:1011200000916A0110E0F801EF52FE4F00819EDA53
:10113000EAE6F1E000810395008300916A0110E086
:101140000817190768F30FDA8991999108959A930E
:101150008A93902F812F84D90091680187DA092F13
:1011600085DA082F83DAFFD98991999108959A93A6
:101170008A93C80175D90091690178DA00E07BC0D3
:101180001A9A11E010936B0112E010936B0111E0B9
:1011900010936B0112E010936B0111E010936B013F
:1011A00011E010936B0112E010936B0111E01093AA
:1011B0006B0112E010936B0111E010936B011B9A0D
:1011C00011E010936B0112E010936B0111E010938A
:1011D0006B0112E010936B0111E010936B0111E0B1
:1011E00010936B0112E010936B0111E010936B01EF
:1011F00012E010936B0111E010936B0111E010935A
:101200006B0112E010936B0111E010936B0112E07F
:1012100010936B0111E010936B0111E010936B01BF
:1012200012E010936B0111E010936B0112E0109328
:101230006B0111E010936B0111E010936B0112E050
:1012400010936B0111E010936B0112E010936B018E
:101250001B9820916C0110E0F801E359FE4F2083A8
:1012600010916500177F10936500109165001F7E37
:1012700010936500039510E00817190708F0BEC425
:101280001091650018601093650010916500106161
:101290001093650010E010936C01129A1A9A11E0F5
:1012A00010936B0112E010936B0111E010936B012E
:1012B00012E010936B0111E010936B0111E0109399
:1012C0006B0112E010936B0111E010936B0112E0BF
:1012D00010936B0111E010936B01129811E01093C1
:1012E0006B0112E010936B0111E010936B0112E09F
:1012F00010936B0111E010936B0111E010936B01DF
:1013000012E010936B0111E010936B0112E0109347
:101310006B0111E010936B011B9A11E010936B01AC
:1013200012E010936B0111E010936B0112E0109327
:101330006B0111E010936B0111E010936B0112E04F
:1013400010936B0111E010936B0112E010936B018D
:1013500011E010936B0111E010936B0112E01093F8
:101360006B0111E010936B0112E010936B0111E01F
:1013700010936B0111E010936B0112E010936B015D
:1013800011E010936B0112E010936B010A9B06C0F1
:10139000ECE6F1E010811068108305C0ECE6F1E0A6
:1013A00010811F7710831B9811E010936B0112E0DE
:1013B00010936B0111E010936B0112E010936B011D
:1013C00011E010936B0111E010936B0112E0109388
:1013D0006B0111E010936B0112E010936B0111E0AF
:1013E00010936B0111E010936B0112E010936B01ED
:1013F00011E010936B0112E010936B0111E0109358
:101400006B0111E010936B0112E010936B0111E07E
:1014100010936B0112E010936B0111E010936B01BC
:1014200011E010936B0112E010936B0111E0109327
:101430006B0112E010936B0111E010936B011B9A8A
:1014400011E010936B0112E010936B0111E0109307
:101450006B0112E010936B0111E010936B0111E02E
:1014600010936B0112E010936B0111E010936B016C
:1014700012E010936B0111E010936B0111E01093D7
:101480006B0112E010936B0111E010936B0112E0FD
:1014900010936B0111E010936B0111E010936B013D
:1014A00012E010936B0111E010936B0112E01093A6
:1014B0006B010A9B06C0ECE6F1E01081106410831A
:1014C00005C0ECE6F1E010811F7B10831B9811E052
:1014D00010936B0112E010936B0111E010936B01FC
:1014E00012E010936B0111E010936B0111E0109367
:1014F0006B0112E010936B0111E010936B0112E08D
:1015000010936B0111E010936B0111E010936B01CC
:1015100012E010936B0111E010936B0112E0109335
:101520006B0111E010936B0111E010936B0112E05D
:1015300010936B0111E010936B0112E010936B019B
:1015400011E010936B0111E010936B0112E0109306
:101550006B0111E010936B0112E010936B0111E02D
:1015600010936B011B9A11E010936B0112E0109322
:101570006B0111E010936B0112E010936B0111E00D
:1015800010936B0111E010936B0112E010936B014B
:1015900011E010936B0112E010936B0111E01093B6
:1015A0006B0111E010936B0112E010936B0111E0DD
:1015B00010936B0112E010936B0111E010936B011B
:1015C00011E010936B0112E010936B0111E0109386
:1015D0006B0112E010936B010A9B06C0ECE6F1E090
:1015E00010811062108305C0ECE6F1E010811F7DD0
:1015F00010831B9811E010936B0112E010936B01A4
:1016000011E010936B0112E010936B0111E0109345
:101610006B0111E010936B0112E010936B0111E06C
:1016200010936B0112E010936B0111E010936B01AA
:1016300011E010936B0112E010936B0111E0109315
:101640006B0112E010936B0111E010936B0111E03C
:1016500010936B0112E010936B0111E010936B017A
:1016600012E010936B0111E010936B0111E01093E5
:101670006B0112E010936B0111E010936B0112E00B
:1016800010936B0111E010936B011B9A11E0109302
:101690006B0112E010936B0111E010936B0112E0EB
:1016A00010936B0111E010936B0111E010936B012B
:1016B00012E010936B0111E010936B0112E0109394
:1016C0006B0111E010936B0111E010936B0112E0BC
:1016D00010936B0111E010936B0112E010936B01FA
:1016E00011E010936B0111E010936B0112E0109365
:1016F0006B0111E010936B0112E010936B010A9BD8
:1017000006C0ECE6F1E010811061108305C0ECE644
:10171000F1E010811F7E10831B9811E010936B0184
:1017200012E010936B0111E010936B0112E0109323
:101730006B0111E010936B0111E010936B0112E04B
:1017400010936B0111E010936B0112E010936B0189
:1017500011E010936B0111E010936B0112E01093F4
:101760006B0111E010936B0112E010936B0111E01B
:1017700010936B0111E010936B0112E010936B0159
:1017800011E010936B0112E010936B0111E01093C4
:101790006B0111E010936B0112E010936B0111E0EB
:1017A00010936B0112E010936B0111E010936B0129
:1017B0001B9A11E010936B0112E010936B0111E082
:1017C00010936B0112E010936B0111E010936B0109
:1017D00011E010936B0112E010936B0111E0109374
:1017E0006B0112E010936B0111E010936B0111E09B
:1017F00010936B0112E010936B0111E010936B01D9
:1018000012E010936B0111E010936B0111E0109343
:101810006B0112E010936B0111E010936B0112E069
:1018200010936B010A9B06C0ECE6F1E01081186092
:10183000108305C0ECE6F1E01081177F10831B9840
:1018400011E010936B0112E010936B0111E0109303
:101850006B0112E010936B0111E010936B0111E02A
:1018600010936B0112E010936B0111E010936B0168
:1018700012E010936B0111E010936B0111E01093D3
:101880006B0112E010936B0111E010936B0112E0F9
:1018900010936B0111E010936B0111E010936B0139
:1018A00012E010936B0111E010936B0112E01093A2
:1018B0006B0111E010936B0111E010936B0112E0CA
:1018C00010936B0111E010936B0112E010936B0108
:1018D00011E010936B011B9A11E010936B0112E061
:1018E00010936B0111E010936B0112E010936B01E8
:1018F00011E010936B0111E010936B0112E0109353
:101900006B0111E010936B0112E010936B0111E079
:1019100010936B0111E010936B0112E010936B01B7
:1019200011E010936B0112E010936B0111E0109322
:101930006B0111E010936B0112E010936B0111E049
:1019400010936B0112E010936B010A9B06C0ECE64A
:10195000F1E010811460108305C0ECE6F1E0108125
:101960001B7F10831B9811E010936B0112E0109302
:101970006B0111E010936B0112E010936B0111E009
:1019800010936B0111E010936B0112E010936B0147
:1019900011E010936B0112E010936B0111E01093B2
:1019A0006B0111E010936B0112E010936B0111E0D9
:1019B00010936B0112E010936B0111E010936B0117
:1019C00011E010936B0112E010936B0111E0109382
:1019D0006B0112E010936B0111E010936B0111E0A9
:1019E00010936B0112E010936B0111E010936B01E7
:1019F00012E010936B0111E010936B011B9A11E040
:101A000010936B0112E010936B0111E010936B01C6
:101A100012E010936B0111E010936B0111E0109331
:101A20006B0112E010936B0111E010936B0112E057
:101A300010936B0111E010936B0111E010936B0197
:101A400012E010936B0111E010936B0112E0109300
:101A50006B0111E010936B0111E010936B0112E028
:101A600010936B0111E010936B0112E010936B0166
:101A70000A9B06C0ECE6F1E010811260108305C0FD
:101A8000ECE6F1E010811D7F10831B9811E01093AC
:101A90006B0112E010936B0111E010936B0112E0E7
:101AA00010936B0111E010936B0111E010936B0127
:101AB00012E010936B0111E010936B0112E0109390
:101AC0006B0111E010936B0111E010936B0112E0B8
:101AD00010936B0111E010936B0112E010936B01F6
:101AE00011E010936B0111E010936B0112E0109361
:101AF0006B0111E010936B0112E010936B0111E088
:101B000010936B0111E010936B0112E010936B01C5
:101B100011E010936B0112E010936B0111E0109330
:101B20006B011B9A11E010936B0112E010936B0193
:101B300011E010936B0112E010936B0111E0109310
:101B40006B0111E010936B0112E010936B0111E037
:101B500010936B0112E010936B0111E010936B0175
:101B600011E010936B0112E010936B0111E01093E0
:101B70006B0112E010936B0111E010936B0111E007
:101B800010936B0112E010936B0111E010936B0145
:101B900012E010936B010A9B06C0ECE6F1E01081A5
:101BA0001160108305C0ECE6F1E010811E7F108308
:101BB0001B9811E010936B0112E010936B0111E080
:101BC00010936B0112E010936B0111E010936B0105
:101BD00011E010936B0112E010936B0111E0109370
:101BE0006B0112E010936B01129A10E0FC01319727
:101BF0000E171F0708F0C4CA1A98C3CA01E0009361
:101C00006B0102E000936B0101E000936B0102E0C5
:101C100000936B0101E000936B0101E000936B0105
:101C200002E000936B0101E000936B0102E000937E
:101C30006B0101E000936B0101E000936B0102E096
:101C400000936B0101E000936B0102E000936B01D4
:101C500001E000936B0101E000936B0102E000934F
:101C60006B0101E000936B0102E000936B0101E066
:101C700000936B0101E000936B0102E000936B01A4
:101C800001E000936B0102E000936B010E94B3023C
:101C90008991999108959A938A93C9010093D101EA
:101CA00001E010E032DA8C0162DA899199910895AD
:101CB0002A931A930A931FB72BB72BBF1FBF099103
:101CC0001991299118959A938A93FA93EA933A92E3
:101CD0002A921A920A927A936A935A934A933A935F
:101CE0002A931A930A938FB79BB70E94590F9BBFF1
:101CF0008FBF099119912991399149915991699110
:101D000079910990199029903990E991F9918991E7
:101D1000999118952A931A930A931FB72BB72BBF43
:101D20001FBF09911991299118959A938A93FA9353
:101D3000EA935A934A933A932A931A930A934FB782
:101D40005BB700919C00EAE8F8E020813181F9015D
:101D5000EE55FB4F0083EAE8F8E000811181F801BD
:101D6000EE55FB4F0081033229F4E4E4F2E00081F8
:101D700003950083EAE8F8E0808191810196EAE822
:101D8000F8E080839183883E03E0900730F000E024
:101D900010E0EAE8F8E0008311835BBF4FBF0991D0
:101DA00019912991399149915991E991F991899123
:101DB000999118952A931A930A931FB72BB72BBFA3
:101DC0001FBF0991199129911895F8940E946F00ED
:101DD0000E94BC010E9491000E94FE0F00ED0E9433
:101DE0002A020E940C0FC79A0091650008600093B8
:101DF0006500009165000061009365007894089586
:101E000003E010E00E944600E0DFDD9A0E94A91284
:101E10000E94780FDD98F9CF00E007BF00E002BF15
:101E200000E003BF00E00093350200E000933602BB
:101E300006EC0093380204E610E0E5E3F2E00483E8
:101E4000158300E010E0E5E3F2E00683178300E08D
:101E500000933D0201E000933E0208950091360296
:101E60000130A8F000913502002311F501E0009344
:101E7000350200E010E0E5E3F2E00683178301E0BD
:101E800007BF0091380202BF06E003BF089500912A
:101E90003602002369F400913502013049F400E074
:101EA0000093350200E007BF00E002BF00E003BF7F
:101EB00008959C010091380202BFE5E3F2E08681BB
:101EC00097810196E5E3F2E086839783E5E3F2E00C
:101ED000048115818017910748F000E010E0E5E3E8
:101EE000F2E00683178301E000933702C9010895E9
:101EF00000913702013099F400E00E94FD01E5E312
:101F0000F2E0018100FD0CD0E5E3F2E0018101FD8A
:101F10001CD001E00E94FD0100E00093370208950B
:101F200023E030E000E10E944B0E23E030E000E4CB
:101F300011E00E94901323E030E00DE611E00E94D2
:101F4000A41303E20E946B13089521E030E00AE23B
:101F50000E944B0E00916D0100934002E0E4F2E01C
:101F6000008104FF4AC025E030E00BE20E944B0EE6
:101F7000EDE6F1E000810F730083EDE6F1E0028110
:101F80000F73028300913E020130B8F100913E02CE
:101F90000E3098F500913E02013021F40CE00093E0
:101FA0003F0205C000913E02025000933F0223E031
:101FB00030E004E411E00E94901300913F020E947F
:101FC000731325E030E00DE611E00E94A41303E254
:101FD0000E946B1300913E02039500933E020E3067
:101FE00018F001E000933E0210913E020AE20E94C6
:101FF000A70800E911E00E945500089500E010E0F4
:10200000EAE8F8E00083118300E010E0ECE8F8E093
:102010000083118300E0009343020DC000E0209193
:10202000430230E0F901EF5BFD4F0083E3E4F2E0AF
:1020300000810395008300914302023078F300E0B1
:102040000093440200E000939F0400E00093A0048A
:1020500008958A93009142020735C9F50E942A1318
:10206000009345021091450202E0109F0092450244
:1020700000E0009343020EC00E942A132091430205
:1020800030E0F901EA5BFD4F0083E3E4F2E0008118
:10209000039500830091430210914502011760F3FC
:1020A0000E94FB000E94CF00802F04E20E946B136D
:1020B000009141020E946B13009142020E946B1337
:1020C000082F0E946B1303E20E946B1354C100910E
:1020D0004202023509F052C00E942A1300934502C1
:1020E0001091450202E0109F0092450200E000932B
:1020F00043020EC00E942A132091430230E0F901EE
:10210000EA5BFD4F0083E3E4F2E000810E5F0083B1
:102110000091430210914502011760F30E94A8004C
:1021200004E20E946B13009141020E946B13009124
:1021300042020E946B1342E0009145020E94CD13BF
:102140000E94731300E0009343020EC0009143020B
:1021500010E0F801EA5BFD4F00810E947313E3E495
:10216000F2E0008103950083009143021091450243
:10217000011760F303E20E946B13FDC0009142025D
:10218000043591F40E940C13053431F4E5E3F2E0D8
:1021900001810160018305C0E5E3F2E001810E7F6A
:1021A00001830E942E0FE7C000914202003579F5AD
:1021B0000E940C13053419F5E5E3F2E00181026099
:1021C000018321E030E00AE20E944B0E00916D0194
:1021D0000F7100933E0200913E02039500933E0270
:1021E000023118F001E000933E0210913E0200918E
:1021F0006D010076102B0AE20E94A70805C0E5E3F6
:10220000F2E001810D7F01830E942E0FB4C0009186
:102210004202033499F404E20E946B1300914102DC
:102220000E946B13009142020E946B13009168019F
:102230000E94731303E20E946B139DC0009142023F
:102240000834B9F40E942A130E94210104E20E947A
:102250006B13009141020E946B13009142020E9495
:102260006B13009168010E94731303E20E946B13C9
:1022700082C000914202013479F404E20E946B139F
:10228000009141020E946B13009142020E946B1365
:1022900003E20E946B136FC0009142020934A1F562
:1022A00021E030E009E00E944B0E09E00093D101EB
:1022B00000916D0108600093D20102E010E00E94DD
:1022C000850804E110E00E94460009E00093D10176
:1022D00000916D01077F0093D20102E010E00E949F
:1022E000850804E110E00E94460004E20E946B139E
:1022F000009141020E946B13009142020E946B13F5
:1023000003E20E946B1337C000914202043489F447
:102310000E949E0104E20E946B13009141020E9400
:102320006B13009142020E946B1303E20E946B1335
:1023300022C0009142020F34F1F40E942A1300934C
:10234000A10421E030E00091A1040E944B0E04E2C0
:102350000E946B1322E030E001E412E00E9490132F
:102360000091A1040E94731300916D010E947313E8
:1023700003E20E946B138991089508958A93009156
:1023800042020235E1F50E94280104E20E946B132B
:10239000009141020E946B13009142020E946B1354
:1023A00000917203002319F1009172030F3FF9F0BD
:1023B00042E0009172030E94CD130E94731300E06B
:1023C000009343020091430210917203011798F4A5
:1023D0000091430210E0F801ED58FC4F00810E948B
:1023E0007313E3E4F2E0008103950083EBCF0091E7
:1023F00072030E94731303E20E946B133CC00091AE
:1024000042020735C1F50E942A130093720310910E
:10241000720302E0109F0092720300E000934302F7
:102420000EC00E942A132091430230E0F901ED58BA
:10243000FC4F0083E3E4F2E0008103950083009108
:10244000430210917203011760F30E9477010E940A
:102450004C01802F04E20E946B13009141020E9404
:102460006B13009142020E946B13082F0E946B13A2
:1024700003E20E946B13899108958A9300914202AE
:10248000023599F40E940302802F04E20E946B132C
:1024900022E030E001E412E00E949013082F0E9435
:1024A000731303E20E946B1352C00091420207357E
:1024B00069F40E942A13802F082F0E940B020AE061
:1024C00010E00E94AB010E94030241C00091420251
:1024D000063409F504E20E946B13009141020E9448
:1024E0006B13009142020E946B1325E030E008E478
:1024F00011E00E94901328E030E00EE411E00E9409
:1025000090132EE030E007E511E00E94901303E203
:102510000E946B131CC0009142020D3419F40E94FA
:10252000930115C000914202033489F404E20E9431
:102530006B13009141020E946B13009142020E94B2
:102540006B1301E40E946B1303E20E946B138991E9
:10255000089512C000914102083409F48EDF0E94F0
:102560000C13033221F00E940C130332E1F7E4E470
:10257000F2E000810A95008300914402013040F0AE
:102580000E940C13003429F00E940C130332E1F76F
:1025900008950E940C13009341020E940C130093B3
:1025A000420200914102023511F453DDD8CF00916F
:1025B00041020D3411F4E1DED2CF00914102053425
:1025C00049F6DCDECCCFF80100E010E020812033BA
:1025D00030F020812A3318F40081005308C0208194
:1025E000213428F02081273410F40081075302950C
:1025F000007F2181203330F021812A3318F41181AA
:10260000105308C02181213428F02181273410F48F
:1026100011811753012B0895AC01ECE8F8E000811B
:102620001181F801EE55FB4F0081ECE8F8E0808164
:1026300091810196ECE8F8E080839183883E13E075
:10264000910730F020E030E0ECE8F8E020833183BF
:10265000CA0108959A938A932297ECE8F8E00081E2
:102660001181F801EE55FB4F00810883ECE8F8E09A
:10267000808191810196ECE8F8E080839183883E27
:1026800003E0900730F000E010E0ECE8F8E00083B1
:102690001183ECE8F8E000811181F801EE55FB4F61
:1026A00000810983ECE8F8E0808191810196ECE8F3
:1026B000F8E080839183883E03E0900730F000E0EB
:1026C00010E0ECE8F8E0008311838E017CDF2296B5
:1026D00089919991089510919B00212F25FFFBCF9F
:1026E00000939C0008958A93802F082F02950F7005
:1026F0000A3010F4005D05C00A3018F0003108F40B
:10270000095CE9DF8F70082F0A3010F4005D05C006
:102710000A3018F0003108F4095CDDDF8991089572
:102720000E94DB13C801D901442407C05524FC01D1
:10273000E40DF51D0081CFDF439455244A165B0656
:10274000ACF3E6E00C94E2130E94DB13C801D9015C
:10275000442407C05524FC01E40DF51D0081C3DFAE
:10276000439455244A165B06ACF3E6E00C94E2135E
:1027700000008895FECF0FE30DBF01E00EBFC0E261
:10278000D1E00E94ED13002311F00E94FF130E947C
:10279000000F0E94B8130C94B8130024E8E0EA95E7
:1027A00032F0001F001C0416D0F3041AF8CF001FEB
:1027B000402D009508955A924A92BA93AA939A93FB
:1027C0008A9308955D804C80BB81AA81998188811C
:1027D000F0E0EC0FFD1FEF01089501E0089520E007
:1027E00008D0E9F708953BBF27913BB702D0D9F74E
:1027F00008952D9301501040202F212B08950EE5B0
:10280000402E08E2502E00E0602EF201362D6BBE05
:1028100007911691F201EE5FFF4F3F4F3BBFA7912B
:10282000B691F201362DEC5FFF4F3F4F3BBF479112
:1028300057916691242F252B262B21F0FA01362F54
:10284000D2DF01C0CCDF07E0400E00E0501E601E6A
:10285000A201662D4C3658426040B8F20895280710
:102860006601000000260040016C2800245254003C
:1028700024525000332E3130200032303138313084
:1028800032360054534D313243204A494720462FB7
:022890005700EF
:0400000300000000F9
:00000001FF
