:020000020000FC
:100000000C948E12189518951895189518951895A2
:100010001895189518951895189518951895189578
:1000200018951895189518950C945F0D18951895B6
:1000300018951895189518950C94490D18951895BC
:100040000C94540D189518951895189518951895A1
:100050001895189518951895189518951895189538
:100060001895189518951895189518951895189528
:1000700018951895189518950C946A0D189518955B
:100080000C94AF0D18951895189518950000009FC1
:10009000080A008C088E0890089208940896089820
:1000A000089A089C089E080000000064080A00D80E
:1000B00008DF08E608ED08F408FB08020909091042
:1000C000095E08009A938A93C80103C008EE13E002
:1000D00008D0FC01CF010197EF2BC1F789919991CD
:1000E00008959801890101501040232BD1F70895FC
:1000F000AC0107C084E398E0FC01CF010197EF2B2E
:10010000D9F79801890101501040232B99F7CA01B2
:100110000895F894E199FECF1FBB0EBB2DBBE29A68
:10012000E19A78940895F894E199FECF1FBB0EBB35
:10013000E09A78940DB3089500B5046000BDA895C9
:1001400001B5086101BD00E001BD0AB30E630ABB41
:1001500017B30FEF07BB24B30FEF04BB02B10B6F54
:1001600002B90FEF0093640000E0009365001B9A52
:100170001C98A8980FEF02BB08950BEF01BB00E09D
:10018000009398000FE00093990002E000939B0019
:1001900008E100939A0006E000939D0000919A0008
:1001A000006C00939A0008958A93DD9880E020C047
:1001B000082F10E0000F111FF801E15BF94F0081DB
:1001C0000093DA0501E010E00E94B60901E010E0BA
:1001D0000E940E0A20917605082F10E0000F111FD3
:1001E000F801E15BF94F218304E610E07ADF8395A3
:1001F00042E000914E060E94A0128017C8F2899139
:1002000008958A93DD9880E004C004E610E069DF79
:10021000839542E000914E060E94A012801700F5DF
:10022000082F10E0000F111FF801E15BF94F00816A
:100230000093DA0501E010E00E94B60901E010E049
:100240000E940E0A082F10E0000F111FF801E15B59
:10025000F94F0181109176050117B9F206E401C04A
:1002600003E5899108958A93DD9880E04CC0082FBA
:1002700010E0000F111FF801E15BF94F00810A3413
:1002800051F409E40093DA0501E00093DB0502E094
:1002900010E00E94B609082F10E0000F111FF801AE
:1002A000E15BF94F00810093DA05082F10E0000FA1
:1002B000111FF801E15BF94F01810093DB0502E0BA
:1002C00010E00E94B609082F10E0000F111FF8017E
:1002D000E15BF94F00810630A9F4082F10E0000F10
:1002E000111FF801E15BF94F018100934206082FCD
:1002F00010E0000F111FF801E15BF94F0181039538
:1003000000934306839542E000914E060E94A0129E
:10031000801708F4ACCF899108958A93802FDD98D7
:1003200006E00093DA058093DB0502E010E00E940E
:10033000B609809342068395809343068991089578
:100340009A938A932FD20CE50093DA0501E100938A
:10035000DB0502E010E00E94B60980E090E00AE0D0
:1003600010E0B0DE833300E0900710F002E512C029
:100370000DE50093DA0501E010E00E94B60901E006
:1003800010E00E940E0A0196E6E7F5E0008101FF09
:10039000E6CF03E58991999108950E940613A0E0A4
:1003A000B0E080E080E0FED10CE50093DA0502E2E7
:1003B0000093DB0502E010E00E94B60904E610E0BD
:1003C00097DEA0E0B0E091E00AE010E091DEA33318
:1003D00000E0B00710F090E011C00DE50093DA05E1
:1003E00001E010E00E94B60901E010E00E940E0A50
:1003F0001196E6E7F5E0008102FFE6CF992329F4A4
:100400008395863080F207E501C003E5E4E00C94B3
:100410000D138A93DD980E94570908EE13E052DE0F
:1004200056D100917B070F3F09F4B1C080E080C036
:10043000082F10E0000F111FF801E458F84F008159
:100440000A3451F409E40093DA0501E00093DB0576
:1004500002E010E00E94B609082F10E0000F111F03
:10046000F801E458F84F00810093DA05082F10E0F6
:10047000000F111FF801E458F84F01810093DB05CC
:1004800002E010E00E94B609082F10E0000F111FD3
:10049000F801E458F84F00810A3451F409E400935C
:1004A000DA0501E00093DB0502E010E00E94B609E6
:1004B000082F10E0000F111FF801E458F84F0081D9
:1004C0000630A9F4082F10E0000F111FF801E458BE
:1004D000F84F018100934206082F10E0000F111F12
:1004E000F801E458F84F0181039500934306082F63
:1004F00010E0000F111FF801E458F84F2081082F79
:1005000010E0000F111FF801E15BF94F2083082F65
:1005100010E0000F111FF801E458F84F2181082F57
:1005200010E0000F111FF801E15BF94F2183839563
:1005300042E000917B070E94A012801708F478CF58
:1005400000917B0700934E060AE010E0BBDD00E05F
:100550000093DA050AEA0093DB0502E010E00E944E
:10056000B6090FE70093DA0505E50093DB0502E025
:1005700010E00E94B60911DF033579F4E1DE03359E
:1005800091F0DE98DC980E94640902E518C0DE98BC
:10059000DC980E94640905E412C0DE98DC980E9491
:1005A000640907E50CC02DDE033529F0DC980E94B4
:1005B000640906E404C0DC9A0E94640903E5899199
:1005C00008958A93DD980E94570908EE13E07ADDBA
:1005D0007ED000917B070F3FC9F180E021C0082F3A
:1005E00010E0000F111FF801E458F84F2081082F88
:1005F00010E0000F111FF801E15BF94F2083082F75
:1006000010E0000F111FF801E458F84F2181082F66
:1006100010E0000F111FF801E15BF94F2183839572
:1006200042E000917B070E94A0128017C0F2009167
:100630007B0700934E0684DE033561F4E2DD03356B
:1006400079F0DC980E94640906E40EC0DE98DC981C
:1006500005E40AC0DE98DC980E94640902E504C043
:10066000DC9A0E94640903E589910895DD980E944F
:10067000570908EE13E026DD00E00093DA0500E0FC
:100680000093DB0502E010E00E94B6090FE700933B
:10069000DA0500E00093DB0502E010E00E94B609F5
:1006A0007CDE033531F0DE98DC980E94640907E5B2
:1006B000089546DE033531F0DE98DC980E94640927
:1006C00002E50895DC9A0E94640903E508959A936F
:1006D0008A93DD9800E010E026DD00937B0700910F
:1006E0007B070023A9F000917B070F3F89F080E092
:1006F0000BC0082F10E00F5F1F4F15DD90E0FC01CD
:10070000E458F84F0083839500917B07801788F3A6
:100710008991999108959A938A93DD9800E010E069
:1007200002DD00937B0700917B07002321F00091FD
:100730007B070F3F11F406E416C080E001C08395EB
:1007400000917B07801770F4082F10E00F5F1F4F98
:10075000EADC90E0FC01E458F84F1081101779F3BF
:1007600006E401C003E58991999108959A938A93CB
:10077000DD9820917B0700E010E0CBDC80E00BC02F
:1007800090E0FC01E458F84F2081082F10E00F5F43
:100790001F4FBFDC839500917B07801788F38991F9
:1007A000999108958A9304E30093DA0501E010E03B
:1007B0000E94B60901E010E00E940E0A80917605C1
:1007C000806104E30093DA058093DB0502E010E02A
:1007D0000E94B6090AE010E075DC8F7E04E3009306
:1007E000DA058093DB0502E010E00E94B6098991EA
:1007F000089500E010EE21E030E041E045BF42E026
:1008000045BFF801099508950AE20093DA0501E071
:1008100010E00E94B60901E010E00E940E0A04E216
:100820000E946F1202E50E946F1204E50E946F128F
:10083000009176050E94491203E20E946F1208950A
:100840000E94061300E083E020E030E0EEE3F6E0F3
:10085000208331831CC01B9801E010E042DC1A9811
:1008600001E010E03EDC1B9A01E010E03ADC1A9A4D
:1008700001E010E036DC1B9801E010E032DCEEE332
:10088000F6E0008111810F5F1F4F00831183EEE3BB
:10089000F6E000811181043620E0120708F018C349
:1008A00000E50093DA051A9A01E010E01ADC1B9AC1
:1008B00001E010E016DC1A9801E010E012DC1B9851
:1008C00001E010E00EDC0EEE02B9E2E4F6E0008199
:1008D00007FF02C01A9A01C01A981B9A082F01C07C
:1008E0000A950023E9F71B98E2E4F6E0008106FF91
:1008F00002C01A9A01C01A981B9A082F01C00A95C3
:100900000023E9F71B98E2E4F6E0008105FF02C04E
:100910001A9A01C01A981B9A082F01C00A95002341
:10092000E9F71B98E2E4F6E0008104FF02C01A9A9E
:1009300001C01A981B9A082F01C00A950023E9F7F5
:100940001B98E2E4F6E0008103FF02C01A9A01C09E
:100950001A981B9A082F01C00A950023E9F71B98E3
:10096000E2E4F6E0008102FF02C01A9A01C01A9880
:100970001B9A082F01C00A950023E9F71B98E2E4AF
:10098000F6E0008101FF02C01A9A01C01A981B9A72
:10099000082F01C00A950023E9F71B98E2E4F6E06E
:1009A000008100FF02C01A9A01C01A981B9A082FF2
:1009B00001C00A950023E9F71B980AEE02B91A9ABA
:1009C00001E00093440602E0009344061B9A082FBE
:1009D00001C00A950023E9F70EEE02B91B98EAED73
:1009E000F5E0008107FF02C01A9A01C01A981B9A0D
:1009F000082F01C00A950023E9F71B98EAEDF5E0FE
:100A0000008106FF02C01A9A01C01A981B9A082F8B
:100A100001C00A950023E9F71B98EAEDF5E0008193
:100A200005FF02C01A9A01C01A981B9A082F01C02C
:100A30000A950023E9F71B98EAEDF5E0008104FF31
:100A400002C01A9A01C01A981B9A082F01C00A9571
:100A50000023E9F71B98EAEDF5E0008103FF02C0EF
:100A60001A9A01C01A981B9A082F01C00A950023F0
:100A7000E9F71B98EAEDF5E0008102FF02C01A9A3F
:100A800001C01A981B9A082F01C00A950023E9F7A4
:100A90001B98EAEDF5E0008101FF02C01A9A01C03F
:100AA0001A981B9A082F01C00A950023E9F71B9892
:100AB000EAEDF5E0008100FF02C01A9A01C01A9821
:100AC0001B9A082F01C00A950023E9F71B980AEE2C
:100AD00002B91A9A01E00093440602E0009344062A
:100AE0001B9A01E00093440602E0009344060EEED8
:100AF00002B91B981B9801E010E0F3DA1A9801E0A4
:100B000010E0EFDA1B9A01E010E0EBDA1A9A01E04C
:100B100010E0E7DA1A9A01E010E0E3DA1B9A01E04C
:100B200010E0DFDA1A9801E010E0DBDA1B9801E050
:100B300010E0D7DA0EEE02B9E3E4F6E0008107FF39
:100B400002C01A9A01C01A981B9A01E00093440649
:100B500002E0009344061B98E3E4F6E0008106FF00
:100B600002C01A9A01C01A981B9A01E00093440629
:100B700002E0009344061B98E3E4F6E0008105FFE1
:100B800002C01A9A01C01A981B9A01E00093440609
:100B900002E0009344061B98E3E4F6E0008104FFC2
:100BA00002C01A9A01C01A981B9A01E000934406E9
:100BB00002E0009344061B98E3E4F6E0008103FFA3
:100BC00002C01A9A01C01A981B9A01E000934406C9
:100BD00002E0009344061B98E3E4F6E0008102FF84
:100BE00002C01A9A01C01A981B9A01E000934406A9
:100BF00002E0009344061B98E3E4F6E0008101FF65
:100C000002C01A9A01C01A981B9A01E00093440688
:100C100002E0009344061B98E3E4F6E0008100FF45
:100C200002C01A9A01C01A981B9A01E00093440668
:100C300002E0009344061B980AEE02B91A9A01E0FA
:100C40000093440602E0009344061B9A01E00093DF
:100C5000440602E0009344060EEE02B91B9800E041
:100C600010E0E8E4F6E00083118380E03EC01A9AC9
:100C700001E00093440602E00093440601E010E026
:100C800030DA01E010E02DDA1B9A01E0009344060F
:100C900002E00093440601E00093440602E0009362
:100CA00044061B98909145060AE010E0EEE3F6E05A
:100CB000408151810E94AE12AEE8B1E0A00FB11F99
:100CC000E8E4F6E000811181A00FB11F9C9301E0E0
:100CD00010E007DA01E010E004DAE8E4F6E0008171
:100CE00011810F5F1F4F00831183E8E4F6E0A081BC
:100CF000B181189708F0AFCD0CE502B900E0009380
:100D000045061A9A01E00093440602E00093440667
:100D10001A9A01E00093440602E0009344061B9AED
:100D20001B9A08E502B901E00093440602E0009333
:100D300044061B9A082F01C00A950023E9F70A9B75
:100D400006C0E5E4F6E000810068008305C0E5E444
:100D5000F6E000810F7700831B98082F01C00A95E9
:100D60000023E9F71B9A082F01C00A950023E9F731
:100D70000A9B06C0E5E4F6E000810064008305C03C
:100D8000E5E4F6E000810F7B00831B98082F01C08B
:100D90000A950023E9F71B9A082F01C00A95002342
:100DA000E9F70A9B06C0E5E4F6E0008100620083F3
:100DB00005C0E5E4F6E000810F7D00831B98082F55
:100DC00001C00A950023E9F71B9A082F01C00A9574
:100DD0000023E9F70A9B06C0E5E4F6E00081006124
:100DE000008305C0E5E4F6E000810F7E00831B98D8
:100DF000082F01C00A950023E9F71B9A082F01C0AC
:100E00000A950023E9F70A9B06C0E5E4F6E00081B5
:100E10000860008305C0E5E4F6E00081077F0083F9
:100E20001B98082F01C00A950023E9F71B9A082F89
:100E300001C00A950023E9F70A9B06C0E5E4F6E045
:100E400000810460008305C0E5E4F6E000810B7FCB
:100E500000831B98082F01C00A950023E9F71B9A0D
:100E6000082F01C00A950023E9F70A9B06C0E5E4B4
:100E7000F6E000810260008305C0E5E4F6E0008151
:100E80000D7F00831B98082F01C00A950023E9F706
:100E90001B9A082F01C00A950023E9F70A9B06C098
:100EA000E5E4F6E000810160008305C0E5E4F6E0DA
:100EB00000810E7F00831B981B980CE502B9E8E4C3
:100EC000F6E0A081B181179708F0D1CE1A98D0CE64
:100ED000E4E00C940D138A9300E010E0EEE3F6E0FA
:100EE00000831183D7C00AE010E0EEE3F6E0408112
:100EF00051810E94AE12F801E257FE4F80810AE054
:100F000010E0EEE3F6E0408151810E94AE12F8015C
:100F1000E257FE4F0681801709F0B4C00AE010E0E6
:100F2000EEE3F6E0408151810E94AE12F801E257F3
:100F3000FE4F818183700AE010E0EEE3F6E040812D
:100F400051810E94AE12F801E257FE4F07810370F3
:100F5000801709F097C00AE010E0EEE3F6E0408168
:100F600051810E94AE12F801E257FE4F00810F3FFF
:100F700009F488C00AE010E0EEE3F6E04081518118
:100F80000E94AE12F801E257FE4F80810AE010E0A5
:100F9000EEE3F6E0408151810E94AE12F801E25783
:100FA000FE4F0681801709F06DC00AE010E0EEE305
:100FB000F6E0408151810E94AE12F801E257FE4FE7
:100FC00081810AE010E0EEE3F6E0408151810E9469
:100FD000AE12F801E257FE4F0781801709F052C0A8
:100FE00004E20E946F1202E50E946F1200E50E9467
:100FF0006F120AE010E0EEE3F6E0408151810E94BA
:10100000AE12F801E257FE4F00810E9449120AE039
:1010100010E0EEE3F6E0408151810E94AE12F8014B
:10102000E257FE4F01810E9449120AE010E0EEE310
:10103000F6E0408151810E94AE12F801E257FE4F66
:1010400002810E9449120AE010E0EEE3F6E04081DE
:1010500051810E94AE12F801E257FE4F03810E94B7
:1010600049120AE010E0EEE3F6E0408151810E946F
:10107000AE12F801E257FE4F04810E94491203E2CA
:101080000E946F12EEE3F6E0008111810F5F1F4FA7
:1010900000831183EEE3F6E000811181043620E045
:1010A000120708F420CF899108950E94061300E0EA
:1010B00010E0EEE3F6E0008311831DC024E030E091
:1010C0000DE611E00E947712009178050E94491206
:1010D000009179050E94491200917A050E944912F7
:1010E00003E20E946F12EEE3F6E0008111810F5FD0
:1010F0001F4F00831183EEE3F6E0A081B1811A97C0
:1011000008F095C0EEE3F6E000811181ECE8F0E034
:10111000FBBFF0E00C94C31280E111C088E10FC066
:1011200080E20DC088E20BC080E309C088E307C0FD
:1011300080E405C088E403C088E001C080E502E6E1
:101140000093DA05082F00680093DB0502E010E049
:101150000E94B60909E110E00E94780000E50093C2
:10116000DA0501E010E00E94B60908E010E00E94F4
:101170000E0A0091760510917C05011779F7009110
:10118000770510917D05011749F704E20E946F125F
:1011900002E50E946F120FE40E946F12EEE3F6E088
:1011A00000811181E8EAF0E0FBBFF0E00C94C3128B
:1011B00024E030E000E411E00E94771285CF24E0C3
:1011C00030E005E411E00E9477127ECF24E030E0A9
:1011D0000AE411E00E94771277CF24E030E00FE4B8
:1011E00011E00E94771270CF24E030E004E511E0B6
:1011F0000E94771269CF24E030E009E511E00E94F7
:10120000771262CF24E030E00EE511E00E94771201
:101210005BCF24E030E003E611E00E94771254CF68
:1012200024E030E008E611E00E9477124DCFE4E0C0
:101230000C940D1300E00093400600E0009341067B
:1012400043D00895013039F4DB9A0AE010E00E949F
:101250006200D99A0895D9980AE010E00E946200CD
:10126000DB980895013039F4C09A0AE010E00E943A
:101270006200DA9A0895DA980AE010E00E946200AB
:10128000C09808951B98102F10FDC29A10FFC298A5
:1012900004E610E00E9471000895102F10FDC49A1A
:1012A00010FFC49804E610E00E947100089501E068
:1012B000D9DF04E110E00E94620001E0E3DF0CE20C
:1012C00011E00E946200089500E0BCDF00E0CADF88
:1012D00000E0D8DF00E0E1DF0895CF9B0AC0009175
:1012E0004006002349F401E000934006EDDFDC9A5C
:1012F00003C000E000934006C8990AC0009141066F
:10130000002349F401E0009341060E940902089578
:1013100000E00093410608951A9A01E010E00E944F
:1013200071001B9A01E010E00E9471001A9801E020
:1013300010E00E9471001B9801E010E00E94710013
:1013400008951B9801E010E00E9471001A9801E0D6
:1013500010E00E9471001B9A01E010E00E947100F1
:101360001A9A01E010E00E94710008959A938A93FE
:10137000C80101E00093440602E00093440601E046
:1013800010E00E947100C8DF01E00093440602E013
:101390000093440601E010E00E94710000914206B3
:1013A000F5D200E010E0E8E4F6E0008311831BC012
:1013B00001E00093440602E000934406E8E4F6E00E
:1013C00000811181F801E652FA4F0081DFD201E07D
:1013D00010E00E947100E8E4F6E0008111810F5FE7
:1013E0001F4F00831183E8E4F6E0008111810817A4
:1013F0001907F0F201E00093440602E0009344066E
:10140000A0DF01E00093440602E00093440601E0FF
:1014100010E00E9471008991999108950E9406132D
:10142000D8017ADF01E010E00E94710000914306CC
:10143000ADD200E010E0E8E4F6E00083118340C0A4
:101440001A9A0091650000610093650001E0009325
:10145000440602E00093440601E010E00E9471009F
:101460001B9A0091650008600093650001E00093FD
:10147000440602E00093440601E010E00E9471007F
:101480001B9800916500077F0093650001E010E064
:101490000E94710001E010E00E9471000091450679
:1014A000E8E4F6E020813181F901EA58FA4F00833F
:1014B000E8E4F6E0008111810F5F1F4F0083118384
:1014C000E8E4F6E0008111810A171B0708F05AC210
:1014D0000EEE02B900E0009345061A9A00916500ED
:1014E00000610093650001E00093440602E0009370
:1014F000440601E010E00E94710001E010E00E944B
:1015000071000AEE02B901E00093440602E0009384
:1015100044061B9A0091650008600093650001E095
:101520000093440602E00093440601E010E00E94AC
:10153000710001E010E00E9471000A9B0BC0E5E41D
:10154000F6E000810068008300916500006100936F
:1015500065000AC0E5E4F6E000810F7700830091A2
:1015600065000F7E009365001B9800916500077F62
:101570000093650001E00093440602E000934406F6
:1015800001E010E00E94710001E010E00E94710093
:1015900001E010E00E9471001B9A00916500086054
:1015A0000093650001E00093440602E000934406C6
:1015B00001E010E00E94710001E010E00E94710063
:1015C0000A9B0BC0E5E4F6E0008100640083009113
:1015D00065000061009365000AC0E5E4F6E0008163
:1015E0000F7B0083009165000F7E009365001B98C0
:1015F00000916500077F0093650001E000934406B9
:1016000002E00093440601E010E00E94710001E056
:1016100010E00E94710001E010E00E9471001B9A2E
:101620000091650008600093650001E000934406A6
:1016300002E00093440601E010E00E94710001E026
:1016400010E00E9471000A9B0BC0E5E4F6E0008107
:1016500000620083009165000061009365000AC08C
:10166000E5E4F6E000810F7D0083009165000F7EC8
:10167000009365001B9800916500077F009365004B
:1016800001E00093440602E00093440601E010E00C
:101690000E94710001E010E00E94710001E010E082
:1016A0000E9471001B9A009165000860009365001C
:1016B00001E00093440602E00093440601E010E0DC
:1016C0000E94710001E010E00E9471000A9B0BC0B3
:1016D000E5E4F6E0008100610083009165000061AF
:1016E000009365000AC0E5E4F6E000810F7E008308
:1016F000009165000F7E009365001B9800916500C6
:10170000077F0093650001E00093440602E0009328
:10171000440601E010E00E94710001E010E00E9428
:10172000710001E010E00E9471001B9A00916500B9
:1017300008600093650001E00093440602E0009316
:10174000440601E010E00E94710001E010E00E94F8
:1017500071000A9B0BC0E5E4F6E00081086000839D
:10176000009165000061009365000AC0E5E4F6E0C1
:101770000081077F0083009165000F7E0093650064
:101780001B9800916500077F0093650001E00093BE
:10179000440602E00093440601E010E00E9471005C
:1017A00001E010E00E94710001E010E00E94710071
:1017B0001B9A0091650008600093650001E00093AA
:1017C000440602E00093440601E010E00E9471002C
:1017D00001E010E00E9471000A9B0BC0E5E4F6E016
:1017E0000081046000830091650000610093650042
:1017F0000AC0E5E4F6E000810B7F008300916500FC
:101800000F7E009365001B9800916500077F009391
:10181000650001E00093440602E00093440601E005
:1018200010E00E94710001E010E00E94710001E0F0
:1018300010E00E9471001B9A0091650008600093FF
:10184000650001E00093440602E00093440601E0D5
:1018500010E00E94710001E010E00E9471000A9BFC
:101860000BC0E5E4F6E000810260008300916500B2
:101870000061009365000AC0E5E4F6E000810D7F99
:101880000083009165000F7E009365001B98009116
:101890006500077F0093650001E00093440602E0C5
:1018A0000093440601E010E00E94710001E010E0A6
:1018B0000E94710001E010E00E9471001B9A0091EB
:1018C000650008600093650001E00093440602E0B3
:1018D0000093440601E010E00E94710001E010E076
:1018E0000E9471000A9B0BC0E5E4F6E000810160F4
:1018F0000083009165000061009365000AC0E5E483
:10190000F6E000810E7F0083009165000F7E00935A
:1019100065001B9800916500077F0093650001E05A
:101920000093440602E00093440601E010E00E94A8
:10193000710001E010E00E94710001E010E00E94DF
:1019400071000EEE02B901E010E00E94710001E0AA
:101950000093440602E00093440601E010E00E9478
:101960007100E8E4F6E000811181CD0101970817CC
:10197000190708F065CD1A98009165000F7E009355
:10198000650064CDDEDCE4E00C940D130E940613C8
:10199000802F0EEE02B900E010E0E6E4F6E00083EE
:1019A000118325C01A9800916500006100936500BD
:1019B000880F1B9A0091650008600093650001E0A4
:1019C0000093440602E00093440601E010E00E9408
:1019D00071001B9800916500077F00936500E6E4A5
:1019E000F6E0008111810F5F1F4F00831183A6E491
:1019F000B6E0ED91FC91389748F487FB9EF61A9A71
:101A000000916500006100936500D2CF0AEE02B933
:101A10001A9A0091650000610093650001E000934F
:101A2000440602E00093440601E010E00E947100C9
:101A30001B9A0091650008600093650001E0009327
:101A4000440602E00093440601E00093440602E0ED
:101A50000093440601E00093440602E0009344062C
:101A600001E010E00E9471000EEE02B901E0009367
:101A7000440602E00093440601E010E00E94710079
:101A80001B9800916500077F00936500E4E00C94CB
:101A90000D132A931A930A931FB72BB72BBF1FBF9F
:101AA00009911991299118952A931A930A931FB7AE
:101AB0002BB72BBF1FBF09911991299118952A9314
:101AC0001A930A931FB72BB72BBF1FBF0991199108
:101AD000299118959A938A93FA93EA935A934A9381
:101AE0003A932A931A930A934FB75BB700919C00DD
:101AF000E3E9FCE020813181F901E555F74F0083EE
:101B0000E3E9FCE000811181F801E555F74F008120
:101B1000033229F4EDE4F6E0008103950083E3E964
:101B2000FCE0808191810196E3E9FCE08083918370
:101B3000883E03E0900730F000E010E0E3E9FCE0CD
:101B4000008311835BBF4FBF09911991299139918E
:101B500049915991E991F9918991999118952A930F
:101B60001A930A931FB72BB72BBF1FBF0991199167
:101B700029911895F8940E949C00DC9AC7980091CE
:101B80006500077F00936500009165000F7E00935C
:101B900065000E941A0978940E94BD000E940B0EF5
:101BA00008E40093420609E400934306C79A0091B3
:101BB0006500086000936500009165000061009376
:101BC0006500089503E010E00E946200D3DF08C0C2
:101BD0000091AA08013011F40E9455080E940404E3
:101BE000DD9A0E946D0900914D06013038F00E9487
:101BF0009011EDE4F6E000810A9500830091A808B9
:101C0000013071F70091A908013011F70E942004FA
:101C10000E946B07E3CF00E010E0E3E9FCE0008303
:101C2000118300E010E0E5E9FCE00083118300E0AF
:101C300000934C060DC000E020914C0630E0F90105
:101C4000E65BF94F0083ECE4F6E000810395008346
:101C500000914C06023078F300E000934D0600E05E
:101C60000093A80800E00093A90800E00093AA08E8
:101C700008958A9300914B060735C9F50E94EA1131
:101C800000934E0610914E0602E0109F00924E0601
:101C900000E000934C060EC00E94EA1120914C0611
:101CA00030E0F901E15BF94F0083ECE4F6E00081FC
:101CB0000395008300914C0610914E06011760F3C6
:101CC0000E9433010E940101802F04E20E946F12E2
:101CD00000914A060E946F1200914B060E946F12FB
:101CE000082F0E946F1203E20E946F1285C10091BB
:101CF0004B06023509F052C00E94EA1100934E06CD
:101D000010914E0602E0109F00924E0600E00093F4
:101D10004C060EC00E94EA1120914C0630E0F901F9
:101D2000E15BF94F0083ECE4F6E000810E5F008395
:101D300000914C0610914E06011760F30E94D400EA
:101D400004E20E946F1200914A060E946F120091F5
:101D50004B060E946F1242E000914E060E94A012B4
:101D60000E94491200E000934C060EC000914C0600
:101D700010E0F801E15BF94F00810E944912ECE4A8
:101D8000F6E000810395008300914C0610914E0609
:101D9000011760F303E20E946F122EC100914B06FF
:101DA0000835D9F50E94EA1100934E0610914E06AF
:101DB00002E0109F00924E0600E000934C060EC019
:101DC0000E94EA1120914C0630E0F901E15BF94FE5
:101DD0000083ECE4F6E000810E5F008300914C0686
:101DE00010914E06011760F30E94D40004E20E9495
:101DF0006F1200914A060E946F1200914B060E94DA
:101E00006F1200914F060E944912009150060E94E5
:101E1000491203E20E946F12EFC000914B06043595
:101E200051F40E942B12053411F401E001C000E0CE
:101E30000093A808E1C000914B06003551F40E94C0
:101E40002B12053411F401E001C000E00093A90851
:101E5000D3C000914B060F3451F40E942B1205346D
:101E600011F401E001C000E00093AA08C5C0009190
:101E70004B06033499F404E20E946F1200914A0663
:101E80000E946F1200914B060E946F120091420651
:101E90000E94491203E20E946F12AEC000914B06ED
:101EA0000834B9F40E94EA110E948D0104E20E94F4
:101EB0006F1200914A060E946F1200914B060E9419
:101EC0006F12009142060E94491203E20E946F12B3
:101ED00093C000914B06013409F052C00E94EA11F0
:101EE00000934E0610914E0602E0109F00924E069F
:101EF00000E000934C060EC00E94EA1120914C06AF
:101F000030E0F901E15BF94F0083ECE4F6E0008199
:101F10000E5F008300914C0610914E06011760F38E
:101F20000E94D40004E20E946F1200914A060E94AF
:101F30006F1200914B060E946F1242E000914E0614
:101F40000E94A0120E94491200E000934C060EC0AD
:101F500000914C0610E0F801E15BF94F00810E940E
:101F60004912ECE4F6E000810395008300914C06F1
:101F700010914E06011760F303E20E946F123CC0FD
:101F800000914B060934C1F506E30093DA0501E040
:101F900010E00E94B60901E010E00E940E0A06E37C
:101FA0000093DA050091760501600093DB0502E0FD
:101FB00010E00E94B60904E110E00E94620006E30E
:101FC0000093DA05009176050093DB0502E010E04E
:101FD0000E94B60904E110E00E94620004E20E943F
:101FE0006F1200914A060E946F1200914B060E94E8
:101FF0006F1203E20E946F12899108958A930091F3
:102000004B06073529F000914B06063509F045C00F
:102010000E94EA1100937B0710917B0702E0109F5A
:1020200000927B0700E000934C060EC00E94EA116C
:1020300020914C0630E0F901E458F84F0083ECE4BD
:10204000F6E000810395008300914C0610917B0718
:10205000011760F30E94B60300914B06073521F487
:102060000E940902802F07C000914B06063519F423
:102070000E94E102802F04E20E946F1200914A0642
:102080000E946F1200914B060E946F12082F0E944F
:102090006F1203E20E946F1218C000914B060334C6
:1020A000A1F40E943603802F04E20E946F12009177
:1020B0004A060E946F1200914B060E946F12082F71
:1020C0000E946F1203E20E946F12899108958A9311
:1020D00000914B060235E1F50E94670304E20E947D
:1020E0006F1200914A060E946F1200914B060E94E7
:1020F0006F1200917B07002319F100917B070F3FBE
:10210000F9F042E000917B070E94A0120E94491260
:1021100000E000934C0600914C0610917B070117DC
:1021200098F400914C0610E0F801E458F84F008153
:102130000E944912ECE4F6E0008103950083EBCFA6
:1021400000917B070E94491203E20E946F123CC07B
:1021500000914B060735C1F50E94EA1100937B07F9
:1021600010917B0702E0109F00927B0700E0009334
:102170004C060EC00E94EA1120914C0630E0F90195
:10218000E458F84F0083ECE4F6E000810395008307
:1021900000914C0610917B07011760F30E94B60373
:1021A0000E948B03802F04E20E946F1200914A0666
:1021B0000E946F1200914B060E946F12082F0E941E
:1021C0006F1203E20E946F128991089500914B06ED
:1021D000023599F504E20E946F1200914A060E94AE
:1021E0006F1200914B060E946F12DB9B04C005E446
:1021F0000E946F1203C004E40E946F12C09B04C0CF
:1022000005E40E946F1203C004E40E946F12C29B97
:1022100004C005E40E946F1203C004E40E946F1220
:10222000C49B04C005E40E946F1203C004E40E9432
:102230006F1203E20E946F12089500914B0607355A
:1022400069F50E942B12053421F401E00E94220955
:1022500003C000E00E9422090E942B12053421F4E1
:1022600001E00E94320903C000E00E9432090E948E
:102270002B12053421F401E00E94420903C000E062
:102280000E9442090E942B12053421F401E00E94B1
:102290004D09089500E00E944D09089500914B06F4
:1022A000063409F504E20E946F1200914A060E946A
:1022B0006F1200914B060E946F1225E030E002E79A
:1022C00011E00E94771228E030E008E711E00E9458
:1022D00077122CE030E001E811E00E94771203E26F
:1022E0000E946F12089500914B060D3419F40E945C
:1022F000F903089500914B06033489F404E20E9427
:102300006F1200914A060E946F1200914B060E94C4
:102310006F1201E40E946F1203E20E946F1208958F
:102320000E942B12003429F00E942B120332E1F795
:1023300008950E942B1200934A060E942B120093CC
:102340004B0600914A06023511F493DC11C000914E
:102350004A060D3411F452DE0BC000914A060534D2
:1023600011F4B5DE05C000914A06083409F42EDFE9
:102370000E942B12033221F00E942B120332E1F74C
:102380000895F80100E010E02081203330F0208132
:102390002A3318F40081005308C02081213428F02A
:1023A0002081273410F4008107530295007F21819A
:1023B000203330F021812A3318F41181105308C0E2
:1023C0002181213428F02181273410F41181175301
:1023D000012B08959A938A932297E5E9FCE0008106
:1023E0001181F801E555F74F00810883E5E9FCE02C
:1023F000808191810196E5E9FCE080839183883EAC
:1024000003E0900730F000E010E0E5E9FCE0008335
:102410001183E5E9FCE000811181F801E555F74FF2
:1024200000810983E5E9FCE0808191810196E5E97D
:10243000FCE080839183883E03E0900730F000E069
:1024400010E0E5E9FCE0008311838E019ADF22961B
:10245000899199910895AC01E5E9FCE00081118131
:10246000F801E555F74F0081E5E9FCE080819181B5
:102470000196E5E9FCE080839183883E13E09107B3
:1024800030F020E030E0E5E9FCE020833183CA0150
:102490000895102F12951F701A3010F4105D05C0AA
:1024A0001A3018F0103108F4195C20919B00322F7B
:1024B00035FFFBCF10939C000F70102F1A3010F4D3
:1024C000105D05C01A3018F0103108F4195C009145
:1024D0009B00202F25FFFBCF10939C0008951091A7
:1024E0009B00212F25FFFBCF00939C0008950E94A5
:1024F0000413C801D901442407C05524FC01E40D8C
:10250000F51D0081ECDF439455244A165B06ACF3BD
:10251000E6E00C940B1300008895FECF0FE30DBF8F
:1025200001E00EBFC0E2D1E00E941613002311F0BB
:102530000E9428130E94E20D0E948B120C948B12B1
:102540000024E8E0EA9532F0001F001C0416D0F3E6
:10255000041AF8CF001F402D00950895149F102DE8
:10256000059F100D049F002D110D0895779167911F
:1025700057914791179011FA279037900895F9DFF6
:10258000041B10E003C0F4DF041B150B20E030E057
:1025900005C0ECDF041B150B260B370BB8F010FC45
:1025A00017C047910790E00FF11F0417100540E096
:1025B0002407340758F436F406910024F101E01B97
:1025C000F0090994E00FF11F27903790F101099469
:1025D00011F4D6F7F1CF31960EF0319650E060E06D
:1025E00070E047914B3F48F089F34F3F29F04E3F51
:1025F00011F07791679157914791041B150B260BAA
:10260000370B39F318F3E7CF5A924A92BA93AA9349
:102610009A938A9308955D804C80BB81AA819981A9
:102620008881F0E0EC0FFD1FEF01089501E00895AF
:1026300020E008D0E9F708953BBF27913BB702D0CF
:10264000D9F708952D9301501040202F212B089584
:1026500000EB402E06E2502E00E0602EF201362DF7
:102660006BBE07911691F201EE5FFF4F3F4F3BBFEC
:10267000A791B691F201362DEC5FFF4F3F4F3BBF64
:10268000479157916691242F252B262B21F0FA0193
:10269000362FD2DF01C0CCDF07E0400E00E0501E35
:1026A000601EA201662D4E3B56426040B8F208956E
:1026B0004E004001BE2600090B8E010000003034A0
:1026C000303000303830300031303030003230308F
:1026D000300034303030003830303000303030317D
:1026E00000303030320030323030003031303000A5
:1026F000332E313020003230313431323239004122
:0C2700004E534730342F30362F30380055
:0400000300000000F9
:00000001FF
