:020000020000FC
:100000000C94CC0D18951895189518951895189569
:100010001895189518951895189518951895189578
:1000200018951895189518950C94780718951895A3
:1000300018951895189518950C94620718951895A9
:100040000C946D071895189518951895189518958E
:100050001895189518951895189518951895189538
:100060001895189518951895189518951895189528
:1000700018951895189518950C9483071895189548
:100080000C94C80718951895189518950000410903
:100090000A002E09300932093409360938093A09AB
:1000A0003C093E094009000013090A0075097C0952
:1000B00083098A09910998099F09A609AD090D09C3
:1000C0004101610C080B02DE0A05F10A015A0B011D
:1000D000930B01CF0B01080C01080C014D0C01D44E
:1000E0000A01CA0A02330A02C00A03FA0901850A90
:1000F000FB009801890101501040232BD1F708958E
:10010000AC0107C084E398E0FC01CF010197EF2B1D
:10011000D9F79801890101501040232B99F7CA01A2
:10012000089500B5046000BDA89501B5086101BD42
:1001300000E001BD0EE70ABB0FEF07BB0FEF04BBEA
:100140000FED02B90FEF0093640000E0009365002B
:100150001A9A1B9A08950BEF01BB00E000939800D8
:100160000FE00093990002E000939B0008E10093E8
:100170009A0006E000939D0000919A00006C0093A5
:100180009A0008958A9380E020C0082F10E0000FA5
:10019000111FF801EA54FC4F008100930C0201E0AA
:1001A00010E00E94120501E010E00E94620520911B
:1001B000A801082F10E0000F111FF801EA54FC4FAE
:1001C000218304E610E095DF839542E00091B503BA
:1001D0000E94DE0D8017C8F2899108958A9380E00D
:1001E00004C004E610E085DF839542E00091B5038A
:1001F0000E94DE0D8017F8F5082F10E0000F111F88
:10020000F801EA54FC4F0081002371F3082F10E03D
:10021000000F111FF801EA54FC4F0081013621F351
:10022000082F10E0000F111FF801EA54FC4F008165
:100230000F37D1F2082F10E0000F111FF801EA5418
:10024000FC4F008100930C0201E010E00E941205B7
:1002500001E010E00E946205082F10E0000F111F5E
:10026000F801EA54FC4F01811091A801011709F42B
:10027000B8CF06E401C003E5899108958A9380E030
:100280004CC0082F10E0000F111FF801EA54FC4F7A
:1002900000810A3451F409E400930C0201E0009358
:1002A0000D0202E010E00E941205082F10E0000F7E
:1002B000111FF801EA54FC4F008100930C02082F33
:1002C00010E0000F111FF801EA54FC4F0181009368
:1002D0000D0202E010E00E941205082F10E0000F4E
:1002E000111FF801EA54FC4F00810630A9F4082FD1
:1002F00010E0000F111FF801EA54FC4F0181009338
:10030000A201082F10E0000F111FF801EA54FC4F62
:10031000018103950093A301839542E00091B50309
:100320000E94DE0D801708F4ACCF899108958A935E
:10033000802F06E000930C0280930D0202E010E093
:100340000E9412058093A20183958093A301899155
:10035000089500E010EE21E030E041E045BF42E0CA
:1003600045BFF801099508959A938A9316D20CE532
:1003700000930C0201E100930D0202E010E00E94E4
:10038000120580E090E00AE010E0BADE833300E07E
:10039000900710F002E512C00DE500930C0201E099
:1003A00010E00E94120501E010E00E946205019633
:1003B000E8EAF1E0008101FFE6CF03E58991999138
:1003C00008950E94440EA0E0B0E080E080E0E5D116
:1003D0000CE500930C0202E200930D0202E010E033
:1003E0000E94120504E610E08BDEA0E0B0E091E090
:1003F0000AE010E085DEA33300E0B00710F090E0E3
:1004000011C00DE500930C0201E010E00E941205FE
:1004100001E010E00E9462051196E8EAF1E0008137
:1004200002FFE6CF992329F48395863080F207E511
:1004300001C003E5E4E00C944B0E8A930E9479041A
:1004400004EF11E05DDE41D10091E2040F3F09F4B9
:10045000AFC080E080C0082F10E0000F111FF8012E
:10046000ED51FB4F00810A3451F409E400930C0272
:1004700001E000930D0202E010E00E941205082F37
:1004800010E0000F111FF801ED51FB4F00810093A8
:100490000C02082F10E0000F111FF801ED51FB4F67
:1004A000018100930D0202E010E00E941205082F66
:1004B00010E0000F111FF801ED51FB4F00810A34CD
:1004C00051F409E400930C0201E000930D0202E0F4
:1004D00010E00E941205082F10E0000F111FF80114
:1004E000ED51FB4F00810630A9F4082F10E0000FFA
:1004F000111FF801ED51FB4F01810093A201082F5C
:1005000010E0000F111FF801ED51FB4F0181039521
:100510000093A301082F10E0000F111FF801ED5107
:10052000FB4F2081082F10E0000F111FF801EA5443
:10053000FC4F2083082F10E0000F111FF801ED5130
:10054000FB4F2181082F10E0000F111FF801EA5422
:10055000FC4F2183839542E00091E2040E94DE0D6E
:10056000801708F478CF0091E2040093B5030AE005
:1005700010E0C6DD00E000930C020AEA00930D02D1
:1005800002E010E00E9412050FE700930C0205E55F
:1005900000930D0202E010E00E94120512DF033505
:1005A00059F4E2DE033561F00E948A0402E512C0CC
:1005B0000E948A0405E40EC00E948A0407E50AC06E
:1005C0000DDE033521F00E948A0406E403C00E9478
:1005D0008A0403E5899108958A930E94790404EFBF
:1005E00011E08EDD72D00091E2040F3FC1F180E096
:1005F00021C0082F10E0000F111FF801ED51FB4F33
:100600002081082F10E0000F111FF801EA54FC4F61
:100610002083082F10E0000F111FF801ED51FB4F50
:100620002181082F10E0000F111FF801EA54FC4F40
:100630002183839542E00091E2040E94DE0D801741
:10064000C0F20091E2040093B5038EDE033549F455
:10065000C5DD033551F00E948A0406E409C005E4B3
:1006600007C00E948A0402E503C00E948A0403E5D1
:10067000899108950E94790404EF11E041DD00E0C2
:1006800000930C0200E000930D0202E010E00E94D3
:1006900012050FE700930C0200E000930D0202E048
:1006A00010E00E9412058DDE033521F00E948A04BD
:1006B00007E5089559DE033521F00E948A0402E51A
:1006C00008950E948A0403E508959A938A9300E0AE
:1006D00010E094D00093E2040091E2040023A9F01A
:1006E0000091E2040F3F89F080E00BC0082F10E07A
:1006F0000F5F1F4F83D090E0FC01ED51FB4F008353
:1007000083950091E204801788F389919991089567
:100710009A938A9300E010E071D00093E204009174
:10072000E204002321F00091E2040F3F11F406E4FB
:1007300016C080E001C083950091E204801770F438
:10074000082F10E00F5F1F4F59D090E0FC01ED51D2
:10075000FB4F1081101779F306E401C003E589917E
:10076000999108959A938A932091E20400E010E011
:100770003BD080E00BC090E0FC01ED51FB4F2081AD
:10078000082F10E00F5F1F4F2FD083950091E204D8
:10079000801788F38991999108958A9304E30093CF
:1007A0000C0201E010E00E94120501E010E00E943E
:1007B00062058091A801806104E300930C0280939C
:1007C0000D0202E010E00E9412050AE010E098DC41
:1007D0008F7E04E300930C0280930D0202E010E090
:1007E0000E94120589910895F894E199FECF1FBBEC
:1007F0000EBB2DBBE29AE19A78940895F894E199A2
:10080000FECF1FBB0EBBE09A78940DB30895DE981F
:1008100014DEDE9A033511F401E0089500E0089536
:10082000DE98DADEDE9A033511F401E0089500E087
:10083000089500E000939E0100E000939F016AD0BC
:1008400001E00093A00101E00093A101DC9ADD9A90
:10085000DE9A0895013039F4DB9A0AE010E00E9434
:100860008000D99A0895D9980AE010E00E9480008B
:10087000DB980895013099F4C09A0AE010E00E94D4
:100880008000DA9AC29B11C00FEF11E0ECE9F1E0B1
:10089000008311830AE010E00E9480000895DA9836
:1008A0000AE010E00E948000C09808951B98102F65
:1008B00010FDC29A10FFC298C29B0CC0C09B0AC018
:1008C0000FEF11E0ECE9F1E0008311830AE010E0A2
:1008D0000E94800004E610E00E9479000895102F25
:1008E00010FDC49A10FFC49804E610E00E9479003D
:1008F000089501E0BFDF04E110E00E94800001E004
:10090000D5DF0CE211E00E9480000CE211E00E94B1
:100910008000089500E09EDF00E0ACDF00E0C6DF6D
:1009200000E0DDDF089500E0C0990260C299046034
:1009300008958A93802F81FB16F401E001C000E046
:1009400099DF04E110E00E94800082FB16F401E0D0
:1009500001C000E0ABDF08EC10E00E94800089914C
:100960000895C89B13C00091A0010023A1F401E0E9
:100970000093A001DC9ADD9A0E94070404EF11E0C5
:100980000E9480000E9410041BD005C0C89903C0BB
:1009900000E00093A001CF9B0DC00091A1010023B6
:1009A00071F401E00093A101DC9ADD9A0E94100429
:1009B00007D00895CF9903C000E00093A1010895E6
:1009C000013019F4DC98DD9A0895DC9ADD980895D9
:1009D0001A9A01E010E00E9479001B9A01E010E0F1
:1009E0000E9479001A9801E010E00E9479001B989B
:1009F00001E010E00E94790008951B9801E010E0EA
:100A00000E9479001A9801E010E00E9479001B9A78
:100A100001E010E00E9479001A9A01E010E00E94C3
:100A2000790008959A938A93C80101E00093A60182
:100A300002E00093A60101E010E00E947900C8DF07
:100A400001E00093A60102E00093A60101E010E09E
:100A50000E9479000091A201BCD100E00093A401A2
:100A600017C001E00093A60102E00093A6010091E7
:100A7000A40110E0F801E45FFD4F0081AAD101E07C
:100A800010E00E947900E4EAF1E000810395008320
:100A90000091A40110E00817190718F301E0009372
:100AA000A60102E00093A601A8DF01E00093A601E1
:100AB00002E00093A60101E010E00E947900899114
:100AC000999108950E94440ED80182DF01E010E060
:100AD0000E9479000091A3017CD100E00093A40161
:100AE00038C01A9A0091650000610093650001E02A
:100AF0000093A60102E00093A60101E010E00E942D
:100B000079001B9A0091650008600093650001E080
:100B10000093A60102E00093A60101E010E00E940C
:100B200079001B9800916500077F0093650001E044
:100B300010E00E9479002091A7010091A40110E02B
:100B4000F801E855FE4F2083E4EAF1E000810395C7
:100B500000830091A40110E00A171B0708F070C081
:100B60000EEE02B900E00093A7011A9A0091650009
:100B700000610093650001E00093A60102E000938C
:100B8000A60101E010E00E9479000AEE02B901E03E
:100B90000093A60102E00093A60190E880E01BC04C
:100BA000092F0095E7EAF1E01081102310830091EE
:100BB00065000F7E009365001B9800916500077F1C
:100BC00000936500969501E00093A60101E010E016
:100BD0000E94790083958830B8F41B9A00916500D3
:100BE00008600093650001E010E00E9479000A9B14
:100BF000D7CFE7EAF1E00081092B0083009165007F
:100C0000006100936500D8CF0EEE02B901E00093B9
:100C1000A60102E00093A60101E010E00E94790025
:100C20000091A40110E0CD0101970817190708F001
:100C300058CF1A98009165000F7E0093650057CF3A
:100C4000DCDEE4E00C944B0E0E94420EC801D90198
:100C5000BFDE01E010E00E9479000091A301B9D04D
:100C600000E00093A40138C01A9A00916500006169
:100C70000093650001E00093A60102E00093A60145
:100C800001E010E00E9479001B9A00916500086065
:100C90000093650001E00093A60102E00093A60125
:100CA00001E010E00E9479001B9800916500077F29
:100CB0000093650001E010E00E9479002091A701F7
:100CC0000091A40110E0FD01E00FF11F2083E4EA90
:100CD000F1E00081039500830091A40110E0081762
:100CE000190708F072C00EEE02B900E00093A701E8
:100CF0001A9A0091650000610093650001E000937D
:100D0000A60102E00093A60101E010E00E94790034
:100D10000AEE02B901E00093A60102E00093A601E9
:100D200000E8502E44241BC0052D0095E7EAF1E0B1
:100D3000108110231083009165000F7E00936500E1
:100D40001B9800916500077F00936500569401E0B1
:100D50000093A60101E010E00E947900439408E0AE
:100D60004016B8F41B9A0091650008600093650076
:100D700001E010E00E9479000A9BD6CFE7EAF1E09B
:100D800000810529008300916500006100936500E2
:100D9000D7CF0EEE02B901E00093A60102E0009366
:100DA000A60101E010E00E9479000091A40110E08A
:100DB000FC0131970E171F0708F056CF1A980091C3
:100DC00065000F7E0093650055CF17DEE6E00C94BA
:100DD000490E8A93802F0EEE02B900E00093A50120
:100DE00022C01A9800916500006100936500880F89
:100DF0001B9A0091650008600093650001E0009374
:100E0000A60102E00093A60101E010E00E94790033
:100E10001B9800916500077F00936500E5EAF1E00B
:100E20000081039500830091A501083048F487FBF9
:100E3000C6F61A9A00916500006100936500D7CF4D
:100E40000AEE02B91A9A00916500006100936500EC
:100E500001E00093A60102E00093A60101E010E08A
:100E60000E9479001B9A009165000860009365005C
:100E700001E00093A60102E00093A60101E00093C7
:100E8000A60102E00093A60101E00093A60102E0A2
:100E90000093A60101E010E00E9479000EEE02B975
:100EA00001E00093A60102E00093A60101E010E03A
:100EB0000E9479001B9800916500077F00936500F0
:100EC000899108952A931A930A931FB72BB72BBFC2
:100ED0001FBF09911991299118952A931A930A9382
:100EE0001FB72BB72BBF1FBF0991199129911895D7
:100EF0002A931A930A931FB72BB72BBF1FBF0991D1
:100F00001991299118959A938A93FA93EA935A938F
:100F10004A933A932A931A930A934FB75BB7009177
:100F20009C00EBEFF9E020813181F901ED5EF94F92
:100F30000083EBEFF9E000811181F801ED5EF94FDC
:100F40000081033229F4E4EBF3E000810395008390
:100F5000EBEFF9E0808191810196EBEFF9E080837E
:100F60009183883E03E0900730F000E010E0EBEF63
:100F7000F9E0008311835BBF4FBF0991199129915B
:100F8000399149915991E991F991899199911895DE
:100F90002A931A930A931FB72BB72BBF1FBF099130
:100FA000199129911895F8940E949100C798009181
:100FB0006500077F00936500009165000F7E009338
:100FC00065000E94190478940E94AB000E94C00939
:100FD00008E40093A20109E40093A301C79A0091D9
:100FE0006500086000936500009165000061009352
:100FF00065000895D8DF08C000911106013011F492
:101000000E9408090E941C080E94B1040091B403C8
:10101000013038F00E94CF0CE4EBF3E000810A9538
:10102000008300910F06013079F70091100601301E
:1010300019F70E944508E6CF0AE200930C0201E08E
:1010400010E00E94120501E010E00E94620523E01A
:1010500030E000E411E00E94A10D0091A8010E947F
:10106000840D03E20E947C0D00911006002361F4C0
:1010700000911106002341F400911206002321F48F
:1010800004E110E00E94800008959A938A9300E0A2
:101090000093B0031BC000E500930C0201E010E0D8
:1010A0000E9412054091B00350E008E010E00E9459
:1010B000EC0D20E732E0200F311F08E010E00E9425
:1010C0002406E0EBF3E00081039500830091B00378
:1010D000083208F300E00093B00392C04091B003DF
:1010E00050E008E010E00E94EC0DF801E059FD4FDF
:1010F00080814091B00350E008E010E00E94EC0DC8
:10110000F801E059FD4F0681801709F074C0409145
:10111000B00350E008E010E00E94EC0DF801E05947
:10112000FD4F818183704091B00350E008E010E0F2
:101130000E94EC0DF801E059FD4F07810370801704
:1011400009F059C04091B00350E008E010E00E945F
:10115000EC0DF801E059FD4F00810F3F09F44BC041
:101160004091B00350E008E010E00E94EC0DF8015F
:10117000E059FD4F80814091B00350E008E010E05D
:101180000E94EC0DF801E059FD4F0681801799F59A
:101190004091B00350E008E010E00E94EC0DF8012F
:1011A000E059FD4F81814091B00350E008E010E02C
:1011B0000E94EC0DF801E059FD4F07818017D9F42A
:1011C00023E030E004E411E00E94A10D25E030E0CE
:1011D000C9014091B00350E008E010E00E94EC0D1E
:1011E000980100E712E0020F131F9C010E94B50D49
:1011F00003E20E947C0DE0EBF3E0008103950083A5
:101200000091B003083208F469CF8991999108954B
:101210008A9300E00093B00314C024E030E009E7B3
:1012200011E00E94A10D23E030E00AEA11E00E94E3
:10123000B50D03E20E947C0DE0EBF3E00081039525
:1012400000830091B0030A3008F08EC00091B00313
:10125000ECE8F0E0FBBFF0E00C94FD0D80E111C084
:1012600088E10FC080E20DC088E20BC080E309C0B6
:1012700088E307C080E405C088E403C088E001C0BB
:1012800080E502E600930C02082F006800930D022F
:1012900002E010E00E94120509E110E00E948000C7
:1012A00000E500930C0201E010E00E94120508E046
:1012B00010E00E9462050091A8011091AE01011793
:1012C00079F70091A9011091AF01011749F723E0C7
:1012D00030E008E411E00E94A10D0091B003E6EABD
:1012E000F0E0FBBFF0E00C94FD0D24E030E00CE4F6
:1012F00011E00E94A10D97CF24E030E001E511E05C
:101300000E94A10D90CF24E030E006E511E00E949C
:10131000A10D89CF24E030E00BE511E00E94A10D82
:1013200082CF24E030E000E611E00E94A10D7BCFE7
:1013300024E030E005E611E00E94A10D74CF24E026
:1013400030E00AE611E00E94A10D6DCF24E030E00C
:101350000FE611E00E94A10D66CF24E030E004E723
:1013600011E00E94A10D5FCF02E600930C0200E0A5
:1013700000930D0202E010E00E9412058991089589
:1013800000E010E0EBEFF9E00083118300E010E0F3
:10139000EDEFF9E00083118300E00093B40300E077
:1013A00000930F0600E00093100600E00093B303E3
:1013B0000DC000E02091B30330E0F901EF54FC4F81
:1013C0000083E3EBF3E00081039500830091B30316
:1013D000023078F300E00093110600E0009312065B
:1013E00008958A930091B203E0ECF0E0FBBFF0E0D7
:1013F0000C94FD0D0E943B0D0093B5031091B503B5
:1014000002E0109F0092B50300E00093B3030EC00A
:101410000E943B0D2091B30330E0F901EA54FC4FE8
:101420000083E3EBF3E00081039500830091B303B5
:101430001091B503011760F30E943E010E94EE0077
:10144000802F04E20E947C0D0091B1030E947C0D6C
:101450000091B2030E947C0D082F0E947C0D03E2D4
:101460000E947C0D2EC20E943B0D0093B50310918B
:10147000B50302E0109F0092B50300E00093B303B0
:101480000EC00E943B0D2091B30330E0F901EA54F5
:10149000FC4F0083E3EBF3E000810E5F00830091DB
:1014A000B3031091B503011760F30E94C20004E278
:1014B0000E947C0D0091B1030E947C0D0091B2034B
:1014C0000E947C0D42E00091B5030E94DE0D0E9457
:1014D000840D00E00093B3030EC00091B30310E04D
:1014E000F801EA54FC4F00810E94840DE3EBF3E025
:1014F0000081039500830091B3031091B503011798
:1015000060F303E20E947C0DDCC10E943B0D00935E
:10151000B5031091B50302E0109F0092B50300E0FF
:101520000093B3030EC00E943B0D2091B30330E043
:10153000F901EA54FC4F0083E3EBF3E000810E5F16
:1015400000830091B3031091B503011760F30E946B
:10155000C20004E20E947C0D0091B1030E947C0D48
:101560000091B2030E947C0D0091B6030E94840D8D
:101570000091B7030E94840D03E20E947C0DA1C17B
:101580000E941D0D053411F401E001C000E000933C
:101590000F0697C10E941D0D053411F401E001C032
:1015A00000E0009310068DC10E941D0D053411F45A
:1015B00001E001C000E00093110683C104E20E9433
:1015C0007C0D0091B1030E947C0D0091B2030E943A
:1015D0007C0D0091A2010E94840D03E20E947C0D0B
:1015E00070C10E943B0D0E94970104E20E947C0D95
:1015F0000091B1030E947C0D0091B2030E947C0D0A
:101600000091A2010E94840D03E20E947C0D59C149
:101610000E943B0D0093B5031091B50302E0109FAB
:101620000092B50300E00093B3030EC00E943B0D8F
:101630002091B30330E0F901EA54FC4F0083E3EB5F
:10164000F3E000810E5F00830091B3031091B503B6
:10165000011760F30E94C20004E20E947C0D009119
:10166000B1030E947C0D0091B2030E947C0D42E008
:101670000091B5030E94DE0D0E94840D00E00093EE
:10168000B3030EC00091B30310E0F801EA54FC4F1D
:1016900000810E94840DE3EBF3E000810395008359
:1016A0000091B3031091B503011760F303E20E94A8
:1016B0007C0D07C106E300930C0201E010E00E94DC
:1016C000120501E010E00E94620506E300930C029F
:1016D0000091A801016000930D0202E010E00E9459
:1016E00012050AE010E00E94800006E300930C025D
:1016F0000091A80100930D0202E010E00E94120583
:101700000AE010E00E94800004E20E947C0D00913B
:10171000B1030E947C0D0091B2030E947C0D03E294
:101720000E947C0DCEC00E94650304E20E947C0DE5
:101730000091B1030E947C0D0091B2030E947C0DC8
:101740000091E204002319F10091E2040F3FF9F047
:1017500042E00091E2040E94DE0D0E94840D00E050
:101760000093B3030091B3031091E204011798F4BE
:101770000091B30310E0F801ED51FB4F00810E948E
:10178000840DE3EBF3E0008103950083EBCF009140
:10179000E2040E94840D03E20E947C0D92C00E942C
:1017A0003B0D0093E2041091E20402E0109F0092CE
:1017B000E20400E00093B3030EC00E943B0D2091B1
:1017C000B30330E0F901ED51FB4F0083E3EBF3E0AD
:1017D0000081039500830091B3031091E204011787
:1017E00060F30E94B2030E948803802F04E20E94EB
:1017F0007C0D0091B1030E947C0D0091B2030E9408
:101800007C0D082F0E947C0D03E20E947C0D59C0C4
:101810000E943B0D0093E2041091E20402E0109F4D
:101820000092E20400E00093B3030EC00E943B0D5F
:101830002091B30330E0F901ED51FB4F0083E3EB5E
:10184000F3E00081039500830091B3031091E2045B
:10185000011760F30E94B2030091B2030C3421F42B
:101860000E941D02802F07C00091B2030D3419F4AD
:101870000E94EC02802F04E20E947C0D0091B103D3
:101880000E947C0D0091B2030E947C0D082F0E94E3
:101890007C0D03E20E947C0D14C00E943A03802F4D
:1018A00004E20E947C0D0091B1030E947C0D009126
:1018B000B2030E947C0D082F0E947C0D03E20E945F
:1018C0007C0D899108958A930091B203023599F4B1
:1018D0000E949304802F04E20E947C0D22E030E0FD
:1018E00001EB13E00E94A10D082F0E94840D03E27A
:1018F0000E947C0D52C00091B203073569F40E942A
:101900003B0D802F082F0E9499040AE010E00E94EE
:1019100080000E94930441C00091B203063409F58F
:1019200004E20E947C0D0091B1030E947C0D0091A5
:10193000B2030E947C0D25E030E00EE711E00E942A
:10194000A10D28E030E004E811E00E94A10D2EE096
:1019500030E00DE811E00E94A10D03E20E947C0D31
:101960001CC00091B2030D3419F40E94A90115C0E6
:101970000091B203033489F404E20E947C0D0091CB
:10198000B1030E947C0D0091B2030E947C0D01E422
:101990000E947C0D03E20E947C0D899108950E94B3
:1019A0001D0D003429F00E941D0D0332E1F708954A
:1019B0000E941D0D0093B1030E941D0D0093B20300
:1019C0000091B103023511F40CDD05C00091B103A3
:1019D000083409F478DF0E941D0D033221F00E94C3
:1019E0001D0D0332E1F70895F80100E010E02081B9
:1019F000203330F020812A3318F40081005308C0CE
:101A00002081213428F02081273410F400810753ED
:101A10000295007F2181203330F021812A3318F490
:101A20001181105308C02181213428F021812734ED
:101A300010F411811753012B0895AC01EDEFF9E07B
:101A400000811181F801ED5EF94F0081EDEFF9E0C1
:101A5000808191810196EDEFF9E080839183883E4A
:101A600013E0910730F020E030E0EDEFF9E0208363
:101A70003183CA0108959A938A932297EDEFF9E092
:101A800000811181F801ED5EF94F00810883EDEFCF
:101A9000F9E0808191810196EDEFF9E080839183F7
:101AA000883E03E0900730F000E010E0EDEFF9E051
:101AB00000831183EDEFF9E000811181F801ED5E03
:101AC000F94F00810983EDEFF9E080819181019662
:101AD000EDEFF9E080839183883E03E0900730F0DA
:101AE00000E010E0EDEFF9E0008311838E017CDF70
:101AF000229689919991089510919B00212F25FF9D
:101B0000FBCF00939C0008958A93802F082F0295A5
:101B10000F700A3010F4005D05C00A3018F0003173
:101B200008F4095CE9DF8F70082F0A3010F4005DBB
:101B300005C00A3018F0003108F4095CDDDF899136
:101B400008950E94420EC801D901442407C05524BB
:101B5000FC01E40DF51D0081CFDF439455244A16A6
:101B60005B06ACF3E6E00C94490E0E94420EC801FD
:101B7000D901442407C05524FC01E40DF51D008162
:101B8000C3DF439455244A165B06ACF3E6E00C949D
:101B9000490E00008895FECF0FE30DBF01E00EBF98
:101BA000C0E2D1E00E94540E002311F00E94660EA4
:101BB0000E94FA070E94C90D0C94C90D0024E8E0A8
:101BC000EA9532F0001F001C0416D0F3041AF8CF77
:101BD000001F402D00950895149F102D059F100D96
:101BE000049F002D110D08957791679157914791AA
:101BF000179011FA279037900895F9DF041B10E031
:101C000003C0F4DF041B150B20E030E005C0ECDF5F
:101C1000041B150B260B370BB8F010FC17C04791AF
:101C20000790E00FF11F0417100540E02407340768
:101C300058F436F406910024F101E01BF0090994F0
:101C4000E00FF11F27903790F101099411F4D6F7B6
:101C5000F1CF31960EF0319650E060E070E04791A0
:101C60004B3F48F089F34F3F29F04E3F11F07791F9
:101C7000679157914791041B150B260B370B39F3CE
:101C800018F3E7CF5A924A92BA93AA939A938A93F7
:101C900008955D804C80BB81AA8199818881F0E0A4
:101CA000EC0FFD1FEF01089501E0089520E008D03A
:101CB000E9F708953BBF27913BB702D0D9F70895C4
:101CC0002D9301501040202F212B08950CE2402E1F
:101CD0000DE1502E00E0602EF201362D6BBE079113
:101CE0001691F201EE5FFF4F3F4F3BBFA791B691B8
:101CF000F201362DEC5FFF4F3F4F3BBF47915791AD
:101D00006691242F252B262B21F0FA01362FD2DFC6
:101D100001C0CCDF07E0400E00E0501E601EA201B3
:101D2000662D4A335D416040B8F2089563089C0116
:101D30000000005C0040013A1D002452540024526F
:101D4000500024524F0030343030003038303000F2
:101D50003130303000323030300034303030003804
:101D600030303000303030310030303032003032FE
:101D70003030003031303000332E323120003230FC
:101D800031393031303200414E5247303853204AD9
:061D900049472046570000
:0400000300000000F9
:00000001FF
