:020000020000FC
:100000000C94D40B18951895189518951895189563
:100010001895189518951895189518951895189578
:1000200018951895189518950C94DE041895189540
:1000300018951895189518950C94C8041895189546
:100040000C94D3041895189518951895189518952B
:100050001895189518951895189518951895189538
:100060001895189518951895189518951895189528
:1000700018951895189518950C94E90418951895E5
:100080000C942E0518951895189518950000AB0638
:1000900009009A069C069E06A006A206A406A606CD
:1000A000A806AA0600007F060900DF06E606ED06A0
:1000B000F406FB0602070907100779069801890173
:1000C00001501040232BD1F70895AC0107C084E301
:1000D00098E0FC01CF010197EF2BD9F79801890136
:1000E00001501040232B99F7CA01089500B5046010
:1000F00000BDA89501B5086101BD00E001BD0AB3CE
:100100000E630ABB17B30FEF07BB24B30FEF04BB9B
:100110000FED02B90FEF0093640000E0009365005B
:100120001B9A1C98A8980FEF02BB08950BEF01BB18
:1001300000E0009398000FE00093990002E0009324
:100140009B0008E100939A0006E000939D00009157
:100150009A00006C00939A0008958A93DD9880E0DD
:100160002FC0082F10E0000F111FF801E651FC4FBF
:10017000008100931B0201E010E00E94780201E080
:1001800010E00E94C802082F10E0000F111FF801B4
:10019000E651FC4F00810C3129F4E7EBF1E00081DE
:1001A000006100832091B701082F10E0000F111F9C
:1001B000F801E651FC4F218304E610E07FDF8395D0
:1001C00042E00091E9030E94E60B801750F289910A
:1001D00008958A93DD9880E020C0082F10E0000F7A
:1001E000111FF801E651FC4F0081013091F4082FF6
:1001F00010E0000F111FF801E651FC4F018110E0E3
:1002000000601160ECEAF1E00083118301E00093EB
:10021000AE0104E610E052DF839542E00091E9036D
:100220000E94E60B8017D8F5082F10E0000F111F71
:10023000F801E651FC4F008100931B0201E010E041
:100240000E94780201E010E00E94C802082F10E02E
:10025000000F111FF801E651FC4F00810C3181F4B1
:10026000082F10E0000F111FF801E651FC4F01812B
:100270000F7E1091B7011F7E011759F206E410C0DE
:10028000082F10E0000F111FF801E651FC4F01810B
:100290001091B701011709F4A0CF06E401C003E5EE
:1002A000899108958A93DD9880E04CC0082F10E072
:1002B000000F111FF801E651FC4F00810A3451F480
:1002C00009E400931B0201E000931C0202E010E02D
:1002D0000E947802082F10E0000F111FF801E6516C
:1002E000FC4F008100931B02082F10E0000F111F2C
:1002F000F801E651FC4F018100931C0202E010E07E
:100300000E947802082F10E0000F111FF801E6513B
:10031000FC4F00810630A9F4082F10E0000F111FD8
:10032000F801E651FC4F01810093B101082F10E064
:10033000000F111FF801E651FC4F01810395009356
:10034000B201839542E00091E9030E94E60B801719
:1003500008F4ACCF899108958A93802FDD9806E048
:1003600000931B0280931C0202E010E00E947802BE
:100370008093B10183958093B2018991089500E043
:1003800010EE21E030E041E045BF42E045BFF8011A
:100390000995089500E00093AF0100E00093B001DB
:1003A00056D00895013039F4DB9A0AE010E00E943B
:1003B0006500D99A0895D9980AE010E00E94650076
:1003C000DB980895013099F4C09A0AE010E00E9489
:1003D0006500DA9AC29B17C00FEF11E0ECEAF1E07A
:1003E000008311830AE010E00E9465000895DA9806
:1003F0000AE010E00E946500C09808E40093B10193
:1004000009E40093B20108951B98102F10FDC29AC1
:1004100010FFC298C29B0CC0C09B0AC00FEF11E036
:10042000ECEAF1E0008311830AE010E00E9465002D
:1004300004E610E00E945E000895102F10FDC49A9B
:1004400010FFC49804E610E00E945E00089500E0EA
:10045000A9DF00E0B7DF00E0D7DF00E0EEDF0895BE
:1004600000E0C0990260C299046008958A93802FC9
:1004700081FB16F401E001C000E0A4DF04E110E01C
:100480000E94650082FB16F401E001C000E0BCDFC1
:1004900008EC10E00E946500899108951A9A01E025
:1004A00010E00E945E001B9A01E010E00E945E00D6
:1004B0001A9801E010E00E945E001B9801E010E035
:1004C0000E945E0008951B9801E010E00E945E000B
:1004D0001A9801E010E00E945E001B9A01E010E013
:1004E0000E945E001A9A01E010E00E945E000895EA
:1004F0009A938A93C80101E00093B50102E000934A
:10050000B50101E010E00E945E00C8DF01E0009349
:10051000B50102E00093B50101E010E00E945E0029
:100520000091B101BCD100E00093B30117C001E01C
:100530000093B50102E00093B5010091B30110E012
:10054000F801E55EFD4F0081AAD101E010E00E94B4
:100550005E00E3EBF1E00081039500830091B301BD
:1005600010E00817190718F301E00093B50102E045
:100570000093B501A8DF01E00093B50102E000930C
:10058000B50101E010E00E945E0089919991089503
:100590000E94520CD80182DF01E010E00E945E0050
:1005A0000091B2017CD100E00093B30138C01A9AE7
:1005B0000091650000610093650001E00093B501C2
:1005C00002E00093B50101E010E00E945E001B9A7A
:1005D0000091650008600093650001E00093B5019B
:1005E00002E00093B50101E010E00E945E001B985C
:1005F00000916500077F0093650001E010E00E9414
:100600005E002091B6010091B30110E0F801E954B9
:10061000FE4F2083E3EBF1E000810395008300911E
:10062000B30110E00A171B0708F070C00EEE02B904
:1006300000E00093B6011A9A0091650000610093F2
:10064000650001E00093B50102E00093B50101E00F
:1006500010E00E945E000AEE02B901E00093B501CD
:1006600002E00093B50190E880E01BC0092F0095DF
:10067000E6EBF1E0108110231083009165000F7EFE
:10068000009365001B9800916500077F009365004B
:10069000969501E00093B50101E010E00E945E0034
:1006A00083958830B8F41B9A009165000860009328
:1006B000650001E010E00E945E000A9BD7CFE6EBE8
:1006C000F1E00081092B0083009165000061009337
:1006D0006500D8CF0EEE02B901E00093B50102E04B
:1006E0000093B50101E010E00E945E000091B301AB
:1006F00010E0CD0101970817190708F058CF1A9894
:10070000009165000F7E0093650057CFDCDEE4E0CA
:100710000C94590C0E94500CC801D901BFDE01E0B5
:1007200010E00E945E000091B201B9D000E0009399
:10073000B30138C01A9A009165000061009365000A
:1007400001E00093B50102E00093B50101E010E083
:100750000E945E001B9A009165000860009365008E
:1007600001E00093B50102E00093B50101E010E063
:100770000E945E001B9800916500077F0093650052
:1007800001E010E00E945E002091B6010091B301EB
:1007900010E0FD01E00FF11F2083E3EBF1E00081A9
:1007A000039500830091B30110E00817190708F0C2
:1007B00072C00EEE02B900E00093B6011A9A0091E1
:1007C000650000610093650001E00093B50102E05F
:1007D0000093B50101E010E00E945E000AEE02B94C
:1007E00001E00093B50102E00093B50100E8502E4E
:1007F00044241BC0052D0095E6EBF1E01081102389
:100800001083009165000F7E009365001B98009196
:100810006500077F00936500569401E00093B501E1
:1008200001E010E00E945E00439408E04016B8F436
:100830001B9A0091650008600093650001E010E0DC
:100840000E945E000A9BD6CFE6EBF1E0008105290D
:10085000008300916500006100936500D7CF0EEE24
:1008600002B901E00093B50102E00093B50101E097
:1008700010E00E945E000091B30110E0FC0131978E
:100880000E171F0708F056CF1A98009165000F7ECB
:100890000093650055CF17DEE6E00C94570C8A9361
:1008A000802F0EEE02B900E00093B40122C01A9826
:1008B00000916500006100936500880F1B9A00910C
:1008C000650008600093650001E00093B50102E057
:1008D0000093B50101E010E00E945E001B980091BA
:1008E0006500077F00936500E4EBF1E0008103956C
:1008F00000830091B401083048F487FBC6F61A9AC9
:1009000000916500006100936500D7CF0AEE02B93F
:100910001A9A0091650000610093650001E0009360
:10092000B50102E00093B50101E010E00E945E0015
:100930001B9A0091650008600093650001E0009338
:10094000B50102E00093B50101E00093B50102E0BA
:100950000093B50101E00093B50102E00093B501F9
:1009600001E010E00E945E000EEE02B901E000938B
:10097000B50102E00093B50101E010E00E945E00C5
:100980001B9800916500077F009365008991089589
:100990002A931A930A931FB72BB72BBF1FBF099136
:1009A0001991299118952A931A930A931FB72BB777
:1009B0002BBF1FBF09911991299118952A931A935A
:1009C0000A931FB72BB72BBF1FBF0991199129910C
:1009D00018959A938A93FA93EA935A934A933A937F
:1009E0002A931A930A934FB75BB700919C00E2E0F9
:1009F000F9E020813181F901E65EFA4F0083E2E0FF
:100A0000F9E000811181F801E65EFA4F00810332BE
:100A100029F4E8EEF3E0008103950083E2E0F9E0D9
:100A2000808191810196E2E0F9E080839183883EA4
:100A300003E0900730F000E010E0E2E0F9E000832E
:100A400011835BBF4FBF0991199129913991499148
:100A50005991E991F9918991999118952A931A934D
:100A60000A931FB72BB72BBF1FBF0991199129916B
:100A70001895F8940E947600DC9AC798009165005A
:100A8000077F00936500009165000F7E009365006D
:100A90000E94CA0178940E9496000E94670808E4A8
:100AA0000093B10109E40093B201C79A0091650077
:100AB0000860009365000091650000610093650087
:100AC0000895D7DF0EC000911805013011F40E947F
:100AD00074060E94880500911905013011F40E94E6
:100AE0002307DD9A0091E803013038F00E94D70A0D
:100AF000E8EEF3E000810A950083009116050130CD
:100B000051F7009117050130F1F60E94B105E1CFD0
:100B10000AE200931B0201E010E00E94780201E06B
:100B200010E00E94C80223E030E000E411E00E94DF
:100B3000A90B0091B7010E948C0B03E20E94840B69
:100B400000911705002361F400911805002341F47A
:100B500000911905002321F404E110E00E946500D2
:100B600008959A938A9300E00093BF031BC000E5A9
:100B700000931B0201E010E00E9478024091BF0345
:100B800050E008E010E00E94F40B2FE732E0200F65
:100B9000311F08E010E00E948A03EFEBF3E00081D0
:100BA000039500830091BF03083208F300E000932F
:100BB000BF0392C04091BF0350E008E010E00E94E4
:100BC000F40BF801E158FD4F80814091BF0350E0E4
:100BD00008E010E00E94F40BF801E158FD4F068197
:100BE000801709F074C04091BF0350E008E010E0A6
:100BF0000E94F40BF801E158FD4F81818370409110
:100C0000BF0350E008E010E00E94F40BF801E15847
:100C1000FD4F07810370801709F059C04091BF0351
:100C200050E008E010E00E94F40BF801E158FD4F9D
:100C300000810F3F09F44BC04091BF0350E008E032
:100C400010E00E94F40BF801E158FD4F80814091C3
:100C5000BF0350E008E010E00E94F40BF801E158F7
:100C6000FD4F0681801799F54091BF0350E008E0E1
:100C700010E00E94F40BF801E158FD4F8181409192
:100C8000BF0350E008E010E00E94F40BF801E158C7
:100C9000FD4F07818017D9F423E030E004E411E030
:100CA0000E94A90B25E030E0C9014091BF0350E04C
:100CB00008E010E00E94F40B98010FE712E0020F29
:100CC000131F9C010E94BD0B03E20E94840BEFEBFB
:100CD000F3E00081039500830091BF03083208F41C
:100CE00069CF8991999108958A9300E00093BF0399
:100CF00014C024E030E004E711E00E94A90B23E0D7
:100D000030E009EB11E00E94BD0B03E20E94840B6E
:100D1000EFEBF3E00081039500830091BF030930FE
:100D200008F085C00091BF03ECE8F0E0FBBFF0E005
:100D30000C940B0C88E00FC080E10DC088E10BC063
:100D400080E209C088E207C080E305C088E303C0F1
:100D500080E401C088E402E600931B02082F0068CB
:100D600000931C0202E010E00E94780209E110E00A
:100D70000E94650000E500931B0201E010E00E9464
:100D8000780208E010E00E94C8020091B7011091BB
:100D9000BD01011779F70091B8011091BE0101174B
:100DA00049F723E030E008E411E00E94A90B00912C
:100DB000BF03E4EAF0E0FBBFF0E00C940B0C24E08E
:100DC00030E00CE411E00E94A90B99CF24E030E060
:100DD00001E511E00E94A90B92CF24E030E006E586
:100DE00011E00E94A90B8BCF24E030E00BE511E06D
:100DF0000E94A90B84CF24E030E000E611E00E94BD
:100E0000A90B7DCF24E030E005E611E00E94A90B9C
:100E100076CF24E030E00AE611E00E94A90B6FCF04
:100E200024E030E00FE611E00E94A90B68CF02E653
:100E300000931B0200E000931C0202E010E00E94FD
:100E40007802899108950E94500C20E080E090E0A3
:100E50000091AE01002359F044E250E020E030E080
:100E600001EC13E00E94640C00E00093AE0101E08D
:100E70000093BF0343C00091C00310E0F801E158A4
:100E8000FD4F3281022F10E0000F111F000F111FC4
:100E9000E1ECF3E0E00FF11F0091C00310E0E00F80
:100EA000F11F3083E0ECF3E00081039500830091B3
:100EB000C003043000F301E010E00E9465008429C3
:100EC0009529A3950A2FA02F083280F123E030E066
:100ED00009E711E00E94A90B0091BF030E948C0B4F
:100EE00024E230E001EC13E00E94BD0B03E20E941B
:100EF000840BEFEBF3E00081039500830091BF03C7
:100F00000E3008F070C003E600931B020091BF038F
:100F1000006100931C0202E010E00E94780206E0EB
:100F200010E00E94650080E090E0A0E0ECEAF1E0D3
:100F3000008111819C0120233123ECEAF1E0008142
:100F400011812017310711F200E500931B0201E027
:100F500010E00E9478022FE732E008E010E00E94E3
:100F60008A032FE732E00091BF0381D0202F2F3F6B
:100F700009F4A7CF422F01E010E00E94FC0B2801EA
:100F8000ECEAF1E000811181A20140235123452BBD
:100F9000F9F400E00093C0030091C003043008F0AE
:100FA00090CF30E0022F10E0000F111F000F111F33
:100FB000E1ECF3E0E00FF11F0091C00310E0E00F5F
:100FC000F11F3083E0ECF3E0008103950083E4CF70
:100FD0008C01042115210415150509F472CF00E0D8
:100FE0000093C00364CF03E600931B0200E000936C
:100FF0001C0202E010E00E947802E6E00C94570C1C
:1010000020E001C023952930A8F4F801408130E0A8
:10101000F901E358FE4F30814317A1F7F8014181F0
:101020004F7030E0F901EA57FE4F3081431751F716
:10103000022F08950FEF0895202F222311F428E0A6
:1010400003C02A9501C028E0422F01E010E00E9471
:10105000FC0BECEAF1E04081518104231523012BC4
:1010600021F4222381F32A95EFCF022F08950E94C5
:10107000520CB02FC9018C01C3DFA02F8C010A5F75
:101080001F4FBEDFAF3F11F00F3F11F40FEF1CC039
:10109000FC01218122952F70FC01178112951F7090
:1010A0003B2F121720F4125FB21708F4325F321789
:1010B00020F0131710F00FEF07C0131718F4BCDF60
:1010C000102F01C0102F012FE4E00C94590C00E008
:1010D00010E0E2E0F9E00083118300E010E0E4E0DA
:1010E000F9E00083118300E00093E80300E000933F
:1010F000160500E00093170500E00093E7030DC01C
:1011000000E02091E70330E0F901EB51FC4F008350
:10111000E7EEF3E00081039500830091E7030230DE
:1011200078F300E00093180500E000931905089596
:101130008A930091E6030735C9F50E94430B00939B
:10114000E9031091E90302E0109F0092E90300E037
:101150000093E7030EC00E94430B2091E70330E0A9
:10116000F901E651FC4F0083E7EEF3E000810395BF
:1011700000830091E7031091E903011760F30E94D7
:1011800052010E94E900802F04E20E94840B00912A
:10119000E5030E94840B0091E6030E94840B082F54
:1011A0000E94840B03E20E94840B93C10091E6032A
:1011B000023509F052C00E94430B0093E9031091DD
:1011C000E90302E0109F0092E90300E00093E703C7
:1011D0000EC00E94430B2091E70330E0F901E65175
:1011E000FC4F0083E7EEF3E000810E5F0083009187
:1011F000E7031091E903011760F30E94AD0004E2D8
:101200000E94840B0091E5030E94840B0091E60389
:101210000E94840B42E00091E9030E94E60B0E94C9
:101220008C0B00E00093E7030EC00091E70310E091
:10123000F801E651FC4F00810E948C0BE7EEF3E0D1
:101240000081039500830091E7031091E9030117E2
:1012500060F303E20E94840B3CC10091E603083571
:10126000D9F50E94430B0093E9031091E90302E0D2
:10127000109F0092E90300E00093E7030EC00E9474
:10128000430B2091E70330E0F901E651FC4F008366
:10129000E7EEF3E000810E5F00830091E703109119
:1012A000E903011760F30E94AD0004E20E94840B81
:1012B0000091E5030E94840B0091E6030E94840BD9
:1012C0000091EA030E948C0B0091EB030E948C0BAF
:1012D00003E20E94840BFDC00091E603043551F443
:1012E0000E94250B053411F401E001C000E00093D9
:1012F0001605EFC00091E603003551F40E94250B5E
:10130000053411F401E001C000E000931705E1C0CD
:101310000091E6030F3451F40E94250B053411F4BB
:1013200001E001C000E000931805D3C00091E6037E
:101330000D3451F40E94250B053411F401E001C075
:1013400000E000931905C5C00091E603033499F449
:1013500004E20E94840B0091E5030E94840B00913B
:10136000E6030E94840B0091B1010E948C0B03E202
:101370000E94840BAEC00091E6030834B9F40E94C9
:10138000430B0E94AC0104E20E94840B0091E50330
:101390000E94840B0091E6030E94840B0091B1012E
:1013A0000E948C0B03E20E94840B93C00091E60321
:1013B000013409F052C00E94430B0093E9031091DD
:1013C000E90302E0109F0092E90300E00093E703C5
:1013D0000EC00E94430B2091E70330E0F901E65173
:1013E000FC4F0083E7EEF3E000810E5F0083009185
:1013F000E7031091E903011760F30E94AD0004E2D6
:101400000E94840B0091E5030E94840B0091E60387
:101410000E94840B42E00091E9030E94E60B0E94C7
:101420008C0B00E00093E7030EC00091E70310E08F
:10143000F801E651FC4F00810E948C0BE7EEF3E0CF
:101440000081039500830091E7031091E9030117E0
:1014500060F303E20E94840B3CC00091E603093470
:10146000C1F506E300931B0201E010E00E94780240
:1014700001E010E00E94C80206E300931B02009105
:10148000B701016000931C0202E010E00E947802A4
:101490000AE010E00E94650006E300931B02009141
:1014A000B70100931C0202E010E00E9478020AE0FB
:1014B00010E00E94650004E20E94840B0091E503A5
:1014C0000E94840B0091E6030E94840B03E20E94B9
:1014D000840B899108958A930091E603023599F46B
:1014E0000E943002802F04E20E94840B22E030E050
:1014F00005EE13E00E94A90B082F0E948C0B03E25B
:101500000E94840B52C00091E603073569F40E94E3
:10151000430B802F082F0E9436020AE010E00E9441
:1015200065000E94300241C00091E603063409F5CF
:1015300004E20E94840B0091E5030E94840B009159
:10154000E6030E94840B25E030E00FE811E00E94E2
:10155000A90B28E030E005E911E00E94A90B2DE07D
:1015600030E00EE911E00E94A90B03E20E94840B17
:101570001CC00091E6030D3419F40E94BF0115C090
:101580000091E603033489F404E20E94840B009185
:10159000E5030E94840B0091E6030E94840B01E4A2
:1015A0000E94840B03E20E94840B899108950E949B
:1015B000250B003429F00E94250B0332E1F7089532
:1015C0000E94250B0093E5030E94250B0093E60380
:1015D0000091E503023511F4ABDD05C00091E50390
:1015E000083409F478DF0E94250B033221F00E94B1
:1015F000250B0332E1F70895F80100E010E02081A7
:10160000203330F020812A3318F40081005308C0C1
:101610002081213428F02081273410F400810753E1
:101620000295007F2181203330F021812A3318F484
:101630001181105308C02181213428F021812734E1
:1016400010F411811753012B0895AC01E4E0F9E087
:1016500000811181F801E65EFA4F0081E4E0F9E0D3
:10166000808191810196E4E0F9E080839183883E56
:1016700013E0910730F020E030E0E4E0F9E020836F
:101680003183CA0108959A938A932297E4E0F9E09E
:1016900000811181F801E65EFA4F00810883E4E0E1
:1016A000F9E0808191810196E4E0F9E08083918303
:1016B000883E03E0900730F000E010E0E4E0F9E05D
:1016C00000831183E4E0F9E000811181F801E65E16
:1016D000FA4F00810983E4E0F9E08081918101966D
:1016E000E4E0F9E080839183883E03E0900730F0E6
:1016F00000E010E0E4E0F9E0008311838E017CDF7C
:10170000229689919991089510919B00212F25FF90
:10171000FBCF00939C0008958A93802F082F029599
:101720000F700A3010F4005D05C00A3018F0003167
:1017300008F4095CE9DF8F70082F0A3010F4005DAF
:1017400005C00A3018F0003108F4095CDDDF89912A
:1017500008950E94500CC801D901442407C05524A3
:10176000FC01E40DF51D0081CFDF439455244A169A
:101770005B06ACF3E6E00C94570C0E94500CC801D9
:10178000D901442407C05524FC01E40DF51D008156
:10179000C3DF439455244A165B06ACF3E6E00C9491
:1017A000570C00008895FECF0FE30DBF01E00EBF80
:1017B000C0E2D1E00E94620C002311F00E947D0C77
:1017C0000E9461050E94D10B0C94D10B0024E8E02B
:1017D000EA9532F0001F001C0416D0F3041AF8CF6B
:1017E000001F402D00950895149F102D059F100D8A
:1017F000049F002D110D08954A951AF0000F111F36
:10180000FBCF08957791679157914791179011FAFF
:10181000279037900895F9DF041B10E003C0F4DF30
:10182000041B150B20E030E005C0ECDF041B150B9A
:10183000260B370BB8F010FC17C047910790E00F4C
:10184000F11F0417100540E02407340758F436F45C
:1018500006910024F101E01BF0090994E00FF11F4B
:1018600027903790F101099411F4D6F7F1CF319612
:101870000EF0319650E060E070E047914B3F48F049
:1018800089F34F3F29F04E3F11F0779167915791BF
:101890004791041B150B260B370B39F318F3E7CFD1
:1018A0005A924A92BA93AA939A938A9308955D8022
:1018B0004C80BB81AA8199818881F0E0EC0FFD1FEB
:1018C000EF01089501E00895F80101C02193BA01E4
:1018D00041505040672BD1F7089520E008D0E9F738
:1018E00008953BBF27913BB702D0D9F708952D93B8
:1018F00001501040202F212B08950AE5402E09E1C8
:10190000502E00E0602EF201362D6BBE079116912D
:10191000F201EE5FFF4F3F4F3BBFA791B691F2013F
:10192000362DEC5FFF4F3F4F3BBF4791579166917C
:10193000242F252B262B21F0FA01362FD2DF01C0D0
:10194000CCDF07E0400E00E0501E601EA201662DB5
:10195000483659416040B8F208955A07AC0100007A
:10196000006C0040016819002452540024525000B9
:1019700024524F00303230300030343030003038B4
:1019800030300031303030003230303000343030E0
:1019900030003830303000303030310030313030CD
:1019A0000024524D00020408102040800001000075
:1019B00000000000000100332E33332000323031AC
:1019C000383131323900414E4D473038204A49478D
:0419D0002046570056
:0400000300000000F9
:00000001FF
